{
  "_format": "hh-sol-artifact-1",
  "contractName": "Amm",
  "sourceName": "contracts/amm/Amm.sol",
  "abi": [
    {
      "anonymous": false,
      "inputs": [
        {
          "indexed": true,
          "internalType": "address",
          "name": "provider",
          "type": "address"
        },
        {
          "indexed": false,
          "internalType": "uint256",
          "name": "amount0",
          "type": "uint256"
        },
        {
          "indexed": false,
          "internalType": "uint256",
          "name": "amount1",
          "type": "uint256"
        },
        {
          "indexed": false,
          "internalType": "uint256",
          "name": "liquidity",
          "type": "uint256"
        },
        {
          "indexed": false,
          "internalType": "uint256",
          "name": "totalLiquidity",
          "type": "uint256"
        }
      ],
      "name": "AddLiquidity",
      "type": "event"
    },
    {
      "anonymous": false,
      "inputs": [
        {
          "indexed": false,
          "internalType": "address",
          "name": "sender",
          "type": "address"
        },
        {
          "indexed": false,
          "internalType": "uint256",
          "name": "amountIn",
          "type": "uint256"
        },
        {
          "indexed": false,
          "internalType": "uint256",
          "name": "amountOut",
          "type": "uint256"
        },
        {
          "indexed": false,
          "internalType": "uint256",
          "name": "priceAfter",
          "type": "uint256"
        },
        {
          "indexed": false,
          "internalType": "bool",
          "name": "isSell",
          "type": "bool"
        }
      ],
      "name": "CalcPriceAfterSwap",
      "type": "event"
    },
    {
      "anonymous": false,
      "inputs": [
        {
          "indexed": false,
          "internalType": "address",
          "name": "clearingHouse",
          "type": "address"
        }
      ],
      "name": "ClearingHouseChanged",
      "type": "event"
    },
    {
      "anonymous": false,
      "inputs": [
        {
          "indexed": true,
          "internalType": "uint256",
          "name": "deadline",
          "type": "uint256"
        },
        {
          "indexed": false,
          "internalType": "uint256",
          "name": "adjustmentStep",
          "type": "uint256"
        },
        {
          "indexed": false,
          "internalType": "uint256",
          "name": "maHalfTime",
          "type": "uint256"
        }
      ],
      "name": "CommitNewParameters",
      "type": "event"
    },
    {
      "anonymous": false,
      "inputs": [
        {
          "indexed": false,
          "internalType": "address",
          "name": "liquidityProvider",
          "type": "address"
        }
      ],
      "name": "LiquidityProviderChanged",
      "type": "event"
    },
    {
      "anonymous": false,
      "inputs": [
        {
          "indexed": false,
          "internalType": "address",
          "name": "marketTaker",
          "type": "address"
        }
      ],
      "name": "MarketTakerChanged",
      "type": "event"
    },
    {
      "anonymous": false,
      "inputs": [
        {
          "indexed": false,
          "internalType": "uint256",
          "name": "adjustmentStep",
          "type": "uint256"
        },
        {
          "indexed": false,
          "internalType": "uint256",
          "name": "maHalfTime",
          "type": "uint256"
        }
      ],
      "name": "NewParameters",
      "type": "event"
    },
    {
      "anonymous": false,
      "inputs": [
        {
          "indexed": true,
          "internalType": "address",
          "name": "previousOwner",
          "type": "address"
        },
        {
          "indexed": true,
          "internalType": "address",
          "name": "newOwner",
          "type": "address"
        }
      ],
      "name": "OwnershipTransferred",
      "type": "event"
    },
    {
      "anonymous": false,
      "inputs": [
        {
          "indexed": false,
          "internalType": "address",
          "name": "account",
          "type": "address"
        }
      ],
      "name": "Paused",
      "type": "event"
    },
    {
      "anonymous": false,
      "inputs": [
        {
          "indexed": false,
          "internalType": "uint256",
          "name": "initialA",
          "type": "uint256"
        },
        {
          "indexed": false,
          "internalType": "uint256",
          "name": "futureA",
          "type": "uint256"
        },
        {
          "indexed": false,
          "internalType": "uint256",
          "name": "initialGamma",
          "type": "uint256"
        },
        {
          "indexed": false,
          "internalType": "uint256",
          "name": "futureGamma",
          "type": "uint256"
        },
        {
          "indexed": false,
          "internalType": "uint256",
          "name": "initialTime",
          "type": "uint256"
        },
        {
          "indexed": false,
          "internalType": "uint256",
          "name": "futureTime",
          "type": "uint256"
        }
      ],
      "name": "RampAgamma",
      "type": "event"
    },
    {
      "anonymous": false,
      "inputs": [
        {
          "indexed": true,
          "internalType": "address",
          "name": "provider",
          "type": "address"
        },
        {
          "indexed": false,
          "internalType": "uint256",
          "name": "amount0",
          "type": "uint256"
        },
        {
          "indexed": false,
          "internalType": "uint256",
          "name": "amount1",
          "type": "uint256"
        },
        {
          "indexed": false,
          "internalType": "uint256",
          "name": "liquidity",
          "type": "uint256"
        },
        {
          "indexed": false,
          "internalType": "uint256",
          "name": "totalLiquidity",
          "type": "uint256"
        }
      ],
      "name": "RemoveLiquidity",
      "type": "event"
    },
    {
      "anonymous": false,
      "inputs": [
        {
          "indexed": false,
          "internalType": "address",
          "name": "sender",
          "type": "address"
        },
        {
          "indexed": false,
          "internalType": "uint256",
          "name": "accumulatedFees",
          "type": "uint256"
        },
        {
          "indexed": false,
          "internalType": "uint256",
          "name": "loss",
          "type": "uint256"
        },
        {
          "indexed": false,
          "internalType": "uint256",
          "name": "newD",
          "type": "uint256"
        },
        {
          "indexed": false,
          "internalType": "uint256",
          "name": "priceScale",
          "type": "uint256"
        },
        {
          "indexed": false,
          "internalType": "uint256",
          "name": "priceOracle",
          "type": "uint256"
        }
      ],
      "name": "Repegging",
      "type": "event"
    },
    {
      "anonymous": false,
      "inputs": [
        {
          "indexed": false,
          "internalType": "uint256",
          "name": "currentA",
          "type": "uint256"
        },
        {
          "indexed": false,
          "internalType": "uint256",
          "name": "currentGamma",
          "type": "uint256"
        },
        {
          "indexed": false,
          "internalType": "uint256",
          "name": "time",
          "type": "uint256"
        }
      ],
      "name": "StopRampA",
      "type": "event"
    },
    {
      "anonymous": false,
      "inputs": [
        {
          "indexed": true,
          "internalType": "address",
          "name": "buyer",
          "type": "address"
        },
        {
          "indexed": false,
          "internalType": "uint256",
          "name": "i",
          "type": "uint256"
        },
        {
          "indexed": false,
          "internalType": "uint256",
          "name": "dx",
          "type": "uint256"
        },
        {
          "indexed": false,
          "internalType": "uint256",
          "name": "j",
          "type": "uint256"
        },
        {
          "indexed": false,
          "internalType": "uint256",
          "name": "dy",
          "type": "uint256"
        },
        {
          "indexed": false,
          "internalType": "bool",
          "name": "isSell",
          "type": "bool"
        }
      ],
      "name": "TokenExchange",
      "type": "event"
    },
    {
      "anonymous": false,
      "inputs": [
        {
          "indexed": false,
          "internalType": "address",
          "name": "account",
          "type": "address"
        }
      ],
      "name": "Unpaused",
      "type": "event"
    },
    {
      "inputs": [
        {
          "internalType": "uint256",
          "name": "amount0Desired",
          "type": "uint256"
        },
        {
          "internalType": "uint256",
          "name": "amount1Desired",
          "type": "uint256"
        },
        {
          "internalType": "uint256",
          "name": "minLiquidity",
          "type": "uint256"
        }
      ],
      "name": "addLiquidity",
      "outputs": [
        {
          "internalType": "uint256",
          "name": "",
          "type": "uint256"
        },
        {
          "internalType": "uint256",
          "name": "",
          "type": "uint256"
        },
        {
          "internalType": "uint256",
          "name": "",
          "type": "uint256"
        }
      ],
      "stateMutability": "nonpayable",
      "type": "function"
    },
    {
      "inputs": [],
      "name": "applyNewParameters",
      "outputs": [],
      "stateMutability": "nonpayable",
      "type": "function"
    },
    {
      "inputs": [
        {
          "internalType": "uint256",
          "name": "amount0Desired",
          "type": "uint256"
        },
        {
          "internalType": "uint256",
          "name": "amount1Desired",
          "type": "uint256"
        }
      ],
      "name": "calcLiquidityByTokenAmounts",
      "outputs": [
        {
          "internalType": "uint256",
          "name": "",
          "type": "uint256"
        }
      ],
      "stateMutability": "view",
      "type": "function"
    },
    {
      "inputs": [
        {
          "internalType": "uint256",
          "name": "liquidity",
          "type": "uint256"
        }
      ],
      "name": "calcTokenAmountsByLiquidity",
      "outputs": [
        {
          "internalType": "uint256",
          "name": "amount0",
          "type": "uint256"
        },
        {
          "internalType": "uint256",
          "name": "amount1",
          "type": "uint256"
        }
      ],
      "stateMutability": "view",
      "type": "function"
    },
    {
      "inputs": [],
      "name": "candidate",
      "outputs": [
        {
          "internalType": "address",
          "name": "",
          "type": "address"
        }
      ],
      "stateMutability": "view",
      "type": "function"
    },
    {
      "inputs": [
        {
          "internalType": "uint256",
          "name": "newAdjustmentStep",
          "type": "uint256"
        },
        {
          "internalType": "uint256",
          "name": "newMAHalfTime",
          "type": "uint256"
        }
      ],
      "name": "commitNewParameters",
      "outputs": [],
      "stateMutability": "nonpayable",
      "type": "function"
    },
    {
      "inputs": [],
      "name": "getA",
      "outputs": [
        {
          "internalType": "uint256",
          "name": "",
          "type": "uint256"
        }
      ],
      "stateMutability": "view",
      "type": "function"
    },
    {
      "inputs": [
        {
          "internalType": "uint256",
          "name": "i",
          "type": "uint256"
        }
      ],
      "name": "getBalances",
      "outputs": [
        {
          "internalType": "uint256",
          "name": "",
          "type": "uint256"
        }
      ],
      "stateMutability": "view",
      "type": "function"
    },
    {
      "inputs": [
        {
          "internalType": "uint256",
          "name": "i",
          "type": "uint256"
        }
      ],
      "name": "getCoins",
      "outputs": [
        {
          "internalType": "address",
          "name": "",
          "type": "address"
        }
      ],
      "stateMutability": "view",
      "type": "function"
    },
    {
      "inputs": [
        {
          "internalType": "uint256",
          "name": "i",
          "type": "uint256"
        },
        {
          "internalType": "uint256",
          "name": "j",
          "type": "uint256"
        },
        {
          "internalType": "uint256",
          "name": "dx",
          "type": "uint256"
        },
        {
          "internalType": "bool",
          "name": "isSell",
          "type": "bool"
        }
      ],
      "name": "getDy",
      "outputs": [
        {
          "internalType": "uint256",
          "name": "",
          "type": "uint256"
        }
      ],
      "stateMutability": "view",
      "type": "function"
    },
    {
      "inputs": [],
      "name": "getGamma",
      "outputs": [
        {
          "internalType": "uint256",
          "name": "",
          "type": "uint256"
        }
      ],
      "stateMutability": "view",
      "type": "function"
    },
    {
      "inputs": [],
      "name": "getPriceCurrent",
      "outputs": [
        {
          "internalType": "uint256",
          "name": "",
          "type": "uint256"
        }
      ],
      "stateMutability": "view",
      "type": "function"
    },
    {
      "inputs": [],
      "name": "getPriceLast",
      "outputs": [
        {
          "internalType": "uint256",
          "name": "",
          "type": "uint256"
        }
      ],
      "stateMutability": "view",
      "type": "function"
    },
    {
      "inputs": [],
      "name": "getPriceOracle",
      "outputs": [
        {
          "internalType": "uint256",
          "name": "",
          "type": "uint256"
        }
      ],
      "stateMutability": "view",
      "type": "function"
    },
    {
      "inputs": [],
      "name": "getPriceScale",
      "outputs": [
        {
          "internalType": "uint256",
          "name": "",
          "type": "uint256"
        }
      ],
      "stateMutability": "view",
      "type": "function"
    },
    {
      "inputs": [
        {
          "internalType": "uint256",
          "name": "roundId",
          "type": "uint256"
        }
      ],
      "name": "getRoundData",
      "outputs": [
        {
          "internalType": "uint256",
          "name": "",
          "type": "uint256"
        },
        {
          "internalType": "uint256",
          "name": "",
          "type": "uint256"
        },
        {
          "internalType": "uint256",
          "name": "",
          "type": "uint256"
        }
      ],
      "stateMutability": "view",
      "type": "function"
    },
    {
      "inputs": [],
      "name": "getTotalLiquidity",
      "outputs": [
        {
          "internalType": "uint256",
          "name": "",
          "type": "uint256"
        }
      ],
      "stateMutability": "view",
      "type": "function"
    },
    {
      "inputs": [
        {
          "internalType": "uint256",
          "name": "interval",
          "type": "uint256"
        }
      ],
      "name": "getTwapMarkPrice",
      "outputs": [
        {
          "internalType": "uint256",
          "name": "",
          "type": "uint256"
        }
      ],
      "stateMutability": "view",
      "type": "function"
    },
    {
      "inputs": [
        {
          "components": [
            {
              "internalType": "uint256",
              "name": "A",
              "type": "uint256"
            },
            {
              "internalType": "uint256",
              "name": "gamma",
              "type": "uint256"
            },
            {
              "internalType": "uint256",
              "name": "adjustmentStep",
              "type": "uint256"
            },
            {
              "internalType": "uint256",
              "name": "maHalfTime",
              "type": "uint256"
            },
            {
              "internalType": "uint256",
              "name": "initialPrice",
              "type": "uint256"
            },
            {
              "internalType": "address",
              "name": "baseToken",
              "type": "address"
            },
            {
              "internalType": "address",
              "name": "quoteToken",
              "type": "address"
            },
            {
              "internalType": "address",
              "name": "clearingHouse",
              "type": "address"
            },
            {
              "internalType": "address",
              "name": "marketTaker",
              "type": "address"
            },
            {
              "internalType": "address",
              "name": "liquidityProvider",
              "type": "address"
            }
          ],
          "internalType": "struct IAmm.InitializeParams",
          "name": "params",
          "type": "tuple"
        }
      ],
      "name": "initialize",
      "outputs": [],
      "stateMutability": "nonpayable",
      "type": "function"
    },
    {
      "inputs": [],
      "name": "latestRoundData",
      "outputs": [
        {
          "internalType": "uint256",
          "name": "",
          "type": "uint256"
        },
        {
          "internalType": "uint256",
          "name": "",
          "type": "uint256"
        },
        {
          "internalType": "uint256",
          "name": "",
          "type": "uint256"
        }
      ],
      "stateMutability": "view",
      "type": "function"
    },
    {
      "inputs": [],
      "name": "owner",
      "outputs": [
        {
          "internalType": "address",
          "name": "",
          "type": "address"
        }
      ],
      "stateMutability": "view",
      "type": "function"
    },
    {
      "inputs": [],
      "name": "pause",
      "outputs": [],
      "stateMutability": "nonpayable",
      "type": "function"
    },
    {
      "inputs": [],
      "name": "paused",
      "outputs": [
        {
          "internalType": "bool",
          "name": "",
          "type": "bool"
        }
      ],
      "stateMutability": "view",
      "type": "function"
    },
    {
      "inputs": [
        {
          "internalType": "uint256",
          "name": "futureA",
          "type": "uint256"
        },
        {
          "internalType": "uint256",
          "name": "futureGamma",
          "type": "uint256"
        },
        {
          "internalType": "uint256",
          "name": "futureTime",
          "type": "uint256"
        }
      ],
      "name": "rampAGamma",
      "outputs": [],
      "stateMutability": "nonpayable",
      "type": "function"
    },
    {
      "inputs": [
        {
          "internalType": "uint256",
          "name": "liquidity",
          "type": "uint256"
        },
        {
          "internalType": "uint256",
          "name": "minAmount0",
          "type": "uint256"
        },
        {
          "internalType": "uint256",
          "name": "minAmount1",
          "type": "uint256"
        }
      ],
      "name": "removeLiquidity",
      "outputs": [
        {
          "internalType": "uint256",
          "name": "amount0",
          "type": "uint256"
        },
        {
          "internalType": "uint256",
          "name": "amount1",
          "type": "uint256"
        }
      ],
      "stateMutability": "nonpayable",
      "type": "function"
    },
    {
      "inputs": [],
      "name": "renounceOwnership",
      "outputs": [],
      "stateMutability": "nonpayable",
      "type": "function"
    },
    {
      "inputs": [],
      "name": "revertNewParameters",
      "outputs": [],
      "stateMutability": "nonpayable",
      "type": "function"
    },
    {
      "inputs": [
        {
          "internalType": "address",
          "name": "clearingHouseArg",
          "type": "address"
        }
      ],
      "name": "setClearingHouse",
      "outputs": [],
      "stateMutability": "nonpayable",
      "type": "function"
    },
    {
      "inputs": [
        {
          "internalType": "address",
          "name": "liquidityProviderArg",
          "type": "address"
        }
      ],
      "name": "setLiquidityProvider",
      "outputs": [],
      "stateMutability": "nonpayable",
      "type": "function"
    },
    {
      "inputs": [
        {
          "internalType": "address",
          "name": "marketTakerArg",
          "type": "address"
        }
      ],
      "name": "setMarketTaker",
      "outputs": [],
      "stateMutability": "nonpayable",
      "type": "function"
    },
    {
      "inputs": [
        {
          "internalType": "address",
          "name": "newOwner",
          "type": "address"
        }
      ],
      "name": "setOwner",
      "outputs": [],
      "stateMutability": "nonpayable",
      "type": "function"
    },
    {
      "inputs": [
        {
          "internalType": "uint256",
          "name": "i",
          "type": "uint256"
        },
        {
          "internalType": "uint256",
          "name": "j",
          "type": "uint256"
        },
        {
          "internalType": "uint256",
          "name": "dx",
          "type": "uint256"
        },
        {
          "internalType": "bool",
          "name": "isSell",
          "type": "bool"
        }
      ],
      "name": "simulatedSwap",
      "outputs": [
        {
          "internalType": "uint256",
          "name": "priceAfter",
          "type": "uint256"
        },
        {
          "internalType": "uint256",
          "name": "amount0",
          "type": "uint256"
        },
        {
          "internalType": "uint256",
          "name": "amount1",
          "type": "uint256"
        }
      ],
      "stateMutability": "nonpayable",
      "type": "function"
    },
    {
      "inputs": [
        {
          "internalType": "uint256",
          "name": "i",
          "type": "uint256"
        },
        {
          "internalType": "uint256",
          "name": "j",
          "type": "uint256"
        },
        {
          "internalType": "uint256",
          "name": "dx",
          "type": "uint256"
        },
        {
          "internalType": "uint256",
          "name": "dyLimit",
          "type": "uint256"
        },
        {
          "internalType": "bool",
          "name": "isSell",
          "type": "bool"
        }
      ],
      "name": "simulatedSwapInternal",
      "outputs": [
        {
          "internalType": "uint256",
          "name": "",
          "type": "uint256"
        }
      ],
      "stateMutability": "nonpayable",
      "type": "function"
    },
    {
      "inputs": [],
      "name": "stopRampAGamma",
      "outputs": [],
      "stateMutability": "nonpayable",
      "type": "function"
    },
    {
      "inputs": [
        {
          "internalType": "uint256",
          "name": "i",
          "type": "uint256"
        },
        {
          "internalType": "uint256",
          "name": "j",
          "type": "uint256"
        },
        {
          "internalType": "uint256",
          "name": "dx",
          "type": "uint256"
        },
        {
          "internalType": "uint256",
          "name": "dyLimit",
          "type": "uint256"
        },
        {
          "internalType": "bool",
          "name": "isSell",
          "type": "bool"
        }
      ],
      "name": "swap",
      "outputs": [
        {
          "internalType": "uint256",
          "name": "",
          "type": "uint256"
        }
      ],
      "stateMutability": "nonpayable",
      "type": "function"
    },
    {
      "inputs": [],
      "name": "unpause",
      "outputs": [],
      "stateMutability": "nonpayable",
      "type": "function"
    },
    {
      "inputs": [],
      "name": "updateOwner",
      "outputs": [],
      "stateMutability": "nonpayable",
      "type": "function"
    }
  ],
  "bytecode": "0x608060405234801561001057600080fd5b50615d8180620000216000396000f3fe608060405234801561001057600080fd5b50600436106102275760003560e01c80637b2369d411610130578063cf4e6696116100b8578063e57f15651161007c578063e57f156514610436578063e624c4bc1461043e578063fca513a814610451578063fcddb3cc14610459578063feaf968c1461046c57610227565b8063cf4e6696146103ed578063d1cd61c114610400578063d2c9663614610413578063d46300fd1461041b578063e0b09a061461042357610227565b80638da5cb5b116100ff5780638da5cb5b146103ba578063b136fb9b146103c2578063b26e64be146103ca578063bc5920ba146103dd578063cde5d81b146103e557610227565b80637b2369d4146103845780637c1152b91461038c5780638456cb591461039f578063857620e1146103a757610227565b80633f4ba83a116101b35780635c975abb116101825780635c975abb146103395780636c8381f81461034e578063715018a6146103565780637158a5381461035e578063724718901461037157610227565b80633f4ba83a146102f8578063422f104314610300578063449323d814610313578063490adbaf1461032657610227565b806313af4035116101fa57806313af4035146102ad57806329cddf22146102c05780633473fbe5146102d557806335c7e925146102dd57806335c990e3146102e557610227565b80630720da521461022c5780630721547e14610257578063084fa68b146102785780630e3f707c1461028d575b600080fd5b61023f61023a366004614f5b565b610474565b60405161024e93929190615a0c565b60405180910390f35b61026a610265366004614f5b565b6104e3565b60405161024e9291906159b5565b61028b610286366004614fac565b610603565b005b6102a061029b366004614f5b565b6109bc565b60405161024e91906150da565b61028b6102bb366004614ded565b6109f3565b6102c8610ad6565b60405161024e91906159ac565b6102c8610aee565b6102c8610b7f565b6102c86102f3366004614f5b565b610b85565b61028b610ced565b61023f61030e366004614fac565b610d36565b61028b610321366004614ded565b611540565b6102c8610334366004614f5b565b611604565b610341611630565b60405161024e919061518e565b6102a0611639565b61028b611648565b6102c861036c366004615044565b6116dd565b6102c861037f366004615004565b611780565b6102c8611800565b61023f61039a366004615004565b611807565b61028b611a35565b61026a6103b5366004614fac565b611a7c565b6102a0611e26565b61028b611e35565b6102c86103d8366004615044565b611f40565b61028b611f8a565b61028b61204d565b6102c86103fb366004614f8b565b612093565b61028b61040e366004614f8b565b612509565b6102c8612622565b6102c8612629565b61028b610431366004614eb3565b61263a565b61028b6128ef565b61028b61044c366004614ded565b6129c7565b6102c8612a80565b61028b610467366004614ded565b612a87565b61023f612b40565b600080600080610115858154811061049c57634e487b7160e01b600052603260045260246000fd5b600091825260209182902060408051606081018252600393909302909101805480845260018201549484018590526002909101549290910182905297919650945092505050565b6000806001831161050f5760405162461bcd60e51b815260040161050690615936565b60405180910390fd5b600060ff54116105315760405162461bcd60e51b815260040161050690615423565b60ff548311156105535760405162461bcd60e51b815260040161050690615466565b61055e600184615c71565b9250610568614c97565b60005b60028160ff1610156105f05760ff54856101078360ff16600281106105a057634e487b7160e01b600052603260045260246000fd5b01546105ac9190615c13565b6105b69190615acc565b828260ff16600281106105d957634e487b7160e01b600052603260045260246000fd5b6020020152806105e881615cd7565b91505061056b565b5080516020909101519094909350915050565b61060b612bee565b6001600160a01b031661061c611e26565b6001600160a01b0316146106425760405162461bcd60e51b8152600401610506906154c6565b6001600a612710610654600280615b32565b61065e9190615c13565b6106689190615acc565b6106729190615c71565b83116106905760405162461bcd60e51b815260040161050690615781565b61271061069e600280615b32565b6106a89190615c13565b6106b590620186a0615c13565b6106c0906001615ab4565b83106106de5760405162461bcd60e51b815260040161050690615381565b6106ee60016402540be400615c71565b821161070c5760405162461bcd60e51b8152600401610506906153c2565b61071e66470de4df8200006001615ab4565b821061073c5760405162461bcd60e51b8152600401610506906151ee565b61074a600162015180615c71565b61010e546107589190615ab4565b610760612bfd565b1161077d5760405162461bcd60e51b81526004016105069061588a565b61078b600162015180615c71565b610793612bfd565b61079d9190615ab4565b81116107bb5760405162461bcd60e51b8152600401610506906158ab565b60006107c5612c01565b905060006107db82825b60200201516080612d13565b90506107ef818360015b6020020151612d53565b825190915060009061080987670de0b6b3a7640000615c13565b6108139190615acc565b9050610828600a670de0b6b3a7640000615c13565b610833906001615ab4565b81106108515760405162461bcd60e51b8152600401610506906153a1565b6001610866600a670de0b6b3a7640000615acc565b6108709190615c71565b811161088e5760405162461bcd60e51b8152600401610506906152de565b60208301516108a586670de0b6b3a7640000615c13565b6108af9190615acc565b90506108c4600a670de0b6b3a7640000615c13565b6108cf906001615ab4565b81106108ed5760405162461bcd60e51b8152600401610506906157c1565b6001610902600a670de0b6b3a7640000615acc565b61090c9190615c71565b811161092a5760405162461bcd60e51b81526004016105069061564c565b61010d829055610938612bfd565b61010e556000610949876080612d13565b90506109558187612d53565b610112869055610111819055845160208601519192507fe35f0559b0642164e286b30df2077ec3a05426617a25db7578fd20ba39a6cd0591899089610998612bfd565b8a6040516109ab96959493929190615a62565b60405180910390a150505050505050565b600061010b82600281106109e057634e487b7160e01b600052603260045260246000fd5b01546001600160a01b031690505b919050565b6109fb612bee565b6001600160a01b0316610a0c611e26565b6001600160a01b031614610a325760405162461bcd60e51b8152600401610506906154c6565b6001600160a01b038116610a585760405162461bcd60e51b81526004016105069061598c565b6033546001600160a01b0382811691161415610a865760405162461bcd60e51b815260040161050690615486565b6034546001600160a01b0382811691161415610ab45760405162461bcd60e51b81526004016105069061533d565b603480546001600160a01b0319166001600160a01b0392909216919091179055565b6000610ae0612c01565b60015b602002015190505b90565b60ff5460009015610b77576000610b0f6001600064174876e8006001611780565b610b1c9062989680615c13565b90506000610b346001600064174876e8006000611780565b610b419062989680615c13565b905081610102541015610b5657509050610aeb565b80610102541115610b6a579150610aeb9050565b6101025492505050610aeb565b506101005490565b60ff5490565b600080600080610b93612b40565b9250925092508460001480610ba6575082155b15610bb5575091506109ee9050565b600085610bc0612bfd565b610bca9190615c71565b905080821015610be057829450505050506109ee565b81600081610bec612bfd565b610bf69190615c71565b90506000610c048287615c13565b905060005b87610c3c5782610c235786985050505050505050506109ee565b610c2d8383615acc565b985050505050505050506109ee565b610c47600189615c71565b9750600080610c558a610474565b9250925050868111610c8857610c6b8787615c71565b610c759083615c13565b610c7f9085615ab4565b93505050610cc0565b610c928187615c71565b9250610c9e8383615c13565b610ca89085615ab4565b9350610cb48386615ab4565b94508095505050610c09565b81610cd55786985050505050505050506109ee565b610cdf8a83615acc565b9a9950505050505050505050565b610cf5612bee565b6001600160a01b0316610d06611e26565b6001600160a01b031614610d2c5760405162461bcd60e51b8152600401610506906154c6565b610d34612d57565b565b6000806000610d43611630565b15610d605760405162461bcd60e51b81526004016105069061559f565b600260cb541415610d835760405162461bcd60e51b815260040161050690615955565b600260cb55610d90612bee565b610106546001600160a01b03908116911614610dbe5760405162461bcd60e51b8152600401610506906154a6565b60008611610dde5760405162461bcd60e51b8152600401610506906156d4565b60008511610dfe5760405162461bcd60e51b81526004016105069061527c565b60408051808201909152868152602081018690526101075415801590610e2657506101085415155b15610e9c57610e448761010760005b015461010760015b0154612dc5565b602082018190528610610e5957868152610e97565b610e6f8661010760015b01546101076000610e3d565b808252871015610e8f57634e487b7160e01b600052600160045260246000fd5b602081018690525b610f0e565b6000610ea6610aee565b90506402540be400610eee610ed6670de0b6b3a7640000610ec7858c615c13565b610ed19190615acc565b612e27565b610edf8b612e27565b610ee99190615c32565b612e54565b1115610f0c5760405162461bcd60e51b8152600401610506906158f6565b505b610f16614cb5565b610f1e612c01565b81526040805180820191829052610f56916101079060029082845b815481526020019060010190808311610f39575050505050612e7d565b60208201819052610f6690612e7d565b606082015260005b60028160ff161015611044576000838260ff1660028110610f9f57634e487b7160e01b600052603260045260246000fd5b602002015183602001518360ff1660028110610fcb57634e487b7160e01b600052603260045260246000fd5b6020020151610fda9190615ab4565b90508083602001518360ff166002811061100457634e487b7160e01b600052603260045260246000fd5b60200201528061010760ff84166002811061102f57634e487b7160e01b600052603260045260246000fd5b0155508061103c81615cd7565b915050610f6e565b5061010a546101005460009161105991615c13565b9050604051806040016040528061010960006002811061108957634e487b7160e01b600052603260045260246000fd5b015460208501515161109b9190615c13565b8152602001670de0b6b3a76400008385602001516001600281106110cf57634e487b7160e01b600052603260045260246000fd5b60200201516110de9190615c13565b6110e89190615acc565b905260208301526040805180820190915261010954606084015151829161110e91615c13565b8152602001670de0b6b3a764000083856060015160016002811061114257634e487b7160e01b600052603260045260246000fd5b60200201516111519190615c13565b61115b9190615acc565b9052606083015260005b60028160ff16101561128c576000848260ff166002811061119657634e487b7160e01b600052603260045260246000fd5b6020020151111561127a5761010b8160ff16600281106111c657634e487b7160e01b600052603260045260246000fd5b0154610104546001600160a01b03918216916323b872dd9116308760ff86166002811061120357634e487b7160e01b600052603260045260246000fd5b60200201516040518463ffffffff1660e01b8152600401611226939291906150ee565b602060405180830381600087803b15801561124057600080fd5b505af1158015611254573d6000803e3d6000fd5b505050506040513d601f19601f820116820180604052508101906112789190614e07565b505b8061128481615cd7565b915050611165565b5061011254801561134f57825180516020909101516060850151604051630eeec14f60e11b815273__$02a049080fc263d5eb822a1008e5b660f8$__93631ddd829e936112e09391929091906004016159c3565b60206040518083038186803b1580156112f857600080fd5b505af415801561130c573d6000803e3d6000fd5b505050506040513d601f19601f820116820180604052508101906113309190614f73565b60408401528061133e612bfd565b1061134a576001610112555b611358565b60fd5460408401525b8251805160209182015191850151604051630eeec14f60e11b815260009373__$02a049080fc263d5eb822a1008e5b660f8$__93631ddd829e936113a1939192916004016159c3565b60206040518083038186803b1580156113b957600080fd5b505af41580156113cd573d6000803e3d6000fd5b505050506040513d601f19601f820116820180604052508101906113f19190614f73565b90506000808560400151111561142e5760ff5460408601516114138483615c13565b61141d9190615acc565b6114279190615c71565b905061143a565b61143782612f05565b90505b6000811161145a5760405162461bcd60e51b815260040161050690615580565b8060ff600082825461146c9190615ab4565b90915550506040850151156114955761149085600001518660200151600085612f67565b61149b565b60fd8290555b898110156114bb5760405162461bcd60e51b81526004016105069061575e565b6114c3613252565b6114cb612bee565b6001600160a01b03167fd92dda7384b5f0fa573be9bbf63d63ac81a5bbb08ebc31f00c0f066e502396098760006020020151886001602002015160ff546040516115189392918791615a22565b60405180910390a28551602090960151600160cb55959c959b50995093975050505050505050565b611548612bee565b6001600160a01b0316611559611e26565b6001600160a01b03161461157f5760405162461bcd60e51b8152600401610506906154c6565b611591816001600160a01b0316613300565b6115ad5760405162461bcd60e51b81526004016105069061529c565b61010480546001600160a01b0319166001600160a01b0383161790556040517fd0654f5900f9e7e4e605a19334306e6a2786bbf960ac0484a4c12feb6428fe2f906115f99083906150da565b60405180910390a150565b6000610107826002811061162857634e487b7160e01b600052603260045260246000fd5b015492915050565b60675460ff1690565b6034546001600160a01b031690565b611650612bee565b6001600160a01b0316611661611e26565b6001600160a01b0316146116875760405162461bcd60e51b8152600401610506906154c6565b6033546040516000916001600160a01b0316907f8be0079c531659141344cd1fd0a4f28419497f9722a3daafe3b4186f6b6457e0908390a3603380546001600160a01b0319908116909155603480549091169055565b60006116e7611630565b156117045760405162461bcd60e51b81526004016105069061559f565b600260cb5414156117275760405162461bcd60e51b815260040161050690615955565b600260cb55611734612bee565b610105546001600160a01b039081169116146117625760405162461bcd60e51b8152600401610506906157a1565b61177186868686866000613306565b600160cb559695505050505050565b6000838514156117a25760405162461bcd60e51b815260040161050690615822565b600285106117c25760405162461bcd60e51b8152600401610506906151cc565b600284106117e25760405162461bcd60e51b8152600401610506906151cc565b6117f58585858560fd5461010054613f19565b90505b949350505050565b6101025490565b6000806000600260cb54141561182f5760405162461bcd60e51b815260040161050690615955565b600260cb55868614156118545760405162461bcd60e51b815260040161050690615822565b600287106118745760405162461bcd60e51b8152600401610506906151cc565b600286106118945760405162461bcd60e51b8152600401610506906151cc565b60006118a288888888611780565b604051635937325f60e11b8152909150309063b26e64be906118d0908b908b908b9087908c90600401615a3d565b602060405180830381600087803b1580156118ea57600080fd5b505af192505050801561191a575060408051601f3d908101601f1916820190925261191791810190614f73565b60015b611a20573d808015611948576040519150601f19603f3d011682016040523d82523d6000602084013e61194d565b606091505b5080516060146119ac576044815110156119795760405162461bcd60e51b8152600401610506906156f4565b600481019050808060200190518101906119939190614e23565b60405162461bcd60e51b81526004016105069190615199565b6000806000838060200190518101906119c59190614fd7565b9250925092507f182545acfa9866c9c4fd113da282045b564d223273f9041051a60c78733f0fae6119f4612bee565b8383868d604051611a0995949392919061512b565b60405180910390a191965094509250611a23915050565b50505b600160cb819055509450945094915050565b611a3d612bee565b6001600160a01b0316611a4e611e26565b6001600160a01b031614611a745760405162461bcd60e51b8152600401610506906154c6565b610d34614285565b600080611a87611630565b15611aa45760405162461bcd60e51b81526004016105069061559f565b600260cb541415611ac75760405162461bcd60e51b815260040161050690615955565b600260cb55611ad4612bee565b610106546001600160a01b03908116911614611b025760405162461bcd60e51b8152600401610506906154a6565b60018511611b225760405162461bcd60e51b815260040161050690615560565b60ff54851115611b445760405162461bcd60e51b815260040161050690615466565b60ff80549086906000611b578385615c71565b9091555060009050611b6a600188615c71565b604080518082019182905261010780548252929350600092611ba19260029061010860208501808311610f39575050505050612e7d565b905060005b60028160ff161015611d695760008484848460ff1660028110611bd957634e487b7160e01b600052603260045260246000fd5b6020020151611be89190615c13565b611bf29190615acc565b905060ff821615611c035787611c05565b885b811015611c245760405162461bcd60e51b815260040161050690615443565b80838360ff1660028110611c4857634e487b7160e01b600052603260045260246000fd5b6020020151611c579190615c71565b6101078360ff1660028110611c7c57634e487b7160e01b600052603260045260246000fd5b0155808360ff841660028110611ca257634e487b7160e01b600052603260045260246000fd5b602002015261010b60ff831660028110611ccc57634e487b7160e01b600052603260045260246000fd5b01546101045460405163a9059cbb60e01b81526001600160a01b039283169263a9059cbb92611d02929116908590600401615112565b602060405180830381600087803b158015611d1c57600080fd5b505af1158015611d30573d6000803e3d6000fd5b505050506040513d601f19601f82011682018060405250810190611d549190614e07565b50508080611d6190615cd7565b915050611ba6565b5060ff5415611da057828260fd54611d819190615c13565b611d8b9190615acc565b60fd54611d989190615c71565b60fd55611da6565b600060fd555b611dae613252565b611db6612bee565b6001600160a01b03167f0c7095efab4844307a2d270e6feda743289e3f8bd8a4fa71bc0006ef39bb77938260006020020151836001602002015160ff54604051611e039392918e91615a22565b60405180910390a28051602090910151600160cb55909890975095505050505050565b6033546001600160a01b031690565b600260cb541415611e585760405162461bcd60e51b815260040161050690615955565b600260cb55611e65612bee565b6001600160a01b0316611e76611e26565b6001600160a01b031614611e9c5760405162461bcd60e51b8152600401610506906154c6565b60fe54611ea7612bfd565b1015611ec55760405162461bcd60e51b815260040161050690615803565b60fe54611ee45760405162461bcd60e51b81526004016105069061571e565b600060fe556101135461010f819055610114546101108190556040517f466000346b59ec4877e51eb5253518b5238b636e596b47be2a6ab1fe6fdfc31f90611f2f90849084906159b5565b60405180910390a15050600160cb55565b600030611f4b612bee565b6001600160a01b031614611f715760405162461bcd60e51b81526004016105069061573e565b611f8086868686866001613306565b9695505050505050565b6034546001600160a01b0316611fb25760405162461bcd60e51b815260040161050690615917565b611fba612bee565b6034546001600160a01b03908116911614611fe75760405162461bcd60e51b81526004016105069061520e565b6034546033546040516001600160a01b0392831692909116907f8be0079c531659141344cd1fd0a4f28419497f9722a3daafe3b4186f6b6457e090600090a360348054603380546001600160a01b03199081166001600160a01b03841617909155169055565b612055612bee565b6001600160a01b0316612066611e26565b6001600160a01b03161461208c5760405162461bcd60e51b8152600401610506906154c6565b600060fe55565b60008083116120b45760405162461bcd60e51b8152600401610506906152bd565b600082116120d45760405162461bcd60e51b81526004016105069061566d565b604080518082019091528381526020810183905261010754158015906120fc57506101085415155b1561215f5761210f846101076000610e35565b6020820181905283106121245783815261215a565b612132836101076001610e63565b80825284101561215257634e487b7160e01b600052600160045260246000fd5b602081018390525b6121ad565b6402540be40061218f612186670de0b6b3a764000061217c610aee565b610ec79088615c13565b610edf87612e27565b11156121ad5760405162461bcd60e51b81526004016105069061568e565b60006121b7612c01565b6040805180820191829052610107805482529293506000926121ee9260029061010860208501808311610f39575050505050612e7d565b905060006121fb82612e7d565b905060005b60028160ff1610156122a6576000858260ff166002811061223157634e487b7160e01b600052603260045260246000fd5b6020020151848360ff166002811061225957634e487b7160e01b600052603260045260246000fd5b60200201516122689190615ab4565b905080848360ff166002811061228e57634e487b7160e01b600052603260045260246000fd5b6020020152508061229e81615cd7565b915050612200565b506040805180820190915261010954835182916122c291615c13565b815261010a5461010054602086810151930192670de0b6b3a764000092916122e991615c13565b6122f39190615c13565b6122fd9190615acc565b9052604080518082019091526101095483519294509091829161231f91615c13565b815261010a5461010054602085810151930192670de0b6b3a7640000929161234691615c13565b6123509190615c13565b61235a9190615acc565b90526101125490915060009080156124015784516020860151604051630eeec14f60e11b815273__$02a049080fc263d5eb822a1008e5b660f8$__92631ddd829e926123aa9288906004016159c3565b60206040518083038186803b1580156123c257600080fd5b505af41580156123d6573d6000803e3d6000fd5b505050506040513d601f19601f820116820180604052508101906123fa9190614f73565b9150612407565b60fd5491505b84516020860151604051630eeec14f60e11b815260009273__$02a049080fc263d5eb822a1008e5b660f8$__92631ddd829e9261244a9291908a906004016159c3565b60206040518083038186803b15801561246257600080fd5b505af4158015612476573d6000803e3d6000fd5b505050506040513d601f19601f8201168201806040525081019061249a9190614f73565b9050600083156124cd5760ff54846124b28483615c13565b6124bc9190615acc565b6124c69190615c71565b90506124d9565b6124d682612f05565b90505b600081116124f95760405162461bcd60e51b815260040161050690615403565b9750505050505050505b92915050565b612511612bee565b6001600160a01b0316612522611e26565b6001600160a01b0316146125485760405162461bcd60e51b8152600401610506906154c6565b60fe54156125685760405162461bcd60e51b8152600401610506906154e6565b670de0b6b3a764000082111561257f5761010f5491505b62093a808110156125af57600081116125aa5760405162461bcd60e51b815260040161050690615507565b6125b5565b50610110545b60006203f4806125c3612bfd565b6125cd9190615ab4565b60fe81905561011384905561011483905560405190915081907f4e8638fc6a89dd8fbbec493ad3e9f2f3c58eefd065477a51884f81cee52b611b9061261590869086906159b5565b60405180910390a2505050565b6101005490565b6000612633612c01565b6000610ae3565b600054610100900460ff1680612653575060005460ff16155b61266f5760405162461bcd60e51b8152600401610506906155fe565b600054610100900460ff1615801561269a576000805460ff1961ff0019909116610100171660011790555b6126a26142e0565b6126aa614364565b60006126bb83600001516080612d13565b90506126cb818460200151612d53565b61010d819055610111819055604084015161010f556060840151610110556080840151610100819055610101819055610102559050612708612bfd565b610103556040805180820190915260c08401516001600160a01b03908116825260a08501511660208201526127429061010b906002614cee565b506040805180820180835261010b5463313ce56760e01b9091529151909182916001600160a01b039091169063313ce56790604480850191602091818703018186803b15801561279157600080fd5b505afa1580156127a5573d6000803e3d6000fd5b505050506040513d601f19601f820116820180604052508101906127c99190615090565b6127d4906012615c88565b6127df90600a615b41565b815261010c546040805163313ce56760e01b815290516020938401936001600160a01b039093169263313ce5679260048082019391829003018186803b15801561282857600080fd5b505afa15801561283c573d6000803e3d6000fd5b505050506040513d601f19601f820116820180604052508101906128609190615090565b61286b906012615c88565b61287690600a615b41565b905261288790610109906002614d42565b505060e082015161010480546001600160a01b039283166001600160a01b0319918216179091556101008401516101058054918416918316919091179055610120840151610106805491909316911617905580156128eb576000805461ff00191690555b5050565b6128f7612bee565b6001600160a01b0316612908611e26565b6001600160a01b03161461292e5760405162461bcd60e51b8152600401610506906154c6565b6000612938612c01565b9050600061294682826107cf565b9050612954818360016107e5565b61010d819055610111819055905061296a612bfd565b61010e55612976612bfd565b61011255815160208301517f5f0e7fba3d100c9e19446e1c92fe436f0a9a22fe99669360e4fdd6d3de2fc28491906129ac612bfd565b6040516129bb93929190615a0c565b60405180910390a15050565b6129cf612bee565b6001600160a01b03166129e0611e26565b6001600160a01b031614612a065760405162461bcd60e51b8152600401610506906154c6565b612a18816001600160a01b0316613300565b612a345760405162461bcd60e51b8152600401610506906157e2565b61010680546001600160a01b0319166001600160a01b0383161790556040517fd68c74a31e45de4ca3e36ed3e6bec55457a3395ed3dac21202032b95ffda7398906115f99083906150da565b6101015490565b612a8f612bee565b6001600160a01b0316612aa0611e26565b6001600160a01b031614612ac65760405162461bcd60e51b8152600401610506906154c6565b612ad8816001600160a01b0316613300565b612af45760405162461bcd60e51b8152600401610506906153e2565b61010580546001600160a01b0319166001600160a01b0383161790556040517f73051d125b9033e2af07cc2b08e0953fd5f7a1b48b372b1b8e13fd136b30c882906115f99083906150da565b6101155460009081908190612b6c576000612b59610aee565b612b61612bfd565b925092509250612be9565b61011554600090612b7f90600190615c71565b905060006101158281548110612ba557634e487b7160e01b600052603260045260246000fd5b600091825260209182902060408051606081018252600390930290910180548084526001820154948401859052600290910154929091018290529650909450925050505b909192565b6000612bf86143cc565b905090565b4290565b612c09614c97565b61011254610111546000612c24826001600160801b036143d0565b90506000612c3483607f19612d13565b905083612c3f612bfd565b1015612cf55761010d5461010e54612c578187615c71565b955080612c62612bfd565b612c6c9190615c71565b90506000612c7a8288615c71565b905086612c878386615c13565b82612c9486607f19612d13565b612c9e9190615c13565b612ca89190615ab4565b612cb29190615acc565b935086612cbf8387615c13565b82612cd1866001600160801b036143d0565b612cdb9190615c13565b612ce59190615ab4565b612cef9190615acc565b94505050505b60405180604001604052808281526020018381525094505050505090565b600080821315612d3057612d2682612e54565b83901b9050612503565b6000821215612d4c57612d4282612e54565b83901c9050612503565b5090919050565b1790565b612d5f611630565b612d7b5760405162461bcd60e51b81526004016105069061524e565b6067805460ff191690557f5db9ee0a495bf2e6ff9c91a7834c1ba4fdd244a5e8aa4e537bd38aeae4b073aa612dae612bee565b604051612dbb91906150da565b60405180910390a1565b6000808411612de65760405162461bcd60e51b8152600401610506906152ff565b600083118015612df65750600082115b612e125760405162461bcd60e51b81526004016105069061531e565b82612e1d8386615c13565b6117f89190615acc565b60006001600160ff1b03821115612e505760405162461bcd60e51b815260040161050690615842565b5090565b600080821215612e7457612e6f612e6a836143d4565b614402565b612503565b61250382614402565b612e85614c97565b612e8d614c97565b60005b60028160ff161015612efe57838160ff1660028110612ebf57634e487b7160e01b600052603260045260246000fd5b6020020151828260ff1660028110612ee757634e487b7160e01b600052603260045260246000fd5b602002015280612ef681615cd7565b915050612e90565b5092915050565b6000806040518060400160405280600285612f209190615acc565b8152602001600261010054612f359190615c13565b612f47670de0b6b3a764000087615c13565b612f519190615acc565b90529050612f60816001614424565b9392505050565b61010154610100546101025461010354612f7f612bfd565b81101561309e5761011054600073__$02a049080fc263d5eb822a1008e5b660f8$__63f0c2c52c8385612fb0612bfd565b612fba9190615c71565b612fcc90670de0b6b3a7640000615c13565b612fd69190615acc565b6040518263ffffffff1660e01b8152600401612ff291906159ac565b60206040518083038186803b15801561300a57600080fd5b505af415801561301e573d6000803e3d6000fd5b505050506040513d601f19601f820116820180604052508101906130429190614f73565b9050670de0b6b3a76400006130578288615c13565b61306983670de0b6b3a7640000615c71565b6130739087615c13565b61307d9190615ab4565b6130879190615acc565b6101018190559550613097612bfd565b6101035550505b848061313557885160208a0151604051630eeec14f60e11b815273__$02a049080fc263d5eb822a1008e5b660f8$__92631ddd829e926130e2928d906004016159c3565b60206040518083038186803b1580156130fa57600080fd5b505af415801561310e573d6000803e3d6000fd5b505050506040513d601f19601f820116820180604052508101906131329190614f73565b90505b861561314357869250613236565b600061314e89612e7d565b805190915060009061316490620f424090615acc565b825190915081908390613178908390615ab4565b9052508a5160208c0151604051630f14f68360e41b815273__$02a049080fc263d5eb822a1008e5b660f8$__9263f14f6830926131be92879089906001906004016159de565b60206040518083038186803b1580156131d657600080fd5b505af41580156131ea573d6000803e3d6000fd5b505050506040513d601f19601f8201168201806040525081019061320e9190614f73565b60208b015161321d9190615c71565b6132278288615c13565b6132319190615acc565b945050505b61010283905561324789898361452f565b505050505050505050565b6101055461010c54604051632d62674960e11b81526001600160a01b0392831692635ac4ce9292613288929116906004016150da565b600060405180830381600087803b1580156132a257600080fd5b505af11580156132b6573d6000803e3d6000fd5b50506040805180820191829052610107805482526132ee94509092509060029061010860208501808311610f39575050505050612e7d565b6132fd90610116906002614d42565b50565b3b151590565b6000858714156133285760405162461bcd60e51b815260040161050690615822565b600287106133485760405162461bcd60e51b8152600401610506906151cc565b600286106133685760405162461bcd60e51b8152600401610506906151cc565b600085116133885760405162461bcd60e51b81526004016105069061522e565b613390614d70565b613398612c01565b81526040805180820191829052610107805482526133cb9260029061010860208501808311610f39575050505050612e7d565b6020820181905287600281106133f157634e487b7160e01b600052603260045260246000fd5b60200201518160800181815250508060200151886002811061342357634e487b7160e01b600052603260045260246000fd5b602002015160a08201528361344757858160a001516134429190615c71565b613457565b858160a001516134579190615ab4565b8160200151896002811061347b57634e487b7160e01b600052603260045260246000fd5b602002018181525050806020015188600281106134a857634e487b7160e01b600052603260045260246000fd5b602002015161010789600281106134cf57634e487b7160e01b600052603260045260246000fd5b0155604080518082019091526101095460208301515182916134f091615c13565b815261010a5461010054602085810151810151930192670de0b6b3a7640000929161351a91615c13565b6135249190615c13565b61352e9190615acc565b905260208201526101095460c082015261010a5460e082015260018814156135635761010a5460c08201526101095460e08201525b6101125480156136f3578160c001518260a0018181516135839190615c13565b90525088156135b857670de0b6b3a7640000610100548360a001516135a89190615c13565b6135b29190615acc565b60a08301525b600082602001518a600281106135de57634e487b7160e01b600052603260045260246000fd5b602002015190508260a0015183602001518b6002811061360e57634e487b7160e01b600052603260045260246000fd5b60209081029190910191909152835180519082015191850151604051630eeec14f60e11b815273__$02a049080fc263d5eb822a1008e5b660f8$__93631ddd829e9361365e9390926004016159c3565b60206040518083038186803b15801561367657600080fd5b505af415801561368a573d6000803e3d6000fd5b505050506040513d601f19601f820116820180604052508101906136ae9190614f73565b60fd55602083015181908b600281106136d757634e487b7160e01b600052603260045260246000fd5b6020020152816136e5612bfd565b106136f1576001610112555b505b508315613a095761010b886002811061371c57634e487b7160e01b600052603260045260246000fd5b0154610104546040516323b872dd60e01b81526001600160a01b03928316926323b872dd926137549291169030908b906004016150ee565b602060405180830381600087803b15801561376e57600080fd5b505af1158015613782573d6000803e3d6000fd5b505050506040513d601f19601f820116820180604052508101906137a69190614e07565b50805180516020918201519183015160fd54604051630f14f68360e41b815273__$02a049080fc263d5eb822a1008e5b660f8$__9463f14f6830946137f694909391929091908e906004016159de565b60206040518083038186803b15801561380e57600080fd5b505af4158015613822573d6000803e3d6000fd5b505050506040513d601f19601f820116820180604052508101906138469190614f73565b8160200151886002811061386a57634e487b7160e01b600052603260045260246000fd5b60200201516138799190615c71565b915081816020015188600281106138a057634e487b7160e01b600052603260045260246000fd5b602002018181516138b19190615c71565b9052506138bf600183615c71565b915086156138ea57610100546138dd670de0b6b3a764000084615c13565b6138e79190615acc565b91505b60e08101516138f99083615acc565b91508482101561391b5760405162461bcd60e51b81526004016105069061535d565b818160800181815161392d9190615c71565b9052506080810151610107886002811061395757634e487b7160e01b600052603260045260246000fd5b015561010b876002811061397b57634e487b7160e01b600052603260045260246000fd5b01546101045460405163a9059cbb60e01b81526001600160a01b039283169263a9059cbb926139b1929116908690600401615112565b602060405180830381600087803b1580156139cb57600080fd5b505af11580156139df573d6000803e3d6000fd5b505050506040513d601f19601f82011682018060405250810190613a039190614e07565b50613d16565b61010b8860028110613a2b57634e487b7160e01b600052603260045260246000fd5b01546101045460405163a9059cbb60e01b81526001600160a01b039283169263a9059cbb92613a61929116908a90600401615112565b602060405180830381600087803b158015613a7b57600080fd5b505af1158015613a8f573d6000803e3d6000fd5b505050506040513d601f19601f82011682018060405250810190613ab39190614e07565b5080602001518760028110613ad857634e487b7160e01b600052603260045260246000fd5b6020908102919091015182518051908301519284015160fd54604051630f14f68360e41b8152939473__$02a049080fc263d5eb822a1008e5b660f8$__9463f14f683094613b2e94909390918f906004016159de565b60206040518083038186803b158015613b4657600080fd5b505af4158015613b5a573d6000803e3d6000fd5b505050506040513d601f19601f82011682018060405250810190613b7e9190614f73565b613b889190615c71565b91508181602001518860028110613baf57634e487b7160e01b600052603260045260246000fd5b60200201818151613bc09190615ab4565b905250613bce600183615ab4565b91508615613bf95761010054613bec670de0b6b3a764000084615c13565b613bf69190615acc565b91505b60e0810151613c089083615acc565b915084821115613c2a5760405162461bcd60e51b8152600401610506906156b0565b8181608001818151613c3c9190615ab4565b90525060808101516101078860028110613c6657634e487b7160e01b600052603260045260246000fd5b015561010b8760028110613c8a57634e487b7160e01b600052603260045260246000fd5b0154610104546040516323b872dd60e01b81526001600160a01b03928316926323b872dd92613cc292911690309087906004016150ee565b602060405180830381600087803b158015613cdc57600080fd5b505af1158015613cf0573d6000803e3d6000fd5b505050506040513d601f19601f82011682018060405250810190613d149190614e07565b505b8060e0015181608001818151613d2c9190615c13565b9052508615613d6157670de0b6b3a7640000610100548260800151613d519190615c13565b613d5b9190615acc565b60808201525b806080015181602001518860028110613d8a57634e487b7160e01b600052603260045260246000fd5b6020020152620186a086118015613da35750620186a082115b15613e225760008160c0015187613dba9190615c13565b905060008260e0015184613dce9190615c13565b905089613dfc5780613de883670de0b6b3a7640000615c13565b613df29190615acc565b6040840152613e1f565b81613e0f82670de0b6b3a7640000615c13565b613e199190615acc565b60408401525b50505b613e3b8160000151826020015183604001516000612f67565b6000613e45610aee565b90508315613e6457604051818152876020820152836040820152606081fd5b604080516060810182526101158054825260208201849052918101613e87612bfd565b905281546001818101845560009384526020938490208351600390930201918255928201519281019290925560400151600290910155613ec5612bee565b6001600160a01b03167f06fd8c5d0f3f8e8499ff366a63225d36df3872a842b5b4a6ad0183926f3da1868a898b878a604051613f05959493929190615a3d565b60405180910390a250509695505050505050565b60008061010960010154613f2d9084615c13565b604080518082019182905261010780548252929350600092613f649260029061010860208501808311610f39575050505050612e7d565b90506000613f70612c01565b6101125490915015614018578051602082015173__$02a049080fc263d5eb822a1008e5b660f8$__91631ddd829e91613fa76148a2565b6040518463ffffffff1660e01b8152600401613fc5939291906159c3565b60206040518083038186803b158015613fdd57600080fd5b505af4158015613ff1573d6000803e3d6000fd5b505050506040513d601f19601f820116820180604052508101906140159190614f73565b95505b866140525787828b6002811061403e57634e487b7160e01b600052603260045260246000fd5b602002015161404d9190615c71565b614082565b87828b6002811061407357634e487b7160e01b600052603260045260246000fd5b60200201516140829190615ab4565b828b600281106140a257634e487b7160e01b600052603260045260246000fd5b60200201526040805180820190915261010954835182916140c291615c13565b8152602001670de0b6b3a76400008585600160200201516140e39190615c13565b6140ed9190615acc565b90529150600073__$02a049080fc263d5eb822a1008e5b660f8$__63f14f6830838360200201518460016020020151868b8f6040518663ffffffff1660e01b815260040161413f9594939291906159de565b60206040518083038186803b15801561415757600080fd5b505af415801561416b573d6000803e3d6000fd5b505050506040513d601f19601f8201168201806040525081019061418f9190614f73565b90506000886141d757838b600281106141b857634e487b7160e01b600052603260045260246000fd5b60200201516141c79083615c71565b6141d2906001615ab4565b614213565b600182858d600281106141fa57634e487b7160e01b600052603260045260246000fd5b60200201516142099190615c71565b6142139190615c71565b905081848c6002811061423657634e487b7160e01b600052603260045260246000fd5b60200201528a156142655784614254670de0b6b3a764000083615c13565b61425e9190615acc565b9050614276565b610109546142739082615acc565b90505b9b9a5050505050505050505050565b61428d611630565b156142aa5760405162461bcd60e51b81526004016105069061559f565b6067805460ff191660011790557f62e78cea01bee320cd4e420270b5ea74000d11b0c9f74754ebdbfc544b05a258612dae612bee565b600054610100900460ff16806142f9575060005460ff16155b6143155760405162461bcd60e51b8152600401610506906155fe565b600054610100900460ff16158015614340576000805460ff1961ff0019909116610100171660011790555b614348614927565b6143506149fb565b80156132fd576000805461ff001916905550565b600054610100900460ff168061437d575060005460ff16155b6143995760405162461bcd60e51b8152600401610506906155fe565b600054610100900460ff161580156143c4576000805460ff1961ff0019909116610100171660011790555b614350614a6b565b3390565b1690565b6000600160ff1b82136143f95760405162461bcd60e51b815260040161050690615529565b61250382615cf7565b600080821215612e505760405162461bcd60e51b8152600401610506906155c9565b60008061443084612e7d565b9050828015614443575060208101518151105b1561446257506040805180820190915260208481015182528451908201525b80516000805b60ff8160ff16101561451657602084015184518491600291839161448b91615c13565b6144959190615acc565b61449f9086615ab4565b6144a99190615acc565b9350808411156144c4576144bd8185615c71565b92506144d1565b6144ce8482615c71565b92505b6001831115806144f15750836144ef84670de0b6b3a7640000615c13565b105b15614503578395505050505050612503565b508061450e81615cd7565b915050614468565b5060405162461bcd60e51b8152600401610506906158cc565b60006101005461010154670de0b6b3a764000061454c9190615c13565b6145569190615acc565b9050670de0b6b3a76400008111156145815761457a670de0b6b3a764000082615c71565b9050614596565b61459381670de0b6b3a7640000615c71565b90505b61010f546000906145b1906145ac600a85615acc565b614ae4565b9050808211156148955760006145c5614af4565b905060008082136145d75760006145da565b60015b905060006145f9600160006145ee86612e54565b858a61010054613f19565b9050600085610101548661460d9190615c13565b6146178789615c71565b610100546146259190615c13565b61462f9190615ab4565b6146399190615acc565b9050600060405180604001604052808a60006002811061466957634e487b7160e01b600052603260045260246000fd5b6020020151815260200161010054848c60016002811061469957634e487b7160e01b600052603260045260246000fd5b60200201516146a89190615c13565b6146b29190615acc565b90528a5160208c0151604051630eeec14f60e11b815292935060009273__$02a049080fc263d5eb822a1008e5b660f8$__92631ddd829e926146f89287906004016159c3565b60206040518083038186803b15801561471057600080fd5b505af4158015614724573d6000803e3d6000fd5b505050506040513d601f19601f820116820180604052508101906147489190614f73565b905060006147646001600061475c8a612e54565b898689613f19565b6101055461010c54604051638e9dafdb60e01b81529293506000926001600160a01b0392831692638e9dafdb926147a0929116906004016150da565b60206040518083038186803b1580156147b857600080fd5b505afa1580156147cc573d6000803e3d6000fd5b505050506040513d601f19601f820116820180604052508101906147f09190614f73565b9050600061480961480088612e27565b610edf85612e27565b9050614816816002615c13565b82111561488b57614825613252565b61010086905560fd8490557f3a18146952241c39559c93edc7a200367f24fc588422227359fa7ddc2778e03c614859612bee565b8383878a610101546040516148739695949392919061515b565b60405180910390a1505050505050505050505061489d565b5050505050505050505b505060fd8190555b505050565b6148aa614c97565b60408051808201909152610109546101075482916148c791615c13565b8152602001670de0b6b3a7640000610100546101096001600281106148fc57634e487b7160e01b600052603260045260246000fd5b01546101085461490c9190615c13565b6149169190615c13565b6149209190615acc565b9052905090565b600054610100900460ff1680614940575060005460ff16155b61495c5760405162461bcd60e51b8152600401610506906155fe565b600054610100900460ff16158015614987576000805460ff1961ff0019909116610100171660011790555b61498f614b42565b6000614999612bee565b603380546001600160a01b0319166001600160a01b038316908117909155604051919250906000907f8be0079c531659141344cd1fd0a4f28419497f9722a3daafe3b4186f6b6457e0908290a35080156132fd576000805461ff001916905550565b600054610100900460ff1680614a14575060005460ff16155b614a305760405162461bcd60e51b8152600401610506906155fe565b600054610100900460ff16158015614a5b576000805460ff1961ff0019909116610100171660011790555b614a63614ba6565b614350614c19565b600054610100900460ff1680614a84575060005460ff16155b614aa05760405162461bcd60e51b8152600401610506906155fe565b600054610100900460ff16158015614acb576000805460ff1961ff0019909116610100171660011790555b600160cb5580156132fd576000805461ff001916905550565b600081831015612d4c5750919050565b61011754600090614b1b5761010854614b1490610ed19061271090615acc565b9050610aeb565b614b2b61011660015b0154612e27565b614b386101076001614b24565b612bf89190615c32565b600054610100900460ff1680614b5b575060005460ff16155b614b775760405162461bcd60e51b8152600401610506906155fe565b600054610100900460ff16158015614ba2576000805460ff1961ff0019909116610100171660011790555b6143505b600054610100900460ff1680614bbf575060005460ff16155b614bdb5760405162461bcd60e51b8152600401610506906155fe565b600054610100900460ff16158015614350576000805460ff1961ff00199091166101001716600117905580156132fd576000805461ff001916905550565b600054610100900460ff1680614c32575060005460ff16155b614c4e5760405162461bcd60e51b8152600401610506906155fe565b600054610100900460ff16158015614c79576000805460ff1961ff0019909116610100171660011790555b6067805460ff1916905580156132fd576000805461ff001916905550565b60405180604001604052806002906020820280368337509192915050565b6040518060800160405280614cc8614c97565b8152602001614cd5614c97565b815260200160008152602001614ce9614c97565b905290565b8260028101928215614d36579160200282015b82811115614d3657825182546001600160a01b0319166001600160a01b03909116178255602090920191600190910190614d01565b50612e50929150614dc1565b8260028101928215614d36579160200282015b82811115614d36578251825591602001919060010190614d55565b604051806101000160405280614d84614c97565b8152602001614d91614c97565b81526020016000815260200160008152602001600081526020016000815260200160008152602001600081525090565b5b80821115612e505760008155600101614dc2565b80356001600160a01b03811681146109ee57600080fd5b600060208284031215614dfe578081fd5b612f6082614dd6565b600060208284031215614e18578081fd5b8151612f6081615d3d565b600060208284031215614e34578081fd5b815167ffffffffffffffff80821115614e4b578283fd5b818401915084601f830112614e5e578283fd5b815181811115614e7057614e70615d27565b614e83601f8201601f1916602001615a8a565b9150808252856020828501011115614e99578384fd5b614eaa816020840160208601615cab565b50949350505050565b6000610140808385031215614ec6578182fd5b614ecf81615a8a565b90508235815260208301356020820152604083013560408201526060830135606082015260808301356080820152614f0960a08401614dd6565b60a0820152614f1a60c08401614dd6565b60c0820152614f2b60e08401614dd6565b60e0820152610100614f3e818501614dd6565b90820152610120614f50848201614dd6565b908201529392505050565b600060208284031215614f6c578081fd5b5035919050565b600060208284031215614f84578081fd5b5051919050565b60008060408385031215614f9d578081fd5b50508035926020909101359150565b600080600060608486031215614fc0578081fd5b505081359360208301359350604090920135919050565b600080600060608486031215614feb578283fd5b8351925060208401519150604084015190509250925092565b60008060008060808587031215615019578081fd5b843593506020850135925060408501359150606085013561503981615d3d565b939692955090935050565b600080600080600060a0868803121561505b578081fd5b85359450602086013593506040860135925060608601359150608086013561508281615d3d565b809150509295509295909350565b6000602082840312156150a1578081fd5b815160ff81168114612f60578182fd5b8060005b60028110156150d45781518452602093840193909101906001016150b5565b50505050565b6001600160a01b0391909116815260200190565b6001600160a01b039384168152919092166020820152604081019190915260600190565b6001600160a01b03929092168252602082015260400190565b6001600160a01b039590951685526020850193909352604084019190915260608301521515608082015260a00190565b6001600160a01b03969096168652602086019490945260408501929092526060840152608083015260a082015260c00190565b901515815260200190565b60006020825282518060208401526151b8816040850160208701615cab565b601f01601f19169190910160400192915050565b60208082526008908201526720a6afa1a4a7a7a960c11b604082015260600190565b602080825260069082015265105357d1d51360d21b604082015260600190565b602080825260069082015265534f5f434e4360d01b604082015260600190565b6020808252600690820152650414d5f4149360d41b604082015260600190565b60208082526014908201527314185d5cd8589b194e881b9bdd081c185d5cd95960621b604082015260600190565b6020808252600690820152650414d5f4241360d41b604082015260600190565b602080825260079082015266414d5f43484e4360c81b604082015260600190565b6020808252600790820152660414d5f435141360cc1b604082015260600190565b602080825260079082015266414d5f4143545360c81b604082015260600190565b602080825260059082015264414d5f494160d81b604082015260600190565b602080825260059082015264105357d25360da1b604082015260600190565b602080825260069082015265534f5f53414360d01b604082015260600190565b6020808252600a9082015269414d5f4f53505753454960b01b604082015260600190565b602080825260069082015265105357d0551360d21b604082015260600190565b602080825260079082015266105357d050d51360ca1b604082015260600190565b602080825260069082015265414d5f47545360d01b604082015260600190565b602080825260079082015266414d5f4d544e4360c81b604082015260600190565b602080825260069082015265414d5f434e4d60d01b604082015260600190565b60208082526006908201526520a6afaa262d60d11b604082015260600190565b602080825260099082015268105357d3d4d415d49360ba1b604082015260600190565b60208082526006908201526520a6afa627a360d11b604082015260600190565b602080825260069082015265534f5f53414f60d01b604082015260600190565b6020808252600690820152650414d5f4f4c560d41b604082015260600190565b602080825260069082015265534f5f434e4f60d01b604082015260600190565b6020808252600790820152660414d5f41444e360cc1b604082015260600190565b6020808252600890820152670414d5f4d414854360c41b604082015260600190565b6020808252601d908201527f5369676d614d6174683a20696e76657273696f6e206f766572666c6f77000000604082015260600190565b60208082526006908201526520a6afa624ad60d11b604082015260600190565b602080825260059082015264414d5f4e4d60d81b604082015260600190565b60208082526010908201526f14185d5cd8589b194e881c185d5cd95960821b604082015260600190565b6020808252818101527f53616665436173743a2076616c7565206d75737420626520706f736974697665604082015260600190565b6020808252602e908201527f496e697469616c697a61626c653a20636f6e747261637420697320616c72656160408201526d191e481a5b9a5d1a585b1a5e995960921b606082015260800190565b602080825260079082015266414d5f4743545360c81b604082015260600190565b6020808252600790820152660414d5f434241360cc1b604082015260600190565b602080825260089082015267414d5f434942494160c01b604082015260600190565b6020808252600a9082015269414d5f4f53505753454f60b01b604082015260600190565b6020808252600690820152650414d5f5141360d41b604082015260600190565b60208082526010908201526f2ab732bc3832b1ba32b21032b93937b960811b604082015260600190565b60208082526006908201526520a6afa0a22d60d11b604082015260600190565b602080825260069082015265414d5f4f414d60d01b604082015260600190565b602080825260099082015268105357d3d4d415d05360ba1b604082015260600190565b602080825260069082015265414d5f41545360d01b604082015260600190565b602080825260069082015265105357d3d35560d21b604082015260600190565b602080825260079082015266105357d1d0d51360ca1b604082015260600190565b602080825260079082015266414d5f4c504e4360c81b604082015260600190565b602080825260059082015264105357d25560da1b604082015260600190565b602080825260069082015265414d5f53434960d01b604082015260600190565b60208082526028908201527f53616665436173743a2076616c756520646f65736e27742066697420696e2061604082015267371034b73a191a9b60c11b606082015260800190565b602080825260079082015266414d5f4354545360c81b604082015260600190565b602080825260079082015266414d5f4654545360c81b604082015260600190565b60208082526010908201526f446964206e6f7420636f6e766572676560801b604082015260600190565b602080825260079082015266414d5f4942494160c81b604082015260600190565b6020808252600590820152640534f5f43360dc1b604082015260600190565b60208082526005908201526420a6afa62d60d91b604082015260600190565b6020808252601f908201527f5265656e7472616e637947756172643a207265656e7472616e742063616c6c00604082015260600190565b6020808252600690820152650534f5f4e57360d41b604082015260600190565b90815260200190565b918252602082015260400190565b83815260208101839052608081016117f860408301846150b1565b8581526020810185905260c081016159f960408301866150b1565b608082019390935260a001529392505050565b9283526020830191909152604082015260600190565b93845260208401929092526040830152606082015260800190565b9485526020850193909352604084019190915260608301521515608082015260a00190565b958652602086019490945260408501929092526060840152608083015260a082015260c00190565b60405181810167ffffffffffffffff81118282101715615aac57615aac615d27565b604052919050565b60008219821115615ac757615ac7615d11565b500190565b600082615ae757634e487b7160e01b81526012600452602481fd5b500490565b80825b6001808611615afe5750615b29565b818704821115615b1057615b10615d11565b80861615615b1d57918102915b9490941c938002615aef565b94509492505050565b6000612f606000198484615b4f565b6000612f6060001960ff8516845b600082615b5e57506001612f60565b81615b6b57506000612f60565b8160018114615b815760028114615b8b57615bb8565b6001915050612f60565b60ff841115615b9c57615b9c615d11565b6001841b915084821115615bb257615bb2615d11565b50612f60565b5060208310610133831016604e8410600b8410161715615beb575081810a83811115615be657615be6615d11565b612f60565b615bf88484846001615aec565b808604821115615c0a57615c0a615d11565b02949350505050565b6000816000190483118215151615615c2d57615c2d615d11565b500290565b60008083128015600160ff1b850184121615615c5057615c50615d11565b6001600160ff1b0384018313811615615c6b57615c6b615d11565b50500390565b600082821015615c8357615c83615d11565b500390565b600060ff821660ff841680821015615ca257615ca2615d11565b90039392505050565b60005b83811015615cc6578181015183820152602001615cae565b838111156150d45750506000910152565b600060ff821660ff811415615cee57615cee615d11565b60010192915050565b6000600160ff1b821415615d0d57615d0d615d11565b0390565b634e487b7160e01b600052601160045260246000fd5b634e487b7160e01b600052604160045260246000fd5b80151581146132fd57600080fdfea264697066735822122033066b1e42d1488b61636e0bb8d7fef5a996cc7d6af7b47ef69b050bc788c5b664736f6c63430008000033",
  "linkReferences": {
    "contracts/lib/AmmLib.sol": {
      "AmmLib": [
        {
          "length": 20,
          "start": 4822
        },
        {
          "length": 20,
          "start": 5017
        },
        {
          "length": 20,
          "start": 9123
        },
        {
          "length": 20,
          "start": 9281
        },
        {
          "length": 20,
          "start": 12207
        },
        {
          "length": 20,
          "start": 12507
        },
        {
          "length": 20,
          "start": 12722
        },
        {
          "length": 20,
          "start": 13911
        },
        {
          "length": 20,
          "start": 14312
        },
        {
          "length": 20,
          "start": 15139
        },
        {
          "length": 20,
          "start": 16294
        },
        {
          "length": 20,
          "start": 16662
        },
        {
          "length": 20,
          "start": 18161
        }
      ]
    }
  },
  "deployedLinkReferences": {
    "contracts/lib/AmmLib.sol": {
      "AmmLib": [
        {
          "length": 20,
          "start": 4789
        },
        {
          "length": 20,
          "start": 4984
        },
        {
          "length": 20,
          "start": 9090
        },
        {
          "length": 20,
          "start": 9248
        },
        {
          "length": 20,
          "start": 12174
        },
        {
          "length": 20,
          "start": 12474
        },
        {
          "length": 20,
          "start": 12689
        },
        {
          "length": 20,
          "start": 13878
        },
        {
          "length": 20,
          "start": 14279
        },
        {
          "length": 20,
          "start": 15106
        },
        {
          "length": 20,
          "start": 16261
        },
        {
          "length": 20,
          "start": 16629
        },
        {
          "length": 20,
          "start": 18128
        }
      ]
    }
  }
}