{
  "_format": "hh-sol-artifact-1",
  "contractName": "AmmFactory",
  "sourceName": "contracts/amm/AmmFactory.sol",
  "abi": [
    {
      "anonymous": false,
      "inputs": [
        {
          "indexed": true,
          "internalType": "address",
          "name": "baseToken",
          "type": "address"
        },
        {
          "indexed": true,
          "internalType": "uint24",
          "name": "exchangeFeeRatio",
          "type": "uint24"
        },
        {
          "indexed": true,
          "internalType": "address",
          "name": "amm",
          "type": "address"
        }
      ],
      "name": "AmmAdded",
      "type": "event"
    },
    {
      "anonymous": false,
      "inputs": [
        {
          "indexed": true,
          "internalType": "address",
          "name": "clearingHouse",
          "type": "address"
        }
      ],
      "name": "ClearingHouseChanged",
      "type": "event"
    },
    {
      "anonymous": false,
      "inputs": [
        {
          "indexed": false,
          "internalType": "address",
          "name": "baseToken",
          "type": "address"
        },
        {
          "indexed": false,
          "internalType": "uint24",
          "name": "exchangeFeeRatio",
          "type": "uint24"
        }
      ],
      "name": "ExchangeFeeRatioChanged",
      "type": "event"
    },
    {
      "anonymous": false,
      "inputs": [
        {
          "indexed": false,
          "internalType": "uint24",
          "name": "insuranceFundFeeRatio",
          "type": "uint24"
        }
      ],
      "name": "InsuranceFundFeeRatioChanged",
      "type": "event"
    },
    {
      "anonymous": false,
      "inputs": [
        {
          "indexed": true,
          "internalType": "address",
          "name": "previousOwner",
          "type": "address"
        },
        {
          "indexed": true,
          "internalType": "address",
          "name": "newOwner",
          "type": "address"
        }
      ],
      "name": "OwnershipTransferred",
      "type": "event"
    },
    {
      "inputs": [
        {
          "internalType": "address",
          "name": "baseToken",
          "type": "address"
        },
        {
          "internalType": "address",
          "name": "amm",
          "type": "address"
        },
        {
          "internalType": "uint24",
          "name": "exchangeFeeRatio",
          "type": "uint24"
        }
      ],
      "name": "addAmm",
      "outputs": [],
      "stateMutability": "nonpayable",
      "type": "function"
    },
    {
      "inputs": [],
      "name": "candidate",
      "outputs": [
        {
          "internalType": "address",
          "name": "",
          "type": "address"
        }
      ],
      "stateMutability": "view",
      "type": "function"
    },
    {
      "inputs": [
        {
          "internalType": "address",
          "name": "baseToken",
          "type": "address"
        }
      ],
      "name": "getAmm",
      "outputs": [
        {
          "internalType": "address",
          "name": "",
          "type": "address"
        }
      ],
      "stateMutability": "view",
      "type": "function"
    },
    {
      "inputs": [
        {
          "internalType": "address",
          "name": "baseToken",
          "type": "address"
        }
      ],
      "name": "getAmmInfo",
      "outputs": [
        {
          "components": [
            {
              "internalType": "address",
              "name": "amm",
              "type": "address"
            },
            {
              "internalType": "uint24",
              "name": "exchangeFeeRatio",
              "type": "uint24"
            },
            {
              "internalType": "uint24",
              "name": "insuranceFundFeeRatio",
              "type": "uint24"
            }
          ],
          "internalType": "struct IAmmFactory.AmmInfo",
          "name": "",
          "type": "tuple"
        }
      ],
      "stateMutability": "view",
      "type": "function"
    },
    {
      "inputs": [],
      "name": "getClearingHouse",
      "outputs": [
        {
          "internalType": "address",
          "name": "",
          "type": "address"
        }
      ],
      "stateMutability": "view",
      "type": "function"
    },
    {
      "inputs": [
        {
          "internalType": "address",
          "name": "baseToken",
          "type": "address"
        }
      ],
      "name": "getExchangeFeeRatio",
      "outputs": [
        {
          "internalType": "uint24",
          "name": "",
          "type": "uint24"
        }
      ],
      "stateMutability": "view",
      "type": "function"
    },
    {
      "inputs": [
        {
          "internalType": "address",
          "name": "baseToken",
          "type": "address"
        }
      ],
      "name": "getInsuranceFundFeeRatio",
      "outputs": [
        {
          "internalType": "uint24",
          "name": "",
          "type": "uint24"
        }
      ],
      "stateMutability": "view",
      "type": "function"
    },
    {
      "inputs": [],
      "name": "getQuoteToken",
      "outputs": [
        {
          "internalType": "address",
          "name": "",
          "type": "address"
        }
      ],
      "stateMutability": "view",
      "type": "function"
    },
    {
      "inputs": [
        {
          "internalType": "address",
          "name": "baseToken",
          "type": "address"
        }
      ],
      "name": "hasAmm",
      "outputs": [
        {
          "internalType": "bool",
          "name": "",
          "type": "bool"
        }
      ],
      "stateMutability": "view",
      "type": "function"
    },
    {
      "inputs": [
        {
          "internalType": "address",
          "name": "quoteTokenArg",
          "type": "address"
        }
      ],
      "name": "initialize",
      "outputs": [],
      "stateMutability": "nonpayable",
      "type": "function"
    },
    {
      "inputs": [],
      "name": "owner",
      "outputs": [
        {
          "internalType": "address",
          "name": "",
          "type": "address"
        }
      ],
      "stateMutability": "view",
      "type": "function"
    },
    {
      "inputs": [],
      "name": "renounceOwnership",
      "outputs": [],
      "stateMutability": "nonpayable",
      "type": "function"
    },
    {
      "inputs": [
        {
          "internalType": "address",
          "name": "clearingHouseArg",
          "type": "address"
        }
      ],
      "name": "setClearingHouse",
      "outputs": [],
      "stateMutability": "nonpayable",
      "type": "function"
    },
    {
      "inputs": [
        {
          "internalType": "address",
          "name": "baseToken",
          "type": "address"
        },
        {
          "internalType": "uint24",
          "name": "exchangeFeeRatio",
          "type": "uint24"
        }
      ],
      "name": "setExchangeFeeRatio",
      "outputs": [],
      "stateMutability": "nonpayable",
      "type": "function"
    },
    {
      "inputs": [
        {
          "internalType": "address",
          "name": "baseToken",
          "type": "address"
        },
        {
          "internalType": "uint24",
          "name": "insuranceFundFeeRatioArg",
          "type": "uint24"
        }
      ],
      "name": "setInsuranceFundFeeRatio",
      "outputs": [],
      "stateMutability": "nonpayable",
      "type": "function"
    },
    {
      "inputs": [
        {
          "internalType": "address",
          "name": "newOwner",
          "type": "address"
        }
      ],
      "name": "setOwner",
      "outputs": [],
      "stateMutability": "nonpayable",
      "type": "function"
    },
    {
      "inputs": [],
      "name": "updateOwner",
      "outputs": [],
      "stateMutability": "nonpayable",
      "type": "function"
    }
  ],
  "bytecode": "0x608060405234801561001057600080fd5b506115d6806100206000396000f3fe608060405234801561001057600080fd5b506004361061010b5760003560e01c8063715018a6116100a2578063b02dd21111610071578063b02dd211146101fa578063bc5920ba1461021a578063c4d66de814610222578063c575ff7914610235578063f75ad90a1461023d5761010b565b8063715018a6146101c45780637fbec653146101cc57806381551959146101df5780638da5cb5b146101f25761010b565b80634a64d67d116100de5780634a64d67d1461017457806354f4e599146101895780636c8381f81461019c5780636ea7507b146101a45761010b565b806308ff49ad1461011057806313af4035146101395780633feb42121461014e578063449323d814610161575b600080fd5b61012361011e366004611191565b610250565b6040516101309190611590565b60405180910390f35b61014c610147366004611191565b6102b6565b005b61014c61015c3660046111f4565b610399565b61014c61016f366004611191565b6104a1565b61017c61052a565b604051610130919061127f565b61014c6101973660046111f4565b610539565b61017c610635565b6101b76101b2366004611191565b610644565b604051610130919061155b565b61014c6106de565b6101236101da366004611191565b610773565b61014c6101ed3660046111b2565b6107d0565b61017c610cf0565b61020d610208366004611191565b610cff565b60405161013091906112b1565b61014c610d22565b61014c610230366004611191565b610de5565b61017c610eac565b61017c61024b366004611191565b610ebb565b6001600160a01b038082166000908152609b602052604081205490918391166102945760405162461bcd60e51b815260040161028b906112dc565b60405180910390fd5b50506001600160a01b03166000908152609c602052604090205462ffffff1690565b6102be610f16565b6001600160a01b03166102cf610cf0565b6001600160a01b0316146102f55760405162461bcd60e51b815260040161028b906113e2565b6001600160a01b03811661031b5760405162461bcd60e51b815260040161028b9061153b565b6033546001600160a01b03828116911614156103495760405162461bcd60e51b815260040161028b906113a1565b6034546001600160a01b03828116911614156103775760405162461bcd60e51b815260040161028b9061133e565b603480546001600160a01b0319166001600160a01b0392909216919091179055565b6001600160a01b038083166000908152609b60205260409020548391166103d25760405162461bcd60e51b815260040161028b906112dc565b81620f42408162ffffff1611156103fb5760405162461bcd60e51b815260040161028b9061131f565b610403610f16565b6001600160a01b0316610414610cf0565b6001600160a01b03161461043a5760405162461bcd60e51b815260040161028b906113e2565b6001600160a01b0384166000908152609c602052604090819020805462ffffff191662ffffff8616179055517f0b4bf524b123dd9f9252f2f17e6f842313eb705045a2259faccd2530bae3ff5c90610493908590611590565b60405180910390a150505050565b6104a9610f16565b6001600160a01b03166104ba610cf0565b6001600160a01b0316146104e05760405162461bcd60e51b815260040161028b906113e2565b606780546001600160a01b0319166001600160a01b0383169081179091556040517fd0654f5900f9e7e4e605a19334306e6a2786bbf960ac0484a4c12feb6428fe2f90600090a250565b609a546001600160a01b031690565b6001600160a01b038083166000908152609b60205260409020548391166105725760405162461bcd60e51b815260040161028b906112dc565b81620f42408162ffffff16111561059b5760405162461bcd60e51b815260040161028b9061131f565b6105a3610f16565b6001600160a01b03166105b4610cf0565b6001600160a01b0316146105da5760405162461bcd60e51b815260040161028b906113e2565b6001600160a01b0384166000908152609d602052604090819020805462ffffff191662ffffff8616179055517f240ed59d2cdf4d7c6066952ebaeda2a06b0e0a8c6a019862472dd9a239b9343a906104939086908690611293565b6034546001600160a01b031690565b61064c611147565b6001600160a01b038083166000908152609b60205260409020548391166106855760405162461bcd60e51b815260040161028b906112dc565b5050604080516060810182526001600160a01b039283166000818152609b6020908152848220549095168352818152609d85528381205462ffffff90811686850152918152609c90945292829020549092169082015290565b6106e6610f16565b6001600160a01b03166106f7610cf0565b6001600160a01b03161461071d5760405162461bcd60e51b815260040161028b906113e2565b6033546040516000916001600160a01b0316907f8be0079c531659141344cd1fd0a4f28419497f9722a3daafe3b4186f6b6457e0908390a3603380546001600160a01b0319908116909155603480549091169055565b6001600160a01b038082166000908152609b602052604081205490918391166107ae5760405162461bcd60e51b815260040161028b906112dc565b50506001600160a01b03166000908152609d602052604090205462ffffff1690565b6001600160a01b038381166000908152609b602052604090205416156108085760405162461bcd60e51b815260040161028b906114fc565b826001600160a01b031663313ce5676040518163ffffffff1660e01b815260040160206040518083038186803b15801561084157600080fd5b505afa158015610855573d6000803e3d6000fd5b505050506040513d601f19601f82011682018060405250810190610879919061125e565b60ff1660121461089b5760405162461bcd60e51b815260040161028b90611424565b6067546040516370a0823160e01b8152600019916001600160a01b03808716926370a08231926108cf92169060040161127f565b60206040518083038186803b1580156108e757600080fd5b505afa1580156108fb573d6000803e3d6000fd5b505050506040513d601f19601f8201168201806040525081019061091f9190611246565b1461093c5760405162461bcd60e51b815260040161028b9061137f565b609a54604080516318160ddd60e01b81529051600019926001600160a01b0316916318160ddd916004808301926020929190829003018186803b15801561098257600080fd5b505afa158015610996573d6000803e3d6000fd5b505050506040513d601f19601f820116820180604052508101906109ba9190611246565b146109d75760405162461bcd60e51b815260040161028b906114da565b6109e9826001600160a01b0316610f1a565b610a055760405162461bcd60e51b815260040161028b906113c1565b6067546040516304fec10960e11b81526001600160a01b03858116926309fd821292610a37929091169060040161127f565b60206040518083038186803b158015610a4f57600080fd5b505afa158015610a63573d6000803e3d6000fd5b505050506040513d601f19601f82011682018060405250810190610a879190611226565b610aa35760405162461bcd60e51b815260040161028b90611402565b6040516304fec10960e11b81526001600160a01b038416906309fd821290610acf90859060040161127f565b60206040518083038186803b158015610ae757600080fd5b505afa158015610afb573d6000803e3d6000fd5b505050506040513d601f19601f82011682018060405250810190610b1f9190611226565b610b3b5760405162461bcd60e51b815260040161028b906114b7565b609a546067546040516304fec10960e11b81526001600160a01b03928316926309fd821292610b6f9291169060040161127f565b60206040518083038186803b158015610b8757600080fd5b505afa158015610b9b573d6000803e3d6000fd5b505050506040513d601f19601f82011682018060405250810190610bbf9190611226565b610bdb5760405162461bcd60e51b815260040161028b90611446565b609a546040516304fec10960e11b81526001600160a01b03909116906309fd821290610c0b90859060040161127f565b60206040518083038186803b158015610c2357600080fd5b505afa158015610c37573d6000803e3d6000fd5b505050506040513d601f19601f82011682018060405250810190610c5b9190611226565b610c775760405162461bcd60e51b815260040161028b906112fc565b6001600160a01b038381166000818152609b6020908152604080832080546001600160a01b0319169588169586179055609d909152808220805462ffffff191662ffffff871690811790915590519092917fd67f2f86ace0800f422e475bfe7341b6d68aa709a827096f770df50283b2bb1991a4505050565b6033546001600160a01b031690565b6001600160a01b038181166000908152609b60205260409020541615155b919050565b6034546001600160a01b0316610d4a5760405162461bcd60e51b815260040161028b9061151c565b610d52610f16565b6034546001600160a01b03908116911614610d7f5760405162461bcd60e51b815260040161028b906112bc565b6034546033546040516001600160a01b0392831692909116907f8be0079c531659141344cd1fd0a4f28419497f9722a3daafe3b4186f6b6457e090600090a360348054603380546001600160a01b03199081166001600160a01b03841617909155169055565b600054610100900460ff1680610dfe575060005460ff16155b610e1a5760405162461bcd60e51b815260040161028b90611469565b600054610100900460ff16158015610e45576000805460ff1961ff0019909116610100171660011790555b610e4d610f20565b610e5f826001600160a01b0316610f1a565b610e7b5760405162461bcd60e51b815260040161028b9061135e565b609a80546001600160a01b0319166001600160a01b0384161790558015610ea8576000805461ff00191690555b5050565b6067546001600160a01b031690565b6001600160a01b038082166000908152609b60205260408120549091839116610ef65760405162461bcd60e51b815260040161028b906112dc565b50506001600160a01b039081166000908152609b60205260409020541690565b3390565b3b151590565b600054610100900460ff1680610f39575060005460ff16155b610f555760405162461bcd60e51b815260040161028b90611469565b600054610100900460ff16158015610f80576000805460ff1961ff0019909116610100171660011790555b610f88610f9d565b8015610f9a576000805461ff00191690555b50565b600054610100900460ff1680610fb6575060005460ff16155b610fd25760405162461bcd60e51b815260040161028b90611469565b600054610100900460ff16158015610ffd576000805460ff1961ff0019909116610100171660011790555b611005611071565b600061100f610f16565b603380546001600160a01b0319166001600160a01b038316908117909155604051919250906000907f8be0079c531659141344cd1fd0a4f28419497f9722a3daafe3b4186f6b6457e0908290a3508015610f9a576000805461ff001916905550565b600054610100900460ff168061108a575060005460ff16155b6110a65760405162461bcd60e51b815260040161028b90611469565b600054610100900460ff161580156110d1576000805460ff1961ff0019909116610100171660011790555b610f88600054610100900460ff16806110ed575060005460ff16155b6111095760405162461bcd60e51b815260040161028b90611469565b600054610100900460ff16158015610f88576000805460ff1961ff0019909116610100171660011790558015610f9a576000805461ff001916905550565b604080516060810182526000808252602082018190529181019190915290565b80356001600160a01b0381168114610d1d57600080fd5b803562ffffff81168114610d1d57600080fd5b6000602082840312156111a2578081fd5b6111ab82611167565b9392505050565b6000806000606084860312156111c6578182fd5b6111cf84611167565b92506111dd60208501611167565b91506111eb6040850161117e565b90509250925092565b60008060408385031215611206578182fd5b61120f83611167565b915061121d6020840161117e565b90509250929050565b600060208284031215611237578081fd5b815180151581146111ab578182fd5b600060208284031215611257578081fd5b5051919050565b60006020828403121561126f578081fd5b815160ff811681146111ab578182fd5b6001600160a01b0391909116815260200190565b6001600160a01b0392909216825262ffffff16602082015260400190565b901515815260200190565b602080825260069082015265534f5f434e4360d01b604082015260600190565b60208082526006908201526541465f504e4560d01b604082015260600190565b602080825260099082015268105197d053539455d360ba1b604082015260600190565b60208082526005908201526441465f524f60d81b604082015260600190565b602080825260069082015265534f5f53414360d01b604082015260600190565b60208082526007908201526641465f51544e4360c81b604082015260600190565b60208082526008908201526741465f4348424e4560c01b604082015260600190565b602080825260069082015265534f5f53414f60d01b604082015260600190565b60208082526007908201526641465f414d4e4360c81b604082015260600190565b602080825260069082015265534f5f434e4f60d01b604082015260600190565b602080825260089082015267105197d0d39095d360c21b604082015260600190565b6020808252600890820152670828cbe84889c62760c31b604082015260600190565b602080825260099082015268105197d0d2139455d360ba1b604082015260600190565b6020808252602e908201527f496e697469616c697a61626c653a20636f6e747261637420697320616c72656160408201526d191e481a5b9a5d1a585b1a5e995960921b606082015260800190565b602080825260099082015268105197d053539095d360ba1b604082015260600190565b60208082526008908201526741465f5154534e4560c01b604082015260600190565b60208082526006908201526541465f45414d60d01b604082015260600190565b6020808252600590820152640534f5f43360dc1b604082015260600190565b6020808252600690820152650534f5f4e57360d41b604082015260600190565b81516001600160a01b0316815260208083015162ffffff90811691830191909152604092830151169181019190915260600190565b62ffffff9190911681526020019056fea2646970667358221220909d8606222b9a025421fb5d7765475084cffe58235ba194f41f1e371825a19264736f6c63430008000033",
  "linkReferences": {},
  "deployedLinkReferences": {}
}