{
  "_format": "hh-sol-artifact-1",
  "contractName": "BaseToken",
  "sourceName": "contracts/token/BaseToken.sol",
  "abi": [
    {
      "anonymous": false,
      "inputs": [
        {
          "indexed": true,
          "internalType": "address",
          "name": "owner",
          "type": "address"
        },
        {
          "indexed": true,
          "internalType": "address",
          "name": "spender",
          "type": "address"
        },
        {
          "indexed": false,
          "internalType": "uint256",
          "name": "value",
          "type": "uint256"
        }
      ],
      "name": "Approval",
      "type": "event"
    },
    {
      "anonymous": false,
      "inputs": [
        {
          "indexed": true,
          "internalType": "address",
          "name": "previousOwner",
          "type": "address"
        },
        {
          "indexed": true,
          "internalType": "address",
          "name": "newOwner",
          "type": "address"
        }
      ],
      "name": "OwnershipTransferred",
      "type": "event"
    },
    {
      "anonymous": false,
      "inputs": [
        {
          "indexed": true,
          "internalType": "address",
          "name": "priceFeed",
          "type": "address"
        }
      ],
      "name": "PriceFeedChanged",
      "type": "event"
    },
    {
      "anonymous": false,
      "inputs": [
        {
          "indexed": true,
          "internalType": "address",
          "name": "from",
          "type": "address"
        },
        {
          "indexed": true,
          "internalType": "address",
          "name": "to",
          "type": "address"
        },
        {
          "indexed": false,
          "internalType": "uint256",
          "name": "value",
          "type": "uint256"
        }
      ],
      "name": "Transfer",
      "type": "event"
    },
    {
      "anonymous": false,
      "inputs": [
        {
          "indexed": false,
          "internalType": "address",
          "name": "account",
          "type": "address"
        }
      ],
      "name": "WhitelistAdded",
      "type": "event"
    },
    {
      "anonymous": false,
      "inputs": [
        {
          "indexed": false,
          "internalType": "address",
          "name": "account",
          "type": "address"
        }
      ],
      "name": "WhitelistRemoved",
      "type": "event"
    },
    {
      "inputs": [
        {
          "internalType": "address",
          "name": "account",
          "type": "address"
        }
      ],
      "name": "addWhitelist",
      "outputs": [],
      "stateMutability": "nonpayable",
      "type": "function"
    },
    {
      "inputs": [
        {
          "internalType": "address",
          "name": "owner",
          "type": "address"
        },
        {
          "internalType": "address",
          "name": "spender",
          "type": "address"
        }
      ],
      "name": "allowance",
      "outputs": [
        {
          "internalType": "uint256",
          "name": "",
          "type": "uint256"
        }
      ],
      "stateMutability": "view",
      "type": "function"
    },
    {
      "inputs": [
        {
          "internalType": "address",
          "name": "spender",
          "type": "address"
        },
        {
          "internalType": "uint256",
          "name": "amount",
          "type": "uint256"
        }
      ],
      "name": "approve",
      "outputs": [
        {
          "internalType": "bool",
          "name": "",
          "type": "bool"
        }
      ],
      "stateMutability": "nonpayable",
      "type": "function"
    },
    {
      "inputs": [
        {
          "internalType": "address",
          "name": "account",
          "type": "address"
        }
      ],
      "name": "balanceOf",
      "outputs": [
        {
          "internalType": "uint256",
          "name": "",
          "type": "uint256"
        }
      ],
      "stateMutability": "view",
      "type": "function"
    },
    {
      "inputs": [],
      "name": "candidate",
      "outputs": [
        {
          "internalType": "address",
          "name": "",
          "type": "address"
        }
      ],
      "stateMutability": "view",
      "type": "function"
    },
    {
      "inputs": [],
      "name": "decimals",
      "outputs": [
        {
          "internalType": "uint8",
          "name": "",
          "type": "uint8"
        }
      ],
      "stateMutability": "view",
      "type": "function"
    },
    {
      "inputs": [
        {
          "internalType": "address",
          "name": "spender",
          "type": "address"
        },
        {
          "internalType": "uint256",
          "name": "subtractedValue",
          "type": "uint256"
        }
      ],
      "name": "decreaseAllowance",
      "outputs": [
        {
          "internalType": "bool",
          "name": "",
          "type": "bool"
        }
      ],
      "stateMutability": "nonpayable",
      "type": "function"
    },
    {
      "inputs": [
        {
          "internalType": "uint256",
          "name": "interval",
          "type": "uint256"
        }
      ],
      "name": "getIndexPrice",
      "outputs": [
        {
          "internalType": "uint256",
          "name": "",
          "type": "uint256"
        }
      ],
      "stateMutability": "view",
      "type": "function"
    },
    {
      "inputs": [],
      "name": "getPriceFeed",
      "outputs": [
        {
          "internalType": "address",
          "name": "",
          "type": "address"
        }
      ],
      "stateMutability": "view",
      "type": "function"
    },
    {
      "inputs": [
        {
          "internalType": "address",
          "name": "spender",
          "type": "address"
        },
        {
          "internalType": "uint256",
          "name": "addedValue",
          "type": "uint256"
        }
      ],
      "name": "increaseAllowance",
      "outputs": [
        {
          "internalType": "bool",
          "name": "",
          "type": "bool"
        }
      ],
      "stateMutability": "nonpayable",
      "type": "function"
    },
    {
      "inputs": [
        {
          "internalType": "string",
          "name": "nameArg",
          "type": "string"
        },
        {
          "internalType": "string",
          "name": "symbolArg",
          "type": "string"
        },
        {
          "internalType": "address",
          "name": "priceFeedArg",
          "type": "address"
        }
      ],
      "name": "initialize",
      "outputs": [],
      "stateMutability": "nonpayable",
      "type": "function"
    },
    {
      "inputs": [
        {
          "internalType": "address",
          "name": "account",
          "type": "address"
        }
      ],
      "name": "isInWhitelist",
      "outputs": [
        {
          "internalType": "bool",
          "name": "",
          "type": "bool"
        }
      ],
      "stateMutability": "view",
      "type": "function"
    },
    {
      "inputs": [
        {
          "internalType": "address",
          "name": "recipient",
          "type": "address"
        }
      ],
      "name": "mintMaximumTo",
      "outputs": [],
      "stateMutability": "nonpayable",
      "type": "function"
    },
    {
      "inputs": [],
      "name": "name",
      "outputs": [
        {
          "internalType": "string",
          "name": "",
          "type": "string"
        }
      ],
      "stateMutability": "view",
      "type": "function"
    },
    {
      "inputs": [],
      "name": "owner",
      "outputs": [
        {
          "internalType": "address",
          "name": "",
          "type": "address"
        }
      ],
      "stateMutability": "view",
      "type": "function"
    },
    {
      "inputs": [
        {
          "internalType": "address",
          "name": "account",
          "type": "address"
        }
      ],
      "name": "removeWhitelist",
      "outputs": [],
      "stateMutability": "nonpayable",
      "type": "function"
    },
    {
      "inputs": [],
      "name": "renounceOwnership",
      "outputs": [],
      "stateMutability": "nonpayable",
      "type": "function"
    },
    {
      "inputs": [
        {
          "internalType": "address",
          "name": "newOwner",
          "type": "address"
        }
      ],
      "name": "setOwner",
      "outputs": [],
      "stateMutability": "nonpayable",
      "type": "function"
    },
    {
      "inputs": [
        {
          "internalType": "address",
          "name": "priceFeedArg",
          "type": "address"
        }
      ],
      "name": "setPriceFeed",
      "outputs": [],
      "stateMutability": "nonpayable",
      "type": "function"
    },
    {
      "inputs": [],
      "name": "symbol",
      "outputs": [
        {
          "internalType": "string",
          "name": "",
          "type": "string"
        }
      ],
      "stateMutability": "view",
      "type": "function"
    },
    {
      "inputs": [],
      "name": "totalSupply",
      "outputs": [
        {
          "internalType": "uint256",
          "name": "",
          "type": "uint256"
        }
      ],
      "stateMutability": "view",
      "type": "function"
    },
    {
      "inputs": [
        {
          "internalType": "address",
          "name": "recipient",
          "type": "address"
        },
        {
          "internalType": "uint256",
          "name": "amount",
          "type": "uint256"
        }
      ],
      "name": "transfer",
      "outputs": [
        {
          "internalType": "bool",
          "name": "",
          "type": "bool"
        }
      ],
      "stateMutability": "nonpayable",
      "type": "function"
    },
    {
      "inputs": [
        {
          "internalType": "address",
          "name": "sender",
          "type": "address"
        },
        {
          "internalType": "address",
          "name": "recipient",
          "type": "address"
        },
        {
          "internalType": "uint256",
          "name": "amount",
          "type": "uint256"
        }
      ],
      "name": "transferFrom",
      "outputs": [
        {
          "internalType": "bool",
          "name": "",
          "type": "bool"
        }
      ],
      "stateMutability": "nonpayable",
      "type": "function"
    },
    {
      "inputs": [],
      "name": "updateOwner",
      "outputs": [],
      "stateMutability": "nonpayable",
      "type": "function"
    }
  ],
  "bytecode": "0x608060405234801561001057600080fd5b50611c4a806100206000396000f3fe608060405234801561001057600080fd5b50600436106101585760003560e01c8063715018a6116100c3578063a457c2d71161007c578063a457c2d7146102a7578063a9059cbb146102ba578063bc5920ba146102cd578063dd62ed3e146102d5578063f52e308e146102e8578063f80f5dd5146102fb57610158565b8063715018a614610261578063724e78da1461026957806378c8cda71461027c5780638da5cb5b1461028f57806395d89b41146102975780639e87a5cd1461029f57610158565b806318160ddd1161011557806318160ddd146101f657806323b872dd146101fe578063313ce5671461021157806339509351146102265780636c8381f81461023957806370a082311461024e57610158565b806306fdde031461015d578063077f224a1461017b578063095ea7b31461019057806309fd8212146101b057806312080647146101c357806313af4035146101e3575b600080fd5b61016561030e565b6040516101729190611636565b60405180910390f35b61018e610189366004611555565b6103a0565b005b6101a361019e36600461152c565b6104fb565b604051610172919061162b565b6101a36101be3660046114a5565b610518565b6101d66101d13660046115c6565b61053a565b6040516101729190611a0e565b61018e6101f13660046114a5565b6105d0565b6101d66106b3565b6101a361020c3660046114f1565b6106b9565b610219610752565b6040516101729190611a17565b6101a361023436600461152c565b610757565b6102416107a6565b6040516101729190611617565b6101d661025c3660046114a5565b6107b5565b61018e6107d0565b61018e6102773660046114a5565b610865565b61018e61028a3660046114a5565b6109a7565b610241610a67565b610165610a76565b610241610a85565b6101a36102b536600461152c565b610a99565b6101a36102c836600461152c565b610b14565b61018e610b28565b6101d66102e33660046114bf565b610beb565b61018e6102f63660046114a5565b610c16565b61018e6103093660046114a5565b610c64565b6060606a805461031d90611bad565b80601f016020809104026020016040519081016040528092919081815260200182805461034990611bad565b80156103965780601f1061036b57610100808354040283529160200191610396565b820191906000526020600020905b81548152906001019060200180831161037957829003601f168201915b5050505050905090565b600054610100900460ff16806103b9575060005460ff16155b6103de5760405162461bcd60e51b81526004016103d5906117f5565b60405180910390fd5b600054610100900460ff16158015610409576000805460ff1961ff0019909116610100171660011790555b6104138484610cf6565b6000826001600160a01b031663313ce5676040518163ffffffff1660e01b815260040160206040518083038186803b15801561044e57600080fd5b505afa158015610462573d6000803e3d6000fd5b505050506040513d601f19601f8201168201806040525081019061048691906115f6565b9050610490610752565b60ff168160ff1611156104b55760405162461bcd60e51b81526004016103d5906117b4565b60cc8054610100600160a81b0319166101006001600160a01b038616021760ff191660ff9290921691909117905580156104f5576000805461ff00191690555b50505050565b600061050f610508610d7f565b8484610d83565b50600192915050565b6001600160a01b03811660009081526099602052604090205460ff165b919050565b60cc54604051630e75722360e41b81526000916105ca916101009091046001600160a01b03169063e757223090610575908690600401611a0e565b60206040518083038186803b15801561058d57600080fd5b505afa1580156105a1573d6000803e3d6000fd5b505050506040513d601f19601f820116820180604052508101906105c591906115de565b610e37565b92915050565b6105d8610d7f565b6001600160a01b03166105e9610a67565b6001600160a01b03161461060f5760405162461bcd60e51b81526004016103d5906117d5565b6001600160a01b0381166106355760405162461bcd60e51b81526004016103d5906119b7565b6033546001600160a01b03828116911614156106635760405162461bcd60e51b81526004016103d59061174e565b6034546001600160a01b03828116911614156106915760405162461bcd60e51b81526004016103d59061172e565b603480546001600160a01b0319166001600160a01b0392909216919091179055565b60695490565b60006106c6848484610e67565b6001600160a01b0384166000908152606860205260408120816106e7610d7f565b6001600160a01b03166001600160a01b031681526020019081526020016000205490508281101561072a5760405162461bcd60e51b81526004016103d590611843565b61074585610736610d7f565b6107408685611b73565b610d83565b60019150505b9392505050565b601290565b600061050f610764610d7f565b848460686000610772610d7f565b6001600160a01b03908116825260208083019390935260409182016000908120918b16815292529020546107409190611a25565b6034546001600160a01b031690565b6001600160a01b031660009081526067602052604090205490565b6107d8610d7f565b6001600160a01b03166107e9610a67565b6001600160a01b03161461080f5760405162461bcd60e51b81526004016103d5906117d5565b6033546040516000916001600160a01b0316907f8be0079c531659141344cd1fd0a4f28419497f9722a3daafe3b4186f6b6457e0908390a3603380546001600160a01b0319908116909155603480549091169055565b61086d610d7f565b6001600160a01b031661087e610a67565b6001600160a01b0316146108a45760405162461bcd60e51b81526004016103d5906117d5565b6000816001600160a01b031663313ce5676040518163ffffffff1660e01b815260040160206040518083038186803b1580156108df57600080fd5b505afa1580156108f3573d6000803e3d6000fd5b505050506040513d601f19601f8201168201806040525081019061091791906115f6565b9050610921610752565b60ff168160ff1611156109465760405162461bcd60e51b81526004016103d5906117b4565b60cc8054610100600160a81b0319166101006001600160a01b0385811682029290921760ff191660ff85161792839055604051920416907f70880247142cf113e15f57599afcb48f4cdd196159d882cda54475da68ea996190600090a25050565b6109af610d7f565b6001600160a01b03166109c0610a67565b6001600160a01b0316146109e65760405162461bcd60e51b81526004016103d5906117d5565b6109ef816107b5565b15610a0c5760405162461bcd60e51b81526004016103d59061188b565b6001600160a01b03811660009081526099602052604090819020805460ff19169055517fde8cf212af7ce38b2840785a2768d97ff2dbf3c21b516961cec0061e134c2a1e90610a5c908390611617565b60405180910390a150565b6033546001600160a01b031690565b6060606b805461031d90611bad565b60cc5461010090046001600160a01b031690565b60008060686000610aa8610d7f565b6001600160a01b0390811682526020808301939093526040918201600090812091881681529252902054905082811015610af45760405162461bcd60e51b81526004016103d590611972565b610b0a610aff610d7f565b856107408685611b73565b5060019392505050565b600061050f610b21610d7f565b8484610e67565b6034546001600160a01b0316610b505760405162461bcd60e51b81526004016103d590611953565b610b58610d7f565b6034546001600160a01b03908116911614610b855760405162461bcd60e51b81526004016103d5906116cc565b6034546033546040516001600160a01b0392831692909116907f8be0079c531659141344cd1fd0a4f28419497f9722a3daafe3b4186f6b6457e090600090a360348054603380546001600160a01b03199081166001600160a01b03841617909155169055565b6001600160a01b03918216600090815260686020908152604080832093909416825291909152205490565b610c1e610d7f565b6001600160a01b0316610c2f610a67565b6001600160a01b031614610c555760405162461bcd60e51b81526004016103d5906117d5565b610c6181600019610f8f565b50565b610c6c610d7f565b6001600160a01b0316610c7d610a67565b6001600160a01b031614610ca35760405162461bcd60e51b81526004016103d5906117d5565b6001600160a01b03811660009081526099602052604090819020805460ff19166001179055517f4790a4adb426ca2345bb5108f6e454eae852a7bf687544cd66a7270dff3a41d690610a5c908390611617565b600054610100900460ff1680610d0f575060005460ff16155b610d2b5760405162461bcd60e51b81526004016103d5906117f5565b600054610100900460ff16158015610d56576000805460ff1961ff0019909116610100171660011790555b610d5e61104f565b610d688383611123565b8015610d7a576000805461ff00191690555b505050565b3390565b6001600160a01b038316610da95760405162461bcd60e51b81526004016103d5906118f0565b6001600160a01b038216610dcf5760405162461bcd60e51b81526004016103d5906116ec565b6001600160a01b0380841660008181526068602090815260408083209487168084529490915290819020849055517f8c5be1e5ebec7d5bd14f71427d1e84f3dd0314c0f7b2291e5b200ac8c7c3b92590610e2a908590611a0e565b60405180910390a3505050565b60cc5460009060ff16610e48610752565b610e529190611b8a565b610e5d90600a611a83565b6105ca9083611b54565b6001600160a01b038316610e8d5760405162461bcd60e51b81526004016103d5906118ab565b6001600160a01b038216610eb35760405162461bcd60e51b81526004016103d590611689565b610ebe838383611195565b6001600160a01b03831660009081526067602052604090205481811015610ef75760405162461bcd60e51b81526004016103d59061176e565b610f018282611b73565b6001600160a01b038086166000908152606760205260408082209390935590851681529081208054849290610f37908490611a25565b92505081905550826001600160a01b0316846001600160a01b03167fddf252ad1be2c89b69c2b068fc378daa952ba7f163c4a11628f55a4df523b3ef84604051610f819190611a0e565b60405180910390a350505050565b6001600160a01b038216610fb55760405162461bcd60e51b81526004016103d5906119d7565b610fc160008383611195565b8060696000828254610fd39190611a25565b90915550506001600160a01b03821660009081526067602052604081208054839290611000908490611a25565b90915550506040516001600160a01b038316906000907fddf252ad1be2c89b69c2b068fc378daa952ba7f163c4a11628f55a4df523b3ef90611043908590611a0e565b60405180910390a35050565b600054610100900460ff1680611068575060005460ff16155b6110845760405162461bcd60e51b81526004016103d5906117f5565b600054610100900460ff161580156110af576000805460ff1961ff0019909116610100171660011790555b6110b76111e7565b60006110c1610d7f565b603380546001600160a01b0319166001600160a01b038316908117909155604051919250906000907f8be0079c531659141344cd1fd0a4f28419497f9722a3daafe3b4186f6b6457e0908290a3508015610c61576000805461ff001916905550565b600054610100900460ff168061113c575060005460ff16155b6111585760405162461bcd60e51b81526004016103d5906117f5565b600054610100900460ff16158015611183576000805460ff1961ff0019909116610100171660011790555b61118b611263565b610d6883836112d6565b6111a0838383610d7a565b6001600160a01b03831615610d7a576001600160a01b03831660009081526099602052604090205460ff16610d7a5760405162461bcd60e51b81526004016103d590611934565b600054610100900460ff1680611200575060005460ff16155b61121c5760405162461bcd60e51b81526004016103d5906117f5565b600054610100900460ff16158015611247576000805460ff1961ff0019909116610100171660011790555b61124f611263565b8015610c61576000805461ff001916905550565b600054610100900460ff168061127c575060005460ff16155b6112985760405162461bcd60e51b81526004016103d5906117f5565b600054610100900460ff1615801561124f576000805460ff1961ff0019909116610100171660011790558015610c61576000805461ff001916905550565b600054610100900460ff16806112ef575060005460ff16155b61130b5760405162461bcd60e51b81526004016103d5906117f5565b600054610100900460ff16158015611336576000805460ff1961ff0019909116610100171660011790555b825161134990606a906020860190611374565b50815161135d90606b906020850190611374565b508015610d7a576000805461ff0019169055505050565b82805461138090611bad565b90600052602060002090601f0160209004810192826113a257600085556113e8565b82601f106113bb57805160ff19168380011785556113e8565b828001600101855582156113e8579182015b828111156113e85782518255916020019190600101906113cd565b506113f49291506113f8565b5090565b5b808211156113f457600081556001016113f9565b80356001600160a01b038116811461053557600080fd5b600082601f830112611434578081fd5b813567ffffffffffffffff8082111561144f5761144f611bfe565b604051601f8301601f19168101602001828111828210171561147357611473611bfe565b60405282815284830160200186101561148a578384fd5b82602086016020830137918201602001929092529392505050565b6000602082840312156114b6578081fd5b61074b8261140d565b600080604083850312156114d1578081fd5b6114da8361140d565b91506114e86020840161140d565b90509250929050565b600080600060608486031215611505578081fd5b61150e8461140d565b925061151c6020850161140d565b9150604084013590509250925092565b6000806040838503121561153e578182fd5b6115478361140d565b946020939093013593505050565b600080600060608486031215611569578283fd5b833567ffffffffffffffff80821115611580578485fd5b61158c87838801611424565b945060208601359150808211156115a1578384fd5b506115ae86828701611424565b9250506115bd6040850161140d565b90509250925092565b6000602082840312156115d7578081fd5b5035919050565b6000602082840312156115ef578081fd5b5051919050565b600060208284031215611607578081fd5b815160ff8116811461074b578182fd5b6001600160a01b0391909116815260200190565b901515815260200190565b6000602080835283518082850152825b8181101561166257858101830151858201604001528201611646565b818111156116735783604083870101525b50601f01601f1916929092016040019392505050565b60208082526023908201527f45524332303a207472616e7366657220746f20746865207a65726f206164647260408201526265737360e81b606082015260800190565b602080825260069082015265534f5f434e4360d01b604082015260600190565b60208082526022908201527f45524332303a20617070726f766520746f20746865207a65726f206164647265604082015261737360f01b606082015260800190565b602080825260069082015265534f5f53414360d01b604082015260600190565b602080825260069082015265534f5f53414f60d01b604082015260600190565b60208082526026908201527f45524332303a207472616e7366657220616d6f756e7420657863656564732062604082015265616c616e636560d01b606082015260800190565b602080825260079082015266109517d254119160ca1b604082015260600190565b602080825260069082015265534f5f434e4f60d01b604082015260600190565b6020808252602e908201527f496e697469616c697a61626c653a20636f6e747261637420697320616c72656160408201526d191e481a5b9a5d1a585b1a5e995960921b606082015260800190565b60208082526028908201527f45524332303a207472616e7366657220616d6f756e74206578636565647320616040820152676c6c6f77616e636560c01b606082015260800190565b6020808252600690820152652b2a2fa1272d60d11b604082015260600190565b60208082526025908201527f45524332303a207472616e736665722066726f6d20746865207a65726f206164604082015264647265737360d81b606082015260800190565b60208082526024908201527f45524332303a20617070726f76652066726f6d20746865207a65726f206164646040820152637265737360e01b606082015260800190565b60208082526005908201526456545f4e5760d81b604082015260600190565b6020808252600590820152640534f5f43360dc1b604082015260600190565b60208082526025908201527f45524332303a2064656372656173656420616c6c6f77616e63652062656c6f77604082015264207a65726f60d81b606082015260800190565b6020808252600690820152650534f5f4e57360d41b604082015260600190565b6020808252601f908201527f45524332303a206d696e7420746f20746865207a65726f206164647265737300604082015260600190565b90815260200190565b60ff91909116815260200190565b60008219821115611a3857611a38611be8565b500190565b80825b6001808611611a4f5750611a7a565b818704821115611a6157611a61611be8565b80861615611a6e57918102915b9490941c938002611a40565b94509492505050565b600061074b60001960ff851684600082611a9f5750600161074b565b81611aac5750600061074b565b8160018114611ac25760028114611acc57611af9565b600191505061074b565b60ff841115611add57611add611be8565b6001841b915084821115611af357611af3611be8565b5061074b565b5060208310610133831016604e8410600b8410161715611b2c575081810a83811115611b2757611b27611be8565b61074b565b611b398484846001611a3d565b808604821115611b4b57611b4b611be8565b02949350505050565b6000816000190483118215151615611b6e57611b6e611be8565b500290565b600082821015611b8557611b85611be8565b500390565b600060ff821660ff841680821015611ba457611ba4611be8565b90039392505050565b600281046001821680611bc157607f821691505b60208210811415611be257634e487b7160e01b600052602260045260246000fd5b50919050565b634e487b7160e01b600052601160045260246000fd5b634e487b7160e01b600052604160045260246000fdfea26469706673582212209fe88756567d390f58fa1f1eb6111d33eea574b5d8f875b66e79c2f2bc83a74f64736f6c63430008000033",
  "linkReferences": {},
  "deployedLinkReferences": {}
}