{
  "_format": "hh-sol-artifact-1",
  "contractName": "ChainlinkPriceFeed",
  "sourceName": "contracts/oracle/ChainlinkPriceFeed.sol",
  "abi": [
    {
      "inputs": [],
      "name": "decimals",
      "outputs": [
        {
          "internalType": "uint8",
          "name": "",
          "type": "uint8"
        }
      ],
      "stateMutability": "view",
      "type": "function"
    },
    {
      "inputs": [],
      "name": "getAggregator",
      "outputs": [
        {
          "internalType": "address",
          "name": "",
          "type": "address"
        }
      ],
      "stateMutability": "view",
      "type": "function"
    },
    {
      "inputs": [],
      "name": "getLatestRoundData",
      "outputs": [
        {
          "internalType": "uint80",
          "name": "",
          "type": "uint80"
        },
        {
          "internalType": "uint256",
          "name": "",
          "type": "uint256"
        },
        {
          "internalType": "uint256",
          "name": "",
          "type": "uint256"
        }
      ],
      "stateMutability": "view",
      "type": "function"
    },
    {
      "inputs": [
        {
          "internalType": "uint256",
          "name": "interval",
          "type": "uint256"
        }
      ],
      "name": "getPrice",
      "outputs": [
        {
          "internalType": "uint256",
          "name": "",
          "type": "uint256"
        }
      ],
      "stateMutability": "view",
      "type": "function"
    },
    {
      "inputs": [
        {
          "internalType": "uint80",
          "name": "roundId",
          "type": "uint80"
        }
      ],
      "name": "getRoundData",
      "outputs": [
        {
          "internalType": "uint256",
          "name": "",
          "type": "uint256"
        },
        {
          "internalType": "uint256",
          "name": "",
          "type": "uint256"
        }
      ],
      "stateMutability": "view",
      "type": "function"
    },
    {
      "inputs": [
        {
          "internalType": "contract AggregatorV3Interface",
          "name": "aggregator",
          "type": "address"
        }
      ],
      "name": "initialize",
      "outputs": [],
      "stateMutability": "nonpayable",
      "type": "function"
    }
  ],
  "bytecode": "0x608060405234801561001057600080fd5b50610a62806100206000396000f3fe608060405234801561001057600080fd5b50600436106100625760003560e01c80632daae2f314610067578063313ce567146100875780633ad59dbc1461009c5780639a6fc8f5146100b1578063c4d66de8146100d2578063e7572230146100e7575b600080fd5b61006f610107565b60405161007e9392919061093c565b60405180910390f35b61008f610127565b60405161007e919061095d565b6100a46101b3565b60405161007e919061082b565b6100c46100bf366004610797565b6101c8565b60405161007e92919061091a565b6100e56100e0366004610751565b6102ad565b005b6100fa6100f536600461077f565b610373565b60405161007e9190610911565b6000806000806000806101186104ef565b91975095509350505050909192565b60008060029054906101000a90046001600160a01b03166001600160a01b031663313ce5676040518163ffffffff1660e01b815260040160206040518083038186803b15801561017657600080fd5b505afa15801561018a573d6000803e3d6000fd5b505050506040513d601f19601f820116820180604052508101906101ae919061080a565b905090565b6000546201000090046001600160a01b031690565b60008054604051639a6fc8f560e01b81528291829182916201000090046001600160a01b031690639a6fc8f590610203908890600401610928565b60a06040518083038186803b15801561021b57600080fd5b505afa15801561022f573d6000803e3d6000fd5b505050506040513d601f19601f8201168201806040525081019061025391906107b3565b50935050925050600082136102835760405162461bcd60e51b815260040161027a9061083f565b60405180910390fd5b600081116102a35760405162461bcd60e51b815260040161027a906108ad565b9092509050915091565b600054610100900460ff16806102c6575060005460ff16155b6102e25760405162461bcd60e51b815260040161027a9061085f565b600054610100900460ff1615801561030d576000805460ff1961ff0019909116610100171660011790555b61031f826001600160a01b03166105c3565b61033b5760405162461bcd60e51b815260040161027a906108cf565b6000805462010000600160b01b031916620100006001600160a01b03851602179055801561036f576000805461ff00191690555b5050565b6000806000806103816104ef565b925092509250846000148061039d57506001600160501b038316155b156103ac575091506104ea9050565b6000856103b76105c9565b6103c191906109c2565b9050808210156103d757829450505050506104ea565b816000816103e36105c9565b6103ed91906109c2565b905060006103fb82876109a3565b905060005b6001600160501b03881661043c57826104235786985050505050505050506104ea565b61042d8383610983565b985050505050505050506104ea565b6104476001896109d9565b97506000806104558a6105cd565b92509250508681116104885761046b87876109c2565b61047590836109a3565b61047f908561096b565b935050506104c0565b61049281876109c2565b925061049e83836109a3565b6104a8908561096b565b93506104b4838661096b565b94508095505050610400565b816104d55786985050505050505050506104ea565b6104df8a83610983565b985050505050505050505b919050565b600080600080600080600060029054906101000a90046001600160a01b03166001600160a01b031663feaf968c6040518163ffffffff1660e01b815260040160a06040518083038186803b15801561054657600080fd5b505afa15801561055a573d6000803e3d6000fd5b505050506040513d601f19601f8201168201806040525081019061057e91906107b3565b509350509250925081945060008212156105b75761059b83610725565b6105ae6105a96001856109d9565b6105cd565b90965090935090505b91945090915050909192565b3b151590565b4290565b60008054604051639a6fc8f560e01b8152829182918291829182916201000090046001600160a01b031690639a6fc8f59061060c908a90600401610928565b60a06040518083038186803b15801561062457600080fd5b505afa158015610638573d6000803e3d6000fd5b505050506040513d601f19601f8201168201806040525081019061065c91906107b3565b50935050925092505b60008212156107185761067783610725565b6106826001846109d9565b600054604051639a6fc8f560e01b81529194506201000090046001600160a01b031690639a6fc8f5906106b9908690600401610928565b60a06040518083038186803b1580156106d157600080fd5b505afa1580156106e5573d6000803e3d6000fd5b505050506040513d601f19601f8201168201806040525081019061070991906107b3565b50919450909250610665915050565b9196909550909350915050565b6000816001600160501b03161161074e5760405162461bcd60e51b815260040161027a906108f0565b50565b600060208284031215610762578081fd5b81356001600160a01b0381168114610778578182fd5b9392505050565b600060208284031215610790578081fd5b5035919050565b6000602082840312156107a8578081fd5b813561077881610a17565b600080600080600060a086880312156107ca578081fd5b85516107d581610a17565b8095505060208601519350604086015192506060860151915060808601516107fc81610a17565b809150509295509295909350565b60006020828403121561081b578081fd5b815160ff81168114610778578182fd5b6001600160a01b0391909116815260200190565b60208082526006908201526504350465f49560d41b604082015260600190565b6020808252602e908201527f496e697469616c697a61626c653a20636f6e747261637420697320616c72656160408201526d191e481a5b9a5d1a585b1a5e995960921b606082015260800190565b6020808252600890820152674350465f52494e4360c01b604082015260600190565b6020808252600790820152664350465f414e4360c81b604082015260600190565b602080825260079082015266086a08cbe9c8a960cb1b604082015260600190565b90815260200190565b918252602082015260400190565b6001600160501b0391909116815260200190565b6001600160501b039390931683526020830191909152604082015260600190565b60ff91909116815260200190565b6000821982111561097e5761097e610a01565b500190565b60008261099e57634e487b7160e01b81526012600452602481fd5b500490565b60008160001904831182151516156109bd576109bd610a01565b500290565b6000828210156109d4576109d4610a01565b500390565b60006001600160501b03838116908316818110156109f9576109f9610a01565b039392505050565b634e487b7160e01b600052601160045260246000fd5b6001600160501b038116811461074e57600080fdfea26469706673582212203e9455de3b9b5b78330c9fe121ef6a0a5687e57766b0279737b65b1262dc3c6864736f6c63430008000033",
  "linkReferences": {},
  "deployedLinkReferences": {}
}