{
  "_format": "hh-sol-artifact-1",
  "contractName": "ClearingHouse",
  "sourceName": "contracts/clearinghouse/ClearingHouse.sol",
  "abi": [
    {
      "anonymous": false,
      "inputs": [
        {
          "indexed": true,
          "internalType": "address",
          "name": "trader",
          "type": "address"
        },
        {
          "indexed": true,
          "internalType": "address",
          "name": "baseToken",
          "type": "address"
        },
        {
          "indexed": false,
          "internalType": "int256",
          "name": "fundingPayment",
          "type": "int256"
        }
      ],
      "name": "FundingPaymentSettled",
      "type": "event"
    },
    {
      "anonymous": false,
      "inputs": [
        {
          "indexed": true,
          "internalType": "address",
          "name": "maker",
          "type": "address"
        },
        {
          "indexed": true,
          "internalType": "address",
          "name": "baseToken",
          "type": "address"
        },
        {
          "indexed": true,
          "internalType": "address",
          "name": "quoteToken",
          "type": "address"
        },
        {
          "indexed": false,
          "internalType": "int256",
          "name": "base",
          "type": "int256"
        },
        {
          "indexed": false,
          "internalType": "int256",
          "name": "quote",
          "type": "int256"
        },
        {
          "indexed": false,
          "internalType": "int256",
          "name": "liquidity",
          "type": "int256"
        },
        {
          "indexed": false,
          "internalType": "uint256",
          "name": "quoteFee",
          "type": "uint256"
        }
      ],
      "name": "LiquidityChanged",
      "type": "event"
    },
    {
      "anonymous": false,
      "inputs": [
        {
          "indexed": true,
          "internalType": "address",
          "name": "previousOwner",
          "type": "address"
        },
        {
          "indexed": true,
          "internalType": "address",
          "name": "newOwner",
          "type": "address"
        }
      ],
      "name": "OwnershipTransferred",
      "type": "event"
    },
    {
      "anonymous": false,
      "inputs": [
        {
          "indexed": false,
          "internalType": "address",
          "name": "account",
          "type": "address"
        }
      ],
      "name": "Paused",
      "type": "event"
    },
    {
      "anonymous": false,
      "inputs": [
        {
          "indexed": true,
          "internalType": "address",
          "name": "trader",
          "type": "address"
        },
        {
          "indexed": true,
          "internalType": "address",
          "name": "baseToken",
          "type": "address"
        },
        {
          "indexed": false,
          "internalType": "int256",
          "name": "exchangedPositionSize",
          "type": "int256"
        },
        {
          "indexed": false,
          "internalType": "int256",
          "name": "exchangedPositionNotional",
          "type": "int256"
        },
        {
          "indexed": false,
          "internalType": "uint256",
          "name": "fee",
          "type": "uint256"
        },
        {
          "indexed": false,
          "internalType": "int256",
          "name": "openNotional",
          "type": "int256"
        },
        {
          "indexed": false,
          "internalType": "int256",
          "name": "realizedPnl",
          "type": "int256"
        },
        {
          "indexed": false,
          "internalType": "uint256",
          "name": "priceAfter",
          "type": "uint256"
        }
      ],
      "name": "PositionChanged",
      "type": "event"
    },
    {
      "anonymous": false,
      "inputs": [
        {
          "indexed": true,
          "internalType": "address",
          "name": "trader",
          "type": "address"
        },
        {
          "indexed": true,
          "internalType": "address",
          "name": "baseToken",
          "type": "address"
        },
        {
          "indexed": false,
          "internalType": "uint256",
          "name": "positionNotional",
          "type": "uint256"
        },
        {
          "indexed": false,
          "internalType": "uint256",
          "name": "positionSize",
          "type": "uint256"
        },
        {
          "indexed": false,
          "internalType": "uint256",
          "name": "liquidationFee",
          "type": "uint256"
        },
        {
          "indexed": false,
          "internalType": "address",
          "name": "liquidator",
          "type": "address"
        }
      ],
      "name": "PositionLiquidated",
      "type": "event"
    },
    {
      "anonymous": false,
      "inputs": [
        {
          "indexed": true,
          "internalType": "bytes32",
          "name": "referralCode",
          "type": "bytes32"
        }
      ],
      "name": "ReferredPositionChanged",
      "type": "event"
    },
    {
      "anonymous": false,
      "inputs": [
        {
          "indexed": true,
          "internalType": "address",
          "name": "forwarder",
          "type": "address"
        }
      ],
      "name": "TrustedForwarderChanged",
      "type": "event"
    },
    {
      "anonymous": false,
      "inputs": [
        {
          "indexed": false,
          "internalType": "address",
          "name": "trustedForwarder",
          "type": "address"
        }
      ],
      "name": "TrustedForwarderUpdated",
      "type": "event"
    },
    {
      "anonymous": false,
      "inputs": [
        {
          "indexed": false,
          "internalType": "address",
          "name": "account",
          "type": "address"
        }
      ],
      "name": "Unpaused",
      "type": "event"
    },
    {
      "inputs": [
        {
          "components": [
            {
              "internalType": "address",
              "name": "baseToken",
              "type": "address"
            },
            {
              "internalType": "uint256",
              "name": "base",
              "type": "uint256"
            },
            {
              "internalType": "uint256",
              "name": "quote",
              "type": "uint256"
            },
            {
              "internalType": "uint256",
              "name": "minLiquidity",
              "type": "uint256"
            },
            {
              "internalType": "uint256",
              "name": "deadline",
              "type": "uint256"
            }
          ],
          "internalType": "struct IClearingHouse.AddLiquidityParams",
          "name": "params",
          "type": "tuple"
        }
      ],
      "name": "addLiquidity",
      "outputs": [
        {
          "components": [
            {
              "internalType": "uint256",
              "name": "base",
              "type": "uint256"
            },
            {
              "internalType": "uint256",
              "name": "quote",
              "type": "uint256"
            },
            {
              "internalType": "uint256",
              "name": "fee",
              "type": "uint256"
            },
            {
              "internalType": "uint256",
              "name": "liquidity",
              "type": "uint256"
            }
          ],
          "internalType": "struct IClearingHouse.AddLiquidityResponse",
          "name": "",
          "type": "tuple"
        }
      ],
      "stateMutability": "nonpayable",
      "type": "function"
    },
    {
      "inputs": [
        {
          "internalType": "address",
          "name": "token",
          "type": "address"
        },
        {
          "internalType": "address",
          "name": "account",
          "type": "address"
        }
      ],
      "name": "approve",
      "outputs": [],
      "stateMutability": "nonpayable",
      "type": "function"
    },
    {
      "inputs": [
        {
          "internalType": "address",
          "name": "maker",
          "type": "address"
        },
        {
          "internalType": "address",
          "name": "baseToken",
          "type": "address"
        }
      ],
      "name": "cancelOpenOrder",
      "outputs": [],
      "stateMutability": "nonpayable",
      "type": "function"
    },
    {
      "inputs": [],
      "name": "candidate",
      "outputs": [
        {
          "internalType": "address",
          "name": "",
          "type": "address"
        }
      ],
      "stateMutability": "view",
      "type": "function"
    },
    {
      "inputs": [
        {
          "components": [
            {
              "internalType": "address",
              "name": "baseToken",
              "type": "address"
            },
            {
              "internalType": "uint256",
              "name": "amountLimit",
              "type": "uint256"
            },
            {
              "internalType": "uint256",
              "name": "deadline",
              "type": "uint256"
            },
            {
              "internalType": "bytes32",
              "name": "referralCode",
              "type": "bytes32"
            }
          ],
          "internalType": "struct IClearingHouse.ClosePositionParams",
          "name": "params",
          "type": "tuple"
        }
      ],
      "name": "closePosition",
      "outputs": [
        {
          "internalType": "uint256",
          "name": "base",
          "type": "uint256"
        },
        {
          "internalType": "uint256",
          "name": "quote",
          "type": "uint256"
        }
      ],
      "stateMutability": "nonpayable",
      "type": "function"
    },
    {
      "inputs": [
        {
          "internalType": "address",
          "name": "trader",
          "type": "address"
        }
      ],
      "name": "getAccountValue",
      "outputs": [
        {
          "internalType": "int256",
          "name": "",
          "type": "int256"
        }
      ],
      "stateMutability": "view",
      "type": "function"
    },
    {
      "inputs": [],
      "name": "getClearingHouseConfig",
      "outputs": [
        {
          "internalType": "address",
          "name": "",
          "type": "address"
        }
      ],
      "stateMutability": "view",
      "type": "function"
    },
    {
      "inputs": [],
      "name": "getInsuranceFund",
      "outputs": [
        {
          "internalType": "address",
          "name": "",
          "type": "address"
        }
      ],
      "stateMutability": "view",
      "type": "function"
    },
    {
      "inputs": [],
      "name": "getLiquidityProvider",
      "outputs": [
        {
          "internalType": "address",
          "name": "",
          "type": "address"
        }
      ],
      "stateMutability": "view",
      "type": "function"
    },
    {
      "inputs": [],
      "name": "getMarketTaker",
      "outputs": [
        {
          "internalType": "address",
          "name": "",
          "type": "address"
        }
      ],
      "stateMutability": "view",
      "type": "function"
    },
    {
      "inputs": [],
      "name": "getPositionMgmt",
      "outputs": [
        {
          "internalType": "address",
          "name": "",
          "type": "address"
        }
      ],
      "stateMutability": "view",
      "type": "function"
    },
    {
      "inputs": [],
      "name": "getQuoteToken",
      "outputs": [
        {
          "internalType": "address",
          "name": "",
          "type": "address"
        }
      ],
      "stateMutability": "view",
      "type": "function"
    },
    {
      "inputs": [],
      "name": "getTrustedForwarder",
      "outputs": [
        {
          "internalType": "address",
          "name": "",
          "type": "address"
        }
      ],
      "stateMutability": "view",
      "type": "function"
    },
    {
      "inputs": [],
      "name": "getVault",
      "outputs": [
        {
          "internalType": "address",
          "name": "",
          "type": "address"
        }
      ],
      "stateMutability": "view",
      "type": "function"
    },
    {
      "inputs": [
        {
          "internalType": "address",
          "name": "clearingHouseConfigArg",
          "type": "address"
        },
        {
          "internalType": "address",
          "name": "vaultArg",
          "type": "address"
        },
        {
          "internalType": "address",
          "name": "quoteTokenArg",
          "type": "address"
        },
        {
          "internalType": "address",
          "name": "marketTakerArg",
          "type": "address"
        },
        {
          "internalType": "address",
          "name": "positionMgmtArg",
          "type": "address"
        },
        {
          "internalType": "address",
          "name": "insuranceFundArg",
          "type": "address"
        }
      ],
      "name": "initialize",
      "outputs": [],
      "stateMutability": "nonpayable",
      "type": "function"
    },
    {
      "inputs": [
        {
          "internalType": "address",
          "name": "forwarder",
          "type": "address"
        }
      ],
      "name": "isTrustedForwarder",
      "outputs": [
        {
          "internalType": "bool",
          "name": "",
          "type": "bool"
        }
      ],
      "stateMutability": "view",
      "type": "function"
    },
    {
      "inputs": [
        {
          "internalType": "address",
          "name": "trader",
          "type": "address"
        },
        {
          "internalType": "address",
          "name": "baseToken",
          "type": "address"
        },
        {
          "internalType": "uint256",
          "name": "amountLimit",
          "type": "uint256"
        }
      ],
      "name": "liquidate",
      "outputs": [],
      "stateMutability": "nonpayable",
      "type": "function"
    },
    {
      "inputs": [
        {
          "components": [
            {
              "internalType": "address",
              "name": "baseToken",
              "type": "address"
            },
            {
              "internalType": "bool",
              "name": "isSwapWithBase",
              "type": "bool"
            },
            {
              "internalType": "bool",
              "name": "isSell",
              "type": "bool"
            },
            {
              "internalType": "uint256",
              "name": "amount",
              "type": "uint256"
            },
            {
              "internalType": "uint256",
              "name": "amountLimit",
              "type": "uint256"
            },
            {
              "internalType": "uint256",
              "name": "deadline",
              "type": "uint256"
            },
            {
              "internalType": "bytes32",
              "name": "referralCode",
              "type": "bytes32"
            }
          ],
          "internalType": "struct IClearingHouse.OpenPositionParams",
          "name": "params",
          "type": "tuple"
        }
      ],
      "name": "openPosition",
      "outputs": [
        {
          "internalType": "uint256",
          "name": "base",
          "type": "uint256"
        },
        {
          "internalType": "uint256",
          "name": "quote",
          "type": "uint256"
        }
      ],
      "stateMutability": "nonpayable",
      "type": "function"
    },
    {
      "inputs": [
        {
          "internalType": "address",
          "name": "trader",
          "type": "address"
        },
        {
          "components": [
            {
              "internalType": "address",
              "name": "baseToken",
              "type": "address"
            },
            {
              "internalType": "bool",
              "name": "isSwapWithBase",
              "type": "bool"
            },
            {
              "internalType": "bool",
              "name": "isSell",
              "type": "bool"
            },
            {
              "internalType": "uint256",
              "name": "amount",
              "type": "uint256"
            },
            {
              "internalType": "uint256",
              "name": "amountLimit",
              "type": "uint256"
            },
            {
              "internalType": "uint256",
              "name": "deadline",
              "type": "uint256"
            },
            {
              "internalType": "bytes32",
              "name": "referralCode",
              "type": "bytes32"
            }
          ],
          "internalType": "struct IClearingHouse.OpenPositionParams",
          "name": "params",
          "type": "tuple"
        }
      ],
      "name": "openPositionFor",
      "outputs": [
        {
          "internalType": "uint256",
          "name": "base",
          "type": "uint256"
        },
        {
          "internalType": "uint256",
          "name": "quote",
          "type": "uint256"
        },
        {
          "internalType": "uint256",
          "name": "fee",
          "type": "uint256"
        }
      ],
      "stateMutability": "nonpayable",
      "type": "function"
    },
    {
      "inputs": [],
      "name": "owner",
      "outputs": [
        {
          "internalType": "address",
          "name": "",
          "type": "address"
        }
      ],
      "stateMutability": "view",
      "type": "function"
    },
    {
      "inputs": [],
      "name": "pause",
      "outputs": [],
      "stateMutability": "nonpayable",
      "type": "function"
    },
    {
      "inputs": [],
      "name": "paused",
      "outputs": [
        {
          "internalType": "bool",
          "name": "",
          "type": "bool"
        }
      ],
      "stateMutability": "view",
      "type": "function"
    },
    {
      "inputs": [
        {
          "components": [
            {
              "internalType": "address",
              "name": "baseToken",
              "type": "address"
            },
            {
              "internalType": "uint256",
              "name": "liquidity",
              "type": "uint256"
            },
            {
              "internalType": "uint256",
              "name": "minBase",
              "type": "uint256"
            },
            {
              "internalType": "uint256",
              "name": "minQuote",
              "type": "uint256"
            },
            {
              "internalType": "uint256",
              "name": "deadline",
              "type": "uint256"
            }
          ],
          "internalType": "struct IClearingHouse.RemoveLiquidityParams",
          "name": "params",
          "type": "tuple"
        }
      ],
      "name": "removeLiquidity",
      "outputs": [
        {
          "components": [
            {
              "internalType": "uint256",
              "name": "base",
              "type": "uint256"
            },
            {
              "internalType": "uint256",
              "name": "quote",
              "type": "uint256"
            },
            {
              "internalType": "uint256",
              "name": "fee",
              "type": "uint256"
            }
          ],
          "internalType": "struct IClearingHouse.RemoveLiquidityResponse",
          "name": "",
          "type": "tuple"
        }
      ],
      "stateMutability": "nonpayable",
      "type": "function"
    },
    {
      "inputs": [],
      "name": "renounceOwnership",
      "outputs": [],
      "stateMutability": "nonpayable",
      "type": "function"
    },
    {
      "inputs": [
        {
          "internalType": "address",
          "name": "newOwner",
          "type": "address"
        }
      ],
      "name": "setOwner",
      "outputs": [],
      "stateMutability": "nonpayable",
      "type": "function"
    },
    {
      "inputs": [
        {
          "internalType": "address",
          "name": "trustedForwarderArg",
          "type": "address"
        }
      ],
      "name": "setTrustedForwarder",
      "outputs": [],
      "stateMutability": "nonpayable",
      "type": "function"
    },
    {
      "inputs": [
        {
          "internalType": "address",
          "name": "trader",
          "type": "address"
        }
      ],
      "name": "settleAllFunding",
      "outputs": [],
      "stateMutability": "nonpayable",
      "type": "function"
    },
    {
      "inputs": [],
      "name": "unpause",
      "outputs": [],
      "stateMutability": "nonpayable",
      "type": "function"
    },
    {
      "inputs": [],
      "name": "updateOwner",
      "outputs": [],
      "stateMutability": "nonpayable",
      "type": "function"
    },
    {
      "inputs": [],
      "name": "versionRecipient",
      "outputs": [
        {
          "internalType": "string",
          "name": "",
          "type": "string"
        }
      ],
      "stateMutability": "pure",
      "type": "function"
    }
  ],
  "bytecode": "0x608060405234801561001057600080fd5b50614799806100206000396000f3fe608060405234801561001057600080fd5b50600436106101da5760003560e01c8063715018a611610104578063aa2a8294116100a2578063ce1b815f11610071578063ce1b815f146103a9578063da742228146103b1578063e2a72cce146103c4578063eb9b912e146103cc576101da565b8063aa2a829414610366578063bc5920ba1461036e578063c2fdd42f14610376578063cc2a9a5b14610396576101da565b80638456cb59116100de5780638456cb59146103465780638d928af81461034e5780638da5cb5b146103565780638e8499ba1461035e576101da565b8063715018a61461030b5780637e5465ba146103135780637f2bd08f14610326576101da565b80633f4ba83a1161017c578063572b6c051161014b578063572b6c05146102bb5780635ae80951146102db5780635c975abb146102fb5780636c8381f814610303576101da565b80633f4ba83a1461028e578063486ff0cd146102965780634a64d67d146102ab57806355338fc1146102b3576101da565b80631eaa33f3116101b85780631eaa33f31461023457806326c013031461025557806328d83466146102685780632bb6b86a1461027b576101da565b806309453d0c146101df57806313af40351461020a578063158626f71461021f575b600080fd5b6101f26101ed36600461384d565b6103df565b6040516102019392919061443e565b60405180910390f35b61021d61021836600461371c565b610583565b005b610227610666565b6040516102019190613c7f565b610247610242366004613b2e565b610677565b604051610201929190614430565b61021d61026336600461380d565b61084e565b61021d610276366004613754565b610c25565b610247610289366004613aa4565b6110ff565b61021d611238565b61029e611281565b6040516102019190613dbe565b6102276112a0565b6102276112b0565b6102ce6102c936600461371c565b6112c0565b6040516102019190613d67565b6102ee6102e936600461371c565b6112d7565b6040516102019190613d72565b6102ce6114c9565b6102276114d2565b61021d6114e1565b61021d610321366004613754565b611576565b610339610334366004613a24565b61163c565b604051610201919061430b565b61021d61197c565b6102276119c3565b6102276119d3565b6102276119e2565b6102276119f2565b61021d611a02565b610389610384366004613a24565b611ac5565b60405161020191906143b2565b61021d6103a436600461378c565b611ea1565b610227612279565b61021d6103bf36600461371c565b612288565b610227612335565b61021d6103da36600461371c565b612345565b60008060006103ec6114c9565b156104125760405162461bcd60e51b8152600401610409906140a2565b60405180910390fd5b600260015414156104355760405162461bcd60e51b81526004016104099061423a565b600260015560a084015180610448612425565b11156104665760405162461bcd60e51b815260040161040990614101565b610135548551604051633f1cdc8560e21b81526001600160a01b039092169163fc7372149161049a918a9190600401613c93565b600060405180830381600087803b1580156104b457600080fd5b505af11580156104c8573d6000803e3d6000fd5b505050506104da868660000151612429565b50600061054f604051806101000160405280896001600160a01b0316815260200188600001516001600160a01b031681526020018860200151151581526020018860400151151581526020016000151581526020018860600151815260200188608001518152602001600015158152506125e6565b905061055e8160000151612b1e565b61056b8260200151612b1e565b60809092015160018055909891975095509350505050565b61058b612b4d565b6001600160a01b031661059c6119d3565b6001600160a01b0316146105c25760405162461bcd60e51b815260040161040990613fca565b6001600160a01b0381166105e85760405162461bcd60e51b815260040161040990614292565b6065546001600160a01b03828116911614156106165760405162461bcd60e51b815260040161040990613f68565b6066546001600160a01b03828116911614156106445760405162461bcd60e51b815260040161040990613f26565b606680546001600160a01b0319166001600160a01b0392909216919091179055565b610136546001600160a01b03165b90565b6000806106826114c9565b1561069f5760405162461bcd60e51b8152600401610409906140a2565b600260015414156106c25760405162461bcd60e51b81526004016104099061423a565b600260015560a0830151806106d5612425565b11156106f35760405162461bcd60e51b815260040161040990614101565b60006106fd612b4d565b610135548651604051633f1cdc8560e21b81529293506001600160a01b039091169163fc7372149161073491859190600401613c93565b600060405180830381600087803b15801561074e57600080fd5b505af1158015610762573d6000803e3d6000fd5b50505050610774818660000151612429565b5060006107e9604051806101000160405280846001600160a01b0316815260200188600001516001600160a01b031681526020018860200151151581526020018860400151151581526020016000151581526020018860600151815260200188608001518152602001600015158152506125e6565b60c0870151909150156108255760c08601516040517f09a07769667a46c2b89124a4d731c76fb5203061073aec16319ba9c6a79a324890600090a25b805161083090612b1e565b61083d8260200151612b1e565b600180559097909650945050505050565b6108566114c9565b156108735760405162461bcd60e51b8152600401610409906140a2565b600260015414156108965760405162461bcd60e51b81526004016104099061423a565b60026001556101355460405163659e3dc760e11b81526001600160a01b039091169063cb3c7b8e906108cc908690600401613c7f565b60206040518083038186803b1580156108e457600080fd5b505afa1580156108f8573d6000803e3d6000fd5b505050506040513d601f19601f8201168201806040525081019061091c9190613936565b156109395760405162461bcd60e51b815260040161040990614190565b6101355460405163f75c266d60e01b81526001600160a01b039091169063f75c266d9061096a908690600401613c7f565b60206040518083038186803b15801561098257600080fd5b505afa158015610996573d6000803e3d6000fd5b505050506040513d601f19601f820116820180604052508101906109ba9190613952565b6109c3846112d7565b126109e05760405162461bcd60e51b815260040161040990613eb6565b6109ea8383612429565b506000610a2b6040518060800160405280866001600160a01b03168152602001856001600160a01b0316815260200184815260200160011515815250612b5c565b90506000610acc61013160009054906101000a90046001600160a01b03166001600160a01b031663fedf924b6040518163ffffffff1660e01b815260040160206040518083038186803b158015610a8157600080fd5b505afa158015610a95573d6000803e3d6000fd5b505050506040513d601f19601f82011682018060405250810190610ab99190613c3b565b610ac68460200151612b1e565b90612c8d565b610135549091506001600160a01b031663874044f386610aeb84612ca9565b6040518363ffffffff1660e01b8152600401610b08929190613d30565b600060405180830381600087803b158015610b2257600080fd5b505af1158015610b36573d6000803e3d6000fd5b505050506000610b44612b4d565b610135549091506001600160a01b031663874044f382610b6385612cbd565b6040518363ffffffff1660e01b8152600401610b80929190613d30565b600060405180830381600087803b158015610b9a57600080fd5b505af1158015610bae573d6000803e3d6000fd5b50505050846001600160a01b0316866001600160a01b03167fd9aced30440caca81570436bc942f816cfd95a3f08f700a2aeb6334c7cb5b497610bf48660200151612b1e565b8651610bff90612b1e565b8686604051610c119493929190614454565b60405180910390a350506001805550505050565b610c2d6114c9565b15610c4a5760405162461bcd60e51b8152600401610409906140a2565b60026001541415610c6d5760405162461bcd60e51b81526004016104099061423a565b60026001819055506000610d078361013160009054906101000a90046001600160a01b03166001600160a01b031663a85494026040518163ffffffff1660e01b815260040160206040518083038186803b158015610cca57600080fd5b505afa158015610cde573d6000803e3d6000fd5b505050506040513d601f19601f82011682018060405250810190610d029190613c3b565b612cea565b1280610d9a57506101355460405163f75c266d60e01b81526001600160a01b039091169063f75c266d90610d3f908590600401613c7f565b60206040518083038186803b158015610d5757600080fd5b505afa158015610d6b573d6000803e3d6000fd5b505050506040513d601f19601f82011682018060405250810190610d8f9190613952565b610d98836112d7565b125b610db65760405162461bcd60e51b8152600401610409906141b2565b610dc08282612429565b50610134546040516385b0f96760e01b81526000916001600160a01b0316906385b0f96790610df59086908690600401613c93565b60c06040518083038186803b158015610e0d57600080fd5b505afa158015610e21573d6000803e3d6000fd5b505050506040513d601f19601f82011682018060405250810190610e459190613ab5565b610134546040805160a0810182526001600160a01b038781168252868116602083015284518284015260006060830181905260808301819052925163cd67005560e01b81529495509193919092169163cd67005591610ea7919060040161436f565b60a060405180830381600087803b158015610ec157600080fd5b505af1158015610ed5573d6000803e3d6000fd5b505050506040513d601f19601f82011682018060405250810190610ef99190613b49565b6101305481519192506001600160a01b0390811691858216918716907fdbe12e8ae7b4c4f317745a50622d08024d61bae3d45a06379d97d17c88a4e60290610f4090612ca9565b610f4d8660200151612ca9565b8751610f5890612ca9565b8760400151604051610f6d9493929190613d7b565b60405180910390a46000610f82858584612d6e565b6101355460405163d50d01b760e01b81529192506000916001600160a01b039091169063d50d01b790610fbb9089908990600401613c93565b60206040518083038186803b158015610fd357600080fd5b505afa158015610fe7573d6000803e3d6000fd5b505050506040513d601f19601f8201168201806040525081019061100b9190613952565b6101335460405163175be70560e21b81529192506000916001600160a01b0390911690635d6f9c1490611042908990600401613c7f565b60206040518083038186803b15801561105a57600080fd5b505afa15801561106e573d6000803e3d6000fd5b505050506040513d601f19601f820116820180604052508101906110929190613952565b9050856001600160a01b0316876001600160a01b03167f968bc4f738eae0486dc6736c4b427dbafa4acfdf6eaf223337791ddeb3a562478660600151876080015160008789886040516110ea96959493929190613d96565b60405180910390a35050600180555050505050565b60008061110a6114c9565b156111275760405162461bcd60e51b8152600401610409906140a2565b6002600154141561114a5760405162461bcd60e51b81526004016104099061423a565b600260015560408301358061115d612425565b111561117b5760405162461bcd60e51b815260040161040990614101565b6000611185612b4d565b905061119d81611198602088018861371c565b612429565b5060006111f26040518060800160405280846001600160a01b031681526020018860000160208101906111d0919061371c565b6001600160a01b03168152602089810135908201526000604090910152612b5c565b9050606086013515610825576040516060870135907f09a07769667a46c2b89124a4d731c76fb5203061073aec16319ba9c6a79a324890600090a2805161083090612b1e565b611240612b4d565b6001600160a01b03166112516119d3565b6001600160a01b0316146112775760405162461bcd60e51b815260040161040990613fca565b61127f612ebd565b565b6040805180820190915260058152640322e302e360dc1b602082015290565b610130546001600160a01b031690565b610133546001600160a01b031690565b60fd546001600160a01b038281169116145b919050565b610133546040516380f57f1160e01b815260009182916001600160a01b03909116906380f57f119061130d908690600401613c7f565b60206040518083038186803b15801561132557600080fd5b505afa158015611339573d6000803e3d6000fd5b505050506040513d601f19601f8201168201806040525081019061135d9190613952565b6101355460405163bba85bcf60e01b8152919250600091829182916001600160a01b039091169063bba85bcf90611398908990600401613c7f565b60606040518083038186803b1580156113b057600080fd5b505afa1580156113c4573d6000803e3d6000fd5b505050506040513d601f19601f820116820180604052508101906113e8919061398d565b6101325460405163f8b2cb4f60e01b81529396509194509250600091611489916001600160a01b03169063f8b2cb4f90611426908b90600401613c7f565b60206040518083038186803b15801561143e57600080fd5b505afa158015611452573d6000803e3d6000fd5b505050506040513d601f19601f820116820180604052508101906114769190613952565b61013054600160a01b900460ff16612f2b565b905061149482612cbd565b83866114a087856144a2565b6114aa919061467d565b6114b491906144a2565b6114be91906144a2565b979650505050505050565b60995460ff1690565b6066546001600160a01b031690565b6114e9612b4d565b6001600160a01b03166114fa6119d3565b6001600160a01b0316146115205760405162461bcd60e51b815260040161040990613fca565b6065546040516000916001600160a01b0316907f8be0079c531659141344cd1fd0a4f28419497f9722a3daafe3b4186f6b6457e0908390a3606580546001600160a01b0319908116909155606680549091169055565b61157e612b4d565b6001600160a01b031661158f6119d3565b6001600160a01b0316146115b55760405162461bcd60e51b815260040161040990613fca565b60405163095ea7b360e01b81526001600160a01b0383169063095ea7b3906115e590849060001990600401613d30565b602060405180830381600087803b1580156115ff57600080fd5b505af1158015611613573d6000803e3d6000fd5b505050506040513d601f19601f820116820180604052508101906116379190613936565b505050565b6116446135b9565b61164c6114c9565b156116695760405162461bcd60e51b8152600401610409906140a2565b6002600154141561168c5760405162461bcd60e51b81526004016104099061423a565b600260015560808201358061169f612425565b11156116bd5760405162461bcd60e51b815260040161040990614101565b60006116c7612b4d565b610135549091506001600160a01b031663fc737214826116ea602088018861371c565b6040518363ffffffff1660e01b8152600401611707929190613c93565b600060405180830381600087803b15801561172157600080fd5b505af1158015611735573d6000803e3d6000fd5b506000925061174f9150839050611198602088018861371c565b610134546040805160c081019091526001600160a01b03858116825292935060009290911690639e8d45809060208082019061178d908b018b61371c565b6001600160a01b03168152602001896020013581526020018960400135815260200189606001358152602001858152506040518263ffffffff1660e01b81526004016117d991906142b2565b608060405180830381600087803b1580156117f357600080fd5b505af1158015611807573d6000803e3d6000fd5b505050506040513d601f19601f8201168201806040525081019061182b9190613a3f565b6101355460408201519192506001600160a01b03169063874044f390859061185290612cbd565b6040518363ffffffff1660e01b815260040161186f929190613d30565b600060405180830381600087803b15801561188957600080fd5b505af115801561189d573d6000803e3d6000fd5b505050506118aa83612f4d565b610130546001600160a01b03166118c4602088018861371c565b6001600160a01b0316846001600160a01b03167fdbe12e8ae7b4c4f317745a50622d08024d61bae3d45a06379d97d17c88a4e6026119058560000151612cbd565b6119128660200151612cbd565b61191f8760600151612cbd565b87604001516040516119349493929190613d7b565b60405180910390a46040518060800160405280826000015181526020018260200151815260200182604001518152602001826060015181525094505050505060018055919050565b611984612b4d565b6001600160a01b03166119956119d3565b6001600160a01b0316146119bb5760405162461bcd60e51b815260040161040990613fca565b61127f612fc3565b610132546001600160a01b031690565b6065546001600160a01b031690565b610135546001600160a01b031690565b610131546001600160a01b031690565b6066546001600160a01b0316611a2a5760405162461bcd60e51b81526004016104099061421b565b611a32612b4d565b6066546001600160a01b03908116911614611a5f5760405162461bcd60e51b815260040161040990613e96565b6066546065546040516001600160a01b0392831692909116907f8be0079c531659141344cd1fd0a4f28419497f9722a3daafe3b4186f6b6457e090600090a360668054606580546001600160a01b03199081166001600160a01b03841617909155169055565b611acd6135e1565b611ad56114c9565b15611af25760405162461bcd60e51b8152600401610409906140a2565b60026001541415611b155760405162461bcd60e51b81526004016104099061423a565b6002600155608082013580611b28612425565b1115611b465760405162461bcd60e51b815260040161040990614101565b6000611b50612b4d565b9050611b6381611198602087018761371c565b50610134546040805160a081019091526001600160a01b038381168252600092169063cd67005590602080820190611b9d908a018a61371c565b6001600160a01b03168152602001886020013581526020018860400135815260200188606001358152506040518263ffffffff1660e01b8152600401611be3919061436f565b60a060405180830381600087803b158015611bfd57600080fd5b505af1158015611c11573d6000803e3d6000fd5b505050506040513d601f19601f82011682018060405250810190611c359190613b49565b90506000611c5083611c4a602089018961371c565b84612d6e565b610130549091506001600160a01b0316611c6d602088018861371c565b6001600160a01b0316846001600160a01b03167fdbe12e8ae7b4c4f317745a50622d08024d61bae3d45a06379d97d17c88a4e602611cae8660000151612ca9565b611cbb8760200151612ca9565b611cc88c60200135612ca9565b8860400151604051611cdd9493929190613d7b565b60405180910390a4610135546000906001600160a01b031663d50d01b785611d0860208b018b61371c565b6040518363ffffffff1660e01b8152600401611d25929190613c93565b60206040518083038186803b158015611d3d57600080fd5b505afa158015611d51573d6000803e3d6000fd5b505050506040513d601f19601f82011682018060405250810190611d759190613952565b610133549091506000906001600160a01b0316635d6f9c14611d9a60208b018b61371c565b6040518263ffffffff1660e01b8152600401611db69190613c7f565b60206040518083038186803b158015611dce57600080fd5b505afa158015611de2573d6000803e3d6000fd5b505050506040513d601f19601f82011682018060405250810190611e069190613952565b9050611e15602089018961371c565b6001600160a01b0316856001600160a01b03167f968bc4f738eae0486dc6736c4b427dbafa4acfdf6eaf223337791ddeb3a56247866060015187608001516000878988604051611e6a96959493929190613d96565b60405180910390a3505060408051606081018252835181526020808501519082015292810151908301525060018055949350505050565b600054610100900460ff1680611eba575060005460ff16155b611ed65760405162461bcd60e51b815260040161040990614121565b600054610100900460ff16158015611f01576000805460ff1961ff0019909116610100171660011790555b611f13866001600160a01b031661301e565b611f2f5760405162461bcd60e51b81526004016104099061416f565b611f41856001600160a01b031661301e565b611f5d5760405162461bcd60e51b815260040161040990613f88565b846001600160a01b031663313ce5676040518163ffffffff1660e01b815260040160206040518083038186803b158015611f9657600080fd5b505afa158015611faa573d6000803e3d6000fd5b505050506040513d601f19601f82011682018060405250810190611fce9190613c5e565b60ff16601214611ff05760405162461bcd60e51b815260040161040990613e74565b612002876001600160a01b031661301e565b61201e5760405162461bcd60e51b81526004016104099061402a565b612030836001600160a01b031661301e565b61204c5760405162461bcd60e51b815260040161040990613e11565b61205e846001600160a01b031661301e565b61207a5760405162461bcd60e51b815260040161040990613fa9565b61208c826001600160a01b031661301e565b6120a85760405162461bcd60e51b815260040161040990613f04565b6000846001600160a01b031663e2a72cce6040518163ffffffff1660e01b815260040160206040518083038186803b1580156120e357600080fd5b505afa1580156120f7573d6000803e3d6000fd5b505050506040513d601f19601f8201168201806040525081019061211b9190613738565b905061212f816001600160a01b031661301e565b61214b5760405162461bcd60e51b815260040161040990614271565b612153613024565b61215b6130a0565b61013180546001600160a01b03199081166001600160a01b038b811691909117909255610132805482168a84161790819055610130805483168a85161790556101338054831689851617905561013480548316858516179055610135805483168885161790556101368054909216868416179091556040805163313ce56760e01b81529051919092169163313ce567916004808301926020929190829003018186803b15801561220a57600080fd5b505afa15801561221e573d6000803e3d6000fd5b505050506040513d601f19601f820116820180604052508101906122429190613c5e565b61013060146101000a81548160ff021916908360ff160217905550508015612270576000805461ff00191690555b50505050505050565b60fd546001600160a01b031690565b612290612b4d565b6001600160a01b03166122a16119d3565b6001600160a01b0316146122c75760405162461bcd60e51b815260040161040990613fca565b6122d9816001600160a01b031661301e565b6122f55760405162461bcd60e51b815260040161040990614009565b6122fe81613110565b6040516001600160a01b038216907f871264f4293af7d2865ae7eae628b228f4991c57cb45b39c99f0b774ebe2901890600090a250565b610134546001600160a01b031690565b610135546040516357ba739b60e11b81526000916001600160a01b03169063af74e73690612377908590600401613c7f565b60006040518083038186803b15801561238f57600080fd5b505afa1580156123a3573d6000803e3d6000fd5b505050506040513d6000823e601f3d908101601f191682016040526123cb9190810190613883565b805190915060005b8181101561241f5761240c848483815181106123ff57634e487b7160e01b600052603260045260246000fd5b6020026020010151612429565b5080612417816146df565b9150506123d3565b50505050565b4290565b612431613602565b61013354604051631e81ac3360e01b81526000916001600160a01b031690631e81ac33906124659087908790600401613c93565b606060405180830381600087803b15801561247f57600080fd5b505af1158015612493573d6000803e3d6000fd5b505050506040513d601f19601f820116820180604052508101906124b791906139ba565b92509050801561257857610135546001600160a01b031663874044f3856124dd84613166565b6040518363ffffffff1660e01b81526004016124fa929190613d30565b600060405180830381600087803b15801561251457600080fd5b505af1158015612528573d6000803e3d6000fd5b50505050826001600160a01b0316846001600160a01b03167f733330d4aad1a878654bf888817b79bc6478013399be29fa3b8845c81305249e8360405161256f9190613d72565b60405180910390a35b610135548251604051632e4586c360e01b81526001600160a01b0390921691632e4586c3916125ad9188918891600401613cad565b600060405180830381600087803b1580156125c757600080fd5b505af11580156125db573d6000803e3d6000fd5b505050505092915050565b6125ee61361c565b610133546040805160e08101825284516001600160a01b0390811682526020808701518216908301528583015115158284015260608087015115159083015260808087015115159083015260a0808701519083015260c0808701519083015291516326a26b1160e21b81526000939290921691639a89ac4491612673916004016143d3565b60e060405180830381600087803b15801561268d57600080fd5b505af11580156126a1573d6000803e3d6000fd5b505050506040513d601f19601f820116820180604052508101906126c59190613bb8565b610135546101365460a08301519293506001600160a01b039182169263874044f392909116906126f490612cbd565b6040518363ffffffff1660e01b8152600401612711929190613d30565b600060405180830381600087803b15801561272b57600080fd5b505af115801561273f573d6000803e3d6000fd5b5050610135548551602080880151865191870151604051633c9b5ad160e01b81526001600160a01b039095169650633c9b5ad1955061278394919291600401613cd1565b6040805180830381600087803b15801561279c57600080fd5b505af11580156127b0573d6000803e3d6000fd5b505050506040513d601f19601f820116820180604052508101906127d4919061396a565b505060c08101511561291757610135548351602085015160c08401516040516376323d0960e11b81526001600160a01b039094169363ec647a129361281f9390929091600401613cad565b600060405180830381600087803b15801561283957600080fd5b505af115801561284d573d6000803e3d6000fd5b505050508260e0015180156128e35750610131546001600160a01b031663a2495a96612877612b4d565b6040518263ffffffff1660e01b81526004016128939190613c7f565b60206040518083038186803b1580156128ab57600080fd5b505afa1580156128bf573d6000803e3d6000fd5b505050506040513d601f19601f820116820180604052508101906128e39190613936565b806128fb575060006128f884600001516112d7565b12155b6129175760405162461bcd60e51b815260040161040990613fea565b826080015161292b57825161292b90612f4d565b610135548351602085015160405163d50d01b760e01b81526000936001600160a01b03169263d50d01b79261296292600401613c93565b60206040518083038186803b15801561297a57600080fd5b505afa15801561298e573d6000803e3d6000fd5b505050506040513d601f19601f820116820180604052508101906129b29190613952565b61013354602086015160405163175be70560e21b81529293506000926001600160a01b0390921691635d6f9c14916129ec91600401613c7f565b60206040518083038186803b158015612a0457600080fd5b505afa158015612a18573d6000803e3d6000fd5b505050506040513d601f19601f82011682018060405250810190612a3c9190613952565b905084602001516001600160a01b031685600001516001600160a01b03167f968bc4f738eae0486dc6736c4b427dbafa4acfdf6eaf223337791ddeb3a56247856040015186606001518760800151878960c0015188604051612aa396959493929190613d96565b60405180910390a3610135548551602087015160405163fa8e30af60e01b81526001600160a01b039093169263fa8e30af92612ae3929091600401613c93565b600060405180830381600087803b158015612afd57600080fd5b505af1158015612b11573d6000803e3d6000fd5b5094979650505050505050565b600080821215612b3e57612b39612b3483613166565b613194565b612b47565b612b4782613194565b92915050565b6000612b576131b6565b905090565b612b6461361c565b610135548251602084015160405163165c4e2960e31b81526000936001600160a01b03169263b2e2714892612b9b92600401613c93565b60206040518083038186803b158015612bb357600080fd5b505afa158015612bc7573d6000803e3d6000fd5b505050506040513d601f19601f82011682018060405250810190612beb9190613952565b905080612c0a5760405162461bcd60e51b815260040161040990614082565b60008082139050612c8560405180610100016040528086600001516001600160a01b0316815260200186602001516001600160a01b031681526020016001151581526020018315158152602001600115158152602001612c6985612b1e565b81526040808801516020830152606088015115159101526125e6565b949350505050565b6000612ca2838362ffffff16620f42406131e6565b9392505050565b6000612cb482612cbd565b612b47906146fa565b60006001600160ff1b03821115612ce65760405162461bcd60e51b8152600401610409906141d3565b5090565b61013254604051633ffd130360e01b81526000916001600160a01b031690633ffd130390612d1e9086908690600401613d49565b60206040518083038186803b158015612d3657600080fd5b505afa158015612d4a573d6000803e3d6000fd5b505050506040513d601f19601f82011682018060405250810190612ca29190613952565b6000808260600151600014612e2d576101335460408051608080820183526001600160a01b03898116835288811660208401526060808901518486015291880151918301919091529151631393a46960e01b81529190921691631393a46991612dda9190600401614336565b60206040518083038186803b158015612df257600080fd5b505afa158015612e06573d6000803e3d6000fd5b505050506040513d601f19601f82011682018060405250810190612e2a9190613952565b90505b610135546060840151608085015160408601516001600160a01b03909316926389f9217792899289928790612e6190612cbd565b6040518763ffffffff1660e01b8152600401612e8296959493929190613cfa565b600060405180830381600087803b158015612e9c57600080fd5b505af1158015612eb0573d6000803e3d6000fd5b5092979650505050505050565b612ec56114c9565b612ee15760405162461bcd60e51b815260040161040990613ed6565b6099805460ff191690557f5db9ee0a495bf2e6ff9c91a7834c1ba4fdd244a5e8aa4e537bd38aeae4b073aa612f14612b4d565b604051612f219190613c7f565b60405180910390a1565b6000612f388260126146bc565b612f4390600a614529565b612ca290846145fa565b6000612fa28261013160009054906101000a90046001600160a01b03166001600160a01b031663543ce73a6040518163ffffffff1660e01b815260040160206040518083038186803b158015610cca57600080fd5b1215612fc05760405162461bcd60e51b815260040161040990613f46565b50565b612fcb6114c9565b15612fe85760405162461bcd60e51b8152600401610409906140a2565b6099805460ff191660011790557f62e78cea01bee320cd4e420270b5ea74000d11b0c9f74754ebdbfc544b05a258612f14612b4d565b3b151590565b600054610100900460ff168061303d575060005460ff16155b6130595760405162461bcd60e51b815260040161040990614121565b600054610100900460ff16158015613084576000805460ff1961ff0019909116610100171660011790555b61308c6132a8565b8015612fc0576000805461ff001916905550565b600054610100900460ff16806130b9575060005460ff16155b6130d55760405162461bcd60e51b815260040161040990614121565b600054610100900460ff16158015613100576000805460ff1961ff0019909116610100171660011790555b613108613320565b61308c6133f4565b60fd80546001600160a01b0319166001600160a01b0383161790556040517fa4388ecc389b1390354ae0c65a856c0d7dd4fb648419f5d3ac0b99e38f46fd119061315b908390613c7f565b60405180910390a150565b6000600160ff1b821361318b5760405162461bcd60e51b81526004016104099061404b565b612b47826146fa565b600080821215612ce65760405162461bcd60e51b8152600401610409906140cc565b6000601436108015906131cd57506131cd336112c0565b156131e1575060131936013560601c610674565b503390565b600080806000198587098686029250828110908390030390508061322f57600084116132245760405162461bcd60e51b815260040161040990613e32565b508290049050612ca2565b80841161323b57600080fd5b6000848688096000868103871696879004966002600389028118808a02820302808a02820302808a02820302808a02820302808a02820302808a02909103029181900381900460010186841190950394909402919094039290920491909117919091029150509392505050565b600054610100900460ff16806132c1575060005460ff16155b6132dd5760405162461bcd60e51b815260040161040990614121565b600054610100900460ff16158015613308576000805460ff1961ff0019909116610100171660011790555b600180558015612fc0576000805461ff001916905550565b600054610100900460ff1680613339575060005460ff16155b6133555760405162461bcd60e51b815260040161040990614121565b600054610100900460ff16158015613380576000805460ff1961ff0019909116610100171660011790555b613388613464565b6000613392612b4d565b606580546001600160a01b0319166001600160a01b038316908117909155604051919250906000907f8be0079c531659141344cd1fd0a4f28419497f9722a3daafe3b4186f6b6457e0908290a3508015612fc0576000805461ff001916905550565b600054610100900460ff168061340d575060005460ff16155b6134295760405162461bcd60e51b815260040161040990614121565b600054610100900460ff16158015613454576000805460ff1961ff0019909116610100171660011790555b61345c6134c8565b61308c61353b565b600054610100900460ff168061347d575060005460ff16155b6134995760405162461bcd60e51b815260040161040990614121565b600054610100900460ff161580156134c4576000805460ff1961ff0019909116610100171660011790555b61308c5b600054610100900460ff16806134e1575060005460ff16155b6134fd5760405162461bcd60e51b815260040161040990614121565b600054610100900460ff1615801561308c576000805460ff1961ff0019909116610100171660011790558015612fc0576000805461ff001916905550565b600054610100900460ff1680613554575060005460ff16155b6135705760405162461bcd60e51b815260040161040990614121565b600054610100900460ff1615801561359b576000805460ff1961ff0019909116610100171660011790555b6099805460ff191690558015612fc0576000805461ff001916905550565b6040518060800160405280600081526020016000815260200160008152602001600081525090565b60405180606001604052806000815260200160008152602001600081525090565b604051806040016040528060008152602001600081525090565b6040518060e00160405280600081526020016000815260200160008152602001600081526020016000815260200160008152602001600081525090565b80356112d281614740565b80356112d281614755565b600060a08284031215613680578081fd5b50919050565b600060e08284031215613697578081fd5b60405160e0810181811067ffffffffffffffff821117156136ba576136ba61472a565b6040529050806136c983613659565b81526136d760208401613664565b60208201526136e860408401613664565b6040820152606083013560608201526080830135608082015260a083013560a082015260c083013560c08201525092915050565b60006020828403121561372d578081fd5b8135612ca281614740565b600060208284031215613749578081fd5b8151612ca281614740565b60008060408385031215613766578081fd5b823561377181614740565b9150602083013561378181614740565b809150509250929050565b60008060008060008060c087890312156137a4578182fd5b86356137af81614740565b955060208701356137bf81614740565b945060408701356137cf81614740565b935060608701356137df81614740565b925060808701356137ef81614740565b915060a08701356137ff81614740565b809150509295509295509295565b600080600060608486031215613821578081fd5b833561382c81614740565b9250602084013561383c81614740565b929592945050506040919091013590565b6000806101008385031215613860578182fd5b823561386b81614740565b915061387a8460208501613686565b90509250929050565b60006020808385031215613895578182fd5b825167ffffffffffffffff808211156138ac578384fd5b818501915085601f8301126138bf578384fd5b8151818111156138d1576138d161472a565b83810291506138e1848301614478565b8181528481019084860184860187018a10156138fb578788fd5b8795505b83861015613929578051945061391485614740565b848352600195909501949186019186016138ff565b5098975050505050505050565b600060208284031215613947578081fd5b8151612ca281614755565b600060208284031215613963578081fd5b5051919050565b6000806040838503121561397c578182fd5b505080516020909101519092909150565b6000806000606084860312156139a1578081fd5b8351925060208401519150604084015190509250925092565b60008082840360608112156139cd578283fd5b835192506040601f19820112156139e2578182fd5b506040516040810181811067ffffffffffffffff82111715613a0657613a0661472a565b60409081526020858101518352940151938101939093525092909150565b600060a08284031215613a35578081fd5b612ca2838361366f565b600060808284031215613a50578081fd5b6040516080810181811067ffffffffffffffff82111715613a7357613a7361472a565b8060405250825181526020830151602082015260408301516040820152606083015160608201528091505092915050565b600060808284031215613680578081fd5b600060c08284031215613ac6578081fd5b60405160c0810181811067ffffffffffffffff82111715613ae957613ae961472a565b8060405250825181526020830151602082015260408301516040820152606083015160608201526080830151608082015260a083015160a08201528091505092915050565b600060e08284031215613b3f578081fd5b612ca28383613686565b600060a08284031215613b5a578081fd5b60405160a0810181811067ffffffffffffffff82111715613b7d57613b7d61472a565b806040525082518152602083015160208201526040830151604082015260608301516060820152608083015160808201528091505092915050565b600060e08284031215613bc9578081fd5b60405160e0810181811067ffffffffffffffff82111715613bec57613bec61472a565b8060405250825181526020830151602082015260408301516040820152606083015160608201526080830151608082015260a083015160a082015260c083015160c08201528091505092915050565b600060208284031215613c4c578081fd5b815162ffffff81168114612ca2578182fd5b600060208284031215613c6f578081fd5b815160ff81168114612ca2578182fd5b6001600160a01b0391909116815260200190565b6001600160a01b0392831681529116602082015260400190565b6001600160a01b039384168152919092166020820152604081019190915260600190565b6001600160a01b0394851681529290931660208301526040820152606081019190915260800190565b6001600160a01b03968716815294909516602085015260408401929092526060830152608082015260a081019190915260c00190565b6001600160a01b03929092168252602082015260400190565b6001600160a01b0392909216825262ffffff16602082015260400190565b901515815260200190565b90815260200190565b93845260208401929092526040830152606082015260800190565b958652602086019490945260408501929092526060840152608083015260a082015260c00190565b6000602080835283518082850152825b81811015613dea57858101830151858201604001528201613dce565b81811115613dfb5783604083870101525b50601f01601f1916929092016040019392505050565b60208082526007908201526643485f504d4e4360c81b604082015260600190565b60208082526022908201527f64656e6f6d696e61746f72206d7573742062652067726561746572207468616e604082015261020360f41b606082015260800190565b60208082526008908201526708690bea2889c62760c31b604082015260600190565b602080825260069082015265534f5f434e4360d01b604082015260600190565b60208082526006908201526521a42fa2a0ab60d11b604082015260600190565b60208082526014908201527314185d5cd8589b194e881b9bdd081c185d5cd95960621b604082015260600190565b60208082526008908201526743485f4946414e4360c01b604082015260600190565b602080825260069082015265534f5f53414360d01b604082015260600190565b60208082526008908201526743485f4e4546434960c01b604082015260600190565b602080825260069082015265534f5f53414f60d01b604082015260600190565b60208082526007908201526643485f51414e4360c81b604082015260600190565b60208082526007908201526643485f4d544e4360c81b604082015260600190565b602080825260069082015265534f5f434e4f60d01b604082015260600190565b60208082526005908201526410d217d09160da1b604082015260600190565b60208082526007908201526643485f54464e4360c81b604082015260600190565b60208082526007908201526643485f43434e4360c81b604082015260600190565b6020808252601d908201527f5369676d614d6174683a20696e76657273696f6e206f766572666c6f77000000604082015260600190565b602080825260069082015265043485f5053360d41b604082015260600190565b60208082526010908201526f14185d5cd8589b194e881c185d5cd95960821b604082015260600190565b6020808252818101527f53616665436173743a2076616c7565206d75737420626520706f736974697665604082015260600190565b6020808252600690820152654348565f544560d01b604082015260600190565b6020808252602e908201527f496e697469616c697a61626c653a20636f6e747261637420697320616c72656160408201526d191e481a5b9a5d1a585b1a5e995960921b606082015260800190565b60208082526007908201526643485f56414e4360c81b604082015260600190565b60208082526008908201526743485f434c57484f60c01b604082015260600190565b60208082526007908201526643485f4e45584f60c81b604082015260600190565b60208082526028908201527f53616665436173743a2076616c756520646f65736e27742066697420696e2061604082015267371034b73a191a9b60c11b606082015260800190565b6020808252600590820152640534f5f43360dc1b604082015260600190565b6020808252601f908201527f5265656e7472616e637947756172643a207265656e7472616e742063616c6c00604082015260600190565b60208082526007908201526643485f4c504e4360c81b604082015260600190565b6020808252600690820152650534f5f4e57360d41b604082015260600190565b81516001600160a01b0390811682526020808401519091168183015260408084015190830152606080840151908301526080808401519083015260a092830151805193830193909352919091015160c082015260e00190565b8151815260208083015190820152604080830151908201526060918201519181019190915260800190565b81516001600160a01b03908116825260208084015190911690820152604080830151908201526060918201519181019190915260800190565b81516001600160a01b0390811682526020808401519091169082015260408083015190820152606080830151908201526080918201519181019190915260a00190565b81518152602080830151908201526040918201519181019190915260600190565b81516001600160a01b0390811682526020808401519091169082015260408083015115159082015260608083015115159082015260808083015115159082015260a0828101519082015260c0918201519181019190915260e00190565b918252602082015260400190565b9283526020830191909152604082015260600190565b938452602084019290925260408301526001600160a01b0316606082015260800190565b60405181810167ffffffffffffffff8111828210171561449a5761449a61472a565b604052919050565b600080821280156001600160ff1b03849003851316156144c4576144c4614714565b600160ff1b83900384128116156144dd576144dd614714565b50500190565b80825b60018086116144f55750614520565b81870482111561450757614507614714565b8086161561451457918102915b9490941c9380026144e6565b94509492505050565b6000612ca260001960ff85168460008261454557506001612ca2565b8161455257506000612ca2565b816001811461456857600281146145725761459f565b6001915050612ca2565b60ff84111561458357614583614714565b6001841b91508482111561459957614599614714565b50612ca2565b5060208310610133831016604e8410600b84101617156145d2575081810a838111156145cd576145cd614714565b612ca2565b6145df84848460016144e3565b8086048211156145f1576145f1614714565b02949350505050565b60006001600160ff1b038184138284138082168684048611161561462057614620614714565b600160ff1b8487128281168783058912161561463e5761463e614714565b85871292508782058712848416161561465957614659614714565b8785058712818416161561466f5761466f614714565b505050929093029392505050565b60008083128015600160ff1b85018412161561469b5761469b614714565b6001600160ff1b03840183138116156146b6576146b6614714565b50500390565b600060ff821660ff8416808210156146d6576146d6614714565b90039392505050565b60006000198214156146f3576146f3614714565b5060010190565b6000600160ff1b82141561471057614710614714565b0390565b634e487b7160e01b600052601160045260246000fd5b634e487b7160e01b600052604160045260246000fd5b6001600160a01b0381168114612fc057600080fd5b8015158114612fc057600080fdfea26469706673582212209f1e857fb3ad71f0121d16bdf516b631215f82a479358593937633302720cc3764736f6c63430008000033",
  "linkReferences": {},
  "deployedLinkReferences": {}
}