{
  "_format": "hh-sol-artifact-1",
  "contractName": "ClearingHouseConfig",
  "sourceName": "contracts/clearinghouse/ClearingHouseConfig.sol",
  "abi": [
    {
      "anonymous": false,
      "inputs": [
        {
          "indexed": true,
          "internalType": "address",
          "name": "account",
          "type": "address"
        },
        {
          "indexed": true,
          "internalType": "bool",
          "name": "isProvider",
          "type": "bool"
        }
      ],
      "name": "BackstopLiquidityProviderChanged",
      "type": "event"
    },
    {
      "anonymous": false,
      "inputs": [
        {
          "indexed": false,
          "internalType": "uint24",
          "name": "fluctuationLimitRatio",
          "type": "uint24"
        }
      ],
      "name": "FluctuationLimitRatioChanged",
      "type": "event"
    },
    {
      "anonymous": false,
      "inputs": [
        {
          "indexed": false,
          "internalType": "uint24",
          "name": "liquidationPenaltyRatio",
          "type": "uint24"
        }
      ],
      "name": "LiquidationPenaltyRatioChanged",
      "type": "event"
    },
    {
      "anonymous": false,
      "inputs": [
        {
          "indexed": false,
          "internalType": "uint8",
          "name": "maxAmmsPerAccount",
          "type": "uint8"
        }
      ],
      "name": "MaxAmmsPerAccountChanged",
      "type": "event"
    },
    {
      "anonymous": false,
      "inputs": [
        {
          "indexed": false,
          "internalType": "uint24",
          "name": "maxFundingRate",
          "type": "uint24"
        }
      ],
      "name": "MaxFundingRateChanged",
      "type": "event"
    },
    {
      "anonymous": false,
      "inputs": [
        {
          "indexed": true,
          "internalType": "address",
          "name": "previousOwner",
          "type": "address"
        },
        {
          "indexed": true,
          "internalType": "address",
          "name": "newOwner",
          "type": "address"
        }
      ],
      "name": "OwnershipTransferred",
      "type": "event"
    },
    {
      "anonymous": false,
      "inputs": [
        {
          "indexed": false,
          "internalType": "uint24",
          "name": "partialCloseRatio",
          "type": "uint24"
        }
      ],
      "name": "PartialCloseRatioChanged",
      "type": "event"
    },
    {
      "anonymous": false,
      "inputs": [
        {
          "indexed": false,
          "internalType": "uint256",
          "name": "cap",
          "type": "uint256"
        }
      ],
      "name": "SettlementTokenBalanceCapChanged",
      "type": "event"
    },
    {
      "anonymous": false,
      "inputs": [
        {
          "indexed": false,
          "internalType": "uint32",
          "name": "twapInterval",
          "type": "uint32"
        }
      ],
      "name": "TwapIntervalChanged",
      "type": "event"
    },
    {
      "inputs": [],
      "name": "candidate",
      "outputs": [
        {
          "internalType": "address",
          "name": "",
          "type": "address"
        }
      ],
      "stateMutability": "view",
      "type": "function"
    },
    {
      "inputs": [],
      "name": "getFluctuationLimitRatio",
      "outputs": [
        {
          "internalType": "uint24",
          "name": "",
          "type": "uint24"
        }
      ],
      "stateMutability": "view",
      "type": "function"
    },
    {
      "inputs": [],
      "name": "getImRatio",
      "outputs": [
        {
          "internalType": "uint24",
          "name": "",
          "type": "uint24"
        }
      ],
      "stateMutability": "view",
      "type": "function"
    },
    {
      "inputs": [],
      "name": "getLiquidationPenaltyRatio",
      "outputs": [
        {
          "internalType": "uint24",
          "name": "",
          "type": "uint24"
        }
      ],
      "stateMutability": "view",
      "type": "function"
    },
    {
      "inputs": [],
      "name": "getMaxAmmsPerAccount",
      "outputs": [
        {
          "internalType": "uint8",
          "name": "",
          "type": "uint8"
        }
      ],
      "stateMutability": "view",
      "type": "function"
    },
    {
      "inputs": [],
      "name": "getMaxFundingRate",
      "outputs": [
        {
          "internalType": "uint24",
          "name": "",
          "type": "uint24"
        }
      ],
      "stateMutability": "view",
      "type": "function"
    },
    {
      "inputs": [],
      "name": "getMmRatio",
      "outputs": [
        {
          "internalType": "uint24",
          "name": "",
          "type": "uint24"
        }
      ],
      "stateMutability": "view",
      "type": "function"
    },
    {
      "inputs": [],
      "name": "getPartialCloseRatio",
      "outputs": [
        {
          "internalType": "uint24",
          "name": "",
          "type": "uint24"
        }
      ],
      "stateMutability": "view",
      "type": "function"
    },
    {
      "inputs": [],
      "name": "getSettlementTokenBalanceCap",
      "outputs": [
        {
          "internalType": "uint256",
          "name": "",
          "type": "uint256"
        }
      ],
      "stateMutability": "view",
      "type": "function"
    },
    {
      "inputs": [],
      "name": "getTwapInterval",
      "outputs": [
        {
          "internalType": "uint32",
          "name": "",
          "type": "uint32"
        }
      ],
      "stateMutability": "view",
      "type": "function"
    },
    {
      "inputs": [],
      "name": "initialize",
      "outputs": [],
      "stateMutability": "nonpayable",
      "type": "function"
    },
    {
      "inputs": [
        {
          "internalType": "address",
          "name": "account",
          "type": "address"
        }
      ],
      "name": "isBackstopLiquidityProvider",
      "outputs": [
        {
          "internalType": "bool",
          "name": "",
          "type": "bool"
        }
      ],
      "stateMutability": "view",
      "type": "function"
    },
    {
      "inputs": [],
      "name": "owner",
      "outputs": [
        {
          "internalType": "address",
          "name": "",
          "type": "address"
        }
      ],
      "stateMutability": "view",
      "type": "function"
    },
    {
      "inputs": [],
      "name": "renounceOwnership",
      "outputs": [],
      "stateMutability": "nonpayable",
      "type": "function"
    },
    {
      "inputs": [
        {
          "internalType": "address",
          "name": "account",
          "type": "address"
        },
        {
          "internalType": "bool",
          "name": "isProvider",
          "type": "bool"
        }
      ],
      "name": "setBackstopLiquidityProvider",
      "outputs": [],
      "stateMutability": "nonpayable",
      "type": "function"
    },
    {
      "inputs": [
        {
          "internalType": "uint24",
          "name": "fluctuationLimitRatio",
          "type": "uint24"
        }
      ],
      "name": "setFluctuationLimitRatio",
      "outputs": [],
      "stateMutability": "nonpayable",
      "type": "function"
    },
    {
      "inputs": [
        {
          "internalType": "uint24",
          "name": "liquidationPenaltyRatioArg",
          "type": "uint24"
        }
      ],
      "name": "setLiquidationPenaltyRatio",
      "outputs": [],
      "stateMutability": "nonpayable",
      "type": "function"
    },
    {
      "inputs": [
        {
          "internalType": "uint8",
          "name": "maxAmmsPerAccountArg",
          "type": "uint8"
        }
      ],
      "name": "setMaxAmmsPerAccount",
      "outputs": [],
      "stateMutability": "nonpayable",
      "type": "function"
    },
    {
      "inputs": [
        {
          "internalType": "uint24",
          "name": "maxFundingRate",
          "type": "uint24"
        }
      ],
      "name": "setMaxFundingRate",
      "outputs": [],
      "stateMutability": "nonpayable",
      "type": "function"
    },
    {
      "inputs": [
        {
          "internalType": "address",
          "name": "newOwner",
          "type": "address"
        }
      ],
      "name": "setOwner",
      "outputs": [],
      "stateMutability": "nonpayable",
      "type": "function"
    },
    {
      "inputs": [
        {
          "internalType": "uint24",
          "name": "partialCloseRatioArg",
          "type": "uint24"
        }
      ],
      "name": "setPartialCloseRatio",
      "outputs": [],
      "stateMutability": "nonpayable",
      "type": "function"
    },
    {
      "inputs": [
        {
          "internalType": "uint256",
          "name": "cap",
          "type": "uint256"
        }
      ],
      "name": "setSettlementTokenBalanceCap",
      "outputs": [],
      "stateMutability": "nonpayable",
      "type": "function"
    },
    {
      "inputs": [
        {
          "internalType": "uint32",
          "name": "twapIntervalArg",
          "type": "uint32"
        }
      ],
      "name": "setTwapInterval",
      "outputs": [],
      "stateMutability": "nonpayable",
      "type": "function"
    },
    {
      "inputs": [],
      "name": "updateOwner",
      "outputs": [],
      "stateMutability": "nonpayable",
      "type": "function"
    }
  ],
  "bytecode": "0x608060405234801561001057600080fd5b5061109e806100206000396000f3fe608060405234801561001057600080fd5b50600436106101585760003560e01c80638129fc1c116100c3578063a2495a961161007c578063a2495a9614610291578063a8549402146102b1578063bc5920ba146102b9578063c846961e146102c1578063cc85f5f2146102d4578063fedf924b146102dc57610158565b80638129fc1c146102335780638321bb701461023b57806385eacc771461024e5780638af3a60d146102635780638da5cb5b1461027657806390cf78e41461027e57610158565b80636c8381f8116101155780636c8381f8146101de5780636e1d2dd2146101f35780636f0daecb146101fb578063715018a61461021057806374283336146102185780637bce35ae1461022057610158565b8063050a0ba31461015d57806313af4035146101725780631d27050f146101855780633e742e3b146101985780633fd9dfa3146101b6578063543ce73a146101c9575b600080fd5b61017061016b366004610e21565b6102e4565b005b610170610180366004610dc6565b6103ad565b610170610193366004610e5c565b610490565b6101a061054b565b6040516101ad9190611049565b60405180910390f35b6101706101c4366004610e80565b61055e565b6101d16105dc565b6040516101ad9190611030565b6101e66105ec565b6040516101ad9190610ea1565b6101d16105fb565b61020361060d565b6040516101ad919061105a565b610170610616565b6101d16106ab565b61017061022e366004610e21565b6106bd565b610170610796565b610170610249366004610e21565b61089a565b610256610925565b6040516101ad9190611040565b610170610271366004610e21565b61092b565b6101e66109b6565b61017061028c366004610de7565b6109c5565b6102a461029f366004610dc6565b610a58565b6040516101ad9190610eb5565b6101d1610a7a565b610170610a8d565b6101706102cf366004610e44565b610b50565b6101d1610bc4565b6101d1610bd6565b80620f42408162ffffff1611156103165760405162461bcd60e51b815260040161030d90610ee0565b60405180910390fd5b61031e610be8565b6001600160a01b031661032f6109b6565b6001600160a01b0316146103555760405162461bcd60e51b815260040161030d90610f40565b6067805462ffffff60381b1916600160381b62ffffff8516021790556040517ff95b3e2798060899824a0bebdd89ff5df3d51c51c5d30f5184bd30d7a6b01708906103a1908490611030565b60405180910390a15050565b6103b5610be8565b6001600160a01b03166103c66109b6565b6001600160a01b0316146103ec5760405162461bcd60e51b815260040161030d90610f40565b6001600160a01b0381166104125760405162461bcd60e51b815260040161030d90611010565b6033546001600160a01b03828116911614156104405760405162461bcd60e51b815260040161030d90610f20565b6034546001600160a01b038281169116141561046e5760405162461bcd60e51b815260040161030d90610f00565b603480546001600160a01b0319166001600160a01b0392909216919091179055565b610498610be8565b6001600160a01b03166104a96109b6565b6001600160a01b0316146104cf5760405162461bcd60e51b815260040161030d90610f40565b63ffffffff81166104f25760405162461bcd60e51b815260040161030d90610fd0565b6067805463ffffffff60981b1916600160981b63ffffffff8416021790556040517fa32c76a8304d68284df25c804f9cd32fd68c4bc5665e84330fe7cc09b1be5e8790610540908390611049565b60405180910390a150565b606754600160981b900463ffffffff1690565b610566610be8565b6001600160a01b03166105776109b6565b6001600160a01b03161461059d5760405162461bcd60e51b815260040161030d90610f40565b6067805460ff191660ff83161790556040517f47298916742f357cd7e07b1af7a170638355f0ba8964fa0b7c5c63b080aba3269061054090839061105a565b606754610100900462ffffff1690565b6034546001600160a01b031690565b606754600160681b900462ffffff1690565b60675460ff1690565b61061e610be8565b6001600160a01b031661062f6109b6565b6001600160a01b0316146106555760405162461bcd60e51b815260040161030d90610f40565b6033546040516000916001600160a01b0316907f8be0079c531659141344cd1fd0a4f28419497f9722a3daafe3b4186f6b6457e0908390a3603380546001600160a01b0319908116909155603480549091169055565b606754600160501b900462ffffff1690565b80620f42408162ffffff1611156106e65760405162461bcd60e51b815260040161030d90610ee0565b6106ee610be8565b6001600160a01b03166106ff6109b6565b6001600160a01b0316146107255760405162461bcd60e51b815260040161030d90610f40565b60008262ffffff161161074a5760405162461bcd60e51b815260040161030d90610fae565b6067805462ffffff60501b1916600160501b62ffffff8516021790556040517f4757c16c46bedf5171cc1e2c53c99225da1bff2c0a5cb51b0f852909dbae1ebd906103a1908490611030565b600054610100900460ff16806107af575060005460ff16155b6107cb5760405162461bcd60e51b815260040161030d90610f60565b600054610100900460ff161580156107f6576000805460ff1961ff0019909116610100171660011790555b6107fe610bec565b6067805460ff63ffffff0019909116630186a0001766ffffff00000000191665f424000000001762ffffff60501b1916613d0960541b1762ffffff60381b19166861a8000000000000001762ffffff60681b1916610c35606d1b1762ffffff60801b1916610c3560831b1760ff19161763ffffffff60981b191660e1609a1b17905560006068558015610897576000805461ff00191690555b50565b6108a2610be8565b6001600160a01b03166108b36109b6565b6001600160a01b0316146108d95760405162461bcd60e51b815260040161030d90610f40565b6067805462ffffff60801b1916600160801b62ffffff8416021790556040517f60c5651985ad0c03548cfece67896730f062131d6ba06f6bede5095edfef737d90610540908390611030565b60685490565b610933610be8565b6001600160a01b03166109446109b6565b6001600160a01b03161461096a5760405162461bcd60e51b815260040161030d90610f40565b6067805462ffffff60681b1916600160681b62ffffff8416021790556040517f0bcb070f78e3c4fec82334dff77e5369a878886b8be26c9f98daa534a8cf677890610540908390611030565b6033546001600160a01b031690565b6109cd610be8565b6001600160a01b03166109de6109b6565b6001600160a01b031614610a045760405162461bcd60e51b815260040161030d90610f40565b6001600160a01b038216600081815260696020526040808220805460ff191685151590811790915590519092917fea46bd0a90ba772a1dbffd4f585e1418c095cb5f70177a38f6eeadf26046e8a991a35050565b6001600160a01b03811660009081526069602052604090205460ff165b919050565b606754640100000000900462ffffff1690565b6034546001600160a01b0316610ab55760405162461bcd60e51b815260040161030d90610ff1565b610abd610be8565b6034546001600160a01b03908116911614610aea5760405162461bcd60e51b815260040161030d90610ec0565b6034546033546040516001600160a01b0392831692909116907f8be0079c531659141344cd1fd0a4f28419497f9722a3daafe3b4186f6b6457e090600090a360348054603380546001600160a01b03199081166001600160a01b03841617909155169055565b610b58610be8565b6001600160a01b0316610b696109b6565b6001600160a01b031614610b8f5760405162461bcd60e51b815260040161030d90610f40565b60688190556040517fc6564be86420b541b7946583fdb54d45535a59a04e3b3525b536ccc547b4cd8f90610540908390611040565b606754600160801b900462ffffff1690565b606754600160381b900462ffffff1690565b3390565b600054610100900460ff1680610c05575060005460ff16155b610c215760405162461bcd60e51b815260040161030d90610f60565b600054610100900460ff16158015610c4c576000805460ff1961ff0019909116610100171660011790555b610c54610cc0565b6000610c5e610be8565b603380546001600160a01b0319166001600160a01b038316908117909155604051919250906000907f8be0079c531659141344cd1fd0a4f28419497f9722a3daafe3b4186f6b6457e0908290a3508015610897576000805461ff001916905550565b600054610100900460ff1680610cd9575060005460ff16155b610cf55760405162461bcd60e51b815260040161030d90610f60565b600054610100900460ff16158015610d20576000805460ff1961ff0019909116610100171660011790555b610d28610d3c565b8015610897576000805461ff001916905550565b600054610100900460ff1680610d55575060005460ff16155b610d715760405162461bcd60e51b815260040161030d90610f60565b600054610100900460ff16158015610d28576000805460ff1961ff0019909116610100171660011790558015610897576000805461ff001916905550565b80356001600160a01b0381168114610a7557600080fd5b600060208284031215610dd7578081fd5b610de082610daf565b9392505050565b60008060408385031215610df9578081fd5b610e0283610daf565b915060208301358015158114610e16578182fd5b809150509250929050565b600060208284031215610e32578081fd5b813562ffffff81168114610de0578182fd5b600060208284031215610e55578081fd5b5035919050565b600060208284031215610e6d578081fd5b813563ffffffff81168114610de0578182fd5b600060208284031215610e91578081fd5b813560ff81168114610de0578182fd5b6001600160a01b0391909116815260200190565b901515815260200190565b602080825260069082015265534f5f434e4360d01b604082015260600190565b6020808252600690820152654348565f524f60d01b604082015260600190565b602080825260069082015265534f5f53414360d01b604082015260600190565b602080825260069082015265534f5f53414f60d01b604082015260600190565b602080825260069082015265534f5f434e4f60d01b604082015260600190565b6020808252602e908201527f496e697469616c697a61626c653a20636f6e747261637420697320616c72656160408201526d191e481a5b9a5d1a585b1a5e995960921b606082015260800190565b60208082526008908201526721a421afa4a821a960c11b604082015260600190565b6020808252600790820152664348435f49544960c81b604082015260600190565b6020808252600590820152640534f5f43360dc1b604082015260600190565b6020808252600690820152650534f5f4e57360d41b604082015260600190565b62ffffff91909116815260200190565b90815260200190565b63ffffffff91909116815260200190565b60ff9190911681526020019056fea26469706673582212206b7c81f201c92542cb14ec6c1b53422d8735d43176374c488be1b93760ff7bf364736f6c63430008000033",
  "linkReferences": {},
  "deployedLinkReferences": {}
}