{
  "_format": "hh-sol-artifact-1",
  "contractName": "EmergencyPriceFeed",
  "sourceName": "contracts/oracle/EmergencyPriceFeed.sol",
  "abi": [
    {
      "inputs": [],
      "name": "amm",
      "outputs": [
        {
          "internalType": "address",
          "name": "",
          "type": "address"
        }
      ],
      "stateMutability": "view",
      "type": "function"
    },
    {
      "inputs": [],
      "name": "decimals",
      "outputs": [
        {
          "internalType": "uint8",
          "name": "",
          "type": "uint8"
        }
      ],
      "stateMutability": "pure",
      "type": "function"
    },
    {
      "inputs": [
        {
          "internalType": "uint256",
          "name": "interval",
          "type": "uint256"
        }
      ],
      "name": "getPrice",
      "outputs": [
        {
          "internalType": "uint256",
          "name": "",
          "type": "uint256"
        }
      ],
      "stateMutability": "view",
      "type": "function"
    },
    {
      "inputs": [
        {
          "internalType": "address",
          "name": "ammArg",
          "type": "address"
        }
      ],
      "name": "initialize",
      "outputs": [],
      "stateMutability": "nonpayable",
      "type": "function"
    }
  ],
  "bytecode": "0x608060405234801561001057600080fd5b50610362806100206000396000f3fe608060405234801561001057600080fd5b506004361061004c5760003560e01c80632a94394514610051578063313ce5671461006f578063c4d66de814610084578063e757223014610099575b600080fd5b6100596100b9565b6040516100669190610292565b60405180910390f35b6100776100ce565b604051610066919061031e565b610097610092366004610234565b6100d3565b005b6100ac6100a7366004610262565b6101a2565b6040516100669190610315565b6000546201000090046001600160a01b031681565b601290565b600054610100900460ff16806100ec575060005460ff16155b6101115760405162461bcd60e51b8152600401610108906102a6565b60405180910390fd5b600054610100900460ff1615801561013c576000805460ff1961ff0019909116610100171660011790555b61014e826001600160a01b031661022e565b61016a5760405162461bcd60e51b8152600401610108906102f4565b6000805462010000600160b01b031916620100006001600160a01b03851602179055801561019e576000805461ff00191690555b5050565b600080546040516335c990e360e01b8152620100009091046001600160a01b0316906335c990e3906101d8908590600401610315565b60206040518083038186803b1580156101f057600080fd5b505afa158015610204573d6000803e3d6000fd5b505050506040513d601f19601f82011682018060405250810190610228919061027a565b92915050565b3b151590565b600060208284031215610245578081fd5b81356001600160a01b038116811461025b578182fd5b9392505050565b600060208284031215610273578081fd5b5035919050565b60006020828403121561028b578081fd5b5051919050565b6001600160a01b0391909116815260200190565b6020808252602e908201527f496e697469616c697a61626c653a20636f6e747261637420697320616c72656160408201526d191e481a5b9a5d1a585b1a5e995960921b606082015260800190565b6020808252600790820152664550465f414e4360c81b604082015260600190565b90815260200190565b60ff9190911681526020019056fea2646970667358221220425e2e5484f9a30f6444dccda1ebd0ea2102123c1c6e7e990dbb21894c78007b64736f6c63430008000033",
  "linkReferences": {},
  "deployedLinkReferences": {}
}