{
  "_format": "hh-sol-artifact-1",
  "contractName": "ERC20Mock",
  "sourceName": "contracts/test/ERC20Mock.sol",
  "abi": [
    {
      "anonymous": false,
      "inputs": [
        {
          "indexed": true,
          "internalType": "address",
          "name": "owner",
          "type": "address"
        },
        {
          "indexed": true,
          "internalType": "address",
          "name": "spender",
          "type": "address"
        },
        {
          "indexed": false,
          "internalType": "uint256",
          "name": "value",
          "type": "uint256"
        }
      ],
      "name": "Approval",
      "type": "event"
    },
    {
      "anonymous": false,
      "inputs": [
        {
          "indexed": true,
          "internalType": "address",
          "name": "from",
          "type": "address"
        },
        {
          "indexed": true,
          "internalType": "address",
          "name": "to",
          "type": "address"
        },
        {
          "indexed": false,
          "internalType": "uint256",
          "name": "value",
          "type": "uint256"
        }
      ],
      "name": "Transfer",
      "type": "event"
    },
    {
      "inputs": [
        {
          "internalType": "address",
          "name": "owner",
          "type": "address"
        },
        {
          "internalType": "address",
          "name": "spender",
          "type": "address"
        }
      ],
      "name": "allowance",
      "outputs": [
        {
          "internalType": "uint256",
          "name": "",
          "type": "uint256"
        }
      ],
      "stateMutability": "view",
      "type": "function"
    },
    {
      "inputs": [
        {
          "internalType": "address",
          "name": "spender",
          "type": "address"
        },
        {
          "internalType": "uint256",
          "name": "amount",
          "type": "uint256"
        }
      ],
      "name": "approve",
      "outputs": [
        {
          "internalType": "bool",
          "name": "",
          "type": "bool"
        }
      ],
      "stateMutability": "nonpayable",
      "type": "function"
    },
    {
      "inputs": [
        {
          "internalType": "address",
          "name": "account",
          "type": "address"
        }
      ],
      "name": "balanceOf",
      "outputs": [
        {
          "internalType": "uint256",
          "name": "",
          "type": "uint256"
        }
      ],
      "stateMutability": "view",
      "type": "function"
    },
    {
      "inputs": [],
      "name": "decimals",
      "outputs": [
        {
          "internalType": "uint8",
          "name": "",
          "type": "uint8"
        }
      ],
      "stateMutability": "view",
      "type": "function"
    },
    {
      "inputs": [
        {
          "internalType": "address",
          "name": "spender",
          "type": "address"
        },
        {
          "internalType": "uint256",
          "name": "subtractedValue",
          "type": "uint256"
        }
      ],
      "name": "decreaseAllowance",
      "outputs": [
        {
          "internalType": "bool",
          "name": "",
          "type": "bool"
        }
      ],
      "stateMutability": "nonpayable",
      "type": "function"
    },
    {
      "inputs": [
        {
          "internalType": "address",
          "name": "spender",
          "type": "address"
        },
        {
          "internalType": "uint256",
          "name": "addedValue",
          "type": "uint256"
        }
      ],
      "name": "increaseAllowance",
      "outputs": [
        {
          "internalType": "bool",
          "name": "",
          "type": "bool"
        }
      ],
      "stateMutability": "nonpayable",
      "type": "function"
    },
    {
      "inputs": [
        {
          "internalType": "string",
          "name": "_name",
          "type": "string"
        },
        {
          "internalType": "string",
          "name": "_symbol",
          "type": "string"
        }
      ],
      "name": "initialize",
      "outputs": [],
      "stateMutability": "nonpayable",
      "type": "function"
    },
    {
      "inputs": [
        {
          "internalType": "address",
          "name": "account",
          "type": "address"
        },
        {
          "internalType": "uint256",
          "name": "amount",
          "type": "uint256"
        }
      ],
      "name": "mint",
      "outputs": [],
      "stateMutability": "nonpayable",
      "type": "function"
    },
    {
      "inputs": [],
      "name": "name",
      "outputs": [
        {
          "internalType": "string",
          "name": "",
          "type": "string"
        }
      ],
      "stateMutability": "view",
      "type": "function"
    },
    {
      "inputs": [
        {
          "internalType": "uint256",
          "name": "ratio",
          "type": "uint256"
        }
      ],
      "name": "setTransferFeeRatio",
      "outputs": [],
      "stateMutability": "nonpayable",
      "type": "function"
    },
    {
      "inputs": [],
      "name": "symbol",
      "outputs": [
        {
          "internalType": "string",
          "name": "",
          "type": "string"
        }
      ],
      "stateMutability": "view",
      "type": "function"
    },
    {
      "inputs": [],
      "name": "totalSupply",
      "outputs": [
        {
          "internalType": "uint256",
          "name": "",
          "type": "uint256"
        }
      ],
      "stateMutability": "view",
      "type": "function"
    },
    {
      "inputs": [
        {
          "internalType": "address",
          "name": "recipient",
          "type": "address"
        },
        {
          "internalType": "uint256",
          "name": "amount",
          "type": "uint256"
        }
      ],
      "name": "transfer",
      "outputs": [
        {
          "internalType": "bool",
          "name": "",
          "type": "bool"
        }
      ],
      "stateMutability": "nonpayable",
      "type": "function"
    },
    {
      "inputs": [
        {
          "internalType": "address",
          "name": "sender",
          "type": "address"
        },
        {
          "internalType": "address",
          "name": "recipient",
          "type": "address"
        },
        {
          "internalType": "uint256",
          "name": "amount",
          "type": "uint256"
        }
      ],
      "name": "transferFrom",
      "outputs": [
        {
          "internalType": "bool",
          "name": "success",
          "type": "bool"
        }
      ],
      "stateMutability": "nonpayable",
      "type": "function"
    }
  ],
  "bytecode": "0x608060405234801561001057600080fd5b50611104806100206000396000f3fe608060405234801561001057600080fd5b50600436106100ea5760003560e01c80634cd88b761161008c57806395d89b411161006657806395d89b41146101cb578063a457c2d7146101d3578063a9059cbb146101e6578063dd62ed3e146101f9576100ea565b80634cd88b761461019257806370a08231146101a55780637fae3b33146101b8576100ea565b806323b872dd116100c857806323b872dd14610142578063313ce56714610155578063395093511461016a57806340c10f191461017d576100ea565b806306fdde03146100ef578063095ea7b31461010d57806318160ddd1461012d575b600080fd5b6100f761020c565b6040516101049190610ca6565b60405180910390f35b61012061011b366004610bf9565b61029e565b6040516101049190610c9b565b6101356102bb565b6040516101049190610fe2565b610120610150366004610bbe565b6102c1565b61015d610316565b6040516101049190610feb565b610120610178366004610bf9565b61031b565b61019061018b366004610bf9565b61036f565b005b6101906101a0366004610c22565b61037d565b6101356101b3366004610b6b565b610390565b6101906101c6366004610c83565b6103af565b6100f76103b4565b6101206101e1366004610bf9565b6103c3565b6101206101f4366004610bf9565b610447565b610135610207366004610b8c565b61045b565b60606036805461021b90611067565b80601f016020809104026020016040519081016040528092919081815260200182805461024790611067565b80156102945780601f1061026957610100808354040283529160200191610294565b820191906000526020600020905b81548152906001019060200180831161027757829003601f168201915b5050505050905090565b60006102b26102ab610486565b848461048a565b50600192915050565b60355490565b60006065546000146103035760006064606554846102df9190611031565b6102e99190611011565b90506102f5858261053e565b6102ff8184611050565b9250505b61030e848484610624565b949350505050565b600690565b60006102b2610328610486565b848460346000610336610486565b6001600160a01b03908116825260208083019390935260409182016000908120918b168152925290205461036a9190610ff9565b61048a565b61037982826106b6565b5050565b6103878282610776565b50506000606555565b6001600160a01b0381166000908152603360205260409020545b919050565b606555565b60606037805461021b90611067565b600080603460006103d2610486565b6001600160a01b03908116825260208083019390935260409182016000908120918816815292529020549050828110156104275760405162461bcd60e51b815260040161041e90610f66565b60405180910390fd5b61043d610432610486565b8561036a8685611050565b5060019392505050565b60006102b2610454610486565b84846107ff565b6001600160a01b03918216600090815260346020908152604080832093909416825291909152205490565b3390565b6001600160a01b0383166104b05760405162461bcd60e51b815260040161041e90610f22565b6001600160a01b0382166104d65760405162461bcd60e51b815260040161041e90610d7e565b6001600160a01b0380841660008181526034602090815260408083209487168084529490915290819020849055517f8c5be1e5ebec7d5bd14f71427d1e84f3dd0314c0f7b2291e5b200ac8c7c3b92590610531908590610fe2565b60405180910390a3505050565b6001600160a01b0382166105645760405162461bcd60e51b815260040161041e90610e9c565b610570826000836107fa565b6001600160a01b038216600090815260336020526040902054818110156105a95760405162461bcd60e51b815260040161041e90610d3c565b6105b38282611050565b6001600160a01b038416600090815260336020526040812091909155603580548492906105e1908490611050565b90915550506040516000906001600160a01b038516907fddf252ad1be2c89b69c2b068fc378daa952ba7f163c4a11628f55a4df523b3ef90610531908690610fe2565b60006106318484846107ff565b6001600160a01b038416600090815260346020526040812081610652610486565b6001600160a01b03166001600160a01b03168152602001908152602001600020549050828110156106955760405162461bcd60e51b815260040161041e90610e54565b6106ab856106a1610486565b61036a8685611050565b506001949350505050565b6001600160a01b0382166106dc5760405162461bcd60e51b815260040161041e90610fab565b6106e8600083836107fa565b80603560008282546106fa9190610ff9565b90915550506001600160a01b03821660009081526033602052604081208054839290610727908490610ff9565b90915550506040516001600160a01b038316906000907fddf252ad1be2c89b69c2b068fc378daa952ba7f163c4a11628f55a4df523b3ef9061076a908590610fe2565b60405180910390a35050565b600054610100900460ff168061078f575060005460ff16155b6107ab5760405162461bcd60e51b815260040161041e90610e06565b600054610100900460ff161580156107d6576000805460ff1961ff0019909116610100171660011790555b6107de610927565b6107e8838361099c565b80156107fa576000805461ff00191690555b505050565b6001600160a01b0383166108255760405162461bcd60e51b815260040161041e90610edd565b6001600160a01b03821661084b5760405162461bcd60e51b815260040161041e90610cf9565b6108568383836107fa565b6001600160a01b0383166000908152603360205260409020548181101561088f5760405162461bcd60e51b815260040161041e90610dc0565b6108998282611050565b6001600160a01b0380861660009081526033602052604080822093909355908516815290812080548492906108cf908490610ff9565b92505081905550826001600160a01b0316846001600160a01b03167fddf252ad1be2c89b69c2b068fc378daa952ba7f163c4a11628f55a4df523b3ef846040516109199190610fe2565b60405180910390a350505050565b600054610100900460ff1680610940575060005460ff16155b61095c5760405162461bcd60e51b815260040161041e90610e06565b600054610100900460ff16158015610987576000805460ff1961ff0019909116610100171660011790555b8015610999576000805461ff00191690555b50565b600054610100900460ff16806109b5575060005460ff16155b6109d15760405162461bcd60e51b815260040161041e90610e06565b600054610100900460ff161580156109fc576000805460ff1961ff0019909116610100171660011790555b8251610a0f906036906020860190610a3a565b508151610a23906037906020850190610a3a565b5080156107fa576000805461ff0019169055505050565b828054610a4690611067565b90600052602060002090601f016020900481019282610a685760008555610aae565b82601f10610a8157805160ff1916838001178555610aae565b82800160010185558215610aae579182015b82811115610aae578251825591602001919060010190610a93565b50610aba929150610abe565b5090565b5b80821115610aba5760008155600101610abf565b80356001600160a01b03811681146103aa57600080fd5b600082601f830112610afa578081fd5b813567ffffffffffffffff80821115610b1557610b156110b8565b604051601f8301601f191681016020018281118282101715610b3957610b396110b8565b604052828152848301602001861015610b50578384fd5b82602086016020830137918201602001929092529392505050565b600060208284031215610b7c578081fd5b610b8582610ad3565b9392505050565b60008060408385031215610b9e578081fd5b610ba783610ad3565b9150610bb560208401610ad3565b90509250929050565b600080600060608486031215610bd2578081fd5b610bdb84610ad3565b9250610be960208501610ad3565b9150604084013590509250925092565b60008060408385031215610c0b578182fd5b610c1483610ad3565b946020939093013593505050565b60008060408385031215610c34578182fd5b823567ffffffffffffffff80821115610c4b578384fd5b610c5786838701610aea565b93506020850135915080821115610c6c578283fd5b50610c7985828601610aea565b9150509250929050565b600060208284031215610c94578081fd5b5035919050565b901515815260200190565b6000602080835283518082850152825b81811015610cd257858101830151858201604001528201610cb6565b81811115610ce35783604083870101525b50601f01601f1916929092016040019392505050565b60208082526023908201527f45524332303a207472616e7366657220746f20746865207a65726f206164647260408201526265737360e81b606082015260800190565b60208082526022908201527f45524332303a206275726e20616d6f756e7420657863656564732062616c616e604082015261636560f01b606082015260800190565b60208082526022908201527f45524332303a20617070726f766520746f20746865207a65726f206164647265604082015261737360f01b606082015260800190565b60208082526026908201527f45524332303a207472616e7366657220616d6f756e7420657863656564732062604082015265616c616e636560d01b606082015260800190565b6020808252602e908201527f496e697469616c697a61626c653a20636f6e747261637420697320616c72656160408201526d191e481a5b9a5d1a585b1a5e995960921b606082015260800190565b60208082526028908201527f45524332303a207472616e7366657220616d6f756e74206578636565647320616040820152676c6c6f77616e636560c01b606082015260800190565b60208082526021908201527f45524332303a206275726e2066726f6d20746865207a65726f206164647265736040820152607360f81b606082015260800190565b60208082526025908201527f45524332303a207472616e736665722066726f6d20746865207a65726f206164604082015264647265737360d81b606082015260800190565b60208082526024908201527f45524332303a20617070726f76652066726f6d20746865207a65726f206164646040820152637265737360e01b606082015260800190565b60208082526025908201527f45524332303a2064656372656173656420616c6c6f77616e63652062656c6f77604082015264207a65726f60d81b606082015260800190565b6020808252601f908201527f45524332303a206d696e7420746f20746865207a65726f206164647265737300604082015260600190565b90815260200190565b60ff91909116815260200190565b6000821982111561100c5761100c6110a2565b500190565b60008261102c57634e487b7160e01b81526012600452602481fd5b500490565b600081600019048311821515161561104b5761104b6110a2565b500290565b600082821015611062576110626110a2565b500390565b60028104600182168061107b57607f821691505b6020821081141561109c57634e487b7160e01b600052602260045260246000fd5b50919050565b634e487b7160e01b600052601160045260246000fd5b634e487b7160e01b600052604160045260246000fdfea264697066735822122097732fe9ca99701d9a02cb031222323fc20e6c08a6dbabdb77744879c53c4f4c64736f6c63430008000033",
  "linkReferences": {},
  "deployedLinkReferences": {}
}