{
  "_format": "hh-sol-artifact-1",
  "contractName": "LimitOrderRewardVault",
  "sourceName": "contracts/limit/LimitOrderRewardVault.sol",
  "abi": [
    {
      "anonymous": false,
      "inputs": [
        {
          "indexed": false,
          "internalType": "bytes32",
          "name": "orderHash",
          "type": "bytes32"
        },
        {
          "indexed": false,
          "internalType": "address",
          "name": "keeper",
          "type": "address"
        },
        {
          "indexed": false,
          "internalType": "address",
          "name": "token",
          "type": "address"
        },
        {
          "indexed": false,
          "internalType": "uint256",
          "name": "amount",
          "type": "uint256"
        }
      ],
      "name": "Disbursed",
      "type": "event"
    },
    {
      "anonymous": false,
      "inputs": [
        {
          "indexed": false,
          "internalType": "address",
          "name": "limitOrderBook",
          "type": "address"
        }
      ],
      "name": "LimitOrderBookChanged",
      "type": "event"
    },
    {
      "anonymous": false,
      "inputs": [
        {
          "indexed": true,
          "internalType": "address",
          "name": "previousOwner",
          "type": "address"
        },
        {
          "indexed": true,
          "internalType": "address",
          "name": "newOwner",
          "type": "address"
        }
      ],
      "name": "OwnershipTransferred",
      "type": "event"
    },
    {
      "anonymous": false,
      "inputs": [
        {
          "indexed": false,
          "internalType": "address",
          "name": "account",
          "type": "address"
        }
      ],
      "name": "Paused",
      "type": "event"
    },
    {
      "anonymous": false,
      "inputs": [
        {
          "indexed": false,
          "internalType": "uint256",
          "name": "rewardAmount",
          "type": "uint256"
        }
      ],
      "name": "RewardAmountChanged",
      "type": "event"
    },
    {
      "anonymous": false,
      "inputs": [
        {
          "indexed": false,
          "internalType": "address",
          "name": "rewardToken",
          "type": "address"
        }
      ],
      "name": "RewardTokenChanged",
      "type": "event"
    },
    {
      "anonymous": false,
      "inputs": [
        {
          "indexed": false,
          "internalType": "address",
          "name": "account",
          "type": "address"
        }
      ],
      "name": "Unpaused",
      "type": "event"
    },
    {
      "anonymous": false,
      "inputs": [
        {
          "indexed": false,
          "internalType": "address",
          "name": "to",
          "type": "address"
        },
        {
          "indexed": false,
          "internalType": "address",
          "name": "token",
          "type": "address"
        },
        {
          "indexed": false,
          "internalType": "uint256",
          "name": "amount",
          "type": "uint256"
        }
      ],
      "name": "Withdrawn",
      "type": "event"
    },
    {
      "inputs": [],
      "name": "candidate",
      "outputs": [
        {
          "internalType": "address",
          "name": "",
          "type": "address"
        }
      ],
      "stateMutability": "view",
      "type": "function"
    },
    {
      "inputs": [
        {
          "internalType": "address",
          "name": "keeper",
          "type": "address"
        },
        {
          "internalType": "bytes32",
          "name": "orderHash",
          "type": "bytes32"
        }
      ],
      "name": "disburse",
      "outputs": [
        {
          "internalType": "uint256",
          "name": "",
          "type": "uint256"
        }
      ],
      "stateMutability": "nonpayable",
      "type": "function"
    },
    {
      "inputs": [
        {
          "internalType": "address",
          "name": "rewardTokenArg",
          "type": "address"
        },
        {
          "internalType": "uint256",
          "name": "rewardAmountArg",
          "type": "uint256"
        }
      ],
      "name": "initialize",
      "outputs": [],
      "stateMutability": "nonpayable",
      "type": "function"
    },
    {
      "inputs": [],
      "name": "limitOrderBook",
      "outputs": [
        {
          "internalType": "address",
          "name": "",
          "type": "address"
        }
      ],
      "stateMutability": "view",
      "type": "function"
    },
    {
      "inputs": [],
      "name": "owner",
      "outputs": [
        {
          "internalType": "address",
          "name": "",
          "type": "address"
        }
      ],
      "stateMutability": "view",
      "type": "function"
    },
    {
      "inputs": [],
      "name": "pause",
      "outputs": [],
      "stateMutability": "nonpayable",
      "type": "function"
    },
    {
      "inputs": [],
      "name": "paused",
      "outputs": [
        {
          "internalType": "bool",
          "name": "",
          "type": "bool"
        }
      ],
      "stateMutability": "view",
      "type": "function"
    },
    {
      "inputs": [],
      "name": "renounceOwnership",
      "outputs": [],
      "stateMutability": "nonpayable",
      "type": "function"
    },
    {
      "inputs": [],
      "name": "rewardAmount",
      "outputs": [
        {
          "internalType": "uint256",
          "name": "",
          "type": "uint256"
        }
      ],
      "stateMutability": "view",
      "type": "function"
    },
    {
      "inputs": [],
      "name": "rewardToken",
      "outputs": [
        {
          "internalType": "address",
          "name": "",
          "type": "address"
        }
      ],
      "stateMutability": "view",
      "type": "function"
    },
    {
      "inputs": [
        {
          "internalType": "address",
          "name": "limitOrderBookArg",
          "type": "address"
        }
      ],
      "name": "setLimitOrderBook",
      "outputs": [],
      "stateMutability": "nonpayable",
      "type": "function"
    },
    {
      "inputs": [
        {
          "internalType": "address",
          "name": "newOwner",
          "type": "address"
        }
      ],
      "name": "setOwner",
      "outputs": [],
      "stateMutability": "nonpayable",
      "type": "function"
    },
    {
      "inputs": [
        {
          "internalType": "uint256",
          "name": "rewardAmountArg",
          "type": "uint256"
        }
      ],
      "name": "setRewardAmount",
      "outputs": [],
      "stateMutability": "nonpayable",
      "type": "function"
    },
    {
      "inputs": [
        {
          "internalType": "address",
          "name": "rewardTokenArg",
          "type": "address"
        }
      ],
      "name": "setRewardToken",
      "outputs": [],
      "stateMutability": "nonpayable",
      "type": "function"
    },
    {
      "inputs": [],
      "name": "unpause",
      "outputs": [],
      "stateMutability": "nonpayable",
      "type": "function"
    },
    {
      "inputs": [],
      "name": "updateOwner",
      "outputs": [],
      "stateMutability": "nonpayable",
      "type": "function"
    },
    {
      "inputs": [
        {
          "internalType": "uint256",
          "name": "amount",
          "type": "uint256"
        }
      ],
      "name": "withdraw",
      "outputs": [],
      "stateMutability": "nonpayable",
      "type": "function"
    }
  ],
  "bytecode": "0x608060405234801561001057600080fd5b50611740806100206000396000f3fe608060405234801561001057600080fd5b506004361061010b5760003560e01c80638da5cb5b116100a2578063cd6dc68711610071578063cd6dc687146101d9578063e1fd369d146101ec578063ee08444b146101ff578063f7b2a7be14610207578063f7c618c11461020f5761010b565b80638da5cb5b14610196578063a8a65a781461019e578063ac0c9cff146101b1578063bc5920ba146101d15761010b565b80636c8381f8116100de5780636c8381f81461015e578063715018a6146101735780638456cb591461017b5780638aee8127146101835761010b565b806313af4035146101105780632e1a7d4d146101255780633f4ba83a146101385780635c975abb14610140575b600080fd5b61012361011e36600461121d565b610217565b005b610123610133366004611292565b610303565b61012361047d565b6101486104c6565b604051610155919061132f565b60405180910390f35b6101666104cf565b60405161015591906112de565b6101236104de565b610123610573565b61012361019136600461121d565b6105ba565b61016661067d565b6101236101ac366004611292565b61068c565b6101c46101bf366004611237565b610720565b60405161015591906116d1565b61012361089a565b6101236101e7366004611260565b61095d565b6101236101fa36600461121d565b610a4f565b610166610b07565b6101c4610b16565b610166610b1c565b61021f610b2b565b6001600160a01b031661023061067d565b6001600160a01b03161461025f5760405162461bcd60e51b815260040161025690611420565b60405180910390fd5b6001600160a01b0381166102855760405162461bcd60e51b8152600401610256906116b1565b6065546001600160a01b03828116911614156102b35760405162461bcd60e51b815260040161025690611400565b6066546001600160a01b03828116911614156102e15760405162461bcd60e51b8152600401610256906113e0565b606680546001600160a01b0319166001600160a01b0392909216919091179055565b61030b610b2b565b6001600160a01b031661031c61067d565b6001600160a01b0316146103425760405162461bcd60e51b815260040161025690611420565b600260015414156103655760405162461bcd60e51b81526004016102569061160c565b6002600155600061037461067d565b60fd546040516370a0823160e01b815291925083916001600160a01b03909116906370a08231906103a99030906004016112de565b60206040518083038186803b1580156103c157600080fd5b505afa1580156103d5573d6000803e3d6000fd5b505050506040513d601f19601f820116820180604052508101906103f991906112aa565b10156104175760405162461bcd60e51b815260040161025690611668565b60fd5461042e906001600160a01b03168284610b3a565b60fd546040517fd1c19fbcd4551a5edfb66d43d2e337c04837afda3482b42bdf569a8fccdae5fb9161046d9184916001600160a01b03169086906112f2565b60405180910390a1505060018055565b610485610b2b565b6001600160a01b031661049661067d565b6001600160a01b0316146104bc5760405162461bcd60e51b815260040161025690611420565b6104c4610b90565b565b60995460ff1690565b6066546001600160a01b031690565b6104e6610b2b565b6001600160a01b03166104f761067d565b6001600160a01b03161461051d5760405162461bcd60e51b815260040161025690611420565b6065546040516000916001600160a01b0316907f8be0079c531659141344cd1fd0a4f28419497f9722a3daafe3b4186f6b6457e0908390a3606580546001600160a01b0319908116909155606680549091169055565b61057b610b2b565b6001600160a01b031661058c61067d565b6001600160a01b0316146105b25760405162461bcd60e51b815260040161025690611420565b6104c4610bfe565b6105c2610b2b565b6001600160a01b03166105d361067d565b6001600160a01b0316146105f95760405162461bcd60e51b815260040161025690611420565b61060b816001600160a01b0316610c59565b6106275760405162461bcd60e51b815260040161025690611548565b60fd80546001600160a01b0319166001600160a01b0383161790556040517fb74d956cf6ec7842d08ebf0ab19ec03a88c1efd4a50ea4349d30f9c4ce512e98906106729083906112de565b60405180910390a150565b6065546001600160a01b031690565b610694610b2b565b6001600160a01b03166106a561067d565b6001600160a01b0316146106cb5760405162461bcd60e51b815260040161025690611420565b600081116106eb5760405162461bcd60e51b8152600401610256906114d4565b60ff8190556040517f694305e46f4c8e70a4418b46e8dcfc297246dc2c4ac63e60cfb2c1970d3a1373906106729083906116d1565b60fe546000906001600160a01b0316610737610b2b565b6001600160a01b03161461075d5760405162461bcd60e51b81526004016102569061168c565b600260015414156107805760405162461bcd60e51b81526004016102569061160c565b600260015560ff5460fd546040516370a0823160e01b81526001600160a01b03909116906370a08231906107b89030906004016112de565b60206040518083038186803b1580156107d057600080fd5b505afa1580156107e4573d6000803e3d6000fd5b505050506040513d601f19601f8201168201806040525081019061080891906112aa565b10156108265760405162461bcd60e51b815260040161025690611440565b60fd5460ff54610841916001600160a01b0316908590610b3a565b60fd5460ff546040517f08fa9d865cd1c0d00e9b9e04815e5100700893e140577805040d53a7df4203599261088492869288926001600160a01b0316919061133a565b60405180910390a15060ff546001805592915050565b6066546001600160a01b03166108c25760405162461bcd60e51b8152600401610256906115ed565b6108ca610b2b565b6066546001600160a01b039081169116146108f75760405162461bcd60e51b815260040161025690611392565b6066546065546040516001600160a01b0392831692909116907f8be0079c531659141344cd1fd0a4f28419497f9722a3daafe3b4186f6b6457e090600090a360668054606580546001600160a01b03199081166001600160a01b03841617909155169055565b600054610100900460ff1680610976575060005460ff16155b6109925760405162461bcd60e51b8152600401610256906114fa565b600054610100900460ff161580156109bd576000805460ff1961ff0019909116610100171660011790555b6109c5610c63565b6109cd610ce8565b6109df836001600160a01b0316610c59565b6109fb5760405162461bcd60e51b815260040161025690611548565b60fd80546001600160a01b0319166001600160a01b03851617905581610a335760405162461bcd60e51b8152600401610256906114d4565b60ff8290558015610a4a576000805461ff00191690555b505050565b610a57610b2b565b6001600160a01b0316610a6861067d565b6001600160a01b031614610a8e5760405162461bcd60e51b815260040161025690611420565b610aa0816001600160a01b0316610c59565b610abc5760405162461bcd60e51b815260040161025690611643565b60fe80546001600160a01b0319166001600160a01b0383161790556040517fd5930cfc4a7ceb741ae1080eec50e885dcab1a88698030cf55db9627583c83f8906106729083906112de565b60fe546001600160a01b031681565b60ff5481565b60fd546001600160a01b031681565b6000610b35610d50565b905090565b610a4a8363a9059cbb60e01b8484604051602401610b59929190611316565b60408051601f198184030181529190526020810180516001600160e01b03166001600160e01b031990931692909217909152610d54565b610b986104c6565b610bb45760405162461bcd60e51b8152600401610256906113b2565b6099805460ff191690557f5db9ee0a495bf2e6ff9c91a7834c1ba4fdd244a5e8aa4e537bd38aeae4b073aa610be7610b2b565b604051610bf491906112de565b60405180910390a1565b610c066104c6565b15610c235760405162461bcd60e51b8152600401610256906114aa565b6099805460ff191660011790557f62e78cea01bee320cd4e420270b5ea74000d11b0c9f74754ebdbfc544b05a258610be7610b2b565b803b15155b919050565b600054610100900460ff1680610c7c575060005460ff16155b610c985760405162461bcd60e51b8152600401610256906114fa565b600054610100900460ff16158015610cc3576000805460ff1961ff0019909116610100171660011790555b610ccb610de3565b610cd3610eb7565b8015610ce5576000805461ff00191690555b50565b600054610100900460ff1680610d01575060005460ff16155b610d1d5760405162461bcd60e51b8152600401610256906114fa565b600054610100900460ff16158015610d48576000805460ff1961ff0019909116610100171660011790555b610cd3610f27565b3390565b6000610da9826040518060400160405280602081526020017f5361666545524332303a206c6f772d6c6576656c2063616c6c206661696c6564815250856001600160a01b0316610f9f9092919063ffffffff16565b805190915015610a4a5780806020019051810190610dc79190611272565b610a4a5760405162461bcd60e51b8152600401610256906115a3565b600054610100900460ff1680610dfc575060005460ff16155b610e185760405162461bcd60e51b8152600401610256906114fa565b600054610100900460ff16158015610e43576000805460ff1961ff0019909116610100171660011790555b610e4b610fb8565b6000610e55610b2b565b606580546001600160a01b0319166001600160a01b038316908117909155604051919250906000907f8be0079c531659141344cd1fd0a4f28419497f9722a3daafe3b4186f6b6457e0908290a3508015610ce5576000805461ff001916905550565b600054610100900460ff1680610ed0575060005460ff16155b610eec5760405162461bcd60e51b8152600401610256906114fa565b600054610100900460ff16158015610f17576000805460ff1961ff0019909116610100171660011790555b610f1f61101c565b610cd361108f565b600054610100900460ff1680610f40575060005460ff16155b610f5c5760405162461bcd60e51b8152600401610256906114fa565b600054610100900460ff16158015610f87576000805460ff1961ff0019909116610100171660011790555b600180558015610ce5576000805461ff001916905550565b6060610fae848460008561110d565b90505b9392505050565b600054610100900460ff1680610fd1575060005460ff16155b610fed5760405162461bcd60e51b8152600401610256906114fa565b600054610100900460ff16158015611018576000805460ff1961ff0019909116610100171660011790555b610cd35b600054610100900460ff1680611035575060005460ff16155b6110515760405162461bcd60e51b8152600401610256906114fa565b600054610100900460ff16158015610cd3576000805460ff1961ff0019909116610100171660011790558015610ce5576000805461ff001916905550565b600054610100900460ff16806110a8575060005460ff16155b6110c45760405162461bcd60e51b8152600401610256906114fa565b600054610100900460ff161580156110ef576000805460ff1961ff0019909116610100171660011790555b6099805460ff191690558015610ce5576000805461ff001916905550565b60608247101561112f5760405162461bcd60e51b815260040161025690611464565b61113885610c59565b6111545760405162461bcd60e51b81526004016102569061156c565b600080866001600160a01b0316858760405161117091906112c2565b60006040518083038185875af1925050503d80600081146111ad576040519150601f19603f3d011682016040523d82523d6000602084013e6111b2565b606091505b50915091506111c28282866111cd565b979650505050505050565b606083156111dc575081610fb1565b8251156111ec5782518084602001fd5b8160405162461bcd60e51b8152600401610256919061135f565b80356001600160a01b0381168114610c5e57600080fd5b60006020828403121561122e578081fd5b610fb182611206565b60008060408385031215611249578081fd5b61125283611206565b946020939093013593505050565b60008060408385031215611249578182fd5b600060208284031215611283578081fd5b81518015158114610fb1578182fd5b6000602082840312156112a3578081fd5b5035919050565b6000602082840312156112bb578081fd5b5051919050565b600082516112d48184602087016116da565b9190910192915050565b6001600160a01b0391909116815260200190565b6001600160a01b039384168152919092166020820152604081019190915260600190565b6001600160a01b03929092168252602082015260400190565b901515815260200190565b9384526001600160a01b03928316602085015291166040830152606082015260800190565b600060208252825180602084015261137e8160408501602087016116da565b601f01601f19169190910160400192915050565b602080825260069082015265534f5f434e4360d01b604082015260600190565b60208082526014908201527314185d5cd8589b194e881b9bdd081c185d5cd95960621b604082015260600190565b602080825260069082015265534f5f53414360d01b604082015260600190565b602080825260069082015265534f5f53414f60d01b604082015260600190565b602080825260069082015265534f5f434e4f60d01b604082015260600190565b6020808252600a90820152691313d19597d39150951160b21b604082015260600190565b60208082526026908201527f416464726573733a20696e73756666696369656e742062616c616e636520666f6040820152651c8818d85b1b60d21b606082015260800190565b60208082526010908201526f14185d5cd8589b194e881c185d5cd95960821b604082015260600190565b6020808252600c908201526b04c4f46565f52414d424754360a41b604082015260600190565b6020808252602e908201527f496e697469616c697a61626c653a20636f6e747261637420697320616c72656160408201526d191e481a5b9a5d1a585b1a5e995960921b606082015260800190565b6020808252600a90820152694c4f46565f5254494e4360b01b604082015260600190565b6020808252601d908201527f416464726573733a2063616c6c20746f206e6f6e2d636f6e7472616374000000604082015260600190565b6020808252602a908201527f5361666545524332303a204552433230206f7065726174696f6e20646964206e6040820152691bdd081cdd58d8d9595960b21b606082015260800190565b6020808252600590820152640534f5f43360dc1b604082015260600190565b6020808252601f908201527f5265656e7472616e637947756172643a207265656e7472616e742063616c6c00604082015260600190565b6020808252600b908201526a4c4f46565f4c4f42494e4360a81b604082015260600190565b6020808252600a90820152694c4f46565f4e4542545760b01b604082015260600190565b6020808252600b908201526a2627a32b2fa9a6a12627a160a91b604082015260600190565b6020808252600690820152650534f5f4e57360d41b604082015260600190565b90815260200190565b60005b838110156116f55781810151838201526020016116dd565b83811115611704576000848401525b5050505056fea26469706673582212208518cd50508882d095694f5de1af862d7569b38ff798303a92bf32aebec4298464736f6c63430008000033",
  "linkReferences": {},
  "deployedLinkReferences": {}
}