{
  "_format": "hh-sol-artifact-1",
  "contractName": "LimitOrderBook",
  "sourceName": "contracts/limit/LimitOrderBook.sol",
  "abi": [
    {
      "anonymous": false,
      "inputs": [
        {
          "indexed": true,
          "internalType": "address",
          "name": "clearingHouseArg",
          "type": "address"
        }
      ],
      "name": "ClearingHouseChanged",
      "type": "event"
    },
    {
      "anonymous": false,
      "inputs": [
        {
          "indexed": true,
          "internalType": "address",
          "name": "trader",
          "type": "address"
        },
        {
          "indexed": true,
          "internalType": "address",
          "name": "baseToken",
          "type": "address"
        },
        {
          "indexed": false,
          "internalType": "bytes32",
          "name": "orderHash",
          "type": "bytes32"
        },
        {
          "indexed": false,
          "internalType": "uint8",
          "name": "orderType",
          "type": "uint8"
        },
        {
          "indexed": false,
          "internalType": "int256",
          "name": "positionSize",
          "type": "int256"
        },
        {
          "indexed": false,
          "internalType": "int256",
          "name": "positionNotional",
          "type": "int256"
        }
      ],
      "name": "LimitOrderCancelled",
      "type": "event"
    },
    {
      "anonymous": false,
      "inputs": [
        {
          "indexed": true,
          "internalType": "address",
          "name": "trader",
          "type": "address"
        },
        {
          "indexed": true,
          "internalType": "address",
          "name": "baseToken",
          "type": "address"
        },
        {
          "indexed": false,
          "internalType": "bytes32",
          "name": "orderHash",
          "type": "bytes32"
        },
        {
          "indexed": false,
          "internalType": "uint8",
          "name": "orderType",
          "type": "uint8"
        },
        {
          "indexed": false,
          "internalType": "address",
          "name": "keeper",
          "type": "address"
        },
        {
          "indexed": false,
          "internalType": "int256",
          "name": "exchangedPositionSize",
          "type": "int256"
        },
        {
          "indexed": false,
          "internalType": "int256",
          "name": "exchangedPositionNotional",
          "type": "int256"
        },
        {
          "indexed": false,
          "internalType": "uint256",
          "name": "fee",
          "type": "uint256"
        }
      ],
      "name": "LimitOrderFilled",
      "type": "event"
    },
    {
      "anonymous": false,
      "inputs": [
        {
          "indexed": true,
          "internalType": "address",
          "name": "limitOrderRewardVaultArg",
          "type": "address"
        }
      ],
      "name": "LimitOrderRewardVaultChanged",
      "type": "event"
    },
    {
      "anonymous": false,
      "inputs": [
        {
          "indexed": false,
          "internalType": "uint256",
          "name": "minOrderValueArg",
          "type": "uint256"
        }
      ],
      "name": "MinOrderValueChanged",
      "type": "event"
    },
    {
      "anonymous": false,
      "inputs": [
        {
          "indexed": true,
          "internalType": "address",
          "name": "previousOwner",
          "type": "address"
        },
        {
          "indexed": true,
          "internalType": "address",
          "name": "newOwner",
          "type": "address"
        }
      ],
      "name": "OwnershipTransferred",
      "type": "event"
    },
    {
      "anonymous": false,
      "inputs": [
        {
          "indexed": false,
          "internalType": "address",
          "name": "account",
          "type": "address"
        }
      ],
      "name": "Paused",
      "type": "event"
    },
    {
      "anonymous": false,
      "inputs": [
        {
          "indexed": false,
          "internalType": "address",
          "name": "account",
          "type": "address"
        }
      ],
      "name": "Unpaused",
      "type": "event"
    },
    {
      "inputs": [],
      "name": "LIMIT_ORDER_TYPEHASH",
      "outputs": [
        {
          "internalType": "bytes32",
          "name": "",
          "type": "bytes32"
        }
      ],
      "stateMutability": "view",
      "type": "function"
    },
    {
      "inputs": [
        {
          "components": [
            {
              "internalType": "enum ILimitOrderBook.OrderType",
              "name": "orderType",
              "type": "uint8"
            },
            {
              "internalType": "uint256",
              "name": "salt",
              "type": "uint256"
            },
            {
              "internalType": "address",
              "name": "trader",
              "type": "address"
            },
            {
              "internalType": "address",
              "name": "baseToken",
              "type": "address"
            },
            {
              "internalType": "bool",
              "name": "isSwapWithBase",
              "type": "bool"
            },
            {
              "internalType": "bool",
              "name": "isSell",
              "type": "bool"
            },
            {
              "internalType": "uint256",
              "name": "amount",
              "type": "uint256"
            },
            {
              "internalType": "uint256",
              "name": "amountLimit",
              "type": "uint256"
            },
            {
              "internalType": "uint256",
              "name": "deadline",
              "type": "uint256"
            },
            {
              "internalType": "bytes32",
              "name": "referralCode",
              "type": "bytes32"
            },
            {
              "internalType": "bool",
              "name": "reduceOnly",
              "type": "bool"
            },
            {
              "internalType": "uint80",
              "name": "roundIdWhenCreated",
              "type": "uint80"
            },
            {
              "internalType": "uint256",
              "name": "triggerPrice",
              "type": "uint256"
            }
          ],
          "internalType": "struct ILimitOrderBook.LimitOrder",
          "name": "order",
          "type": "tuple"
        }
      ],
      "name": "cancelLimitOrder",
      "outputs": [],
      "stateMutability": "nonpayable",
      "type": "function"
    },
    {
      "inputs": [],
      "name": "candidate",
      "outputs": [
        {
          "internalType": "address",
          "name": "",
          "type": "address"
        }
      ],
      "stateMutability": "view",
      "type": "function"
    },
    {
      "inputs": [],
      "name": "clearingHouse",
      "outputs": [
        {
          "internalType": "address",
          "name": "",
          "type": "address"
        }
      ],
      "stateMutability": "view",
      "type": "function"
    },
    {
      "inputs": [
        {
          "components": [
            {
              "internalType": "enum ILimitOrderBook.OrderType",
              "name": "orderType",
              "type": "uint8"
            },
            {
              "internalType": "uint256",
              "name": "salt",
              "type": "uint256"
            },
            {
              "internalType": "address",
              "name": "trader",
              "type": "address"
            },
            {
              "internalType": "address",
              "name": "baseToken",
              "type": "address"
            },
            {
              "internalType": "bool",
              "name": "isSwapWithBase",
              "type": "bool"
            },
            {
              "internalType": "bool",
              "name": "isSell",
              "type": "bool"
            },
            {
              "internalType": "uint256",
              "name": "amount",
              "type": "uint256"
            },
            {
              "internalType": "uint256",
              "name": "amountLimit",
              "type": "uint256"
            },
            {
              "internalType": "uint256",
              "name": "deadline",
              "type": "uint256"
            },
            {
              "internalType": "bytes32",
              "name": "referralCode",
              "type": "bytes32"
            },
            {
              "internalType": "bool",
              "name": "reduceOnly",
              "type": "bool"
            },
            {
              "internalType": "uint80",
              "name": "roundIdWhenCreated",
              "type": "uint80"
            },
            {
              "internalType": "uint256",
              "name": "triggerPrice",
              "type": "uint256"
            }
          ],
          "internalType": "struct ILimitOrderBook.LimitOrder",
          "name": "order",
          "type": "tuple"
        },
        {
          "internalType": "bytes",
          "name": "signature",
          "type": "bytes"
        },
        {
          "internalType": "uint80",
          "name": "roundIdWhenTriggered",
          "type": "uint80"
        }
      ],
      "name": "fillLimitOrder",
      "outputs": [],
      "stateMutability": "nonpayable",
      "type": "function"
    },
    {
      "inputs": [
        {
          "components": [
            {
              "internalType": "enum ILimitOrderBook.OrderType",
              "name": "orderType",
              "type": "uint8"
            },
            {
              "internalType": "uint256",
              "name": "salt",
              "type": "uint256"
            },
            {
              "internalType": "address",
              "name": "trader",
              "type": "address"
            },
            {
              "internalType": "address",
              "name": "baseToken",
              "type": "address"
            },
            {
              "internalType": "bool",
              "name": "isSwapWithBase",
              "type": "bool"
            },
            {
              "internalType": "bool",
              "name": "isSell",
              "type": "bool"
            },
            {
              "internalType": "uint256",
              "name": "amount",
              "type": "uint256"
            },
            {
              "internalType": "uint256",
              "name": "amountLimit",
              "type": "uint256"
            },
            {
              "internalType": "uint256",
              "name": "deadline",
              "type": "uint256"
            },
            {
              "internalType": "bytes32",
              "name": "referralCode",
              "type": "bytes32"
            },
            {
              "internalType": "bool",
              "name": "reduceOnly",
              "type": "bool"
            },
            {
              "internalType": "uint80",
              "name": "roundIdWhenCreated",
              "type": "uint80"
            },
            {
              "internalType": "uint256",
              "name": "triggerPrice",
              "type": "uint256"
            }
          ],
          "internalType": "struct ILimitOrderBook.LimitOrder",
          "name": "order",
          "type": "tuple"
        }
      ],
      "name": "getOrderHash",
      "outputs": [
        {
          "internalType": "bytes32",
          "name": "",
          "type": "bytes32"
        }
      ],
      "stateMutability": "view",
      "type": "function"
    },
    {
      "inputs": [
        {
          "internalType": "bytes32",
          "name": "orderHash",
          "type": "bytes32"
        }
      ],
      "name": "getOrderStatus",
      "outputs": [
        {
          "internalType": "enum ILimitOrderBook.OrderStatus",
          "name": "",
          "type": "uint8"
        }
      ],
      "stateMutability": "view",
      "type": "function"
    },
    {
      "inputs": [
        {
          "internalType": "string",
          "name": "name",
          "type": "string"
        },
        {
          "internalType": "string",
          "name": "version",
          "type": "string"
        },
        {
          "internalType": "address",
          "name": "clearingHouseArg",
          "type": "address"
        },
        {
          "internalType": "address",
          "name": "limitOrderRewardVaultArg",
          "type": "address"
        },
        {
          "internalType": "uint256",
          "name": "minOrderValueArg",
          "type": "uint256"
        }
      ],
      "name": "initialize",
      "outputs": [],
      "stateMutability": "nonpayable",
      "type": "function"
    },
    {
      "inputs": [],
      "name": "limitOrderRewardVault",
      "outputs": [
        {
          "internalType": "address",
          "name": "",
          "type": "address"
        }
      ],
      "stateMutability": "view",
      "type": "function"
    },
    {
      "inputs": [],
      "name": "minOrderValue",
      "outputs": [
        {
          "internalType": "uint256",
          "name": "",
          "type": "uint256"
        }
      ],
      "stateMutability": "view",
      "type": "function"
    },
    {
      "inputs": [],
      "name": "owner",
      "outputs": [
        {
          "internalType": "address",
          "name": "",
          "type": "address"
        }
      ],
      "stateMutability": "view",
      "type": "function"
    },
    {
      "inputs": [],
      "name": "pause",
      "outputs": [],
      "stateMutability": "nonpayable",
      "type": "function"
    },
    {
      "inputs": [],
      "name": "paused",
      "outputs": [
        {
          "internalType": "bool",
          "name": "",
          "type": "bool"
        }
      ],
      "stateMutability": "view",
      "type": "function"
    },
    {
      "inputs": [],
      "name": "positionMgmt",
      "outputs": [
        {
          "internalType": "address",
          "name": "",
          "type": "address"
        }
      ],
      "stateMutability": "view",
      "type": "function"
    },
    {
      "inputs": [],
      "name": "renounceOwnership",
      "outputs": [],
      "stateMutability": "nonpayable",
      "type": "function"
    },
    {
      "inputs": [
        {
          "internalType": "address",
          "name": "clearingHouseArg",
          "type": "address"
        }
      ],
      "name": "setClearingHouse",
      "outputs": [],
      "stateMutability": "nonpayable",
      "type": "function"
    },
    {
      "inputs": [
        {
          "internalType": "address",
          "name": "limitOrderRewardVaultArg",
          "type": "address"
        }
      ],
      "name": "setLimitOrderRewardVault",
      "outputs": [],
      "stateMutability": "nonpayable",
      "type": "function"
    },
    {
      "inputs": [
        {
          "internalType": "uint256",
          "name": "minOrderValueArg",
          "type": "uint256"
        }
      ],
      "name": "setMinOrderValue",
      "outputs": [],
      "stateMutability": "nonpayable",
      "type": "function"
    },
    {
      "inputs": [
        {
          "internalType": "address",
          "name": "newOwner",
          "type": "address"
        }
      ],
      "name": "setOwner",
      "outputs": [],
      "stateMutability": "nonpayable",
      "type": "function"
    },
    {
      "inputs": [],
      "name": "unpause",
      "outputs": [],
      "stateMutability": "nonpayable",
      "type": "function"
    },
    {
      "inputs": [],
      "name": "updateOwner",
      "outputs": [],
      "stateMutability": "nonpayable",
      "type": "function"
    }
  ],
  "bytecode": "0x608060405234801561001057600080fd5b50612caf806100206000396000f3fe608060405234801561001057600080fd5b50600436106101375760003560e01c80635c975abb116100b85780638da5cb5b1161007c5780638da5cb5b146102355780639e2c8ff11461023d578063ad18c45314610245578063bc5920ba14610258578063c9aba0aa14610260578063fc8592b21461027357610137565b80635c975abb146102005780636c8381f814610215578063715018a61461021d5780638456cb591461022557806388a59b471461022d57610137565b80632f7a734f116100ff5780632f7a734f1461019d5780633f4ba83a146101b0578063449323d8146101b857806346423aa7146101cb57806354dd5f74146101eb57610137565b80630af968001461013c57806313af40351461015a5780631ff33f641461016f57806321ef0ab8146101775780632a2e0ab01461018a575b600080fd5b610144610286565b604051610151919061226c565b60405180910390f35b61016d61016836600461202e565b610296565b005b610144610382565b61016d610185366004612066565b610392565b61016d610198366004612124565b610432565b61016d6101ab36600461202e565b610609565b61016d6106d2565b61016d6101c636600461202e565b61071b565b6101de6101d9366004612066565b6108a1565b6040516101519190612489565b6101f36108ba565b6040516101519190612324565b6102086108de565b6040516101519190612319565b6101446108e7565b61016d6108f6565b61016d61098b565b6101446109d2565b6101446109e2565b6101f36109f1565b61016d610253366004612140565b6109f8565b61016d610c14565b61016d61026e366004612096565b610cd7565b6101f3610281366004612124565b610ef8565b610132546001600160a01b031681565b61029e610f54565b6001600160a01b03166102af6109e2565b6001600160a01b0316146102de5760405162461bcd60e51b81526004016102d590612625565b60405180910390fd5b6001600160a01b0381166103045760405162461bcd60e51b81526004016102d590612a17565b6065546001600160a01b03828116911614156103325760405162461bcd60e51b81526004016102d5906125c0565b6066546001600160a01b03828116911614156103605760405162461bcd60e51b81526004016102d59061257e565b606680546001600160a01b0319166001600160a01b0392909216919091179055565b610134546001600160a01b031681565b61039a610f54565b6001600160a01b03166103ab6109e2565b6001600160a01b0316146103d15760405162461bcd60e51b81526004016102d590612625565b600081116103f15760405162461bcd60e51b81526004016102d590612521565b6101358190556040517f83df370fa0bae680d64cf01d88589d08bf399b7daa8bc2964ccf481c4ec1a8ac90610427908390612324565b60405180910390a150565b80604001516001600160a01b0316610448610f54565b6001600160a01b03161461046e5760405162461bcd60e51b81526004016102d5906129d3565b600061047982610ef8565b9050600080828152610131602052604090205460ff1660028111156104ae57634e487b7160e01b600052602160045260246000fd5b146104cb5760405162461bcd60e51b81526004016102d5906127b4565b600081815261013160205260408120805460ff191660021790556080830151819015610542578360a001511561051e576105088460c00151610f63565b91506105178460e00151610f77565b905061053d565b61052b8460c00151610f77565b915061053a8460e00151610f63565b90505b610587565b8360a0015115610568576105598460e00151610f77565b915061053a8460c00151610f63565b6105758460e00151610f63565b91506105848460c00151610f77565b90505b83606001516001600160a01b031684604001516001600160a01b03167f1385c5527f087ff7303436adac89188a5a3ff2ba867e6f744658baad06ee430e85876000015160028111156105e957634e487b7160e01b600052602160045260246000fd5b86866040516105fb949392919061246b565b60405180910390a350505050565b610611610f54565b6001600160a01b03166106226109e2565b6001600160a01b0316146106485760405162461bcd60e51b81526004016102d590612625565b6001600160a01b038116158061066b575061066b816001600160a01b0316610fa4565b6106875760405162461bcd60e51b81526004016102d5906128cc565b61013480546001600160a01b0319166001600160a01b0383169081179091556040517f0e7fb875d68d5a39eb32951485cfb755f5b8f4779a8415c517c81df791fb671a90600090a250565b6106da610f54565b6001600160a01b03166106eb6109e2565b6001600160a01b0316146107115760405162461bcd60e51b81526004016102d590612625565b610719610faa565b565b610723610f54565b6001600160a01b03166107346109e2565b6001600160a01b03161461075a5760405162461bcd60e51b81526004016102d590612625565b61076c816001600160a01b0316610fa4565b6107885760405162461bcd60e51b81526004016102d59061295a565b61013280546001600160a01b0319166001600160a01b038381169190911791829055604080516347424cdd60e11b8152905160009390921691638e8499ba91600480820192602092909190829003018186803b1580156107e757600080fd5b505afa1580156107fb573d6000803e3d6000fd5b505050506040513d601f19601f8201168201806040525081019061081f919061204a565b9050610833816001600160a01b0316610fa4565b61084f5760405162461bcd60e51b81526004016102d590612602565b61013380546001600160a01b0319166001600160a01b0383811691909117909155604051908316907fd0654f5900f9e7e4e605a19334306e6a2786bbf960ac0484a4c12feb6428fe2f90600090a25050565b6000818152610131602052604090205460ff165b919050565b7f8d35f1647bb1b5dad8de20f11b683d922a49c176937c71f6e95bb1fb01219a7b81565b60995460ff1690565b6066546001600160a01b031690565b6108fe610f54565b6001600160a01b031661090f6109e2565b6001600160a01b0316146109355760405162461bcd60e51b81526004016102d590612625565b6065546040516000916001600160a01b0316907f8be0079c531659141344cd1fd0a4f28419497f9722a3daafe3b4186f6b6457e0908390a3606580546001600160a01b0319908116909155606680549091169055565b610993610f54565b6001600160a01b03166109a46109e2565b6001600160a01b0316146109ca5760405162461bcd60e51b81526004016102d590612625565b610719611018565b610133546001600160a01b031681565b6065546001600160a01b031690565b6101355481565b60026001541415610a1b5760405162461bcd60e51b81526004016102d59061299c565b60026001556000610a2a610f54565b9050610a3e816001600160a01b0316610fa4565b15610a5b5760405162461bcd60e51b81526004016102d59061259e565b6000610a678585611073565b9150600090506000828152610131602052604090205460ff166002811115610a9f57634e487b7160e01b600052602160045260246000fd5b14610abc5760405162461bcd60e51b81526004016102d5906127b4565b6000806000610acb88876110d0565b600087815261013160205260409020805460ff191660011790556101345492955090935091506001600160a01b031615610b86576101345460405163ac0c9cff60e01b81526001600160a01b039091169063ac0c9cff90610b32908890889060040161229a565b602060405180830381600087803b158015610b4c57600080fd5b505af1158015610b60573d6000803e3d6000fd5b505050506040513d601f19601f82011682018060405250810190610b84919061207e565b505b87606001516001600160a01b031688604001516001600160a01b03167fe80b129e07753ff6150d24843064a85193a9698c16a99ae31e84433cef76a1b8868b600001516002811115610be857634e487b7160e01b600052602160045260246000fd5b89888888604051610bfe96959493929190612437565b60405180910390a3505060018055505050505050565b6066546001600160a01b0316610c3c5760405162461bcd60e51b81526004016102d59061297d565b610c44610f54565b6066546001600160a01b03908116911614610c715760405162461bcd60e51b81526004016102d5906124d3565b6066546065546040516001600160a01b0392831692909116907f8be0079c531659141344cd1fd0a4f28419497f9722a3daafe3b4186f6b6457e090600090a360668054606580546001600160a01b03199081166001600160a01b03841617909155169055565b600054610100900460ff1680610cf0575060005460ff16155b610d0c5760405162461bcd60e51b81526004016102d590612766565b600054610100900460ff16158015610d37576000805460ff1961ff0019909116610100171660011790555b610d3f611354565b610d476113d1565b610d518686611441565b610d63846001600160a01b0316610fa4565b610d7f5760405162461bcd60e51b81526004016102d59061295a565b61013280546001600160a01b0319166001600160a01b038681169190911791829055604080516347424cdd60e11b8152905160009390921691638e8499ba91600480820192602092909190829003018186803b158015610dde57600080fd5b505afa158015610df2573d6000803e3d6000fd5b505050506040513d601f19601f82011682018060405250810190610e16919061204a565b9050610e2a816001600160a01b0316610fa4565b610e465760405162461bcd60e51b81526004016102d590612602565b61013380546001600160a01b0319166001600160a01b038381169190911790915584161580610e825750610e82846001600160a01b0316610fa4565b610e9e5760405162461bcd60e51b81526004016102d5906128cc565b61013480546001600160a01b0319166001600160a01b03861617905582610ed75760405162461bcd60e51b81526004016102d590612521565b506101358290558015610ef0576000805461ff00191690555b505050505050565b6000610f4e7f8d35f1647bb1b5dad8de20f11b683d922a49c176937c71f6e95bb1fb01219a7b60001b83604051602001610f33929190612359565b604051602081830303815290604052805190602001206114c2565b92915050565b6000610f5e6114d5565b905090565b6000610f6e82610f77565b610f4e90612c00565b60006001600160ff1b03821115610fa05760405162461bcd60e51b81526004016102d5906128f1565b5090565b3b151590565b610fb26108de565b610fce5760405162461bcd60e51b81526004016102d5906124f3565b6099805460ff191690557f5db9ee0a495bf2e6ff9c91a7834c1ba4fdd244a5e8aa4e537bd38aeae4b073aa611001610f54565b60405161100e919061226c565b60405180910390a1565b6110206108de565b1561103d5760405162461bcd60e51b81526004016102d590612707565b6099805460ff191660011790557f62e78cea01bee320cd4e420270b5ea74000d11b0c9f74754ebdbfc544b05a258611001610f54565b600080600061108185610ef8565b9050600061108f82866114d9565b905085604001516001600160a01b0316816001600160a01b0316146110c65760405162461bcd60e51b81526004016102d59061283e565b9590945092505050565b60008060006110df8585611524565b610133546040808701516060880151915163165c4e2960e31b81526000936001600160a01b03169263b2e271489261111c92909190600401612280565b60206040518083038186803b15801561113457600080fd5b505afa158015611148573d6000803e3d6000fd5b505050506040513d601f19601f8201168201806040525081019061116c919061207e565b9050600080600061013260009054906101000a90046001600160a01b03166001600160a01b03166309453d0c8a604001516040518060e001604052808d606001516001600160a01b031681526020018d60800151151581526020018d60a00151151581526020018d60c0015181526020018d60e0015181526020018d610100015181526020018d61012001518152506040518363ffffffff1660e01b81526004016112189291906122b3565b606060405180830381600087803b15801561123257600080fd5b505af1158015611246573d6000803e3d6000fd5b505050506040513d601f19601f8201168201806040525081019061126a91906121d6565b925092509250610135548210156112935760405162461bcd60e51b81526004016102d5906125e0565b886101400151156112e65783158015906112b65750608089015115156000851214155b80156112ca57506112c6846116e2565b8311155b6112e65760405162461bcd60e51b81526004016102d5906126e4565b6000808a6080015115611320576112fc85610f63565b915061131961130a84610f77565b61131386610f77565b9061170b565b9050611343565b61132985610f77565b915061134061133784610f77565b61131386610f63565b90505b909750955093505050509250925092565b600054610100900460ff168061136d575060005460ff16155b6113895760405162461bcd60e51b81526004016102d590612766565b600054610100900460ff161580156113b4576000805460ff1961ff0019909116610100171660011790555b6113bc61171e565b80156113ce576000805461ff00191690555b50565b600054610100900460ff16806113ea575060005460ff16155b6114065760405162461bcd60e51b81526004016102d590612766565b600054610100900460ff16158015611431576000805460ff1961ff0019909116610100171660011790555b611439611796565b6113bc61186a565b600054610100900460ff168061145a575060005460ff16155b6114765760405162461bcd60e51b81526004016102d590612766565b600054610100900460ff161580156114a1576000805460ff1961ff0019909116610100171660011790555b6114ab83836118da565b80156114bd576000805461ff00191690555b505050565b6000610f4e6114cf61196d565b836119a8565b3390565b600081516041146114fc5760405162461bcd60e51b81526004016102d590612547565b60208201516040830151606084015160001a61151a868285856119db565b9695505050505050565b60008251600281111561154757634e487b7160e01b600052602160045260246000fd5b1415611552576116de565b60008261016001516001600160501b031611801561158757508161016001516001600160501b0316816001600160501b031610155b6115a35760405162461bcd60e51b81526004016102d5906129f6565b6000826101800151116115c85760405162461bcd60e51b81526004016102d590612939565b60006115d8836060015183611ad1565b90506001835160028111156115fd57634e487b7160e01b600052602160045260246000fd5b141561166157826080015115611637578261018001518111156116325760405162461bcd60e51b81526004016102d5906127d6565b61165c565b82610180015181101561165c5760405162461bcd60e51b81526004016102d590612645565b6114bd565b60028351600281111561168457634e487b7160e01b600052602160045260246000fd5b14156114bd578260800151156116b95782610180015181101561165c5760405162461bcd60e51b81526004016102d590612886565b8261018001518111156114bd5760405162461bcd60e51b81526004016102d590612860565b5050565b600080821215611702576116fd6116f883611c43565b611c71565b610f4e565b610f4e82611c71565b60006117178284612a75565b9392505050565b600054610100900460ff1680611737575060005460ff16155b6117535760405162461bcd60e51b81526004016102d590612766565b600054610100900460ff1615801561177e576000805460ff1961ff0019909116610100171660011790555b6001805580156113ce576000805461ff001916905550565b600054610100900460ff16806117af575060005460ff16155b6117cb5760405162461bcd60e51b81526004016102d590612766565b600054610100900460ff161580156117f6576000805460ff1961ff0019909116610100171660011790555b6117fe611c93565b6000611808610f54565b606580546001600160a01b0319166001600160a01b038316908117909155604051919250906000907f8be0079c531659141344cd1fd0a4f28419497f9722a3daafe3b4186f6b6457e0908290a35080156113ce576000805461ff001916905550565b600054610100900460ff1680611883575060005460ff16155b61189f5760405162461bcd60e51b81526004016102d590612766565b600054610100900460ff161580156118ca576000805460ff1961ff0019909116610100171660011790555b6118d2611cf7565b6113bc611d6a565b600054610100900460ff16806118f3575060005460ff16155b61190f5760405162461bcd60e51b81526004016102d590612766565b600054610100900460ff1615801561193a576000805460ff1961ff0019909116610100171660011790555b825160208085019190912083519184019190912060fd9190915560fe5580156114bd576000805461ff0019169055505050565b6000610f5e7f8b73c3c69bb8fe3d512ecc4cf759cc79239f7b179b0ffacaa9a75d522b39400f61199b611de8565b6119a3611dee565b611df4565b600082826040516020016119bd929190612251565b60405160208183030381529060405280519060200120905092915050565b60007f7fffffffffffffffffffffffffffffff5d576e7357a4501ddfe92f46681b20a0821115611a1d5760405162461bcd60e51b81526004016102d59061266b565b8360ff16601b1480611a3257508360ff16601c145b611a4e5760405162461bcd60e51b81526004016102d5906127fc565b600060018686868660405160008152602001604052604051611a73949392919061246b565b6020604051602081039080840390855afa158015611a95573d6000803e3d6000fd5b5050604051601f1901519150506001600160a01b038116611ac85760405162461bcd60e51b81526004016102d59061249c565b95945050505050565b600080836001600160a01b0316639e87a5cd6040518163ffffffff1660e01b815260040160206040518083038186803b158015611b0d57600080fd5b505afa158015611b21573d6000803e3d6000fd5b505050506040513d601f19601f82011682018060405250810190611b45919061204a565b90506000816001600160a01b0316639a6fc8f5856040518263ffffffff1660e01b8152600401611b759190612a37565b604080518083038186803b158015611b8c57600080fd5b505afa158015611ba0573d6000803e3d6000fd5b505050506040513d601f19601f82011682018060405250810190611bc491906121b3565b509050611ac881836001600160a01b031663313ce5676040518163ffffffff1660e01b815260040160206040518083038186803b158015611c0457600080fd5b505afa158015611c18573d6000803e3d6000fd5b505050506040513d601f19601f82011682018060405250810190611c3c9190612203565b6012611e2e565b6000600160ff1b8213611c685760405162461bcd60e51b81526004016102d5906126ad565b610f4e82612c00565b600080821215610fa05760405162461bcd60e51b81526004016102d590612731565b600054610100900460ff1680611cac575060005460ff16155b611cc85760405162461bcd60e51b81526004016102d590612766565b600054610100900460ff16158015611cf3576000805460ff1961ff0019909116610100171660011790555b6113bc5b600054610100900460ff1680611d10575060005460ff16155b611d2c5760405162461bcd60e51b81526004016102d590612766565b600054610100900460ff161580156113bc576000805460ff1961ff00199091166101001716600117905580156113ce576000805461ff001916905550565b600054610100900460ff1680611d83575060005460ff16155b611d9f5760405162461bcd60e51b81526004016102d590612766565b600054610100900460ff16158015611dca576000805460ff1961ff0019909116610100171660011790555b6099805460ff1916905580156113ce576000805461ff001916905550565b60fd5490565b60fe5490565b60008383834630604051602001611e0f95949392919061232d565b6040516020818303038152906040528051906020012090509392505050565b60008160ff168360ff161115611e565760405162461bcd60e51b81526004016102d5906128ac565b611e7b611e6960ff848116908616611e83565b611e7490600a612afc565b8590611e8f565b949350505050565b60006117178284612be9565b60006117178284612bca565b600067ffffffffffffffff831115611eb557611eb5612c30565b611ec8601f8401601f1916602001612a4b565b9050828152838383011115611edc57600080fd5b828260208301376000602084830101529392505050565b80356108b581612c64565b803580151581146108b557600080fd5b8035600381106108b557600080fd5b600082601f830112611f2d578081fd5b61171783833560208501611e9b565b60006101a0808385031215611f4f578182fd5b611f5881612a4b565b915050611f6482611f0e565b815260208201356020820152611f7c60408301611ef3565b6040820152611f8d60608301611ef3565b6060820152611f9e60808301611efe565b6080820152611faf60a08301611efe565b60a082015260c082013560c082015260e082013560e0820152610100808301358183015250610120808301358183015250610140611fee818401611efe565b90820152610160612000838201612017565b818301525061018080830135818301525092915050565b80356001600160501b03811681146108b557600080fd5b60006020828403121561203f578081fd5b813561171781612c64565b60006020828403121561205b578081fd5b815161171781612c64565b600060208284031215612077578081fd5b5035919050565b60006020828403121561208f578081fd5b5051919050565b600080600080600060a086880312156120ad578081fd5b853567ffffffffffffffff808211156120c4578283fd5b6120d089838a01611f1d565b965060208801359150808211156120e5578283fd5b506120f288828901611f1d565b945050604086013561210381612c64565b9250606086013561211381612c64565b949793965091946080013592915050565b60006101a08284031215612136578081fd5b6117178383611f3c565b60008060006101e08486031215612155578283fd5b61215f8585611f3c565b92506101a084013567ffffffffffffffff81111561217b578283fd5b8401601f8101861361218b578283fd5b61219a86823560208401611e9b565b9250506121aa6101c08501612017565b90509250925092565b600080604083850312156121c5578182fd5b505080516020909101519092909150565b6000806000606084860312156121ea578081fd5b8351925060208401519150604084015190509250925092565b600060208284031215612214578081fd5b815160ff81168114611717578182fd5b6001600160a01b03169052565b15159052565b61224081612c46565b9052565b6001600160501b03169052565b61190160f01b81526002810192909252602282015260420190565b6001600160a01b0391909116815260200190565b6001600160a01b0392831681529116602082015260400190565b6001600160a01b03929092168252602082015260400190565b60006101008201905060018060a01b0380851683528084511660208401525060208301511515604083015260408301511515606083015260608301516080830152608083015160a083015260a083015160c083015260c083015160e08301529392505050565b901515815260200190565b90815260200190565b9485526020850193909352604084019190915260608301526001600160a01b0316608082015260a00190565b60006101c082019050838252612373602083018451612237565b60208301516040830152604083015161238f6060840182612224565b5060608301516123a26080840182612224565b5060808301516123b560a0840182612231565b5060a08301516123c860c0840182612231565b5060c083015160e08381019190915283015161010080840191909152830151610120808401919091528301516101408084019190915283015161016061241081850183612231565b840151905061018061242484820183612244565b808501516101a085015250509392505050565b95865260ff9490941660208601526001600160a01b039290921660408501526060840152608083015260a082015260c00190565b93845260ff9290921660208401526040830152606082015260800190565b6020810161249683612c46565b91905290565b60208082526018908201527f45434453413a20696e76616c6964207369676e61747572650000000000000000604082015260600190565b602080825260069082015265534f5f434e4360d01b604082015260600190565b60208082526014908201527314185d5cd8589b194e881b9bdd081c185d5cd95960621b604082015260600190565b6020808252600c908201526b04c4f425f4d4f564d424754360a41b604082015260600190565b6020808252601f908201527f45434453413a20696e76616c6964207369676e6174757265206c656e67746800604082015260600190565b602080825260069082015265534f5f53414360d01b604082015260600190565b6020808252600890820152674c4f425f534d424560c01b604082015260600190565b602080825260069082015265534f5f53414f60d01b604082015260600190565b6020808252600890820152674c4f425f4f56545360c01b604082015260600190565b6020808252600990820152684c4f425f4142494e4360b81b604082015260600190565b602080825260069082015265534f5f434e4f60d01b604082015260600190565b6020808252600c908201526b4c4f425f42534c4f54504e4d60a01b604082015260600190565b60208082526022908201527f45434453413a20696e76616c6964207369676e6174757265202773272076616c604082015261756560f01b606082015260800190565b6020808252601d908201527f5369676d614d6174683a20696e76657273696f6e206f766572666c6f77000000604082015260600190565b6020808252600990820152684c4f425f524f494e5360b81b604082015260600190565b60208082526010908201526f14185d5cd8589b194e881c185d5cd95960821b604082015260600190565b6020808252818101527f53616665436173743a2076616c7565206d75737420626520706f736974697665604082015260600190565b6020808252602e908201527f496e697469616c697a61626c653a20636f6e747261637420697320616c72656160408201526d191e481a5b9a5d1a585b1a5e995960921b606082015260800190565b6020808252600890820152674c4f425f4f4d425560c01b604082015260600190565b6020808252600c908201526b4c4f425f53534c4f54504e4d60a01b604082015260600190565b60208082526022908201527f45434453413a20696e76616c6964207369676e6174757265202776272076616c604082015261756560f01b606082015260800190565b6020808252600890820152671313d097d4d2539560c21b604082015260600190565b6020808252600c908201526b4c4f425f42544c4f54504e4d60a01b604082015260600190565b6020808252600c908201526b4c4f425f53544c4f54504e4d60a01b604082015260600190565b6020808252600690820152651313d097d25160d21b604082015260600190565b6020808252600b908201526a4c4f425f4c4f4656494e4360a81b604082015260600190565b60208082526028908201527f53616665436173743a2076616c756520646f65736e27742066697420696e2061604082015267371034b73a191a9b60c11b606082015260800190565b60208082526007908201526604c4f425f4954560cc1b604082015260600190565b6020808252600990820152684c4f425f4348494e4360b81b604082015260600190565b6020808252600590820152640534f5f43360dc1b604082015260600190565b6020808252601f908201527f5265656e7472616e637947756172643a207265656e7472616e742063616c6c00604082015260600190565b6020808252600990820152684c4f425f4f534d425360b81b604082015260600190565b6020808252600790820152664c4f425f49524960c81b604082015260600190565b6020808252600690820152650534f5f4e57360d41b604082015260600190565b6001600160501b0391909116815260200190565b60405181810167ffffffffffffffff81118282101715612a6d57612a6d612c30565b604052919050565b600080821280156001600160ff1b0384900385131615612a9757612a97612c1a565b600160ff1b8390038412811615612ab057612ab0612c1a565b50500190565b80825b6001808611612ac85750612af3565b818704821115612ada57612ada612c1a565b80861615612ae757918102915b9490941c938002612ab9565b94509492505050565b60006117176000198484600082612b1557506001611717565b81612b2257506000611717565b8160018114612b385760028114612b4257612b6f565b6001915050611717565b60ff841115612b5357612b53612c1a565b6001841b915084821115612b6957612b69612c1a565b50611717565b5060208310610133831016604e8410600b8410161715612ba2575081810a83811115612b9d57612b9d612c1a565b611717565b612baf8484846001612ab6565b808604821115612bc157612bc1612c1a565b02949350505050565b6000816000190483118215151615612be457612be4612c1a565b500290565b600082821015612bfb57612bfb612c1a565b500390565b6000600160ff1b821415612c1657612c16612c1a565b0390565b634e487b7160e01b600052601160045260246000fd5b634e487b7160e01b600052604160045260246000fd5b600381106113ce57634e487b7160e01b600052602160045260246000fd5b6001600160a01b03811681146113ce57600080fdfea26469706673582212204a5d3ae777853662998bd26b3837163d2886d969f88d4f9d5a6db35de3584ecd64736f6c63430008000033",
  "linkReferences": {},
  "deployedLinkReferences": {}
}