{
  "_format": "hh-sol-artifact-1",
  "contractName": "LiquidityProvider",
  "sourceName": "contracts/clearinghouse/LiquidityProvider.sol",
  "abi": [
    {
      "anonymous": false,
      "inputs": [
        {
          "indexed": true,
          "internalType": "address",
          "name": "clearingHouse",
          "type": "address"
        }
      ],
      "name": "ClearingHouseChanged",
      "type": "event"
    },
    {
      "anonymous": false,
      "inputs": [
        {
          "indexed": true,
          "internalType": "address",
          "name": "trader",
          "type": "address"
        }
      ],
      "name": "MarketTakerChanged",
      "type": "event"
    },
    {
      "anonymous": false,
      "inputs": [
        {
          "indexed": true,
          "internalType": "address",
          "name": "previousOwner",
          "type": "address"
        },
        {
          "indexed": true,
          "internalType": "address",
          "name": "newOwner",
          "type": "address"
        }
      ],
      "name": "OwnershipTransferred",
      "type": "event"
    },
    {
      "inputs": [
        {
          "internalType": "address",
          "name": "",
          "type": "address"
        },
        {
          "internalType": "uint256",
          "name": "",
          "type": "uint256"
        }
      ],
      "name": "_totalLPCalcFeeRatioMap",
      "outputs": [
        {
          "internalType": "uint256",
          "name": "",
          "type": "uint256"
        }
      ],
      "stateMutability": "view",
      "type": "function"
    },
    {
      "inputs": [
        {
          "components": [
            {
              "internalType": "address",
              "name": "maker",
              "type": "address"
            },
            {
              "internalType": "address",
              "name": "baseToken",
              "type": "address"
            },
            {
              "internalType": "uint256",
              "name": "base",
              "type": "uint256"
            },
            {
              "internalType": "uint256",
              "name": "quote",
              "type": "uint256"
            },
            {
              "internalType": "uint256",
              "name": "minLiquidity",
              "type": "uint256"
            },
            {
              "components": [
                {
                  "internalType": "int256",
                  "name": "twPremium",
                  "type": "int256"
                },
                {
                  "internalType": "int256",
                  "name": "twPremiumWithLiquidity",
                  "type": "int256"
                }
              ],
              "internalType": "struct Funding.Growth",
              "name": "fundingGrowthGlobal",
              "type": "tuple"
            }
          ],
          "internalType": "struct ILiquidityProvider.AddLiquidityParams",
          "name": "params",
          "type": "tuple"
        }
      ],
      "name": "addLiquidity",
      "outputs": [
        {
          "components": [
            {
              "internalType": "uint256",
              "name": "base",
              "type": "uint256"
            },
            {
              "internalType": "uint256",
              "name": "quote",
              "type": "uint256"
            },
            {
              "internalType": "uint256",
              "name": "fee",
              "type": "uint256"
            },
            {
              "internalType": "uint256",
              "name": "liquidity",
              "type": "uint256"
            }
          ],
          "internalType": "struct ILiquidityProvider.AddLiquidityResponse",
          "name": "",
          "type": "tuple"
        }
      ],
      "stateMutability": "nonpayable",
      "type": "function"
    },
    {
      "inputs": [],
      "name": "candidate",
      "outputs": [
        {
          "internalType": "address",
          "name": "",
          "type": "address"
        }
      ],
      "stateMutability": "view",
      "type": "function"
    },
    {
      "inputs": [],
      "name": "getClearingHouse",
      "outputs": [
        {
          "internalType": "address",
          "name": "",
          "type": "address"
        }
      ],
      "stateMutability": "view",
      "type": "function"
    },
    {
      "inputs": [
        {
          "internalType": "address",
          "name": "baseToken",
          "type": "address"
        }
      ],
      "name": "getLPCalcFeeRatio",
      "outputs": [
        {
          "internalType": "uint256[]",
          "name": "",
          "type": "uint256[]"
        }
      ],
      "stateMutability": "view",
      "type": "function"
    },
    {
      "inputs": [
        {
          "internalType": "address",
          "name": "trader",
          "type": "address"
        },
        {
          "internalType": "address",
          "name": "baseToken",
          "type": "address"
        },
        {
          "components": [
            {
              "internalType": "int256",
              "name": "twPremium",
              "type": "int256"
            },
            {
              "internalType": "int256",
              "name": "twPremiumWithLiquidity",
              "type": "int256"
            }
          ],
          "internalType": "struct Funding.Growth",
          "name": "fundingGrowthGlobal",
          "type": "tuple"
        }
      ],
      "name": "getLiquidityFundingPayment",
      "outputs": [
        {
          "internalType": "int256",
          "name": "liquidityFundingPayment",
          "type": "int256"
        }
      ],
      "stateMutability": "view",
      "type": "function"
    },
    {
      "inputs": [],
      "name": "getMarketTaker",
      "outputs": [
        {
          "internalType": "address",
          "name": "",
          "type": "address"
        }
      ],
      "stateMutability": "view",
      "type": "function"
    },
    {
      "inputs": [
        {
          "internalType": "address",
          "name": "trader",
          "type": "address"
        },
        {
          "internalType": "address",
          "name": "baseToken",
          "type": "address"
        }
      ],
      "name": "getOpenOrder",
      "outputs": [
        {
          "components": [
            {
              "internalType": "uint256",
              "name": "liquidity",
              "type": "uint256"
            },
            {
              "internalType": "uint256",
              "name": "lastExchangeFeeIndex",
              "type": "uint256"
            },
            {
              "internalType": "int256",
              "name": "lastTwPremiumGrowth",
              "type": "int256"
            },
            {
              "internalType": "int256",
              "name": "lastTwPremiumWithLiquidityGrowth",
              "type": "int256"
            },
            {
              "internalType": "uint256",
              "name": "baseDebt",
              "type": "uint256"
            },
            {
              "internalType": "uint256",
              "name": "quoteDebt",
              "type": "uint256"
            }
          ],
          "internalType": "struct Account.LPInfo",
          "name": "",
          "type": "tuple"
        }
      ],
      "stateMutability": "view",
      "type": "function"
    },
    {
      "inputs": [
        {
          "internalType": "address",
          "name": "trader",
          "type": "address"
        },
        {
          "internalType": "address",
          "name": "baseToken",
          "type": "address"
        }
      ],
      "name": "getPendingFee",
      "outputs": [
        {
          "internalType": "uint256",
          "name": "",
          "type": "uint256"
        }
      ],
      "stateMutability": "view",
      "type": "function"
    },
    {
      "inputs": [
        {
          "internalType": "address",
          "name": "trader",
          "type": "address"
        },
        {
          "internalType": "address",
          "name": "baseToken",
          "type": "address"
        },
        {
          "internalType": "bool",
          "name": "fetchBase",
          "type": "bool"
        }
      ],
      "name": "getTotalLPOrderDebt",
      "outputs": [
        {
          "internalType": "uint256",
          "name": "",
          "type": "uint256"
        }
      ],
      "stateMutability": "view",
      "type": "function"
    },
    {
      "inputs": [
        {
          "internalType": "address",
          "name": "trader",
          "type": "address"
        },
        {
          "internalType": "address[]",
          "name": "baseTokens",
          "type": "address[]"
        }
      ],
      "name": "getTotalLPQuoteAmountAndPendingFee",
      "outputs": [
        {
          "internalType": "int256",
          "name": "totalQuoteAmountInAmms",
          "type": "int256"
        },
        {
          "internalType": "uint256",
          "name": "totalPendingFee",
          "type": "uint256"
        }
      ],
      "stateMutability": "view",
      "type": "function"
    },
    {
      "inputs": [
        {
          "internalType": "address",
          "name": "trader",
          "type": "address"
        },
        {
          "internalType": "address",
          "name": "baseToken",
          "type": "address"
        },
        {
          "internalType": "bool",
          "name": "fetchBase",
          "type": "bool"
        }
      ],
      "name": "getTotalTokenAmountInAmmAndPendingFee",
      "outputs": [
        {
          "internalType": "uint256",
          "name": "tokenAmount",
          "type": "uint256"
        },
        {
          "internalType": "uint256",
          "name": "pendingFee",
          "type": "uint256"
        }
      ],
      "stateMutability": "view",
      "type": "function"
    },
    {
      "inputs": [
        {
          "internalType": "address",
          "name": "trader",
          "type": "address"
        },
        {
          "internalType": "address[]",
          "name": "tokens",
          "type": "address[]"
        }
      ],
      "name": "hasOrder",
      "outputs": [
        {
          "internalType": "bool",
          "name": "",
          "type": "bool"
        }
      ],
      "stateMutability": "view",
      "type": "function"
    },
    {
      "inputs": [
        {
          "internalType": "address",
          "name": "ammFactoryArg",
          "type": "address"
        }
      ],
      "name": "initialize",
      "outputs": [],
      "stateMutability": "nonpayable",
      "type": "function"
    },
    {
      "inputs": [],
      "name": "owner",
      "outputs": [
        {
          "internalType": "address",
          "name": "",
          "type": "address"
        }
      ],
      "stateMutability": "view",
      "type": "function"
    },
    {
      "inputs": [
        {
          "components": [
            {
              "internalType": "address",
              "name": "maker",
              "type": "address"
            },
            {
              "internalType": "address",
              "name": "baseToken",
              "type": "address"
            },
            {
              "internalType": "uint256",
              "name": "liquidity",
              "type": "uint256"
            },
            {
              "internalType": "uint256",
              "name": "minBase",
              "type": "uint256"
            },
            {
              "internalType": "uint256",
              "name": "minQuote",
              "type": "uint256"
            }
          ],
          "internalType": "struct ILiquidityProvider.RemoveLiquidityParams",
          "name": "params",
          "type": "tuple"
        }
      ],
      "name": "removeLiquidity",
      "outputs": [
        {
          "components": [
            {
              "internalType": "uint256",
              "name": "base",
              "type": "uint256"
            },
            {
              "internalType": "uint256",
              "name": "quote",
              "type": "uint256"
            },
            {
              "internalType": "uint256",
              "name": "fee",
              "type": "uint256"
            },
            {
              "internalType": "int256",
              "name": "takerBase",
              "type": "int256"
            },
            {
              "internalType": "int256",
              "name": "takerQuote",
              "type": "int256"
            }
          ],
          "internalType": "struct ILiquidityProvider.RemoveLiquidityResponse",
          "name": "",
          "type": "tuple"
        }
      ],
      "stateMutability": "nonpayable",
      "type": "function"
    },
    {
      "inputs": [],
      "name": "renounceOwnership",
      "outputs": [],
      "stateMutability": "nonpayable",
      "type": "function"
    },
    {
      "inputs": [
        {
          "internalType": "address",
          "name": "clearingHouseArg",
          "type": "address"
        }
      ],
      "name": "setClearingHouse",
      "outputs": [],
      "stateMutability": "nonpayable",
      "type": "function"
    },
    {
      "inputs": [
        {
          "internalType": "address",
          "name": "marketTakerArg",
          "type": "address"
        }
      ],
      "name": "setMarketTaker",
      "outputs": [],
      "stateMutability": "nonpayable",
      "type": "function"
    },
    {
      "inputs": [
        {
          "internalType": "address",
          "name": "newOwner",
          "type": "address"
        }
      ],
      "name": "setOwner",
      "outputs": [],
      "stateMutability": "nonpayable",
      "type": "function"
    },
    {
      "inputs": [
        {
          "internalType": "address",
          "name": "trader",
          "type": "address"
        },
        {
          "internalType": "address",
          "name": "baseToken",
          "type": "address"
        },
        {
          "components": [
            {
              "internalType": "int256",
              "name": "twPremium",
              "type": "int256"
            },
            {
              "internalType": "int256",
              "name": "twPremiumWithLiquidity",
              "type": "int256"
            }
          ],
          "internalType": "struct Funding.Growth",
          "name": "fundingGrowthGlobal",
          "type": "tuple"
        }
      ],
      "name": "updateFundingGrowthAndLiquidityFundingPayment",
      "outputs": [
        {
          "internalType": "int256",
          "name": "liquidityFundingPayment",
          "type": "int256"
        }
      ],
      "stateMutability": "nonpayable",
      "type": "function"
    },
    {
      "inputs": [
        {
          "internalType": "address",
          "name": "baseToken",
          "type": "address"
        },
        {
          "internalType": "uint256",
          "name": "lpCalcFeeRatio",
          "type": "uint256"
        }
      ],
      "name": "updateLPCalcFeeRatio",
      "outputs": [],
      "stateMutability": "nonpayable",
      "type": "function"
    },
    {
      "inputs": [],
      "name": "updateOwner",
      "outputs": [],
      "stateMutability": "nonpayable",
      "type": "function"
    }
  ],
  "bytecode": "0x608060405234801561001057600080fd5b5061233b806100206000396000f3fe608060405234801561001057600080fd5b506004361061014d5760003560e01c806385b0f967116100c3578063c4d66de81161007c578063c4d66de8146102c5578063c575ff79146102d8578063cd670055146102e0578063e3b910e414610300578063ec32c8e314610313578063fcddb3cc146103265761014d565b806385b0f967146102425780638da5cb5b146102625780639772a8ca1461026a5780639e8d45801461027d578063b522f3b41461029d578063bc5920ba146102bd5761014d565b80634f853aed116101155780634f853aed146101e457806355338fc1146101f75780636c1fe0cd1461020c5780636c8381f81461021f578063715018a614610227578063832c643e1461022f5761014d565b80630c11dedf1461015257806313af40351461017b57806337820b4114610190578063449323d8146101b15780634dffaee5146101c4575b600080fd5b610165610160366004611bd7565b610339565b6040516101729190611e47565b60405180910390f35b61018e610189366004611b9f565b6103bb565b005b6101a361019e366004611ca4565b6104a7565b604051610172929190611e50565b61018e6101bf366004611b9f565b61053a565b6101d76101d2366004611ca4565b6105c3565b6040516101729190611e3c565b61018e6101f2366004611d26565b610665565b6101ff6106cb565b6040516101729190611de4565b6101a361021a366004611c0f565b6106da565b6101ff6106f4565b61018e610703565b61016561023d366004611c5d565b610798565b610255610250366004611bd7565b610863565b6040516101729190612082565b6101ff6108da565b610165610278366004611d26565b6108e9565b61029061028b366004611d51565b61091a565b6040516101729190612057565b6102b06102ab366004611b9f565b610b0c565b6040516101729190611df8565b61018e610b78565b61018e6102d3366004611b9f565b610c3b565b6101ff610cd4565b6102f36102ee366004611d83565b610ce3565b60405161017291906120c6565b61016561030e366004611c0f565b610e9b565b610165610321366004611c5d565b610f26565b61018e610334366004611b9f565b610fa4565b6001600160a01b038083166000908152609c602090815260408083209385168352928152828220835160c08101855281548152600182015492810192909252600281015493820193909352600383015460608201526004830154608082015260059092015460a08301529081906103b190849061102d565b9150505b92915050565b6103c3611124565b6001600160a01b03166103d46108da565b6001600160a01b0316146104035760405162461bcd60e51b81526004016103fa90611f21565b60405180910390fd5b6001600160a01b0381166104295760405162461bcd60e51b81526004016103fa90612037565b6033546001600160a01b03828116911614156104575760405162461bcd60e51b81526004016103fa90611f01565b6034546001600160a01b03828116911614156104855760405162461bcd60e51b81526004016103fa90611ec0565b603480546001600160a01b0319166001600160a01b0392909216919091179055565b60008060005b838110156105305760008585838181106104d757634e487b7160e01b600052603260045260246000fd5b90506020020160208101906104ec9190611b9f565b90506000806104fd89846000611128565b909250905061050c8287612116565b95506105188186612157565b94505050508080610528906122a9565b9150506104ad565b505b935093915050565b610542611124565b6001600160a01b03166105536108da565b6001600160a01b0316146105795760405162461bcd60e51b81526004016103fa90611f21565b606780546001600160a01b0319166001600160a01b0383169081179091556040517fd0654f5900f9e7e4e605a19334306e6a2786bbf960ac0484a4c12feb6428fe2f90600090a250565b6000805b82811015610658576001600160a01b0385166000908152609c602052604081209085858481811061060857634e487b7160e01b600052603260045260246000fd5b905060200201602081019061061d9190611b9f565b6001600160a01b031681526020810191909152604001600020541561064657600191505061065e565b80610650816122a9565b9150506105c7565b50600090505b9392505050565b609a546001600160a01b0316610679611124565b6001600160a01b03161461069f5760405162461bcd60e51b81526004016103fa90611fb0565b6001600160a01b039091166000908152609e602090815260408220805460018101825590835291200155565b609a546001600160a01b031690565b6000806106e8858585611176565b90969095509350505050565b6034546001600160a01b031690565b61070b611124565b6001600160a01b031661071c6108da565b6001600160a01b0316146107425760405162461bcd60e51b81526004016103fa90611f21565b6033546040516000916001600160a01b0316907f8be0079c531659141344cd1fd0a4f28419497f9722a3daafe3b4186f6b6457e0908390a3603380546001600160a01b0319908116909155603480549091169055565b609a546000906001600160a01b03166107af611124565b6001600160a01b0316146107d55760405162461bcd60e51b81526004016103fa90611fb0565b6001600160a01b038085166000908152609c60209081526040808320938716835292815290829020825160c081018452815481526001820154928101929092526002810154928201929092526003820154606082015260048201546080820152600582015460a08201526108499084611330565b835160028301556020909301516003909101555092915050565b61086b611ab8565b506001600160a01b039182166000908152609c60209081526040808320939094168252918252829020825160c08101845281548152600182015492810192909252600281015492820192909252600382015460608201526004820154608082015260059091015460a082015290565b6033546001600160a01b031690565b609e602052816000526040600020818154811061090557600080fd5b90600052602060002001600091509150505481565b610922611aee565b61092a61137c565b609b546000906001600160a01b031663f75ad90a61094e6040860160208701611b9f565b6040518263ffffffff1660e01b815260040161096a9190611de4565b60206040518083038186803b15801561098257600080fd5b505afa158015610996573d6000803e3d6000fd5b505050506040513d601f19601f820116820180604052508101906109ba9190611bbb565b90506000806000836001600160a01b031663422f10438760600135886040013589608001356040518463ffffffff1660e01b81526004016109fd93929190612100565b606060405180830381600087803b158015610a1757600080fd5b505af1158015610a2b573d6000803e3d6000fd5b505050506040513d601f19601f82011682018060405250810190610a4f9190611db7565b9250925092506000610ae36040518060e00160405280896000016020810190610a789190611b9f565b6001600160a01b03168152602001896020016020810190610a999190611b9f565b6001600160a01b03168152602001876001600160a01b031681526020018481526020018581526020018681526020018960a001803603810190610adc9190611d68565b90526113b8565b604080516080810182529485526020850195909552938301939093526060820152949350505050565b6001600160a01b0381166000908152609e6020908152604091829020805483518184028101840190945280845260609392830182828015610b6c57602002820191906000526020600020905b815481526020019060010190808311610b58575b50505050509050919050565b6034546001600160a01b0316610ba05760405162461bcd60e51b81526004016103fa90612018565b610ba8611124565b6034546001600160a01b03908116911614610bd55760405162461bcd60e51b81526004016103fa90611ea0565b6034546033546040516001600160a01b0392831692909116907f8be0079c531659141344cd1fd0a4f28419497f9722a3daafe3b4186f6b6457e090600090a360348054603380546001600160a01b03199081166001600160a01b03841617909155169055565b600054610100900460ff1680610c54575060005460ff16155b610c705760405162461bcd60e51b81526004016103fa90611f62565b600054610100900460ff16158015610c9b576000805460ff1961ff0019909116610100171660011790555b610ca36114cd565b609b80546001600160a01b0319166001600160a01b0384161790558015610cd0576000805461ff00191690555b5050565b6067546001600160a01b031690565b610ceb611b16565b610cf361137c565b6000609c81610d056020860186611b9f565b6001600160a01b03166001600160a01b031681526020019081526020016000206000846020016020810190610d3a9190611b9f565b6001600160a01b03166001600160a01b031681526020019081526020016000209050806000015483604001351115610d845760405162461bcd60e51b81526004016103fa90611f41565b609b546000906001600160a01b031663f75ad90a610da86040870160208801611b9f565b6040518263ffffffff1660e01b8152600401610dc49190611de4565b60206040518083038186803b158015610ddc57600080fd5b505afa158015610df0573d6000803e3d6000fd5b505050506040513d601f19601f82011682018060405250810190610e149190611bbb565b6040805160c08101909152909150610e939080610e346020880188611b9f565b6001600160a01b03168152602001866020016020810190610e559190611b9f565b6001600160a01b03168152602001836001600160a01b031681526020018660400135815260200186606001358152602001866080013581525061154a565b949350505050565b6001600160a01b038084166000908152609c602090815260408083209386168352928152828220835160c08101855281548152600182015492810192909252600281015493820193909352600383015460608201526004830154608082015260059092015460a0830152908183610f16578160a00151610f1c565b81608001515b9695505050505050565b6001600160a01b038084166000908152609c602090815260408083209386168352928152828220835160c08101855281548152600182015492810192909252600281015493820193909352600383015460608201526004830154608082015260059092015460a083015290610f9b8184611330565b95945050505050565b610fac611124565b6001600160a01b0316610fbd6108da565b6001600160a01b031614610fe35760405162461bcd60e51b81526004016103fa90611f21565b609a80546001600160a01b0319166001600160a01b0383169081179091556040517f73051d125b9033e2af07cc2b08e0953fd5f7a1b48b372b1b8e13fd136b30c88290600090a250565b805160009061103e575060006103b5565b6001600160a01b0383166000908152609e602090815260408083208054825181850281018501909352808352849383018282801561109b57602002820191906000526020600020905b815481526020019060010190808311611087575b505050505090508051846020015110156111075760208401515b8151811015611105578181815181106110de57634e487b7160e01b600052603260045260246000fd5b6020026020010151836110f19190612157565b9250806110fd816122a9565b9150506110b5565b505b8351600160601b9061111a908490612234565b610f9b919061219d565b3390565b600080600080611139878787611176565b91509150600061114a888888610e9b565b90506111558161166e565b61115e8461166e565b6111689190612253565b989197509095505050505050565b6001600160a01b038084166000908152609c6020908152604080832086851684528252808320815160c0810183528154815260018201549381019390935260028101548383015260038101546060840152600480820154608085015260059091015460a0840152609b549151637bad6c8560e11b81529394859485939091169163f75ad90a91611208918a9101611de4565b60206040518083038186803b15801561122057600080fd5b505afa158015611234573d6000803e3d6000fd5b505050506040513d601f19601f820116820180604052508101906112589190611bbb565b825190915061126f57600080935093505050610532565b8151604051630390aa3f60e11b815260009182916001600160a01b03851691630721547e916112a19190600401611e47565b604080518083038186803b1580156112b857600080fd5b505afa1580156112cc573d6000803e3d6000fd5b505050506040513d601f19601f820116820180604052508101906112f09190611d94565b91509150866112ff5781611301565b805b955086611324576000611314898661102d565b90506113208187612157565b9550505b50505050935093915050565b8151600090611341575060006103b5565b6000836060015183602001516113579190612253565b84516113629061166e565b61136c91906121b1565b90506103b1600160601b8261216f565b6067546001600160a01b0316611390611124565b6001600160a01b0316146113b65760405162461bcd60e51b81526004016103fa90611ee0565b565b80516001600160a01b039081166000908152609c6020908152604080832082860151909416835292905290812080546114015760c0830151805160028301556020015160038201555b60006114588460200151836040518060c0016040529081600082015481526020016001820154815260200160028201548152602001600382015481526020016004820154815260200160058201548152505061102d565b6060850151835491925061146b91612157565b82556020808501516001600160a01b03166000908152609e90915260409020546001830155608084015160048301546114a49190612157565b600483015560a084015160058301546114bd9190612157565b6005909201919091559050919050565b600054610100900460ff16806114e6575060005460ff16155b6115025760405162461bcd60e51b81526004016103fa90611f62565b600054610100900460ff1615801561152d576000805460ff1961ff0019909116610100171660011790555b61153561169b565b8015611547576000805461ff00191690555b50565b611552611b16565b60008083604001516001600160a01b031663857620e185606001518660a0015187608001516040518463ffffffff1660e01b815260040161159593929190612100565b6040805180830381600087803b1580156115ae57600080fd5b505af11580156115c2573d6000803e3d6000fd5b505050506040513d601f19601f820116820180604052508101906115e69190611d94565b9150915060008060006115f88761176f565b92509250925060006116098361166e565b6116128661166e565b61161c9190612253565b905060006116298361166e565b6116328861166e565b61163c9190612253565b6040805160a0810182529788526020880198909852968601949094526060850152505050608081019190915292915050565b60006001600160ff1b038211156116975760405162461bcd60e51b81526004016103fa90611fd0565b5090565b600054610100900460ff16806116b4575060005460ff16155b6116d05760405162461bcd60e51b81526004016103fa90611f62565b600054610100900460ff161580156116fb576000805460ff1961ff0019909116610100171660011790555b6117036118cd565b600061170d611124565b603380546001600160a01b0319166001600160a01b038316908117909155604051919250906000907f8be0079c531659141344cd1fd0a4f28419497f9722a3daafe3b4186f6b6457e0908290a3508015611547576000805461ff001916905550565b80516001600160a01b039081166000908152609c602090815260408083208286018051909516845282528083209351815160c081018352855481526001860154938101939093526002850154918301919091526003840154606083015260048401546080830152600584015460a08301529192839283926117f0919061102d565b93508460600151600014611884576004810154156118375761181f816004015486606001518360000154611935565b92508281600401546118319190612292565b60048201555b60058101541561187057611858816005015486606001518360000154611935565b915081816005015461186a9190612292565b60058201555b606085015181546118819190612292565b81555b80546118a15761189c856000015186602001516119f7565b6118c5565b6020808601516001600160a01b03166000908152609e909152604090205460018201555b509193909250565b600054610100900460ff16806118e6575060005460ff16155b6119025760405162461bcd60e51b81526004016103fa90611f62565b600054610100900460ff1615801561192d576000805460ff1961ff0019909116610100171660011790555b611535611a45565b600080806000198587098686029250828110908390030390508061197e57600084116119735760405162461bcd60e51b81526004016103fa90611e5e565b50829004905061065e565b80841161198a57600080fd5b6000848688096000868103871696879004966002600389028118808a02820302808a02820302808a02820302808a02820302808a02820302808a02909103029181900381900460010186841190950394909402919094039290920491909117919091029150509392505050565b6001600160a01b039182166000908152609c60209081526040808320939094168252919091529081208181556001810182905560028101829055600381018290556004810182905560050155565b600054610100900460ff1680611a5e575060005460ff16155b611a7a5760405162461bcd60e51b81526004016103fa90611f62565b600054610100900460ff16158015611535576000805460ff1961ff0019909116610100171660011790558015611547576000805461ff001916905550565b6040518060c001604052806000815260200160008152602001600081526020016000815260200160008152602001600081525090565b6040518060800160405280600081526020016000815260200160008152602001600081525090565b6040518060a0016040528060008152602001600081526020016000815260200160008152602001600081525090565b600060408284031215611b56578081fd5b6040516040810181811067ffffffffffffffff82111715611b8557634e487b7160e01b83526041600452602483fd5b604052823581526020928301359281019290925250919050565b600060208284031215611bb0578081fd5b813561065e816122f0565b600060208284031215611bcc578081fd5b815161065e816122f0565b60008060408385031215611be9578081fd5b8235611bf4816122f0565b91506020830135611c04816122f0565b809150509250929050565b600080600060608486031215611c23578081fd5b8335611c2e816122f0565b92506020840135611c3e816122f0565b915060408401358015158114611c52578182fd5b809150509250925092565b600080600060808486031215611c71578283fd5b8335611c7c816122f0565b92506020840135611c8c816122f0565b9150611c9b8560408601611b45565b90509250925092565b600080600060408486031215611cb8578283fd5b8335611cc3816122f0565b9250602084013567ffffffffffffffff80821115611cdf578384fd5b818601915086601f830112611cf2578384fd5b813581811115611d00578485fd5b8760208083028501011115611d13578485fd5b6020830194508093505050509250925092565b60008060408385031215611d38578182fd5b8235611d43816122f0565b946020939093013593505050565b600060e08284031215611d62578081fd5b50919050565b600060408284031215611d79578081fd5b61065e8383611b45565b600060a08284031215611d62578081fd5b60008060408385031215611da6578182fd5b505080516020909101519092909150565b600080600060608486031215611dcb578283fd5b8351925060208401519150604084015190509250925092565b6001600160a01b0391909116815260200190565b6020808252825182820181905260009190848201906040850190845b81811015611e3057835183529284019291840191600101611e14565b50909695505050505050565b901515815260200190565b90815260200190565b918252602082015260400190565b60208082526022908201527f64656e6f6d696e61746f72206d7573742062652067726561746572207468616e604082015261020360f41b606082015260800190565b602080825260069082015265534f5f434e4360d01b604082015260600190565b602080825260069082015265534f5f53414360d01b604082015260600190565b6020808252600790820152660869088be9e86960cb1b604082015260600190565b602080825260069082015265534f5f53414f60d01b604082015260600190565b602080825260069082015265534f5f434e4f60d01b604082015260600190565b602080825260079082015266131417d495135360ca1b604082015260600190565b6020808252602e908201527f496e697469616c697a61626c653a20636f6e747261637420697320616c72656160408201526d191e481a5b9a5d1a585b1a5e995960921b606082015260800190565b602080825260069082015265131417d3d35560d21b604082015260600190565b60208082526028908201527f53616665436173743a2076616c756520646f65736e27742066697420696e2061604082015267371034b73a191a9b60c11b606082015260800190565b6020808252600590820152640534f5f43360dc1b604082015260600190565b6020808252600690820152650534f5f4e57360d41b604082015260600190565b8151815260208083015190820152604080830151908201526060918201519181019190915260800190565b600060c082019050825182526020830151602083015260408301516040830152606083015160608301526080830151608083015260a083015160a083015292915050565b600060a082019050825182526020830151602083015260408301516040830152606083015160608301526080830151608083015292915050565b9283526020830191909152604082015260600190565b600080821280156001600160ff1b0384900385131615612138576121386122c4565b600160ff1b8390038412811615612151576121516122c4565b50500190565b6000821982111561216a5761216a6122c4565b500190565b60008261217e5761217e6122da565b600160ff1b821460001984141615612198576121986122c4565b500590565b6000826121ac576121ac6122da565b500490565b60006001600160ff1b03818413828413808216868404861116156121d7576121d76122c4565b600160ff1b848712828116878305891216156121f5576121f56122c4565b858712925087820587128484161615612210576122106122c4565b87850587128184161615612226576122266122c4565b505050929093029392505050565b600081600019048311821515161561224e5761224e6122c4565b500290565b60008083128015600160ff1b850184121615612271576122716122c4565b6001600160ff1b038401831381161561228c5761228c6122c4565b50500390565b6000828210156122a4576122a46122c4565b500390565b60006000198214156122bd576122bd6122c4565b5060010190565b634e487b7160e01b600052601160045260246000fd5b634e487b7160e01b600052601260045260246000fd5b6001600160a01b038116811461154757600080fdfea2646970667358221220e68c2fbf3897efc59478af667f59e0d261fea7da2878044b4a9037d46ad964ed64736f6c63430008000033",
  "linkReferences": {},
  "deployedLinkReferences": {}
}