{
  "_format": "hh-sol-artifact-1",
  "contractName": "Liquidation",
  "sourceName": "contracts/Liquidation.sol",
  "abi": [
    {
      "inputs": [
        {
          "internalType": "address",
          "name": "_clearingHouse",
          "type": "address"
        },
        {
          "internalType": "address",
          "name": "_positionMgmt",
          "type": "address"
        }
      ],
      "stateMutability": "nonpayable",
      "type": "constructor"
    },
    {
      "inputs": [
        {
          "internalType": "address",
          "name": "trader",
          "type": "address"
        },
        {
          "internalType": "address",
          "name": "baseToken",
          "type": "address"
        }
      ],
      "name": "doLiquidate",
      "outputs": [],
      "stateMutability": "nonpayable",
      "type": "function"
    },
    {
      "inputs": [
        {
          "internalType": "address",
          "name": "trader",
          "type": "address"
        },
        {
          "internalType": "address",
          "name": "baseToken",
          "type": "address"
        }
      ],
      "name": "liquidate",
      "outputs": [],
      "stateMutability": "nonpayable",
      "type": "function"
    },
    {
      "inputs": [
        {
          "internalType": "address",
          "name": "_clearingHouse",
          "type": "address"
        }
      ],
      "name": "setClearinghouse",
      "outputs": [],
      "stateMutability": "nonpayable",
      "type": "function"
    },
    {
      "inputs": [
        {
          "internalType": "address",
          "name": "_owner",
          "type": "address"
        }
      ],
      "name": "setOwner",
      "outputs": [],
      "stateMutability": "nonpayable",
      "type": "function"
    },
    {
      "inputs": [
        {
          "internalType": "address",
          "name": "_positionMgmt",
          "type": "address"
        }
      ],
      "name": "setPositionMgmt",
      "outputs": [],
      "stateMutability": "nonpayable",
      "type": "function"
    }
  ],
  "bytecode": "0x608060405260001960005534801561001657600080fd5b5060405161064f38038061064f8339810160408190526100359161008d565b600180546001600160a01b03199081163317909155600280546001600160a01b03948516908316179055600380549290931691161790556100bf565b80516001600160a01b038116811461008857600080fd5b919050565b6000806040838503121561009f578182fd5b6100a883610071565b91506100b660208401610071565b90509250929050565b610581806100ce6000396000f3fe608060405234801561001057600080fd5b50600436106100575760003560e01c806313af40351461005c57806337d4b65914610071578063583fd736146100845780635c73ee961461009757806386b9d81f146100aa575b600080fd5b61006f61006a36600461044a565b6100bd565b005b61006f61007f36600461044a565b610112565b61006f61009236600461046b565b61015e565b61006f6100a536600461044a565b610358565b61006f6100b836600461046b565b6103a4565b6001546001600160a01b031633146100f05760405162461bcd60e51b81526004016100e790610527565b60405180910390fd5b600180546001600160a01b0319166001600160a01b0392909216919091179055565b6001546001600160a01b0316331461013c5760405162461bcd60e51b81526004016100e790610527565b600280546001600160a01b0319166001600160a01b0392909216919091179055565b60035460405163659e3dc760e11b81526000916001600160a01b03169063cb3c7b8e9061018f9086906004016104d5565b60206040518083038186803b1580156101a757600080fd5b505afa1580156101bb573d6000803e3d6000fd5b505050506040513d601f19601f820116820180604052508101906101df919061049d565b905080156102505760025460405163146c1a3360e11b81526001600160a01b03909116906328d834669061021990869086906004016104e9565b600060405180830381600087803b15801561023357600080fd5b505af1158015610247573d6000803e3d6000fd5b50505050610353565b60035460405163165c4e2960e31b81526000916001600160a01b03169063b2e271489061028390879087906004016104e9565b60206040518083038186803b15801561029b57600080fd5b505afa1580156102af573d6000803e3d6000fd5b505050506040513d601f19601f820116820180604052508101906102d391906104bd565b905060008082136102e6576000546102e9565b60005b6002546040516326c0130360e01b81529192506001600160a01b0316906326c013039061031e90889088908690600401610503565b600060405180830381600087803b15801561033857600080fd5b505af115801561034c573d6000803e3d6000fd5b5050505050505b505050565b6001546001600160a01b031633146103825760405162461bcd60e51b81526004016100e790610527565b600380546001600160a01b0319166001600160a01b0392909216919091179055565b604051632c1feb9b60e11b8152309063583fd736906103c990859085906004016104e9565b600060405180830381600087803b1580156103e357600080fd5b505af19250505080156103f4575060015b61042a573d808015610422576040519150601f19603f3d011682016040523d82523d6000602084013e610427565b606091505b50505b5050565b80356001600160a01b038116811461044557600080fd5b919050565b60006020828403121561045b578081fd5b6104648261042e565b9392505050565b6000806040838503121561047d578081fd5b6104868361042e565b91506104946020840161042e565b90509250929050565b6000602082840312156104ae578081fd5b81518015158114610464578182fd5b6000602082840312156104ce578081fd5b5051919050565b6001600160a01b0391909116815260200190565b6001600160a01b0392831681529116602082015260400190565b6001600160a01b039384168152919092166020820152604081019190915260600190565b6020808252600a908201526937b7363c9037bbb732b960b11b60408201526060019056fea264697066735822122076ec5a6311be186ecd5705667b10b9e3e507487e436baed38ee3fe92c5c837fc64736f6c63430008000033",
  "linkReferences": {},
  "deployedLinkReferences": {}
}