{
  "_format": "hh-sol-artifact-1",
  "contractName": "PositionMgmt",
  "sourceName": "contracts/clearinghouse/PositionMgmt.sol",
  "abi": [
    {
      "anonymous": false,
      "inputs": [
        {
          "indexed": true,
          "internalType": "address",
          "name": "clearingHouse",
          "type": "address"
        }
      ],
      "name": "ClearingHouseChanged",
      "type": "event"
    },
    {
      "anonymous": false,
      "inputs": [
        {
          "indexed": true,
          "internalType": "address",
          "name": "previousOwner",
          "type": "address"
        },
        {
          "indexed": true,
          "internalType": "address",
          "name": "newOwner",
          "type": "address"
        }
      ],
      "name": "OwnershipTransferred",
      "type": "event"
    },
    {
      "anonymous": false,
      "inputs": [
        {
          "indexed": true,
          "internalType": "address",
          "name": "trader",
          "type": "address"
        },
        {
          "indexed": false,
          "internalType": "int256",
          "name": "amount",
          "type": "int256"
        }
      ],
      "name": "PnlRealized",
      "type": "event"
    },
    {
      "anonymous": false,
      "inputs": [
        {
          "indexed": true,
          "internalType": "address",
          "name": "vault",
          "type": "address"
        }
      ],
      "name": "VaultChanged",
      "type": "event"
    },
    {
      "inputs": [],
      "name": "candidate",
      "outputs": [
        {
          "internalType": "address",
          "name": "",
          "type": "address"
        }
      ],
      "stateMutability": "view",
      "type": "function"
    },
    {
      "inputs": [
        {
          "internalType": "address",
          "name": "trader",
          "type": "address"
        },
        {
          "internalType": "address",
          "name": "baseToken",
          "type": "address"
        }
      ],
      "name": "deregisterBaseToken",
      "outputs": [],
      "stateMutability": "nonpayable",
      "type": "function"
    },
    {
      "inputs": [
        {
          "internalType": "address",
          "name": "trader",
          "type": "address"
        },
        {
          "internalType": "address",
          "name": "baseToken",
          "type": "address"
        }
      ],
      "name": "getAccountInfo",
      "outputs": [
        {
          "components": [
            {
              "internalType": "int256",
              "name": "takerPositionSize",
              "type": "int256"
            },
            {
              "internalType": "int256",
              "name": "takerOpenNotional",
              "type": "int256"
            },
            {
              "internalType": "int256",
              "name": "lastTwPremiumGrowthGlobal",
              "type": "int256"
            }
          ],
          "internalType": "struct Account.TakerInfo",
          "name": "",
          "type": "tuple"
        }
      ],
      "stateMutability": "view",
      "type": "function"
    },
    {
      "inputs": [
        {
          "internalType": "address",
          "name": "trader",
          "type": "address"
        },
        {
          "internalType": "address",
          "name": "baseToken",
          "type": "address"
        }
      ],
      "name": "getBase",
      "outputs": [
        {
          "internalType": "int256",
          "name": "",
          "type": "int256"
        }
      ],
      "stateMutability": "view",
      "type": "function"
    },
    {
      "inputs": [
        {
          "internalType": "address",
          "name": "trader",
          "type": "address"
        }
      ],
      "name": "getBaseTokens",
      "outputs": [
        {
          "internalType": "address[]",
          "name": "",
          "type": "address[]"
        }
      ],
      "stateMutability": "view",
      "type": "function"
    },
    {
      "inputs": [],
      "name": "getClearingHouse",
      "outputs": [
        {
          "internalType": "address",
          "name": "",
          "type": "address"
        }
      ],
      "stateMutability": "view",
      "type": "function"
    },
    {
      "inputs": [],
      "name": "getClearingHouseConfig",
      "outputs": [
        {
          "internalType": "address",
          "name": "",
          "type": "address"
        }
      ],
      "stateMutability": "view",
      "type": "function"
    },
    {
      "inputs": [],
      "name": "getLiquidityProvider",
      "outputs": [
        {
          "internalType": "address",
          "name": "",
          "type": "address"
        }
      ],
      "stateMutability": "view",
      "type": "function"
    },
    {
      "inputs": [
        {
          "internalType": "address",
          "name": "trader",
          "type": "address"
        }
      ],
      "name": "getMarginRequirementForLiquidation",
      "outputs": [
        {
          "internalType": "int256",
          "name": "",
          "type": "int256"
        }
      ],
      "stateMutability": "view",
      "type": "function"
    },
    {
      "inputs": [
        {
          "internalType": "address",
          "name": "trader",
          "type": "address"
        }
      ],
      "name": "getPnlAndPendingFee",
      "outputs": [
        {
          "internalType": "int256",
          "name": "",
          "type": "int256"
        },
        {
          "internalType": "int256",
          "name": "",
          "type": "int256"
        },
        {
          "internalType": "uint256",
          "name": "",
          "type": "uint256"
        }
      ],
      "stateMutability": "view",
      "type": "function"
    },
    {
      "inputs": [
        {
          "internalType": "address",
          "name": "trader",
          "type": "address"
        },
        {
          "internalType": "address",
          "name": "baseToken",
          "type": "address"
        }
      ],
      "name": "getQuote",
      "outputs": [
        {
          "internalType": "int256",
          "name": "",
          "type": "int256"
        }
      ],
      "stateMutability": "view",
      "type": "function"
    },
    {
      "inputs": [
        {
          "internalType": "address",
          "name": "trader",
          "type": "address"
        },
        {
          "internalType": "address",
          "name": "baseToken",
          "type": "address"
        }
      ],
      "name": "getTakerOpenNotional",
      "outputs": [
        {
          "internalType": "int256",
          "name": "",
          "type": "int256"
        }
      ],
      "stateMutability": "view",
      "type": "function"
    },
    {
      "inputs": [
        {
          "internalType": "address",
          "name": "trader",
          "type": "address"
        },
        {
          "internalType": "address",
          "name": "baseToken",
          "type": "address"
        }
      ],
      "name": "getTakerPositionSize",
      "outputs": [
        {
          "internalType": "int256",
          "name": "",
          "type": "int256"
        }
      ],
      "stateMutability": "view",
      "type": "function"
    },
    {
      "inputs": [
        {
          "internalType": "address",
          "name": "trader",
          "type": "address"
        }
      ],
      "name": "getTotalAbsPositionValue",
      "outputs": [
        {
          "internalType": "uint256",
          "name": "",
          "type": "uint256"
        }
      ],
      "stateMutability": "view",
      "type": "function"
    },
    {
      "inputs": [
        {
          "internalType": "address",
          "name": "trader",
          "type": "address"
        }
      ],
      "name": "getTotalDebtValue",
      "outputs": [
        {
          "internalType": "uint256",
          "name": "",
          "type": "uint256"
        }
      ],
      "stateMutability": "view",
      "type": "function"
    },
    {
      "inputs": [
        {
          "internalType": "address",
          "name": "trader",
          "type": "address"
        },
        {
          "internalType": "address",
          "name": "baseToken",
          "type": "address"
        }
      ],
      "name": "getTotalOpenNotional",
      "outputs": [
        {
          "internalType": "int256",
          "name": "",
          "type": "int256"
        }
      ],
      "stateMutability": "view",
      "type": "function"
    },
    {
      "inputs": [
        {
          "internalType": "address",
          "name": "trader",
          "type": "address"
        },
        {
          "internalType": "address",
          "name": "baseToken",
          "type": "address"
        }
      ],
      "name": "getTotalPositionSize",
      "outputs": [
        {
          "internalType": "int256",
          "name": "",
          "type": "int256"
        }
      ],
      "stateMutability": "view",
      "type": "function"
    },
    {
      "inputs": [
        {
          "internalType": "address",
          "name": "trader",
          "type": "address"
        },
        {
          "internalType": "address",
          "name": "baseToken",
          "type": "address"
        }
      ],
      "name": "getTotalPositionValue",
      "outputs": [
        {
          "internalType": "int256",
          "name": "",
          "type": "int256"
        }
      ],
      "stateMutability": "view",
      "type": "function"
    },
    {
      "inputs": [],
      "name": "getVault",
      "outputs": [
        {
          "internalType": "address",
          "name": "",
          "type": "address"
        }
      ],
      "stateMutability": "view",
      "type": "function"
    },
    {
      "inputs": [
        {
          "internalType": "address",
          "name": "trader",
          "type": "address"
        }
      ],
      "name": "hasOrder",
      "outputs": [
        {
          "internalType": "bool",
          "name": "",
          "type": "bool"
        }
      ],
      "stateMutability": "view",
      "type": "function"
    },
    {
      "inputs": [
        {
          "internalType": "address",
          "name": "clearingHouseConfigArg",
          "type": "address"
        },
        {
          "internalType": "address",
          "name": "liquidityProviderArg",
          "type": "address"
        }
      ],
      "name": "initialize",
      "outputs": [],
      "stateMutability": "nonpayable",
      "type": "function"
    },
    {
      "inputs": [
        {
          "internalType": "address",
          "name": "trader",
          "type": "address"
        },
        {
          "internalType": "int256",
          "name": "amount",
          "type": "int256"
        }
      ],
      "name": "modifyOwedRealizedPnl",
      "outputs": [],
      "stateMutability": "nonpayable",
      "type": "function"
    },
    {
      "inputs": [
        {
          "internalType": "address",
          "name": "trader",
          "type": "address"
        },
        {
          "internalType": "address",
          "name": "baseToken",
          "type": "address"
        },
        {
          "internalType": "int256",
          "name": "base",
          "type": "int256"
        },
        {
          "internalType": "int256",
          "name": "quote",
          "type": "int256"
        }
      ],
      "name": "modifyTakerBalance",
      "outputs": [
        {
          "internalType": "int256",
          "name": "",
          "type": "int256"
        },
        {
          "internalType": "int256",
          "name": "",
          "type": "int256"
        }
      ],
      "stateMutability": "nonpayable",
      "type": "function"
    },
    {
      "inputs": [],
      "name": "owner",
      "outputs": [
        {
          "internalType": "address",
          "name": "",
          "type": "address"
        }
      ],
      "stateMutability": "view",
      "type": "function"
    },
    {
      "inputs": [
        {
          "internalType": "address",
          "name": "trader",
          "type": "address"
        },
        {
          "internalType": "address",
          "name": "baseToken",
          "type": "address"
        }
      ],
      "name": "registerBaseToken",
      "outputs": [],
      "stateMutability": "nonpayable",
      "type": "function"
    },
    {
      "inputs": [],
      "name": "renounceOwnership",
      "outputs": [],
      "stateMutability": "nonpayable",
      "type": "function"
    },
    {
      "inputs": [
        {
          "internalType": "address",
          "name": "clearingHouseArg",
          "type": "address"
        }
      ],
      "name": "setClearingHouse",
      "outputs": [],
      "stateMutability": "nonpayable",
      "type": "function"
    },
    {
      "inputs": [
        {
          "internalType": "address",
          "name": "newOwner",
          "type": "address"
        }
      ],
      "name": "setOwner",
      "outputs": [],
      "stateMutability": "nonpayable",
      "type": "function"
    },
    {
      "inputs": [
        {
          "internalType": "address",
          "name": "vaultArg",
          "type": "address"
        }
      ],
      "name": "setVault",
      "outputs": [],
      "stateMutability": "nonpayable",
      "type": "function"
    },
    {
      "inputs": [
        {
          "internalType": "address",
          "name": "maker",
          "type": "address"
        },
        {
          "internalType": "address",
          "name": "baseToken",
          "type": "address"
        },
        {
          "internalType": "int256",
          "name": "takerBase",
          "type": "int256"
        },
        {
          "internalType": "int256",
          "name": "takerQuote",
          "type": "int256"
        },
        {
          "internalType": "int256",
          "name": "realizedPnl",
          "type": "int256"
        },
        {
          "internalType": "int256",
          "name": "fee",
          "type": "int256"
        }
      ],
      "name": "settleBalanceAndDeregister",
      "outputs": [],
      "stateMutability": "nonpayable",
      "type": "function"
    },
    {
      "inputs": [
        {
          "internalType": "address",
          "name": "trader",
          "type": "address"
        }
      ],
      "name": "settleOwedRealizedPnl",
      "outputs": [
        {
          "internalType": "int256",
          "name": "",
          "type": "int256"
        }
      ],
      "stateMutability": "nonpayable",
      "type": "function"
    },
    {
      "inputs": [
        {
          "internalType": "address",
          "name": "trader",
          "type": "address"
        },
        {
          "internalType": "address",
          "name": "baseToken",
          "type": "address"
        },
        {
          "internalType": "int256",
          "name": "amount",
          "type": "int256"
        }
      ],
      "name": "settleQuoteToOwedRealizedPnl",
      "outputs": [],
      "stateMutability": "nonpayable",
      "type": "function"
    },
    {
      "inputs": [],
      "name": "updateOwner",
      "outputs": [],
      "stateMutability": "nonpayable",
      "type": "function"
    },
    {
      "inputs": [
        {
          "internalType": "address",
          "name": "trader",
          "type": "address"
        },
        {
          "internalType": "address",
          "name": "baseToken",
          "type": "address"
        },
        {
          "internalType": "int256",
          "name": "lastTwPremiumGrowthGlobal",
          "type": "int256"
        }
      ],
      "name": "updateTwPremiumGrowthGlobal",
      "outputs": [],
      "stateMutability": "nonpayable",
      "type": "function"
    }
  ],
  "bytecode": "0x608060405234801561001057600080fd5b5061294a806100206000396000f3fe608060405234801561001057600080fd5b50600436106102065760003560e01c80638da5cb5b1161011a578063c575ff79116100ad578063ec647a121161007c578063ec647a1214610443578063f75c266d14610456578063fa8e30af14610469578063fc7372141461047c578063fd6ceee51461048f57610206565b8063c575ff7914610400578063cb3c7b8e14610408578063d50d01b714610428578063e2a72cce1461043b57610206565b8063b3945690116100e9578063b3945690146103b0578063b3bd6e12146103c3578063bba85bcf146103d6578063bc5920ba146103f857610206565b80638da5cb5b1461036d578063aa2a829414610375578063af74e7361461037d578063b2e271481461039d57610206565b80636817031b1161019d578063715018a61161016c578063715018a6146103245780637a5b45a01461032c578063874044f31461033f57806389f92177146103525780638d928af81461036557610206565b80636817031b146102d657806368f12e12146102e95780636c8381f8146102fc5780636ccdc82e1461031157610206565b80633f935107116101d95780633f9351071461027d578063449323d814610290578063485cc955146102a35780636332fef6146102b657610206565b806313af40351461020b578063293a5077146102205780632e4586c3146102495780633c9b5ad11461025c575b600080fd5b61021e61021936600461213f565b6104a2565b005b61023361022e36600461213f565b61058e565b60405161024091906124d2565b60405180910390f35b61021e61025736600461218b565b6106ac565b61026f61026a3660046121c6565b6106e3565b6040516102409291906124db565b61023361028b366004612159565b610707565b61021e61029e36600461213f565b610749565b61021e6102b1366004612159565b6107d2565b6102c96102c4366004612159565b6108dd565b60405161024091906127e8565b61021e6102e436600461213f565b610934565b6102336102f7366004612159565b6109eb565b610304610ac0565b60405161024091906123cc565b61023361031f36600461213f565b610acf565b61021e610bb7565b61023361033a366004612159565b610c4c565b61021e61034d36600461225b565b610d1b565b61021e610360366004612207565b610d31565b610304610e66565b610304610e75565b610304610e84565b61039061038b36600461213f565b610e93565b604051610240919061247a565b6102336103ab366004612159565b610f09565b6102336103be366004612159565b610f51565b6102336103d1366004612159565b610ffe565b6103e96103e436600461213f565b6110c3565b604051610240939291906124e9565b61021e6111ac565b61030461126f565b61041b61041636600461213f565b61127e565b60405161024091906124c7565b610233610436366004612159565b611312565b610304611340565b61021e61045136600461218b565b61134f565b61023361046436600461213f565b611362565b61021e610477366004612159565b6113ff565b61021e61048a366004612159565b611411565b61023361049d36600461213f565b61156a565b6104aa6115c7565b6001600160a01b03166104bb610e75565b6001600160a01b0316146104ea5760405162461bcd60e51b81526004016104e1906125e4565b60405180910390fd5b6001600160a01b0381166105105760405162461bcd60e51b81526004016104e1906127c8565b6033546001600160a01b038281169116141561053e5760405162461bcd60e51b81526004016104e1906125c4565b6034546001600160a01b038281169116141561056c5760405162461bcd60e51b81526004016104e190612583565b603480546001600160a01b0319166001600160a01b0392909216919091179055565b6001600160a01b0381166000908152609e602052604081205481908190815b81811015610678576001600160a01b0386166000908152609e602052604081208054839081106105ed57634e487b7160e01b600052603260045260246000fd5b60009182526020822001546001600160a01b0316915061060d8883610ffe565b90506000808212156106405761063d61062d610628856115cb565b6116ce565b8390670de0b6b3a76400006116fb565b90505b61064a818761281a565b95506106568984610c4c565b610660908861281a565b96505050508080610670906128c9565b9150506105ad565b50600080841215610689578361068c565b60005b90506106a061069b848361281a565b6117a1565b9450505050505b919050565b6106b46117ca565b6001600160a01b039283166000908152609f602090815260408083209490951682529290925291902060020155565b6000806106ee6117ca565b6106fa86868686611806565b9150915094509492505050565b60008061071484846109eb565b905080610725576000915050610743565b6000610730846115cb565b905061073e61062d826116ce565b925050505b92915050565b6107516115c7565b6001600160a01b0316610762610e75565b6001600160a01b0316146107885760405162461bcd60e51b81526004016104e1906125e4565b606780546001600160a01b0319166001600160a01b0383169081179091556040517fd0654f5900f9e7e4e605a19334306e6a2786bbf960ac0484a4c12feb6428fe2f90600090a250565b600054610100900460ff16806107eb575060005460ff16155b6108075760405162461bcd60e51b81526004016104e1906126f0565b600054610100900460ff16158015610832576000805460ff1961ff0019909116610100171660011790555b610844836001600160a01b0316611864565b6108605760405162461bcd60e51b81526004016104e190612561565b610872826001600160a01b0316611864565b61088e5760405162461bcd60e51b81526004016104e19061267a565b61089661186a565b609a80546001600160a01b038086166001600160a01b031992831617909255609b80549285169290911691909117905580156108d8576000805461ff00191690555b505050565b6108e5612107565b506001600160a01b039182166000908152609f60209081526040808320939094168252918252829020825160608101845281548152600182015492810192909252600201549181019190915290565b61093c6115c7565b6001600160a01b031661094d610e75565b6001600160a01b0316146109735760405162461bcd60e51b81526004016104e1906125e4565b610985816001600160a01b0316611864565b6109a15760405162461bcd60e51b81526004016104e190612604565b609c80546001600160a01b0319166001600160a01b0383169081179091556040517fa49691f0dd6477ccef49962612a236d252e3a31c3be8b61fa6abeff3e74a757290600090a250565b609b54604051636c1fe0cd60e01b815260009182916001600160a01b0390911690636c1fe0cd90610a2590879087906001906004016123fa565b604080518083038186803b158015610a3c57600080fd5b505afa158015610a50573d6000803e3d6000fd5b505050506040513d601f19601f82011682018060405250810190610a7491906122a4565b5090506000610a838585610ffe565b9050600081610a91846116ce565b610a9b919061281a565b9050600a610aa8826117a1565b10610ab35780610ab6565b60005b9695505050505050565b6034546001600160a01b031690565b6001600160a01b0381166000908152609e6020908152604080832080548251818502810185019093528083528493830182828015610b3657602002820191906000526020600020905b81546001600160a01b03168152600190910190602001808311610b18575b505050505090506000808251905060005b81811015610bad576000848281518110610b7157634e487b7160e01b600052603260045260246000fd5b602002602001015190506000610b8a61069b8984610707565b9050610b96818661285b565b945050508080610ba5906128c9565b915050610b47565b5090949350505050565b610bbf6115c7565b6001600160a01b0316610bd0610e75565b6001600160a01b031614610bf65760405162461bcd60e51b81526004016104e1906125e4565b6033546040516000916001600160a01b0316907f8be0079c531659141344cd1fd0a4f28419497f9722a3daafe3b4186f6b6457e0908390a3603380546001600160a01b0319908116909155603480549091169055565b609b546040516338ee443960e21b815260009182916001600160a01b039091169063e3b910e490610c85908790879086906004016123fa565b60206040518083038186803b158015610c9d57600080fd5b505afa158015610cb1573d6000803e3d6000fd5b505050506040513d601f19601f82011682018060405250810190610cd5919061236f565b9050610ce0816116ce565b6001600160a01b038086166000908152609f6020908152604080832093881683529290522060010154610d139190612873565b949350505050565b610d236117ca565b610d2d82826118e7565b5050565b610d396117ca565b610d4586868686611806565b5050610d5186826118e7565b610d5b8686610f09565b158015610de85750609b546040516385b0f96760e01b81526001600160a01b03909116906385b0f96790610d9590899089906004016123e0565b60c06040518083038186803b158015610dad57600080fd5b505afa158015610dc1573d6000803e3d6000fd5b505050506040513d601f19601f82011682018060405250810190610de591906122c7565b51155b15610e49576001600160a01b038087166000908152609f6020908152604080832093891683529290522060010154610e1f816117a1565b610e28846117a1565b1115610e465760405162461bcd60e51b81526004016104e1906127a5565b91505b610e5486868461196a565b610e5e86866119b4565b505050505050565b609c546001600160a01b031690565b6033546001600160a01b031690565b609a546001600160a01b031690565b6001600160a01b0381166000908152609e6020908152604091829020805483518184028101840190945280845260609392830182828015610efd57602002820191906000526020600020905b81546001600160a01b03168152600190910190602001808311610edf575b50505050509050919050565b6001600160a01b038083166000908152609f60209081526040808320938516835292905290812054600a610f3c826117a1565b10610f475780610d13565b5060009392505050565b609b54604051636c1fe0cd60e01b815260009182916001600160a01b0390911690636c1fe0cd90610f8a908790879086906004016123fa565b604080518083038186803b158015610fa157600080fd5b505afa158015610fb5573d6000803e3d6000fd5b505050506040513d601f19601f82011682018060405250810190610fd991906122a4565b5090506000610fe88585610c4c565b905080610ff4836116ce565b61073e919061281a565b609b546040516338ee443960e21b815260009182916001600160a01b039091169063e3b910e49061103890879087906001906004016123fa565b60206040518083038186803b15801561105057600080fd5b505afa158015611064573d6000803e3d6000fd5b505050506040513d601f19601f82011682018060405250810190611088919061236f565b9050611093816116ce565b6001600160a01b038086166000908152609f6020908152604080832093881683529290522054610d139190612873565b6001600160a01b0381166000908152609e6020526040812054819081908190815b81811015611165576001600160a01b0387166000908152609e6020526040812080548390811061112457634e487b7160e01b600052603260045260246000fd5b6000918252602090912001546001600160a01b031690506111458882610707565b61114f908561281a565b935050808061115d906128c9565b9150506110e4565b5060008061117288611c56565b90925090506000611183838661281a565b6001600160a01b03999099166000908152609d6020526040902054999197509095505050505050565b6034546001600160a01b03166111d45760405162461bcd60e51b81526004016104e190612786565b6111dc6115c7565b6034546001600160a01b039081169116146112095760405162461bcd60e51b81526004016104e190612541565b6034546033546040516001600160a01b0392831692909116907f8be0079c531659141344cd1fd0a4f28419497f9722a3daafe3b4186f6b6457e090600090a360348054603380546001600160a01b03199081166001600160a01b03841617909155169055565b6067546001600160a01b031690565b609b546001600160a01b038281166000908152609e60205260408082209051634dffaee560e01b815291939290921691634dffaee5916112c291869160040161241e565b60206040518083038186803b1580156112da57600080fd5b505afa1580156112ee573d6000803e3d6000fd5b505050506040513d601f19601f820116820180604052508101906107439190612284565b6001600160a01b039182166000908152609f6020908152604080832093909416825291909152206001015490565b609b546001600160a01b031690565b6113576117ca565b6108d883838361196a565b6000610743610628609a60009054906101000a90046001600160a01b03166001600160a01b031663a85494026040518163ffffffff1660e01b815260040160206040518083038186803b1580156113b857600080fd5b505afa1580156113cc573d6000803e3d6000fd5b505050506040513d601f19601f820116820180604052508101906113f0919061234c565b6113f985610acf565b90611db8565b6114076117ca565b610d2d82826119b4565b6114196117ca565b6001600160a01b0382166000908152609e602090815260409182902080548351818402810184019094528084529092611494929091849183018282801561148957602002820191906000526020600020905b81546001600160a01b0316815260019091019060200180831161146b575b505050505083611dcd565b1561149f5750610d2d565b8054600181018255600082815260209081902090910180546001600160a01b0319166001600160a01b0385811691909117909155609a5460408051636f0daecb60e01b815290519190921692636f0daecb9260048082019391829003018186803b15801561150c57600080fd5b505afa158015611520573d6000803e3d6000fd5b505050506040513d601f19601f8201168201806040525081019061154491906123ab565b60ff16818054905011156108d85760405162461bcd60e51b81526004016104e1906126d0565b609c546000906001600160a01b03166115816115c7565b6001600160a01b0316146115a75760405162461bcd60e51b81526004016104e19061265b565b506001600160a01b03166000908152609d60205260408120805491905590565b3390565b6000816001600160a01b03166312080647609a60009054906101000a90046001600160a01b03166001600160a01b0316633e742e3b6040518163ffffffff1660e01b815260040160206040518083038186803b15801561162a57600080fd5b505afa15801561163e573d6000803e3d6000fd5b505050506040513d601f19601f820116820180604052508101906116629190612387565b6040518263ffffffff1660e01b815260040161167e9190612809565b60206040518083038186803b15801561169657600080fd5b505afa1580156116aa573d6000803e3d6000fd5b505050506040513d601f19601f82011682018060405250810190610743919061236f565b60006001600160ff1b038211156116f75760405162461bcd60e51b81526004016104e19061273e565b5090565b6000806000851261170c5784611715565b61171585611e37565b90506000808512611726578461172f565b61172f85611e37565b9050600080871280156117425750600086135b8061175857506000871380156117585750600086125b611763576000611766565b60015b90506000611775848488611e65565b90508161178a57611785816116ce565b611793565b61179381611f27565b9450505050505b9392505050565b6000808212156117c1576117bc6117b783611e37565b611f3b565b610743565b61074382611f3b565b6067546001600160a01b03166117de6115c7565b6001600160a01b0316146118045760405162461bcd60e51b81526004016104e1906125a3565b565b6001600160a01b038085166000908152609f602090815260408083209387168352929052908120805482919061183d90869061281a565b8155600181015461184f90859061281a565b60018201819055905497909650945050505050565b3b151590565b600054610100900460ff1680611883575060005460ff16155b61189f5760405162461bcd60e51b81526004016104e1906126f0565b600054610100900460ff161580156118ca576000805460ff1961ff0019909116610100171660011790555b6118d2611f5d565b80156118e4576000805461ff00191690555b50565b8015610d2d576001600160a01b0382166000908152609d602052604090205461191190829061281a565b6001600160a01b0383166000818152609d6020526040908190209290925590517febf4e69d81451d269fc4d9551b06d58bea2ed426d2c528919ce45f6070946efb9061195e9084906124d2565b60405180910390a25050565b6001600160a01b038084166000908152609f60209081526040808320938616835292905220600181015461199f908390612873565b60018201556119ae84836118e7565b50505050565b6001600160a01b038083166000908152609f602090815260408083209385168352928152908290208251606081018452815480825260018301549382019390935260029091015492810192909252600a90611a0e906117a1565b101580611a285750600a611a2582602001516117a1565b10155b15611a335750610d2d565b609b546040516385b0f96760e01b81526000916001600160a01b0316906385b0f96790611a6690879087906004016123e0565b60c06040518083038186803b158015611a7e57600080fd5b505afa158015611a92573d6000803e3d6000fd5b505050506040513d601f19601f82011682018060405250810190611ab691906122c7565b511115611ac35750610d2d565b6001600160a01b038084166000818152609f60209081526040808320948716835293815283822082815560018101839055600201829055918152609e909152908120805490915b81811015610e5e57846001600160a01b0316838281548110611b3c57634e487b7160e01b600052603260045260246000fd5b6000918252602090912001546001600160a01b03161415611c4457611b626001836128b2565b8114611bff5782611b746001846128b2565b81548110611b9257634e487b7160e01b600052603260045260246000fd5b9060005260206000200160009054906101000a90046001600160a01b0316838281548110611bd057634e487b7160e01b600052603260045260246000fd5b9060005260206000200160006101000a8154816001600160a01b0302191690836001600160a01b031602179055505b82805480611c1d57634e487b7160e01b600052603160045260246000fd5b600082815260209020810160001990810180546001600160a01b0319169055019055610e5e565b80611c4e816128c9565b915050611b0a565b6001600160a01b0381166000908152609e602052604081205481908190815b81811015611d0c576001600160a01b0386166000908152609e60205260408120805483908110611cb557634e487b7160e01b600052603260045260246000fd5b60009182526020808320909101546001600160a01b038a81168452609f8352604080852091909216808552925290912060010154909150611cf6908561281a565b9350508080611d04906128c9565b915050611c75565b50609b546001600160a01b038681166000908152609e602052604080822090516337820b4160e01b8152919392909216916337820b4191611d51918a9160040161241e565b604080518083038186803b158015611d6857600080fd5b505afa158015611d7c573d6000803e3d6000fd5b505050506040513d601f19601f82011682018060405250810190611da091906122a4565b94509050611dae818461281a565b9450505050915091565b600061179a838362ffffff16620f4240611e65565b6000805b8351811015610f4757826001600160a01b0316848281518110611e0457634e487b7160e01b600052603260045260246000fd5b60200260200101516001600160a01b03161415611e25576001915050610743565b80611e2f816128c9565b915050611dd1565b6000600160ff1b8213611e5c5760405162461bcd60e51b81526004016104e190612624565b610743826128e4565b6000808060001985870986860292508281109083900303905080611eae5760008411611ea35760405162461bcd60e51b81526004016104e1906124ff565b50829004905061179a565b808411611eba57600080fd5b6000848688096000868103871696879004966002600389028118808a02820302808a02820302808a02820302808a02820302808a02820302808a02909103029181900381900460010186841190950394909402919094039290920491909117919091029150509392505050565b6000611f32826116ce565b610743906128e4565b6000808212156116f75760405162461bcd60e51b81526004016104e19061269b565b600054610100900460ff1680611f76575060005460ff16155b611f925760405162461bcd60e51b81526004016104e1906126f0565b600054610100900460ff16158015611fbd576000805460ff1961ff0019909116610100171660011790555b611fc5612031565b6000611fcf6115c7565b603380546001600160a01b0319166001600160a01b038316908117909155604051919250906000907f8be0079c531659141344cd1fd0a4f28419497f9722a3daafe3b4186f6b6457e0908290a35080156118e4576000805461ff001916905550565b600054610100900460ff168061204a575060005460ff16155b6120665760405162461bcd60e51b81526004016104e1906126f0565b600054610100900460ff16158015612091576000805460ff1961ff0019909116610100171660011790555b6118d2600054610100900460ff16806120ad575060005460ff16155b6120c95760405162461bcd60e51b81526004016104e1906126f0565b600054610100900460ff161580156118d2576000805460ff1961ff00199091166101001716600117905580156118e4576000805461ff001916905550565b60405180606001604052806000815260200160008152602001600081525090565b80356001600160a01b03811681146106a757600080fd5b600060208284031215612150578081fd5b61179a82612128565b6000806040838503121561216b578081fd5b61217483612128565b915061218260208401612128565b90509250929050565b60008060006060848603121561219f578081fd5b6121a884612128565b92506121b660208501612128565b9150604084013590509250925092565b600080600080608085870312156121db578081fd5b6121e485612128565b93506121f260208601612128565b93969395505050506040820135916060013590565b60008060008060008060c0878903121561221f578182fd5b61222887612128565b955061223660208801612128565b95989597505050506040840135936060810135936080820135935060a0909101359150565b6000806040838503121561226d578182fd5b61227683612128565b946020939093013593505050565b600060208284031215612295578081fd5b8151801515811461179a578182fd5b600080604083850312156122b6578182fd5b505080516020909101519092909150565b600060c082840312156122d8578081fd5b60405160c0810181811067ffffffffffffffff8211171561230757634e487b7160e01b83526041600452602483fd5b8060405250825181526020830151602082015260408301516040820152606083015160608201526080830151608082015260a083015160a08201528091505092915050565b60006020828403121561235d578081fd5b815162ffffff8116811461179a578182fd5b600060208284031215612380578081fd5b5051919050565b600060208284031215612398578081fd5b815163ffffffff8116811461179a578182fd5b6000602082840312156123bc578081fd5b815160ff8116811461179a578182fd5b6001600160a01b0391909116815260200190565b6001600160a01b0392831681529116602082015260400190565b6001600160a01b039384168152919092166020820152901515604082015260600190565b60006040820160018060a01b03808616845260206040818601528286548085526060870191508786528286209450855b8181101561246c57855485168352600195860195928401920161244e565b509098975050505050505050565b6020808252825182820181905260009190848201906040850190845b818110156124bb5783516001600160a01b031683529284019291840191600101612496565b50909695505050505050565b901515815260200190565b90815260200190565b918252602082015260400190565b9283526020830191909152604082015260600190565b60208082526022908201527f64656e6f6d696e61746f72206d7573742062652067726561746572207468616e604082015261020360f41b606082015260800190565b602080825260069082015265534f5f434e4360d01b604082015260600190565b602080825260089082015267504d5f4348434e4360c01b604082015260600190565b602080825260069082015265534f5f53414360d01b604082015260600190565b6020808252600790820152660869088be9e86960cb1b604082015260600190565b602080825260069082015265534f5f53414f60d01b604082015260600190565b602080825260069082015265534f5f434e4f60d01b604082015260600190565b602080825260069082015265504d5f564e4360d01b604082015260600190565b6020808252601d908201527f5369676d614d6174683a20696e76657273696f6e206f766572666c6f77000000604082015260600190565b6020808252600590820152642826afa7ab60d91b604082015260600190565b602080825260079082015266504d5f4f424e4360c81b604082015260600190565b6020808252818101527f53616665436173743a2076616c7565206d75737420626520706f736974697665604082015260600190565b602080825260069082015265504d5f504e4560d01b604082015260600190565b6020808252602e908201527f496e697469616c697a61626c653a20636f6e747261637420697320616c72656160408201526d191e481a5b9a5d1a585b1a5e995960921b606082015260800190565b60208082526028908201527f53616665436173743a2076616c756520646f65736e27742066697420696e2061604082015267371034b73a191a9b60c11b606082015260800190565b6020808252600590820152640534f5f43360dc1b604082015260600190565b6020808252600990820152680504d5f4951424152560bc1b604082015260600190565b6020808252600690820152650534f5f4e57360d41b604082015260600190565b81518152602080830151908201526040918201519181019190915260600190565b63ffffffff91909116815260200190565b600080821280156001600160ff1b038490038513161561283c5761283c6128fe565b600160ff1b8390038412811615612855576128556128fe565b50500190565b6000821982111561286e5761286e6128fe565b500190565b60008083128015600160ff1b850184121615612891576128916128fe565b6001600160ff1b03840183138116156128ac576128ac6128fe565b50500390565b6000828210156128c4576128c46128fe565b500390565b60006000198214156128dd576128dd6128fe565b5060010190565b6000600160ff1b8214156128fa576128fa6128fe565b0390565b634e487b7160e01b600052601160045260246000fdfea26469706673582212204e219af360302531c673b07446845e775361e15ed8d0bbea8e0cdf6de8d3702764736f6c63430008000033",
  "linkReferences": {},
  "deployedLinkReferences": {}
}