{
  "_format": "hh-sol-artifact-1",
  "contractName": "QuoteToken",
  "sourceName": "contracts/token/QuoteToken.sol",
  "abi": [
    {
      "anonymous": false,
      "inputs": [
        {
          "indexed": true,
          "internalType": "address",
          "name": "owner",
          "type": "address"
        },
        {
          "indexed": true,
          "internalType": "address",
          "name": "spender",
          "type": "address"
        },
        {
          "indexed": false,
          "internalType": "uint256",
          "name": "value",
          "type": "uint256"
        }
      ],
      "name": "Approval",
      "type": "event"
    },
    {
      "anonymous": false,
      "inputs": [
        {
          "indexed": true,
          "internalType": "address",
          "name": "previousOwner",
          "type": "address"
        },
        {
          "indexed": true,
          "internalType": "address",
          "name": "newOwner",
          "type": "address"
        }
      ],
      "name": "OwnershipTransferred",
      "type": "event"
    },
    {
      "anonymous": false,
      "inputs": [
        {
          "indexed": true,
          "internalType": "address",
          "name": "from",
          "type": "address"
        },
        {
          "indexed": true,
          "internalType": "address",
          "name": "to",
          "type": "address"
        },
        {
          "indexed": false,
          "internalType": "uint256",
          "name": "value",
          "type": "uint256"
        }
      ],
      "name": "Transfer",
      "type": "event"
    },
    {
      "anonymous": false,
      "inputs": [
        {
          "indexed": false,
          "internalType": "address",
          "name": "account",
          "type": "address"
        }
      ],
      "name": "WhitelistAdded",
      "type": "event"
    },
    {
      "anonymous": false,
      "inputs": [
        {
          "indexed": false,
          "internalType": "address",
          "name": "account",
          "type": "address"
        }
      ],
      "name": "WhitelistRemoved",
      "type": "event"
    },
    {
      "inputs": [
        {
          "internalType": "address",
          "name": "account",
          "type": "address"
        }
      ],
      "name": "addWhitelist",
      "outputs": [],
      "stateMutability": "nonpayable",
      "type": "function"
    },
    {
      "inputs": [
        {
          "internalType": "address",
          "name": "owner",
          "type": "address"
        },
        {
          "internalType": "address",
          "name": "spender",
          "type": "address"
        }
      ],
      "name": "allowance",
      "outputs": [
        {
          "internalType": "uint256",
          "name": "",
          "type": "uint256"
        }
      ],
      "stateMutability": "view",
      "type": "function"
    },
    {
      "inputs": [
        {
          "internalType": "address",
          "name": "spender",
          "type": "address"
        },
        {
          "internalType": "uint256",
          "name": "amount",
          "type": "uint256"
        }
      ],
      "name": "approve",
      "outputs": [
        {
          "internalType": "bool",
          "name": "",
          "type": "bool"
        }
      ],
      "stateMutability": "nonpayable",
      "type": "function"
    },
    {
      "inputs": [
        {
          "internalType": "address",
          "name": "account",
          "type": "address"
        }
      ],
      "name": "balanceOf",
      "outputs": [
        {
          "internalType": "uint256",
          "name": "",
          "type": "uint256"
        }
      ],
      "stateMutability": "view",
      "type": "function"
    },
    {
      "inputs": [],
      "name": "candidate",
      "outputs": [
        {
          "internalType": "address",
          "name": "",
          "type": "address"
        }
      ],
      "stateMutability": "view",
      "type": "function"
    },
    {
      "inputs": [],
      "name": "decimals",
      "outputs": [
        {
          "internalType": "uint8",
          "name": "",
          "type": "uint8"
        }
      ],
      "stateMutability": "view",
      "type": "function"
    },
    {
      "inputs": [
        {
          "internalType": "address",
          "name": "spender",
          "type": "address"
        },
        {
          "internalType": "uint256",
          "name": "subtractedValue",
          "type": "uint256"
        }
      ],
      "name": "decreaseAllowance",
      "outputs": [
        {
          "internalType": "bool",
          "name": "",
          "type": "bool"
        }
      ],
      "stateMutability": "nonpayable",
      "type": "function"
    },
    {
      "inputs": [
        {
          "internalType": "address",
          "name": "spender",
          "type": "address"
        },
        {
          "internalType": "uint256",
          "name": "addedValue",
          "type": "uint256"
        }
      ],
      "name": "increaseAllowance",
      "outputs": [
        {
          "internalType": "bool",
          "name": "",
          "type": "bool"
        }
      ],
      "stateMutability": "nonpayable",
      "type": "function"
    },
    {
      "inputs": [
        {
          "internalType": "string",
          "name": "nameArg",
          "type": "string"
        },
        {
          "internalType": "string",
          "name": "symbolArg",
          "type": "string"
        }
      ],
      "name": "initialize",
      "outputs": [],
      "stateMutability": "nonpayable",
      "type": "function"
    },
    {
      "inputs": [
        {
          "internalType": "address",
          "name": "account",
          "type": "address"
        }
      ],
      "name": "isInWhitelist",
      "outputs": [
        {
          "internalType": "bool",
          "name": "",
          "type": "bool"
        }
      ],
      "stateMutability": "view",
      "type": "function"
    },
    {
      "inputs": [
        {
          "internalType": "address",
          "name": "recipient",
          "type": "address"
        }
      ],
      "name": "mintMaximumTo",
      "outputs": [],
      "stateMutability": "nonpayable",
      "type": "function"
    },
    {
      "inputs": [],
      "name": "name",
      "outputs": [
        {
          "internalType": "string",
          "name": "",
          "type": "string"
        }
      ],
      "stateMutability": "view",
      "type": "function"
    },
    {
      "inputs": [],
      "name": "owner",
      "outputs": [
        {
          "internalType": "address",
          "name": "",
          "type": "address"
        }
      ],
      "stateMutability": "view",
      "type": "function"
    },
    {
      "inputs": [
        {
          "internalType": "address",
          "name": "account",
          "type": "address"
        }
      ],
      "name": "removeWhitelist",
      "outputs": [],
      "stateMutability": "nonpayable",
      "type": "function"
    },
    {
      "inputs": [],
      "name": "renounceOwnership",
      "outputs": [],
      "stateMutability": "nonpayable",
      "type": "function"
    },
    {
      "inputs": [
        {
          "internalType": "address",
          "name": "newOwner",
          "type": "address"
        }
      ],
      "name": "setOwner",
      "outputs": [],
      "stateMutability": "nonpayable",
      "type": "function"
    },
    {
      "inputs": [],
      "name": "symbol",
      "outputs": [
        {
          "internalType": "string",
          "name": "",
          "type": "string"
        }
      ],
      "stateMutability": "view",
      "type": "function"
    },
    {
      "inputs": [],
      "name": "totalSupply",
      "outputs": [
        {
          "internalType": "uint256",
          "name": "",
          "type": "uint256"
        }
      ],
      "stateMutability": "view",
      "type": "function"
    },
    {
      "inputs": [
        {
          "internalType": "address",
          "name": "recipient",
          "type": "address"
        },
        {
          "internalType": "uint256",
          "name": "amount",
          "type": "uint256"
        }
      ],
      "name": "transfer",
      "outputs": [
        {
          "internalType": "bool",
          "name": "",
          "type": "bool"
        }
      ],
      "stateMutability": "nonpayable",
      "type": "function"
    },
    {
      "inputs": [
        {
          "internalType": "address",
          "name": "sender",
          "type": "address"
        },
        {
          "internalType": "address",
          "name": "recipient",
          "type": "address"
        },
        {
          "internalType": "uint256",
          "name": "amount",
          "type": "uint256"
        }
      ],
      "name": "transferFrom",
      "outputs": [
        {
          "internalType": "bool",
          "name": "",
          "type": "bool"
        }
      ],
      "stateMutability": "nonpayable",
      "type": "function"
    },
    {
      "inputs": [],
      "name": "updateOwner",
      "outputs": [],
      "stateMutability": "nonpayable",
      "type": "function"
    }
  ],
  "bytecode": "0x608060405234801561001057600080fd5b50611721806100206000396000f3fe608060405234801561001057600080fd5b50600436106101375760003560e01c806370a08231116100b8578063a457c2d71161007c578063a457c2d714610258578063a9059cbb1461026b578063bc5920ba1461027e578063dd62ed3e14610286578063f52e308e14610299578063f80f5dd5146102ac57610137565b806370a082311461021a578063715018a61461022d57806378c8cda7146102355780638da5cb5b1461024857806395d89b411461025057610137565b806323b872dd116100ff57806323b872dd146101b7578063313ce567146101ca57806339509351146101df5780634cd88b76146101f25780636c8381f81461020557610137565b806306fdde031461013c578063095ea7b31461015a57806309fd82121461017a57806313af40351461018d57806318160ddd146101a2575b600080fd5b6101446102bf565b6040516101519190611287565b60405180910390f35b61016d6101683660046111de565b610351565b604051610151919061127c565b61016d610188366004611150565b61036e565b6101a061019b366004611150565b610390565b005b6101aa61047c565b604051610151919061163e565b61016d6101c53660046111a3565b610482565b6101d2610519565b6040516101519190611647565b61016d6101ed3660046111de565b61051e565b6101a0610200366004611207565b61056d565b61020d6105ee565b6040516101519190611268565b6101aa610228366004611150565b6105fd565b6101a0610618565b6101a0610243366004611150565b6106ad565b61020d61076d565b61014461077c565b61016d6102663660046111de565b61078b565b61016d6102793660046111de565b610806565b6101a061081a565b6101aa610294366004611171565b6108dd565b6101a06102a7366004611150565b610908565b6101a06102ba366004611150565b610956565b6060606a80546102ce90611684565b80601f01602080910402602001604051908101604052809291908181526020018280546102fa90611684565b80156103475780601f1061031c57610100808354040283529160200191610347565b820191906000526020600020905b81548152906001019060200180831161032a57829003601f168201915b5050505050905090565b600061036561035e6109e8565b84846109ec565b50600192915050565b6001600160a01b03811660009081526099602052604090205460ff165b919050565b6103986109e8565b6001600160a01b03166103a961076d565b6001600160a01b0316146103d85760405162461bcd60e51b81526004016103cf90611405565b60405180910390fd5b6001600160a01b0381166103fe5760405162461bcd60e51b81526004016103cf906115e7565b6033546001600160a01b038281169116141561042c5760405162461bcd60e51b81526004016103cf9061139f565b6034546001600160a01b038281169116141561045a5760405162461bcd60e51b81526004016103cf9061137f565b603480546001600160a01b0319166001600160a01b0392909216919091179055565b60695490565b600061048f848484610aa0565b6001600160a01b0384166000908152606860205260408120816104b06109e8565b6001600160a01b03166001600160a01b03168152602001908152602001600020549050828110156104f35760405162461bcd60e51b81526004016103cf90611473565b61050e856104ff6109e8565b610509868561166d565b6109ec565b506001949350505050565b601290565b600061036561052b6109e8565b8484606860006105396109e8565b6001600160a01b03908116825260208083019390935260409182016000908120918b16815292529020546105099190611655565b600054610100900460ff1680610586575060005460ff16155b6105a25760405162461bcd60e51b81526004016103cf90611425565b600054610100900460ff161580156105cd576000805460ff1961ff0019909116610100171660011790555b6105d78383610bc8565b80156105e9576000805461ff00191690555b505050565b6034546001600160a01b031690565b6001600160a01b031660009081526067602052604090205490565b6106206109e8565b6001600160a01b031661063161076d565b6001600160a01b0316146106575760405162461bcd60e51b81526004016103cf90611405565b6033546040516000916001600160a01b0316907f8be0079c531659141344cd1fd0a4f28419497f9722a3daafe3b4186f6b6457e0908390a3603380546001600160a01b0319908116909155603480549091169055565b6106b56109e8565b6001600160a01b03166106c661076d565b6001600160a01b0316146106ec5760405162461bcd60e51b81526004016103cf90611405565b6106f5816105fd565b156107125760405162461bcd60e51b81526004016103cf906114bb565b6001600160a01b03811660009081526099602052604090819020805460ff19169055517fde8cf212af7ce38b2840785a2768d97ff2dbf3c21b516961cec0061e134c2a1e90610762908390611268565b60405180910390a150565b6033546001600160a01b031690565b6060606b80546102ce90611684565b6000806068600061079a6109e8565b6001600160a01b03908116825260208083019390935260409182016000908120918816815292529020549050828110156107e65760405162461bcd60e51b81526004016103cf906115a2565b6107fc6107f16109e8565b85610509868561166d565b5060019392505050565b60006103656108136109e8565b8484610aa0565b6034546001600160a01b03166108425760405162461bcd60e51b81526004016103cf90611583565b61084a6109e8565b6034546001600160a01b039081169116146108775760405162461bcd60e51b81526004016103cf9061131d565b6034546033546040516001600160a01b0392831692909116907f8be0079c531659141344cd1fd0a4f28419497f9722a3daafe3b4186f6b6457e090600090a360348054603380546001600160a01b03199081166001600160a01b03841617909155169055565b6001600160a01b03918216600090815260686020908152604080832093909416825291909152205490565b6109106109e8565b6001600160a01b031661092161076d565b6001600160a01b0316146109475760405162461bcd60e51b81526004016103cf90611405565b61095381600019610c3a565b50565b61095e6109e8565b6001600160a01b031661096f61076d565b6001600160a01b0316146109955760405162461bcd60e51b81526004016103cf90611405565b6001600160a01b03811660009081526099602052604090819020805460ff19166001179055517f4790a4adb426ca2345bb5108f6e454eae852a7bf687544cd66a7270dff3a41d690610762908390611268565b3390565b6001600160a01b038316610a125760405162461bcd60e51b81526004016103cf90611520565b6001600160a01b038216610a385760405162461bcd60e51b81526004016103cf9061133d565b6001600160a01b0380841660008181526068602090815260408083209487168084529490915290819020849055517f8c5be1e5ebec7d5bd14f71427d1e84f3dd0314c0f7b2291e5b200ac8c7c3b92590610a9390859061163e565b60405180910390a3505050565b6001600160a01b038316610ac65760405162461bcd60e51b81526004016103cf906114db565b6001600160a01b038216610aec5760405162461bcd60e51b81526004016103cf906112da565b610af7838383610cfa565b6001600160a01b03831660009081526067602052604090205481811015610b305760405162461bcd60e51b81526004016103cf906113bf565b610b3a828261166d565b6001600160a01b038086166000908152606760205260408082209390935590851681529081208054849290610b70908490611655565b92505081905550826001600160a01b0316846001600160a01b03167fddf252ad1be2c89b69c2b068fc378daa952ba7f163c4a11628f55a4df523b3ef84604051610bba919061163e565b60405180910390a350505050565b600054610100900460ff1680610be1575060005460ff16155b610bfd5760405162461bcd60e51b81526004016103cf90611425565b600054610100900460ff16158015610c28576000805460ff1961ff0019909116610100171660011790555b610c30610d4c565b6105d78383610e20565b6001600160a01b038216610c605760405162461bcd60e51b81526004016103cf90611607565b610c6c60008383610cfa565b8060696000828254610c7e9190611655565b90915550506001600160a01b03821660009081526067602052604081208054839290610cab908490611655565b90915550506040516001600160a01b038316906000907fddf252ad1be2c89b69c2b068fc378daa952ba7f163c4a11628f55a4df523b3ef90610cee90859061163e565b60405180910390a35050565b610d058383836105e9565b6001600160a01b038316156105e9576001600160a01b03831660009081526099602052604090205460ff166105e95760405162461bcd60e51b81526004016103cf90611564565b600054610100900460ff1680610d65575060005460ff16155b610d815760405162461bcd60e51b81526004016103cf90611425565b600054610100900460ff16158015610dac576000805460ff1961ff0019909116610100171660011790555b610db4610e92565b6000610dbe6109e8565b603380546001600160a01b0319166001600160a01b038316908117909155604051919250906000907f8be0079c531659141344cd1fd0a4f28419497f9722a3daafe3b4186f6b6457e0908290a3508015610953576000805461ff001916905550565b600054610100900460ff1680610e39575060005460ff16155b610e555760405162461bcd60e51b81526004016103cf90611425565b600054610100900460ff16158015610e80576000805460ff1961ff0019909116610100171660011790555b610e88610f0e565b6105d78383610f81565b600054610100900460ff1680610eab575060005460ff16155b610ec75760405162461bcd60e51b81526004016103cf90611425565b600054610100900460ff16158015610ef2576000805460ff1961ff0019909116610100171660011790555b610efa610f0e565b8015610953576000805461ff001916905550565b600054610100900460ff1680610f27575060005460ff16155b610f435760405162461bcd60e51b81526004016103cf90611425565b600054610100900460ff16158015610efa576000805460ff1961ff0019909116610100171660011790558015610953576000805461ff001916905550565b600054610100900460ff1680610f9a575060005460ff16155b610fb65760405162461bcd60e51b81526004016103cf90611425565b600054610100900460ff16158015610fe1576000805460ff1961ff0019909116610100171660011790555b8251610ff490606a90602086019061101f565b50815161100890606b90602085019061101f565b5080156105e9576000805461ff0019169055505050565b82805461102b90611684565b90600052602060002090601f01602090048101928261104d5760008555611093565b82601f1061106657805160ff1916838001178555611093565b82800160010185558215611093579182015b82811115611093578251825591602001919060010190611078565b5061109f9291506110a3565b5090565b5b8082111561109f57600081556001016110a4565b80356001600160a01b038116811461038b57600080fd5b600082601f8301126110df578081fd5b813567ffffffffffffffff808211156110fa576110fa6116d5565b604051601f8301601f19168101602001828111828210171561111e5761111e6116d5565b604052828152848301602001861015611135578384fd5b82602086016020830137918201602001929092529392505050565b600060208284031215611161578081fd5b61116a826110b8565b9392505050565b60008060408385031215611183578081fd5b61118c836110b8565b915061119a602084016110b8565b90509250929050565b6000806000606084860312156111b7578081fd5b6111c0846110b8565b92506111ce602085016110b8565b9150604084013590509250925092565b600080604083850312156111f0578182fd5b6111f9836110b8565b946020939093013593505050565b60008060408385031215611219578182fd5b823567ffffffffffffffff80821115611230578384fd5b61123c868387016110cf565b93506020850135915080821115611251578283fd5b5061125e858286016110cf565b9150509250929050565b6001600160a01b0391909116815260200190565b901515815260200190565b6000602080835283518082850152825b818110156112b357858101830151858201604001528201611297565b818111156112c45783604083870101525b50601f01601f1916929092016040019392505050565b60208082526023908201527f45524332303a207472616e7366657220746f20746865207a65726f206164647260408201526265737360e81b606082015260800190565b602080825260069082015265534f5f434e4360d01b604082015260600190565b60208082526022908201527f45524332303a20617070726f766520746f20746865207a65726f206164647265604082015261737360f01b606082015260800190565b602080825260069082015265534f5f53414360d01b604082015260600190565b602080825260069082015265534f5f53414f60d01b604082015260600190565b60208082526026908201527f45524332303a207472616e7366657220616d6f756e7420657863656564732062604082015265616c616e636560d01b606082015260800190565b602080825260069082015265534f5f434e4f60d01b604082015260600190565b6020808252602e908201527f496e697469616c697a61626c653a20636f6e747261637420697320616c72656160408201526d191e481a5b9a5d1a585b1a5e995960921b606082015260800190565b60208082526028908201527f45524332303a207472616e7366657220616d6f756e74206578636565647320616040820152676c6c6f77616e636560c01b606082015260800190565b6020808252600690820152652b2a2fa1272d60d11b604082015260600190565b60208082526025908201527f45524332303a207472616e736665722066726f6d20746865207a65726f206164604082015264647265737360d81b606082015260800190565b60208082526024908201527f45524332303a20617070726f76652066726f6d20746865207a65726f206164646040820152637265737360e01b606082015260800190565b60208082526005908201526456545f4e5760d81b604082015260600190565b6020808252600590820152640534f5f43360dc1b604082015260600190565b60208082526025908201527f45524332303a2064656372656173656420616c6c6f77616e63652062656c6f77604082015264207a65726f60d81b606082015260800190565b6020808252600690820152650534f5f4e57360d41b604082015260600190565b6020808252601f908201527f45524332303a206d696e7420746f20746865207a65726f206164647265737300604082015260600190565b90815260200190565b60ff91909116815260200190565b60008219821115611668576116686116bf565b500190565b60008282101561167f5761167f6116bf565b500390565b60028104600182168061169857607f821691505b602082108114156116b957634e487b7160e01b600052602260045260246000fd5b50919050565b634e487b7160e01b600052601160045260246000fd5b634e487b7160e01b600052604160045260246000fdfea264697066735822122065ce80a75dcea8dc7c95d7dc20cd1cc95853f39b4a6b4a506d78dd4ff1ccb97f64736f6c63430008000033",
  "linkReferences": {},
  "deployedLinkReferences": {}
}