{
  "_format": "hh-sol-artifact-1",
  "contractName": "SigmaReferrer",
  "sourceName": "contracts/referrals/SigmaReferrer.sol",
  "abi": [
    {
      "anonymous": false,
      "inputs": [
        {
          "indexed": false,
          "internalType": "address",
          "name": "addr",
          "type": "address"
        }
      ],
      "name": "OnPartnerTierRemoved",
      "type": "event"
    },
    {
      "anonymous": false,
      "inputs": [
        {
          "indexed": false,
          "internalType": "address",
          "name": "addr",
          "type": "address"
        },
        {
          "indexed": false,
          "internalType": "string",
          "name": "tier",
          "type": "string"
        }
      ],
      "name": "OnPartnerTierSetted",
      "type": "event"
    },
    {
      "anonymous": false,
      "inputs": [
        {
          "indexed": false,
          "internalType": "address",
          "name": "createdBy",
          "type": "address"
        },
        {
          "indexed": false,
          "internalType": "address",
          "name": "createdFor",
          "type": "address"
        },
        {
          "indexed": false,
          "internalType": "uint256",
          "name": "timestamp",
          "type": "uint256"
        },
        {
          "indexed": false,
          "internalType": "string",
          "name": "referralCode",
          "type": "string"
        }
      ],
      "name": "OnReferralCodeCreated",
      "type": "event"
    },
    {
      "anonymous": false,
      "inputs": [
        {
          "indexed": false,
          "internalType": "address",
          "name": "addr",
          "type": "address"
        },
        {
          "indexed": false,
          "internalType": "enum SigmaReferrer.UpsertAction",
          "name": "action",
          "type": "uint8"
        },
        {
          "indexed": false,
          "internalType": "uint256",
          "name": "timestamp",
          "type": "uint256"
        },
        {
          "indexed": false,
          "internalType": "string",
          "name": "newReferralCode",
          "type": "string"
        },
        {
          "indexed": false,
          "internalType": "string",
          "name": "oldReferralCode",
          "type": "string"
        }
      ],
      "name": "OnReferralCodeUpserted",
      "type": "event"
    },
    {
      "anonymous": false,
      "inputs": [
        {
          "indexed": true,
          "internalType": "address",
          "name": "previousOwner",
          "type": "address"
        },
        {
          "indexed": true,
          "internalType": "address",
          "name": "newOwner",
          "type": "address"
        }
      ],
      "name": "OwnershipTransferred",
      "type": "event"
    },
    {
      "inputs": [
        {
          "internalType": "address",
          "name": "partnerAddress",
          "type": "address"
        },
        {
          "internalType": "string",
          "name": "referralCode",
          "type": "string"
        },
        {
          "internalType": "address[]",
          "name": "tradersToImport",
          "type": "address[]"
        }
      ],
      "name": "_importPartner",
      "outputs": [],
      "stateMutability": "nonpayable",
      "type": "function"
    },
    {
      "inputs": [
        {
          "internalType": "address[]",
          "name": "partnerAddresses",
          "type": "address[]"
        },
        {
          "internalType": "string[]",
          "name": "tiers",
          "type": "string[]"
        }
      ],
      "name": "batchUpdatePartnerTier",
      "outputs": [],
      "stateMutability": "nonpayable",
      "type": "function"
    },
    {
      "inputs": [],
      "name": "candidate",
      "outputs": [
        {
          "internalType": "address",
          "name": "",
          "type": "address"
        }
      ],
      "stateMutability": "view",
      "type": "function"
    },
    {
      "inputs": [
        {
          "internalType": "string",
          "name": "referralCode",
          "type": "string"
        }
      ],
      "name": "createReferralCode",
      "outputs": [],
      "stateMutability": "nonpayable",
      "type": "function"
    },
    {
      "inputs": [],
      "name": "getMyRefereeCode",
      "outputs": [
        {
          "internalType": "string",
          "name": "",
          "type": "string"
        }
      ],
      "stateMutability": "view",
      "type": "function"
    },
    {
      "inputs": [
        {
          "internalType": "address",
          "name": "partnerAddress",
          "type": "address"
        }
      ],
      "name": "getReferralCodeByPartnerAddress",
      "outputs": [
        {
          "internalType": "string",
          "name": "",
          "type": "string"
        }
      ],
      "stateMutability": "view",
      "type": "function"
    },
    {
      "inputs": [],
      "name": "init",
      "outputs": [],
      "stateMutability": "nonpayable",
      "type": "function"
    },
    {
      "inputs": [],
      "name": "owner",
      "outputs": [
        {
          "internalType": "address",
          "name": "",
          "type": "address"
        }
      ],
      "stateMutability": "view",
      "type": "function"
    },
    {
      "inputs": [
        {
          "internalType": "address",
          "name": "",
          "type": "address"
        }
      ],
      "name": "partnerTiers",
      "outputs": [
        {
          "internalType": "string",
          "name": "",
          "type": "string"
        }
      ],
      "stateMutability": "view",
      "type": "function"
    },
    {
      "inputs": [
        {
          "internalType": "address",
          "name": "",
          "type": "address"
        }
      ],
      "name": "partners",
      "outputs": [
        {
          "internalType": "uint256",
          "name": "createdAt",
          "type": "uint256"
        },
        {
          "internalType": "string",
          "name": "referralCode",
          "type": "string"
        },
        {
          "internalType": "address",
          "name": "createdBy",
          "type": "address"
        }
      ],
      "stateMutability": "view",
      "type": "function"
    },
    {
      "inputs": [
        {
          "internalType": "string",
          "name": "",
          "type": "string"
        }
      ],
      "name": "referralCodeToPartnerMap",
      "outputs": [
        {
          "internalType": "address",
          "name": "",
          "type": "address"
        }
      ],
      "stateMutability": "view",
      "type": "function"
    },
    {
      "inputs": [
        {
          "internalType": "address",
          "name": "partnerAddress",
          "type": "address"
        }
      ],
      "name": "removePartnerTier",
      "outputs": [],
      "stateMutability": "nonpayable",
      "type": "function"
    },
    {
      "inputs": [],
      "name": "renounceOwnership",
      "outputs": [],
      "stateMutability": "nonpayable",
      "type": "function"
    },
    {
      "inputs": [
        {
          "internalType": "address",
          "name": "newOwner",
          "type": "address"
        }
      ],
      "name": "setOwner",
      "outputs": [],
      "stateMutability": "nonpayable",
      "type": "function"
    },
    {
      "inputs": [
        {
          "internalType": "address",
          "name": "partnerAddress",
          "type": "address"
        },
        {
          "internalType": "string",
          "name": "tier",
          "type": "string"
        }
      ],
      "name": "setPartnerTier",
      "outputs": [],
      "stateMutability": "nonpayable",
      "type": "function"
    },
    {
      "inputs": [
        {
          "internalType": "string",
          "name": "referralCode",
          "type": "string"
        }
      ],
      "name": "setReferralCode",
      "outputs": [],
      "stateMutability": "nonpayable",
      "type": "function"
    },
    {
      "inputs": [
        {
          "internalType": "address",
          "name": "",
          "type": "address"
        }
      ],
      "name": "traders",
      "outputs": [
        {
          "internalType": "string",
          "name": "referralCode",
          "type": "string"
        },
        {
          "internalType": "uint256",
          "name": "createdAt",
          "type": "uint256"
        },
        {
          "internalType": "uint256",
          "name": "updatedAt",
          "type": "uint256"
        }
      ],
      "stateMutability": "view",
      "type": "function"
    },
    {
      "inputs": [],
      "name": "updateOwner",
      "outputs": [],
      "stateMutability": "nonpayable",
      "type": "function"
    }
  ],
  "bytecode": "0x608060405234801561001057600080fd5b50612462806100206000396000f3fe608060405234801561001057600080fd5b50600436106101165760003560e01c80638da5cb5b116100a2578063b59e8c2911610071578063b59e8c2914610229578063bc5920ba1461023c578063cc97765314610244578063e1c7392a14610257578063f34f8fb31461025f57610116565b80638da5cb5b146101ca57806392a88fa2146101d257806395c33652146101f4578063a3e3dc841461021657610116565b80634ff6a3f4116100e95780634ff6a3f4146101745780636c8381f814610187578063715018a61461019c5780637b4b71e4146101a457806386ec3e3d146101b757610116565b80630ff70c3f1461011b57806313af4035146101395780633e0183d11461014e5780634f4f9dd514610161575b600080fd5b610123610272565b6040516101309190611e41565b60405180910390f35b61014c610147366004611a97565b61036d565b005b61014c61015c366004611bf0565b610450565b61014c61016f366004611b87565b61045f565b61014c610182366004611ab8565b6105f7565b61018f6107e4565b6040516101309190611d56565b61014c6107f3565b6101236101b2366004611a97565b610888565b61014c6101c5366004611bf0565b61099c565b61018f6109ad565b6101e56101e0366004611a97565b6109bc565b60405161013093929190611e54565b610207610202366004611a97565b610a66565b6040516101309392919061233e565b61014c610224366004611b09565b610b1a565b61014c610237366004611a97565b610bc8565b61014c610e54565b610123610252366004611a97565b610f17565b61014c610fb1565b61018f61026d366004611c30565b61105e565b33600090815260686020526040808220815160608181019093528154929392909190829082906102a1906123b4565b80601f01602080910402602001604051908101604052809291908181526020018280546102cd906123b4565b801561031a5780601f106102ef5761010080835404028352916020019161031a565b820191906000526020600020905b8154815290600101906020018083116102fd57829003601f168201915b505050505081526020016001820154815260200160028201548152505090506000816000015151116103675760405162461bcd60e51b815260040161035e906122b0565b60405180910390fd5b51905090565b610375611084565b6001600160a01b03166103866109ad565b6001600160a01b0316146103ac5760405162461bcd60e51b815260040161035e90612075565b6001600160a01b0381166103d25760405162461bcd60e51b815260040161035e906122e7565b6033546001600160a01b03828116911614156104005760405162461bcd60e51b815260040161035e9061202d565b6034546001600160a01b038281169116141561042e5760405162461bcd60e51b815260040161035e90611f93565b603480546001600160a01b0319166001600160a01b0392909216919091179055565b61045b338383611088565b5050565b610467611084565b6001600160a01b03166104786109ad565b6001600160a01b03161461049e5760405162461bcd60e51b815260040161035e90612075565b8281146104bd5760405162461bcd60e51b815260040161035e90611fb3565b60005b838110156105f0577f044852b2a670ade5407e78fb2863c51de9fcb96542a07186fe3aeda6bb8a116d83838381811061050957634e487b7160e01b600052603260045260246000fd5b905060200281019061051b919061236f565b604051610529929190611d46565b604051809103902014156105745761056f85858381811061055a57634e487b7160e01b600052603260045260246000fd5b90506020020160208101906102379190611a97565b6105de565b6105de85858381811061059757634e487b7160e01b600052603260045260246000fd5b90506020020160208101906105ac9190611a97565b8484848181106105cc57634e487b7160e01b600052603260045260246000fd5b9050602002810190610182919061236f565b806105e8816123ef565b9150506104c0565b5050505050565b6105ff611084565b6001600160a01b03166106106109ad565b6001600160a01b0316146106365760405162461bcd60e51b815260040161035e90612075565b6001600160a01b03831661065c5760405162461bcd60e51b815260040161035e90611f67565b806106795760405162461bcd60e51b815260040161035e9061204d565b600060676000856001600160a01b03166001600160a01b03168152602001908152602001600020604051806060016040529081600082015481526020016001820180546106c5906123b4565b80601f01602080910402602001604051908101604052809291908181526020018280546106f1906123b4565b801561073e5780601f106107135761010080835404028352916020019161073e565b820191906000526020600020905b81548152906001019060200180831161072157829003601f168201915b5050509183525050600291909101546001600160a01b03166020918201528101515190915061077f5760405162461bcd60e51b815260040161035e90611ffd565b6001600160a01b0384166000908152606a602052604090206107a29084846118ae565b507f2e2bb2beac89c112229893f50fb6bd575bdb1399451a995e18f200012ddd1c978484846040516107d693929190611e13565b60405180910390a150505050565b6034546001600160a01b031690565b6107fb611084565b6001600160a01b031661080c6109ad565b6001600160a01b0316146108325760405162461bcd60e51b815260040161035e90612075565b6033546040516000916001600160a01b0316907f8be0079c531659141344cd1fd0a4f28419497f9722a3daafe3b4186f6b6457e0908390a3603380546001600160a01b0319908116909155603480549091169055565b6060600060676000846001600160a01b03166001600160a01b03168152602001908152602001600020604051806060016040529081600082015481526020016001820180546108d6906123b4565b80601f0160208091040260200160405190810160405280929190818152602001828054610902906123b4565b801561094f5780601f106109245761010080835404028352916020019161094f565b820191906000526020600020905b81548152906001019060200180831161093257829003601f168201915b5050509183525050600291909101546001600160a01b0316602091820152810151519091506109905760405162461bcd60e51b815260040161035e90611e79565b6020015190505b919050565b336109a8838383611357565b505050565b6033546001600160a01b031690565b6068602052600090815260409020805481906109d7906123b4565b80601f0160208091040260200160405190810160405280929190818152602001828054610a03906123b4565b8015610a505780601f10610a2557610100808354040283529160200191610a50565b820191906000526020600020905b815481529060010190602001808311610a3357829003601f168201915b5050505050908060010154908060020154905083565b60676020526000908152604090208054600182018054919291610a88906123b4565b80601f0160208091040260200160405190810160405280929190818152602001828054610ab4906123b4565b8015610b015780601f10610ad657610100808354040283529160200191610b01565b820191906000526020600020905b815481529060010190602001808311610ae457829003601f168201915b505050600290930154919250506001600160a01b031683565b610b22611084565b6001600160a01b0316610b336109ad565b6001600160a01b031614610b595760405162461bcd60e51b815260040161035e90612075565b610b64858585611088565b60005b81811015610bc057610bae8585858585818110610b9457634e487b7160e01b600052603260045260246000fd5b9050602002016020810190610ba99190611a97565b611357565b80610bb8816123ef565b915050610b67565b505050505050565b610bd0611084565b6001600160a01b0316610be16109ad565b6001600160a01b031614610c075760405162461bcd60e51b815260040161035e90612075565b6001600160a01b038116610c2d5760405162461bcd60e51b815260040161035e90611f67565b600060676000836001600160a01b03166001600160a01b0316815260200190815260200160002060405180606001604052908160008201548152602001600182018054610c79906123b4565b80601f0160208091040260200160405190810160405280929190818152602001828054610ca5906123b4565b8015610cf25780601f10610cc757610100808354040283529160200191610cf2565b820191906000526020600020905b815481529060010190602001808311610cd557829003601f168201915b5050509183525050600291909101546001600160a01b031660209182015281015151909150610d335760405162461bcd60e51b815260040161035e90611ffd565b6001600160a01b0382166000908152606a602052604081208054610d56906123b4565b80601f0160208091040260200160405190810160405280929190818152602001828054610d82906123b4565b8015610dcf5780601f10610da457610100808354040283529160200191610dcf565b820191906000526020600020905b815481529060010190602001808311610db257829003601f168201915b505050505090506000815111610df75760405162461bcd60e51b815260040161035e90612307565b6001600160a01b0383166000908152606a60205260408120610e1891611932565b7f18fdcab03eb188db3235e48f28d66007186c6c2d8ceb49f74757e7ced4e9ff2783604051610e479190611d56565b60405180910390a1505050565b6034546001600160a01b0316610e7c5760405162461bcd60e51b815260040161035e9061223f565b610e84611084565b6034546001600160a01b03908116911614610eb15760405162461bcd60e51b815260040161035e90611eb0565b6034546033546040516001600160a01b0392831692909116907f8be0079c531659141344cd1fd0a4f28419497f9722a3daafe3b4186f6b6457e090600090a360348054603380546001600160a01b03199081166001600160a01b03841617909155169055565b606a6020526000908152604090208054610f30906123b4565b80601f0160208091040260200160405190810160405280929190818152602001828054610f5c906123b4565b8015610fa95780601f10610f7e57610100808354040283529160200191610fa9565b820191906000526020600020905b815481529060010190602001808311610f8c57829003601f168201915b505050505081565b600054610100900460ff1680610fca575060005460ff16155b610fe65760405162461bcd60e51b815260040161035e906120cc565b600054610100900460ff16158015611011576000805460ff1961ff0019909116610100171660011790555b606b5460ff16156110345760405162461bcd60e51b815260040161035e90611ed0565b606b805460ff19166001179055611049611700565b801561105b576000805461ff00191690555b50565b80516020818301810180516069825292820191909301209152546001600160a01b031681565b3390565b3360006110936117d4565b90506000606985856040516110a9929190611d46565b908152604080519182900360209081018320546001600160a01b038a81166000908152606784528481206060870190955284548652600185018054929093169650949392840191906110fa906123b4565b80601f0160208091040260200160405190810160405280929190818152602001828054611126906123b4565b80156111735780601f1061114857610100808354040283529160200191611173565b820191906000526020600020905b81548152906001019060200180831161115657829003601f168201915b5050509183525050600291909101546001600160a01b03166020909101529050846111b05760405162461bcd60e51b815260040161035e90612095565b6001600160a01b0387166111d65760405162461bcd60e51b815260040161035e906121f5565b6001600160a01b038216156111fd5760405162461bcd60e51b815260040161035e9061211a565b602081015151156112205760405162461bcd60e51b815260040161035e9061225e565b604051806060016040528084815260200187878080601f01602080910402602001604051908101604052809392919081815260200183838082843760009201829052509385525050506001600160a01b038088166020938401528a16815260678252604090208251815582820151805191926112a49260018501929091019061196e565b5060409182015160029190910180546001600160a01b0319166001600160a01b039092169190911790555187906069906112e19089908990611d46565b90815260405190819003602001812080546001600160a01b03939093166001600160a01b0319909316929092179091557f8bc8d121b8c9f3642edf26b770b152ebb57ddd2a300931883b0b9b5480fdb019906113469086908a9087908b908b90611d6a565b60405180910390a150505050505050565b60006069848460405161136b929190611d46565b908152604051908190036020019020546001600160a01b0316905060006113906117d4565b905060008086868080601f0160208091040260200160405190810160405280939291908181526020018383808284376000920191909152509293505050506001600160a01b0384811690861614156113fa5760405162461bcd60e51b815260040161035e90611f15565b6001600160a01b03851660009081526068602052604090208615801561142c575080548190611428906123b4565b1590505b156114495760405162461bcd60e51b815260040161035e90612177565b86156115d7576001600160a01b0385166114755760405162461bcd60e51b815260040161035e906121be565b6000816000018054611486906123b4565b9050111561153b578054819061149b906123b4565b80601f01602080910402602001604051908101604052809291908181526020018280546114c7906123b4565b80156115145780601f106114e957610100808354040283529160200191611514565b820191906000526020600020905b8154815290600101906020018083116114f757829003601f168201915b5093955061152b93508492508b91508a90506118ae565b50600280820185905592506115d2565b604051806060016040528089898080601f0160208091040260200160405190810160405280939291908181526020018383808284376000920182905250938552505050602080830188905260409283018890526001600160a01b038a168252606881529190208251805191926115b69284929091019061196e565b5060208201516001820155604090910151600290910155600092505b6116b5565b60008160000180546115e8906123b4565b905011156116b557805481906115fd906123b4565b80601f0160208091040260200160405190810160405280929190818152602001828054611629906123b4565b80156116765780601f1061164b57610100808354040283529160200191611676565b820191906000526020600020905b81548152906001019060200180831161165957829003601f168201915b505050506001600160a01b038816600090815260686020526040812092945090506116a18282611932565b506000600182810182905560029092015592505b7fb376c1e68d2c47f1008983c8be34fb3c06dc025e656b58729e5b66d17c1070898684868b8b876040516116ee96959493929190611da9565b60405180910390a15050505050505050565b600054610100900460ff1680611719575060005460ff16155b6117355760405162461bcd60e51b815260040161035e906120cc565b600054610100900460ff16158015611760576000805460ff1961ff0019909116610100171660011790555b6117686117d8565b6000611772611084565b603380546001600160a01b0319166001600160a01b038316908117909155604051919250906000907f8be0079c531659141344cd1fd0a4f28419497f9722a3daafe3b4186f6b6457e0908290a350801561105b576000805461ff001916905550565b4290565b600054610100900460ff16806117f1575060005460ff16155b61180d5760405162461bcd60e51b815260040161035e906120cc565b600054610100900460ff16158015611838576000805460ff1961ff0019909116610100171660011790555b611049600054610100900460ff1680611854575060005460ff16155b6118705760405162461bcd60e51b815260040161035e906120cc565b600054610100900460ff16158015611049576000805460ff1961ff001990911661010017166001179055801561105b576000805461ff001916905550565b8280546118ba906123b4565b90600052602060002090601f0160209004810192826118dc5760008555611922565b82601f106118f55782800160ff19823516178555611922565b82800160010185558215611922579182015b82811115611922578235825591602001919060010190611907565b5061192e9291506119e2565b5090565b50805461193e906123b4565b6000825580601f10611950575061105b565b601f01602090049060005260206000209081019061105b91906119e2565b82805461197a906123b4565b90600052602060002090601f01602090048101928261199c5760008555611922565b82601f106119b557805160ff1916838001178555611922565b82800160010185558215611922579182015b828111156119225782518255916020019190600101906119c7565b5b8082111561192e57600081556001016119e3565b80356001600160a01b038116811461099757600080fd5b60008083601f840112611a1f578081fd5b50813567ffffffffffffffff811115611a36578182fd5b6020830191508360208083028501011115611a5057600080fd5b9250929050565b60008083601f840112611a68578182fd5b50813567ffffffffffffffff811115611a7f578182fd5b602083019150836020828501011115611a5057600080fd5b600060208284031215611aa8578081fd5b611ab1826119f7565b9392505050565b600080600060408486031215611acc578182fd5b611ad5846119f7565b9250602084013567ffffffffffffffff811115611af0578283fd5b611afc86828701611a57565b9497909650939450505050565b600080600080600060608688031215611b20578081fd5b611b29866119f7565b9450602086013567ffffffffffffffff80821115611b45578283fd5b611b5189838a01611a57565b90965094506040880135915080821115611b69578283fd5b50611b7688828901611a0e565b969995985093965092949392505050565b60008060008060408587031215611b9c578384fd5b843567ffffffffffffffff80821115611bb3578586fd5b611bbf88838901611a0e565b90965094506020870135915080821115611bd7578384fd5b50611be487828801611a0e565b95989497509550505050565b60008060208385031215611c02578182fd5b823567ffffffffffffffff811115611c18578283fd5b611c2485828601611a57565b90969095509350505050565b60006020808385031215611c42578182fd5b823567ffffffffffffffff80821115611c59578384fd5b818501915085601f830112611c6c578384fd5b813581811115611c7e57611c7e612416565b604051601f8201601f1916810185018381118282101715611ca157611ca1612416565b6040528181528382018501881015611cb7578586fd5b818585018683013790810190930193909352509392505050565b60008284528282602086013780602084860101526020601f19601f85011685010190509392505050565b60008151808452815b81811015611d2057602081850181015186830182015201611d04565b81811115611d315782602083870101525b50601f01601f19169290920160200192915050565b6000828483379101908152919050565b6001600160a01b0391909116815260200190565b6001600160a01b0386811682528516602082015260408101849052608060608201819052600090611d9e9083018486611cd1565b979650505050505050565b6001600160a01b0387168152600060038710611dd357634e487b7160e01b81526021600452602481fd5b86602083015285604083015260a06060830152611df460a083018587611cd1565b8281036080840152611e068185611cfb565b9998505050505050505050565b6001600160a01b0384168152604060208201819052600090611e389083018486611cd1565b95945050505050565b600060208252611ab16020830184611cfb565b600060608252611e676060830186611cfb565b60208301949094525060400152919050565b6020808252601b908201527f526566657272616c20636f646520646f65736e27742065786973740000000000604082015260600190565b602080825260069082015265534f5f434e4360d01b604082015260600190565b60208082526025908201527f436f6e74726163742068617320616c7265616479206265656e20696e697469616040820152641b1a5e995960da1b606082015260800190565b60208082526032908201527f596f752063616e6e6f7420626520612072656665726565206f6620612072656660408201527132b93930b61031b7b232903cb7ba9037bbb760711b606082015260800190565b60208082526012908201527150726f7669646520616e206164647265737360701b604082015260600190565b602080825260069082015265534f5f53414360d01b604082015260600190565b6020808252602a908201527f506172746e6572206c69737420616e642074696572206c69737420617265206d6040820152691a5cdd1b585d18da195960b21b606082015260800190565b60208082526016908201527514185c9d1b995c88191bd95cc81b9bdd08195e1a5cdd60521b604082015260600190565b602080825260069082015265534f5f53414f60d01b604082015260600190565b6020808252600e908201526d283937bb34b2329030903a34b2b960911b604082015260600190565b602080825260069082015265534f5f434e4f60d01b604082015260600190565b60208082526018908201527f50726f76696465206120726566657272616c20636f64652e0000000000000000604082015260600190565b6020808252602e908201527f496e697469616c697a61626c653a20636f6e747261637420697320616c72656160408201526d191e481a5b9a5d1a585b1a5e995960921b606082015260800190565b6020808252603b908201527f5468697320726566657272616c20636f64652068617320616c7265616479206260408201527f65656e2061737369676e656420746f20616e20616464726573732e0000000000606082015260800190565b60208082526027908201527f4e6f20726566657272616c20636f64652077617320737570706c696564206f72604082015266103337bab7321760c91b606082015260800190565b6020808252601c908201527f526566657272616c20636f646520646f6573206e6f7420657869737400000000604082015260600190565b6020808252602a908201527f50726f7669646520616e206164647265737320746f20637265617465207468656040820152691031b7b232903337b91760b11b606082015260800190565b6020808252600590820152640534f5f43360dc1b604082015260600190565b60208082526032908201527f54686973206164647265737320616c72656164792068617320612072656665726040820152713930b61031b7b2329030b9b9b4b3b732b21760711b606082015260800190565b6020808252601f908201527f596f7520646f206e6f742068617665206120726566657272616c20636f646500604082015260600190565b6020808252600690820152650534f5f4e57360d41b604082015260600190565b60208082526017908201527f506172746e6572206973206e6f7420756e636170706564000000000000000000604082015260600190565b6000848252606060208301526123576060830185611cfb565b905060018060a01b0383166040830152949350505050565b6000808335601e19843603018112612385578283fd5b83018035915067ffffffffffffffff82111561239f578283fd5b602001915036819003821315611a5057600080fd5b6002810460018216806123c857607f821691505b602082108114156123e957634e487b7160e01b600052602260045260246000fd5b50919050565b600060001982141561240f57634e487b7160e01b81526011600452602481fd5b5060010190565b634e487b7160e01b600052604160045260246000fdfea26469706673582212201a1e003f42481de4e96d3c4e1b4b875019c7a052c5e0f216423d4232aa6fd6e464736f6c63430008000033",
  "linkReferences": {},
  "deployedLinkReferences": {}
}