{
  "_format": "hh-sol-artifact-1",
  "contractName": "Vault",
  "sourceName": "contracts/settlement/Vault.sol",
  "abi": [
    {
      "anonymous": false,
      "inputs": [
        {
          "indexed": true,
          "internalType": "address",
          "name": "collateralToken",
          "type": "address"
        },
        {
          "indexed": true,
          "internalType": "address",
          "name": "trader",
          "type": "address"
        },
        {
          "indexed": false,
          "internalType": "uint256",
          "name": "amount",
          "type": "uint256"
        }
      ],
      "name": "Deposited",
      "type": "event"
    },
    {
      "anonymous": false,
      "inputs": [
        {
          "indexed": true,
          "internalType": "address",
          "name": "previousOwner",
          "type": "address"
        },
        {
          "indexed": true,
          "internalType": "address",
          "name": "newOwner",
          "type": "address"
        }
      ],
      "name": "OwnershipTransferred",
      "type": "event"
    },
    {
      "anonymous": false,
      "inputs": [
        {
          "indexed": false,
          "internalType": "address",
          "name": "account",
          "type": "address"
        }
      ],
      "name": "Paused",
      "type": "event"
    },
    {
      "anonymous": false,
      "inputs": [
        {
          "indexed": false,
          "internalType": "address",
          "name": "trustedForwarder",
          "type": "address"
        }
      ],
      "name": "TrustedForwarderUpdated",
      "type": "event"
    },
    {
      "anonymous": false,
      "inputs": [
        {
          "indexed": false,
          "internalType": "address",
          "name": "account",
          "type": "address"
        }
      ],
      "name": "Unpaused",
      "type": "event"
    },
    {
      "anonymous": false,
      "inputs": [
        {
          "indexed": true,
          "internalType": "address",
          "name": "collateralToken",
          "type": "address"
        },
        {
          "indexed": true,
          "internalType": "address",
          "name": "trader",
          "type": "address"
        },
        {
          "indexed": false,
          "internalType": "uint256",
          "name": "amount",
          "type": "uint256"
        }
      ],
      "name": "Withdrawn",
      "type": "event"
    },
    {
      "inputs": [],
      "name": "candidate",
      "outputs": [
        {
          "internalType": "address",
          "name": "",
          "type": "address"
        }
      ],
      "stateMutability": "view",
      "type": "function"
    },
    {
      "inputs": [],
      "name": "decimals",
      "outputs": [
        {
          "internalType": "uint8",
          "name": "",
          "type": "uint8"
        }
      ],
      "stateMutability": "view",
      "type": "function"
    },
    {
      "inputs": [
        {
          "internalType": "address",
          "name": "token",
          "type": "address"
        },
        {
          "internalType": "uint256",
          "name": "amount",
          "type": "uint256"
        }
      ],
      "name": "deposit",
      "outputs": [],
      "stateMutability": "nonpayable",
      "type": "function"
    },
    {
      "inputs": [
        {
          "internalType": "address",
          "name": "to",
          "type": "address"
        },
        {
          "internalType": "address",
          "name": "token",
          "type": "address"
        },
        {
          "internalType": "uint256",
          "name": "amount",
          "type": "uint256"
        }
      ],
      "name": "depositFor",
      "outputs": [],
      "stateMutability": "nonpayable",
      "type": "function"
    },
    {
      "inputs": [
        {
          "internalType": "address",
          "name": "trader",
          "type": "address"
        }
      ],
      "name": "getBalance",
      "outputs": [
        {
          "internalType": "int256",
          "name": "",
          "type": "int256"
        }
      ],
      "stateMutability": "view",
      "type": "function"
    },
    {
      "inputs": [],
      "name": "getClearingHouse",
      "outputs": [
        {
          "internalType": "address",
          "name": "",
          "type": "address"
        }
      ],
      "stateMutability": "view",
      "type": "function"
    },
    {
      "inputs": [],
      "name": "getClearingHouseConfig",
      "outputs": [
        {
          "internalType": "address",
          "name": "",
          "type": "address"
        }
      ],
      "stateMutability": "view",
      "type": "function"
    },
    {
      "inputs": [
        {
          "internalType": "address",
          "name": "trader",
          "type": "address"
        }
      ],
      "name": "getFreeCollateral",
      "outputs": [
        {
          "internalType": "uint256",
          "name": "",
          "type": "uint256"
        }
      ],
      "stateMutability": "view",
      "type": "function"
    },
    {
      "inputs": [
        {
          "internalType": "address",
          "name": "trader",
          "type": "address"
        },
        {
          "internalType": "uint24",
          "name": "ratio",
          "type": "uint24"
        }
      ],
      "name": "getFreeCollateralByRatio",
      "outputs": [
        {
          "internalType": "int256",
          "name": "",
          "type": "int256"
        }
      ],
      "stateMutability": "view",
      "type": "function"
    },
    {
      "inputs": [],
      "name": "getInsuranceFund",
      "outputs": [
        {
          "internalType": "address",
          "name": "",
          "type": "address"
        }
      ],
      "stateMutability": "view",
      "type": "function"
    },
    {
      "inputs": [],
      "name": "getMarketTaker",
      "outputs": [
        {
          "internalType": "address",
          "name": "",
          "type": "address"
        }
      ],
      "stateMutability": "view",
      "type": "function"
    },
    {
      "inputs": [],
      "name": "getPositionMgmt",
      "outputs": [
        {
          "internalType": "address",
          "name": "",
          "type": "address"
        }
      ],
      "stateMutability": "view",
      "type": "function"
    },
    {
      "inputs": [],
      "name": "getSettlementToken",
      "outputs": [
        {
          "internalType": "address",
          "name": "",
          "type": "address"
        }
      ],
      "stateMutability": "view",
      "type": "function"
    },
    {
      "inputs": [],
      "name": "getTotalDebt",
      "outputs": [
        {
          "internalType": "uint256",
          "name": "",
          "type": "uint256"
        }
      ],
      "stateMutability": "view",
      "type": "function"
    },
    {
      "inputs": [],
      "name": "getTrustedForwarder",
      "outputs": [
        {
          "internalType": "address",
          "name": "",
          "type": "address"
        }
      ],
      "stateMutability": "view",
      "type": "function"
    },
    {
      "inputs": [
        {
          "internalType": "address",
          "name": "insuranceFundArg",
          "type": "address"
        },
        {
          "internalType": "address",
          "name": "clearingHouseConfigArg",
          "type": "address"
        },
        {
          "internalType": "address",
          "name": "positionMgmtArg",
          "type": "address"
        },
        {
          "internalType": "address",
          "name": "marketTakerArg",
          "type": "address"
        }
      ],
      "name": "initialize",
      "outputs": [],
      "stateMutability": "nonpayable",
      "type": "function"
    },
    {
      "inputs": [
        {
          "internalType": "address",
          "name": "forwarder",
          "type": "address"
        }
      ],
      "name": "isTrustedForwarder",
      "outputs": [
        {
          "internalType": "bool",
          "name": "",
          "type": "bool"
        }
      ],
      "stateMutability": "view",
      "type": "function"
    },
    {
      "inputs": [],
      "name": "owner",
      "outputs": [
        {
          "internalType": "address",
          "name": "",
          "type": "address"
        }
      ],
      "stateMutability": "view",
      "type": "function"
    },
    {
      "inputs": [],
      "name": "pause",
      "outputs": [],
      "stateMutability": "nonpayable",
      "type": "function"
    },
    {
      "inputs": [],
      "name": "paused",
      "outputs": [
        {
          "internalType": "bool",
          "name": "",
          "type": "bool"
        }
      ],
      "stateMutability": "view",
      "type": "function"
    },
    {
      "inputs": [],
      "name": "renounceOwnership",
      "outputs": [],
      "stateMutability": "nonpayable",
      "type": "function"
    },
    {
      "inputs": [
        {
          "internalType": "address",
          "name": "clearingHouseArg",
          "type": "address"
        }
      ],
      "name": "setClearingHouse",
      "outputs": [],
      "stateMutability": "nonpayable",
      "type": "function"
    },
    {
      "inputs": [
        {
          "internalType": "address",
          "name": "newOwner",
          "type": "address"
        }
      ],
      "name": "setOwner",
      "outputs": [],
      "stateMutability": "nonpayable",
      "type": "function"
    },
    {
      "inputs": [
        {
          "internalType": "address",
          "name": "trustedForwarderArg",
          "type": "address"
        }
      ],
      "name": "setTrustedForwarder",
      "outputs": [],
      "stateMutability": "nonpayable",
      "type": "function"
    },
    {
      "inputs": [],
      "name": "unpause",
      "outputs": [],
      "stateMutability": "nonpayable",
      "type": "function"
    },
    {
      "inputs": [],
      "name": "updateOwner",
      "outputs": [],
      "stateMutability": "nonpayable",
      "type": "function"
    },
    {
      "inputs": [],
      "name": "versionRecipient",
      "outputs": [
        {
          "internalType": "string",
          "name": "",
          "type": "string"
        }
      ],
      "stateMutability": "pure",
      "type": "function"
    },
    {
      "inputs": [
        {
          "internalType": "address",
          "name": "token",
          "type": "address"
        },
        {
          "internalType": "uint256",
          "name": "amount",
          "type": "uint256"
        }
      ],
      "name": "withdraw",
      "outputs": [],
      "stateMutability": "nonpayable",
      "type": "function"
    }
  ],
  "bytecode": "0x608060405234801561001057600080fd5b506128fc806100206000396000f3fe608060405234801561001057600080fd5b50600436106101c45760003560e01c8063715018a6116100f9578063c399944411610097578063da74222811610071578063da74222814610322578063f3fef3a314610335578063f8b2cb4f14610348578063f8c8765e1461035b576101c4565b8063c3999444146102ff578063c575ff7914610312578063ce1b815f1461031a576101c4565b80638e8499ba116100d35780638e8499ba146102d4578063aa2a8294146102dc578063b3db428b146102e4578063bc5920ba146102f7576101c4565b8063715018a6146102bc5780638456cb59146102c45780638da5cb5b146102cc576101c4565b8063449323d81161016657806355338fc11161014057806355338fc114610284578063572b6c051461028c5780635c975abb146102ac5780636c8381f8146102b4576101c4565b8063449323d81461024957806347e7ef241461025c578063486ff0cd1461026f576101c4565b8063313ce567116101a2578063313ce5671461020457806334ce998a146102195780633f4ba83a1461022e5780633ffd130314610236576101c4565b806312803c7d146101c957806313af4035146101e7578063158626f7146101fc575b600080fd5b6101d161036e565b6040516101de9190612112565b60405180910390f35b6101fa6101f5366004611f1e565b610384565b005b6101d1610470565b61020c610480565b6040516101de919061262d565b61022161048a565b6040516101de919061216e565b6101fa610491565b610221610244366004611ff1565b6104da565b6101fa610257366004611f1e565b6106a0565b6101fa61026a366004612029565b610730565b6102776107d4565b6040516101de9190612177565b6101d16107f3565b61029f61029a366004611f1e565b610803565b6040516101de9190612163565b61029f610817565b6101d1610820565b6101fa61082f565b6101fa6108c4565b6101d161090b565b6101d161091a565b6101d161092a565b6101fa6102f2366004611fb1565b61093a565b6101fa610a05565b61022161030d366004611f1e565b610ac8565b6101d1610b6d565b6101d1610b7d565b6101fa610330366004611f1e565b610b8c565b6101fa610343366004612029565b610c05565b610221610356366004611f1e565b610fbc565b6101fa610369366004611f56565b610fef565b6101305461010090046001600160a01b03165b90565b61038c611283565b6001600160a01b031661039d61090b565b6001600160a01b0316146103cc5760405162461bcd60e51b81526004016103c3906122f9565b60405180910390fd5b6001600160a01b0381166103f25760405162461bcd60e51b81526004016103c3906125ed565b6065546001600160a01b03828116911614156104205760405162461bcd60e51b81526004016103c3906122d9565b6066546001600160a01b038281169116141561044e5760405162461bcd60e51b81526004016103c39061227a565b606680546001600160a01b0319166001600160a01b0392909216919091179055565b610133546001600160a01b031690565b6101305460ff1690565b6101365490565b610499611283565b6001600160a01b03166104aa61090b565b6001600160a01b0316146104d05760405162461bcd60e51b81526004016103c3906122f9565b6104d8611292565b565b610134546040516380f57f1160e01b815260009182916001600160a01b03909116906380f57f1190610510908790600401612112565b60206040518083038186803b15801561052857600080fd5b505afa15801561053c573d6000803e3d6000fd5b505050506040513d601f19601f820116820180604052508101906105609190612074565b6101325460405163bba85bcf60e01b8152919250600091829182916001600160a01b039091169063bba85bcf9061059b908a90600401612112565b60606040518083038186803b1580156105b357600080fd5b505afa1580156105c7573d6000803e3d6000fd5b505050506040513d601f19601f820116820180604052508101906105eb919061208c565b6101305492955090935091506000906106249060ff1661060a84611300565b61061488886127e5565b61061e919061263b565b9061132d565b61062d89610fbc565b610637919061263b565b6101305490915060009061064f90859060ff1661132d565b610659908361263b565b905060006106678a8a611356565b6101305490915061067e9060ff1661061e83611300565b61068884846113f0565b61069291906127e5565b9a9950505050505050505050565b6106a8611283565b6001600160a01b03166106b961090b565b6001600160a01b0316146106df5760405162461bcd60e51b81526004016103c3906122f9565b6106f1816001600160a01b0316611406565b61070d5760405162461bcd60e51b81526004016103c39061235f565b61013580546001600160a01b0319166001600160a01b0392909216919091179055565b610738610817565b156107555760405162461bcd60e51b81526004016103c3906123bf565b600260015414156107785760405162461bcd60e51b81526004016103c3906125b6565b60026001556101305482906001600160a01b0380831661010090920416146107b25760405162461bcd60e51b81526004016103c39061229a565b60006107bc611283565b90506107ca8182868661140c565b5050600180555050565b6040805180820190915260058152640322e302e360dc1b602082015290565b610134546001600160a01b031690565b60fd546001600160a01b0390811691161490565b60995460ff1690565b6066546001600160a01b031690565b610837611283565b6001600160a01b031661084861090b565b6001600160a01b03161461086e5760405162461bcd60e51b81526004016103c3906122f9565b6065546040516000916001600160a01b0316907f8be0079c531659141344cd1fd0a4f28419497f9722a3daafe3b4186f6b6457e0908390a3606580546001600160a01b0319908116909155606680549091169055565b6108cc611283565b6001600160a01b03166108dd61090b565b6001600160a01b0316146109035760405162461bcd60e51b81526004016103c3906122f9565b6104d86116ba565b6065546001600160a01b031690565b610132546001600160a01b031690565b610131546001600160a01b031690565b610942610817565b1561095f5760405162461bcd60e51b81526004016103c3906123bf565b600260015414156109825760405162461bcd60e51b81526004016103c3906125b6565b60026001556101305482906001600160a01b0380831661010090920416146109bc5760405162461bcd60e51b81526004016103c39061229a565b6001600160a01b0384166109e25760405162461bcd60e51b81526004016103c39061239f565b60006109ec611283565b90506109fa8186868661140c565b505060018055505050565b6066546001600160a01b0316610a2d5760405162461bcd60e51b81526004016103c390612597565b610a35611283565b6066546001600160a01b03908116911614610a625760405162461bcd60e51b81526004016103c3906121ec565b6066546065546040516001600160a01b0392831692909116907f8be0079c531659141344cd1fd0a4f28419497f9722a3daafe3b4186f6b6457e090600090a360668054606580546001600160a01b03199081166001600160a01b03841617909155169055565b6000610b67610b62610b5b8461013160009054906101000a90046001600160a01b03166001600160a01b031663543ce73a6040518163ffffffff1660e01b815260040160206040518083038186803b158015610b2357600080fd5b505afa158015610b37573d6000803e3d6000fd5b505050506040513d601f19601f8201168201806040525081019061024491906120b9565b6000611715565b611725565b92915050565b610135546001600160a01b031690565b60fd546001600160a01b031690565b610b94611283565b6001600160a01b0316610ba561090b565b6001600160a01b031614610bcb5760405162461bcd60e51b81526004016103c3906122f9565b610bdd816001600160a01b0316611406565b610bf95760405162461bcd60e51b81526004016103c39061248e565b610c0281611747565b50565b610c0d610817565b15610c2a5760405162461bcd60e51b81526004016103c3906123bf565b60026001541415610c4d5760405162461bcd60e51b81526004016103c3906125b6565b60026001556101305482906001600160a01b038083166101009092041614610c875760405162461bcd60e51b81526004016103c39061229a565b6000610c91611283565b610135546040516375cdc89760e11b81529192506001600160a01b03169063eb9b912e90610cc3908490600401612112565b600060405180830381600087803b158015610cdd57600080fd5b505af1158015610cf1573d6000803e3d6000fd5b50506101325460405163fd6ceee560e01b8152600093506001600160a01b03909116915063fd6ceee590610d29908590600401612112565b602060405180830381600087803b158015610d4357600080fd5b505af1158015610d57573d6000803e3d6000fd5b505050506040513d601f19601f82011682018060405250810190610d7b9190612074565b90506000610dd28361013160009054906101000a90046001600160a01b03166001600160a01b031663543ce73a6040518163ffffffff1660e01b815260040160206040518083038186803b158015610b2357600080fd5b9050610ddd85611300565b61013054610def90849060ff1661132d565b610df9908361263b565b1215610e175760405162461bcd60e51b81526004016103c3906124e5565b6040516370a0823160e01b81526000906001600160a01b038816906370a0823190610e46903090600401612112565b60206040518083038186803b158015610e5e57600080fd5b505afa158015610e72573d6000803e3d6000fd5b505050506040513d601f19601f82011682018060405250810190610e969190612074565b905085811015610f2a576000610eac8288612824565b6101335460405163317afabb60e21b81529192506001600160a01b03169063c5ebeaec90610ede90849060040161216e565b600060405180830381600087803b158015610ef857600080fd5b505af1158015610f0c573d6000803e3d6000fd5b50505050806101366000828254610f23919061267c565b9091555050505b610f598488610f3889611300565b61013054610f4a90889060ff1661132d565b610f5491906127e5565b61179d565b610f64878588611801565b836001600160a01b0316876001600160a01b03167fd1c19fbcd4551a5edfb66d43d2e337c04837afda3482b42bdf569a8fccdae5fb88604051610fa7919061216e565b60405180910390a35050600180555050505050565b6001600160a01b039081166000908152610137602090815260408083206101305461010090049094168352929052205490565b600054610100900460ff1680611008575060005460ff16155b6110245760405162461bcd60e51b81526004016103c390612440565b600054610100900460ff1615801561104f576000805460ff1961ff0019909116610100171660011790555b6000856001600160a01b03166321df0da76040518163ffffffff1660e01b815260040160206040518083038186803b15801561108a57600080fd5b505afa15801561109e573d6000803e3d6000fd5b505050506040513d601f19601f820116820180604052508101906110c29190611f3a565b90506000816001600160a01b031663313ce5676040518163ffffffff1660e01b815260040160206040518083038186803b1580156110ff57600080fd5b505afa158015611113573d6000803e3d6000fd5b505050506040513d601f19601f8201168201806040525081019061113791906120d5565b905060128160ff16111561115d5760405162461bcd60e51b81526004016103c39061260d565b61116f866001600160a01b0316611406565b61118b5760405162461bcd60e51b81526004016103c39061223a565b61119d856001600160a01b0316611406565b6111b95760405162461bcd60e51b81526004016103c3906122b9565b6111cb846001600160a01b0316611406565b6111e75760405162461bcd60e51b81526004016103c39061237f565b6111ef61185c565b6111f76118d8565b610130805460ff191660ff9290921691909117610100600160a81b0319166101006001600160a01b039384160217905561013380546001600160a01b03199081168884161790915561013180548216878416179055610132805482168684161790556101348054909116918416919091179055801561127c576000805461ff00191690555b5050505050565b600061128d611948565b905090565b61129a610817565b6112b65760405162461bcd60e51b81526004016103c39061220c565b6099805460ff191690557f5db9ee0a495bf2e6ff9c91a7834c1ba4fdd244a5e8aa4e537bd38aeae4b073aa6112e9611283565b6040516112f69190612112565b60405180910390a1565b60006001600160ff1b038211156113295760405162461bcd60e51b81526004016103c390612505565b5090565b600061133a82601261283b565b61134590600a612714565b61134f9084612694565b9392505050565b6101325460405163293a507760e01b815260009182916001600160a01b039091169063293a50779061138c908790600401612112565b60206040518083038186803b1580156113a457600080fd5b505afa1580156113b8573d6000803e3d6000fd5b505050506040513d601f19601f820116820180604052508101906113dc9190612074565b90506113e88184611978565b949350505050565b60008183126113ff578161134f565b5090919050565b3b151590565b61141a8383610f5484611300565b6040516370a0823160e01b81526000906001600160a01b038416906370a0823190611449903090600401612112565b60206040518083038186803b15801561146157600080fd5b505afa158015611475573d6000803e3d6000fd5b505050506040513d601f19601f820116820180604052508101906114999190612074565b90506114a78386308561198d565b8181846001600160a01b03166370a08231306040518263ffffffff1660e01b81526004016114d59190612112565b60206040518083038186803b1580156114ed57600080fd5b505afa158015611501573d6000803e3d6000fd5b505050506040513d601f19601f820116820180604052508101906115259190612074565b61152f9190612824565b1461154c5760405162461bcd60e51b81526004016103c39061225b565b61013154604080516385eacc7760e01b815290516000926001600160a01b0316916385eacc77916004808301926020929190829003018186803b15801561159257600080fd5b505afa1580156115a6573d6000803e3d6000fd5b505050506040513d601f19601f820116820180604052508101906115ca9190612074565b905080846001600160a01b03166370a08231306040518263ffffffff1660e01b81526004016115f99190612112565b60206040518083038186803b15801561161157600080fd5b505afa158015611625573d6000803e3d6000fd5b505050506040513d601f19601f820116820180604052508101906116499190612074565b11156116675760405162461bcd60e51b81526004016103c3906123e9565b846001600160a01b0316846001600160a01b03167f8752a472e571a816aea92eec8dae9baf628e840f4929fbcc2d155e6233ff68a7856040516116aa919061216e565b60405180910390a3505050505050565b6116c2610817565b156116df5760405162461bcd60e51b81526004016103c3906123bf565b6099805460ff191660011790557f62e78cea01bee320cd4e420270b5ea74000d11b0c9f74754ebdbfc544b05a2586112e9611283565b6000818312156113ff578161134f565b6000808212156113295760405162461bcd60e51b81526004016103c39061240b565b60fd80546001600160a01b0319166001600160a01b0383161790556040517fa4388ecc389b1390354ae0c65a856c0d7dd4fb648419f5d3ac0b99e38f46fd1190611792908390612112565b60405180910390a150565b6001600160a01b03808416600090815261013760209081526040808320938616835292905220546117cf90829061263b565b6001600160a01b0393841660009081526101376020908152604080832095909616825293909352929091209190915550565b6118578363a9059cbb60e01b848460405160240161182092919061214a565b60408051601f198184030181529190526020810180516001600160e01b03166001600160e01b0319909316929092179091526119b4565b505050565b600054610100900460ff1680611875575060005460ff16155b6118915760405162461bcd60e51b81526004016103c390612440565b600054610100900460ff161580156118bc576000805460ff1961ff0019909116610100171660011790555b6118c4611a43565b8015610c02576000805461ff001916905550565b600054610100900460ff16806118f1575060005460ff16155b61190d5760405162461bcd60e51b81526004016103c390612440565b600054610100900460ff16158015611938576000805460ff1961ff0019909116610100171660011790555b611940611abb565b6118c4611b8f565b60006014361080159061195f575061195f33610803565b15611973575060131936013560601c610381565b503390565b600061134f838362ffffff16620f4240611bff565b6119ae846323b872dd60e01b85858560405160240161182093929190612126565b50505050565b6000611a09826040518060400160405280602081526020017f5361666545524332303a206c6f772d6c6576656c2063616c6c206661696c6564815250856001600160a01b0316611cc19092919063ffffffff16565b8051909150156118575780806020019051810190611a279190612054565b6118575760405162461bcd60e51b81526004016103c39061254d565b600054610100900460ff1680611a5c575060005460ff16155b611a785760405162461bcd60e51b81526004016103c390612440565b600054610100900460ff16158015611aa3576000805460ff1961ff0019909116610100171660011790555b600180558015610c02576000805461ff001916905550565b600054610100900460ff1680611ad4575060005460ff16155b611af05760405162461bcd60e51b81526004016103c390612440565b600054610100900460ff16158015611b1b576000805460ff1961ff0019909116610100171660011790555b611b23611cd0565b6000611b2d611283565b606580546001600160a01b0319166001600160a01b038316908117909155604051919250906000907f8be0079c531659141344cd1fd0a4f28419497f9722a3daafe3b4186f6b6457e0908290a3508015610c02576000805461ff001916905550565b600054610100900460ff1680611ba8575060005460ff16155b611bc45760405162461bcd60e51b81526004016103c390612440565b600054610100900460ff16158015611bef576000805460ff1961ff0019909116610100171660011790555b611bf7611d34565b6118c4611da7565b6000808060001985870986860292508281109083900303905080611c485760008411611c3d5760405162461bcd60e51b81526004016103c3906121aa565b50829004905061134f565b808411611c5457600080fd5b6000848688096000868103871696879004966002600389028118808a02820302808a02820302808a02820302808a02820302808a02820302808a02909103029181900381900460010186841190950394909402919094039290920491909117919091029150509392505050565b60606113e88484600085611e25565b600054610100900460ff1680611ce9575060005460ff16155b611d055760405162461bcd60e51b81526004016103c390612440565b600054610100900460ff16158015611d30576000805460ff1961ff0019909116610100171660011790555b6118c45b600054610100900460ff1680611d4d575060005460ff16155b611d695760405162461bcd60e51b81526004016103c390612440565b600054610100900460ff161580156118c4576000805460ff1961ff0019909116610100171660011790558015610c02576000805461ff001916905550565b600054610100900460ff1680611dc0575060005460ff16155b611ddc5760405162461bcd60e51b81526004016103c390612440565b600054610100900460ff16158015611e07576000805460ff1961ff0019909116610100171660011790555b6099805460ff191690558015610c02576000805461ff001916905550565b606082471015611e475760405162461bcd60e51b81526004016103c390612319565b611e5085611406565b611e6c5760405162461bcd60e51b81526004016103c3906124ae565b600080866001600160a01b03168587604051611e8891906120f6565b60006040518083038185875af1925050503d8060008114611ec5576040519150601f19603f3d011682016040523d82523d6000602084013e611eca565b606091505b5091509150611eda828286611ee5565b979650505050505050565b60608315611ef457508161134f565b825115611f045782518084602001fd5b8160405162461bcd60e51b81526004016103c39190612177565b600060208284031215611f2f578081fd5b813561134f816128a0565b600060208284031215611f4b578081fd5b815161134f816128a0565b60008060008060808587031215611f6b578283fd5b8435611f76816128a0565b93506020850135611f86816128a0565b92506040850135611f96816128a0565b91506060850135611fa6816128a0565b939692955090935050565b600080600060608486031215611fc5578283fd5b8335611fd0816128a0565b92506020840135611fe0816128a0565b929592945050506040919091013590565b60008060408385031215612003578182fd5b823561200e816128a0565b9150602083013561201e816128b5565b809150509250929050565b6000806040838503121561203b578182fd5b8235612046816128a0565b946020939093013593505050565b600060208284031215612065578081fd5b8151801515811461134f578182fd5b600060208284031215612085578081fd5b5051919050565b6000806000606084860312156120a0578283fd5b8351925060208401519150604084015190509250925092565b6000602082840312156120ca578081fd5b815161134f816128b5565b6000602082840312156120e6578081fd5b815160ff8116811461134f578182fd5b6000825161210881846020870161285e565b9190910192915050565b6001600160a01b0391909116815260200190565b6001600160a01b039384168152919092166020820152604081019190915260600190565b6001600160a01b03929092168252602082015260400190565b901515815260200190565b90815260200190565b600060208252825180602084015261219681604085016020870161285e565b601f01601f19169190910160400192915050565b60208082526022908201527f64656e6f6d696e61746f72206d7573742062652067726561746572207468616e604082015261020360f41b606082015260800190565b602080825260069082015265534f5f434e4360d01b604082015260600190565b60208082526014908201527314185d5cd8589b194e881b9bdd081c185d5cd95960621b604082015260600190565b602080825260079082015266565f4348434e4360c81b604082015260600190565b602080825260059082015264565f49424160d81b604082015260600190565b602080825260069082015265534f5f53414360d01b604082015260600190565b6020808252600590820152641597d3d4d560da1b604082015260600190565b602080825260069082015265565f504d4e4360d01b604082015260600190565b602080825260069082015265534f5f53414f60d01b604082015260600190565b602080825260069082015265534f5f434e4f60d01b604082015260600190565b60208082526026908201527f416464726573733a20696e73756666696369656e742062616c616e636520666f6040820152651c8818d85b1b60d21b606082015260800190565b602080825260069082015265565f43484e4360d01b604082015260600190565b602080825260069082015265565f4d544e4360d01b604082015260600190565b602080825260069082015265565f44465a4160d01b604082015260600190565b60208082526010908201526f14185d5cd8589b194e881c185d5cd95960821b604082015260600190565b602080825260089082015267565f47545354424360c01b604082015260600190565b6020808252818101527f53616665436173743a2076616c7565206d75737420626520706f736974697665604082015260600190565b6020808252602e908201527f496e697469616c697a61626c653a20636f6e747261637420697320616c72656160408201526d191e481a5b9a5d1a585b1a5e995960921b606082015260800190565b602080825260069082015265565f54464e4360d01b604082015260600190565b6020808252601d908201527f416464726573733a2063616c6c20746f206e6f6e2d636f6e7472616374000000604082015260600190565b602080825260069082015265565f4e45464360d01b604082015260600190565b60208082526028908201527f53616665436173743a2076616c756520646f65736e27742066697420696e2061604082015267371034b73a191a9b60c11b606082015260800190565b6020808252602a908201527f5361666545524332303a204552433230206f7065726174696f6e20646964206e6040820152691bdd081cdd58d8d9595960b21b606082015260800190565b6020808252600590820152640534f5f43360dc1b604082015260600190565b6020808252601f908201527f5265656e7472616e637947756172643a207265656e7472616e742063616c6c00604082015260600190565b6020808252600690820152650534f5f4e57360d41b604082015260600190565b6020808252600690820152651597d254d51160d21b604082015260600190565b60ff91909116815260200190565b600080821280156001600160ff1b038490038513161561265d5761265d61288a565b600160ff1b83900384128116156126765761267661288a565b50500190565b6000821982111561268f5761268f61288a565b500190565b6000826126af57634e487b7160e01b81526012600452602481fd5b600160ff1b8214600019841416156126c9576126c961288a565b500590565b80825b60018086116126e0575061270b565b8187048211156126f2576126f261288a565b808616156126ff57918102915b9490941c9380026126d1565b94509492505050565b600061134f60001960ff8516846000826127305750600161134f565b8161273d5750600061134f565b8160018114612753576002811461275d5761278a565b600191505061134f565b60ff84111561276e5761276e61288a565b6001841b9150848211156127845761278461288a565b5061134f565b5060208310610133831016604e8410600b84101617156127bd575081810a838111156127b8576127b861288a565b61134f565b6127ca84848460016126ce565b8086048211156127dc576127dc61288a565b02949350505050565b60008083128015600160ff1b8501841216156128035761280361288a565b6001600160ff1b038401831381161561281e5761281e61288a565b50500390565b6000828210156128365761283661288a565b500390565b600060ff821660ff8416808210156128555761285561288a565b90039392505050565b60005b83811015612879578181015183820152602001612861565b838111156119ae5750506000910152565b634e487b7160e01b600052601160045260246000fd5b6001600160a01b0381168114610c0257600080fd5b62ffffff81168114610c0257600080fdfea2646970667358221220a8a7836bc6eba8efef33a4c8113a8bb760db9342ba3cc925fd8317a432f9d6b164736f6c63430008000033",
  "linkReferences": {},
  "deployedLinkReferences": {}
}